:020000040801F1
:1000000090750320DD010108B57001088D650108B8
:10001000B1700108730C01088D9001080000000008
:10002000000000000000000000000000EF010108D7
:100030000516010800000000F301010839810108DC
:10004000F7010108F7010108F7010108F7010108AC
:10005000F7010108F7010108F7010108F70101089C
:10006000F7010108F7010108F7010108F70101088C
:10007000F7010108F7010108F7010108F70101087C
:10008000F7010108F7010108F7010108F70101086C
:10009000F7010108F7010108F7010108F70101085C
:1000A000F7010108F7010108F7010108F70101084C
:1000B000F7010108F7010108F7010108F70101083C
:1000C000F7010108F7010108F7010108F70101082C
:1000D000F70101087590010881900108F7010108F6
:1000E000F7010108F7010108F7010108F70101080C
:1000F000F7010108F7010108F7010108F7010108FC
:10010000F7010108F7010108F7010108F7010108EB
:10011000F7010108F7010108F7010108F7010108DB
:10012000F7010108F7010108F7010108F7010108CB
:10013000F7010108F7010108F7010108F7010108BB
:10014000F7010108F7010108F7010108F7010108AB
:10015000F7010108F7010108F7010108F70101089B
:10016000F7010108F7010108F7010108F70101088B
:10017000F7010108F7010108F7010108000000007C
:10018000F7010108F7010108F7010108F70101086B
:10019000F7010108F7010108F7010108F70101085B
:1001A000796E0108F7010108B9150108F701010886
:1001B000917C0108F7010108F7010108F701010826
:1001C000F7010108F7010108DFF80CD000F06CFB23
:1001D0000048004799980108907503200648804719
:1001E00006480047FEE7FEE7FEE7FEE7FEE7FEE71C
:1001F000FEE7FEE7FEE7FEE755810108C9010108B9
:1002000010B5441A0346944209D28318114403E0FE
:1002100011F8014D03F8014D521EF9D210BD40EA0C
:100220000104A40703D009E010C9121F10C3042A57
:10023000FAD203E011F8014B03F8014B521EF9D238
:1002400010BDD2B201E000F8012B491EFBD270476D
:100250000022F6E710B513460A4604461946FFF792
:10026000F0FF204610BD421C10F8011B0029FBD1F5
:10027000801A704730B504460020034600E05B1C3E
:10028000934203D2E05CCD5C401BF8D030BD034606
:1002900011F8012B00F8012B002AF9D118467047FC
:1002A0002DE9FE4F804681EA0300C00F0C46009006
:1002B00021F0004123F00045B8EB0200A94105D22E
:1002C0004046214690461C460B46024623F000401D
:1002D000104347D0270DC7F30A00C3F30A51029019
:1002E000401A019040286BDAC3F3130040F4801BDE
:1002F0000098924620B10023D2EB030A63EB0B0B6C
:1003000001985946C0F14002504600F0D8F906461F
:100310000D4650465946019A00F0F0F910EB0800DE
:100320006141002487EA115284EAE7731A4340D0FE
:10033000009A62B3019A012A4FEA075215DC001BAA
:1003400061EB02014FF0004202EA0752CDE90042A0
:10035000001C41F5801132462B4600F027FA03B00D
:10036000BDE8F08F40462146F9E7001B61EB020132
:10037000001C41F5801300185B412018A2F50017FE
:1003800047EB030140EAD570B6196D4111E06D08E5
:100390004FEA360645EAC0754FEA0752001B61EB8B
:1003A0000201001C41F5801149084FEA3000001994
:1003B000514132462B4603B0BDE8F04F00F0E7B99B
:1003C0000098012240000023D0EB020263EBE073AF
:1003D000009821464FEAE074B8EB000061EB04019D
:1003E000E9E783F000435BE781F0004158E72DE93E
:1003F000FE4F81EA030404F0004421F00041009420
:100400004FF0000B23F0004350EA01045ED052EAA3
:1004100003045BD0C3F30A54C1F30A552C44A4F27D
:10042000F3340194A0FB0254C1F3130141F4801191
:10043000C3F3130343F4801301FB024400FB034E98
:10044000840A970A44EA815447EA8357A4FB076861
:1004500002958D0A05FB07854FEA932C04FB0C548B
:100460002705029D4FEA065847EA1637B5EB0805FF
:100470006EEB070C870E920E47EA811742EA831251
:10048000A7FB0201B6EB0B0164EB00042B0D43EA62
:100490000C335E1844EB1C50DA465146E7FB020170
:1004A000C5F313044FEA0B3343EA14534FEA043203
:1004B000019C43EA0603A4F10C040294009CCDE9DC
:1004C00000B400F073F903B0BDE8F08F00200146DE
:1004D000F9E72DE9F04D81EA030404F0004B21F027
:1004E000004514464FF0000A23F0004150EA05028F
:1004F00020D054EA01021DD0C5F30A570246C5F3C5
:100500001303C1F31300C1F30A5640F4801543F4FA
:100510008013A7EB0608101BD64608F2FD3873EBD4
:10052000050002D308F1010801E092185B41B8F11F
:10053000000F03DA00200146BDE8F08D00204FF4E3
:100540008011064684460EE0171B73EB050705D3A2
:10055000121B63EB050306434CEA010C49084FEA02
:10056000300092185B4150EA0107EDD152EA0300D6
:1005700012D082EA040083EA0501084305D0101B6B
:10058000AB4106D20122002306E000224FF00043D7
:1005900002E06FF0010253101AEB06004CEB085119
:1005A00010EB0A0041EB0B01BDE8F04D00F0EFB895
:1005B0000EB5C10F80EAE0700844CA07002140F27E
:1005C00033438DE80E000A460B4600F0EFF803B007
:1005D00000BD00F0004230F000400AD0C10D01F52E
:1005E0006071C0F3160042EA0151C208400711438E
:1005F000704700200146704701F0004330B421F0FD
:10060000004150EA010206D00A0DA2F56072C1F362
:100610001301002A02DC30BC00207047440F44EA7A
:10062000C104C100E01830BC00EBC25000F078B843
:1006300030B50B46014600202022012409E021FAB2
:1006400002F59D4205D303FA02F5491B04FA02F5AF
:100650002844151EA2F10102F1DC30BD2DE9F05F46
:100660000546002092469B46884606468146402421
:100670001BE0284641464746224600F02FF85346E5
:100680005A46C01A914110D311461846224600F02E
:1006900016F82D1A67EB01084F462246012000216B
:1006A00000F00DF817EB00094E41201EA4F10104E3
:1006B000DFDC484631462A464346BDE8F09F202A03
:1006C00004DB203A00FA02F1002070479140C2F1A9
:1006D000200320FA03F3194390407047202A04DBDB
:1006E000203A21FA02F00021704721FA02F3D040AB
:1006F000C2F120029140084319467047202A06DBC8
:10070000CB17203A41FA02F043EAE07306E041FADF
:1007100002F3D040C2F120029140084319467047CD
:100720000029A8BF7047401C490008BF20F0010005
:10073000704710B4B0FA80FC00FA0CF050EA0104E3
:1007400004BF10BC704749B1CCF1200421FA04F475
:1007500011FA0CF118BF012121430843A3EB0C014E
:10076000CB1D4FEA00614FEA102042BF002010BCB1
:10077000704700EBC35010440029A4BF10BC704761
:10078000401C490008BF20F0010010BC704710B5A4
:10079000141E73F1000408DA401C41F100019218A4
:1007A0005B411A4301D120F0010010BD2DE9F04D4D
:1007B00092469B4611B1B1FA81F202E0B0FA80F2A2
:1007C00020329046FFF77BFF04460F4640EA0A00BE
:1007D00041EA0B0153465A46084313D0114653EAE7
:1007E000010019D0C8F140025046FFF777FF0546D7
:1007F0000E46504659464246FFF761FF084305D072
:10080000012004E020463946BDE8F08D0020054374
:1008100046EAE0762C4337430A986305E40AA0EBE6
:1008200008000022FD0A44EA47540A3002D500209D
:100830000146E9E7010510196941DDE9084500199C
:100840006941BDE8F04DA2E7C1F30A52C1F31301BB
:1008500040F2FF3341F480119A4202DA002001464F
:10086000704740F233439A42A2F2334202DC5242D2
:10087000FFF734BFFFF723BF30B5041E71F100044A
:1008800004DB4FF00044404264EB0101141E73F19D
:10089000000405DB1C464FF00043524263EB0403A7
:1008A000994208BF904230BD064C074D06E0E06813
:1008B00040F0010394E8070098471034AC42F6D3A7
:1008C000FFF786FCD8BE030808BF030870B58C1874
:1008D00010F8015B15F0070301D110F8013B2A1154
:1008E00006D110F8012B03E010F8016B01F8016B41
:1008F0005B1EF9D12B0705D40023521E0DD401F83D
:10090000013BFAE710F8013BCB1A921C03E013F805
:10091000015B01F8015B521EF9D5A142D8D300203A
:1009200070BD00002DE9FC47204D4FF0010945F84E
:10093000049F804600244FF0100A1D4F4FF6FF72AF
:1009400005F12C0629463046C5E901A9EC60019461
:10095000B847012001F030FB02202946C5E9000A12
:1009600030464FF6FF72C5E90294B84708200321CC
:10097000C5E9001AC5E90204304629464FF6FF7260
:10098000B8474FF40871042001914FF6FF720199A6
:10099000C5E9000AC5E9029130462946B847304604
:1009A0004146BDE8FC4705F062BB00BF6C0A012070
:1009B000916001082DE9F04F85B080465F4881685D
:1009C0004FF00C0B41F001014FF0030A816000274A
:1009D0008168022401F00101594D00916E46009991
:1009E000DFF86091016841F480010160016801F461
:1009F000800100910099016841F0010101600168E6
:100A000001F0010100910099016841F004010160C9
:100A1000016801F0040100910099016841F00801AA
:100A20000160016801F0080100910099016841F03E
:100A300010010160016801F0100100910099016846
:100A400041F020010160016801F02001009100994E
:100A5000016841F0400101603146006800F040004B
:100A600000900098CDF810B04FF63F00CDF80CA0E4
:100A700002970194009005F5A050C84701A831469F
:100A800080E8900C802000902846C84701A8314695
:100A900080E8900C3020009005F50060C84701A860
:100AA000314680E8900C48F23310009005F5C050B4
:100AB000C84701A8314680E8900C4FF6837000903B
:100AC00005F58050C84701A8314680E8900C4CF2EB
:100AD0000370009005F54060C8471B4D4FF400308F
:100AE00005F12001194C81E88104C5E90B774FF429
:100AF00080404FF480514FF480624FF40073C5E999
:100B000000478024C5E90243C5E90421C5E9060779
:100B10002846C8F83050C5F8388002F03BFE284619
:100B200002F060FE38200F21002203F0C7FE3820BB
:100B300003F0B6FE05B0BDE8F08F00BF30380240CC
:100B400000000240D5390108D40C01201064024095
:100B50002DE9F04F8BB0DFF80491824699F8000040
:100B6000D9F808100969884700288AF8000070D071
:100B700000260DF10E040DF1040B4FF00008C0B279
:100B8000804566D299F80000D9F80830A1190BEB1E
:100B900006025B69984799F80100012808D1A15B1A
:100BA0000DF1220006AA81533BF8060090531FE086
:100BB000810705D5A15B0DF12202C1F5805191534A
:100BC000410705D53BF8061006AAC1F5805191539F
:100BD000000705D406A80DF12201805B895B07E0C0
:100BE000A05B06A90DF1220288533BF80610915331
:100BF00009EB4605EB682A6A5C1A38BFCC1A171A4B
:100C000038BF871ABFB217FA84F4062C03D3024602
:100C10000B462862E96099F80040702C03D10AEB7A
:100C2000060251800AE0B9F802100AEB06005943A7
:100C3000090B4180B9F804005043000B0AEB060190
:100C40000DF10E04888102369AF8000008F10108BF
:100C500095E700200BB0BDE8F08F00BFE40901204C
:100C600000F00F01000900EB800001EB4000C0B272
:100C7000704707F057B90000B0B50F4C0F4D206B0F
:100C8000A847606BA847A06BA847E06BA847206CFB
:100C9000A847606CA847A06CA847E06CA847206DE7
:100CA000A847606DA847A06DA847E06DA847606A97
:100CB00020F400706062B0BDF40B0120E52402084E
:100CC0001CB50CF0E5FA1A480CF0A4FF012012F054
:100CD0000BF90DF009FA00200DF040F80BF051FD72
:100CE00001200DF03BF84FF07F400DF04FF80BF076
:100CF00048FD0DF103003021052200F0B5FC9DF800
:100D000003100C489DF804209DF805309DF806401E
:100D100080F84E109DF8071080F8522080F8563069
:100D200080F85A4080F85E100CF036F91CBD00BF08
:100D3000B9700108700C01202DE9F04F85B000203A
:100D400000270DF00BF80BF01CFD012001240DF025
:100D500005F84FF07F400DF019F80BF012FD01205F
:100D60000CF048FEDFF85864DFF8581430460122D2
:100D700005F000F8DFF850143046012204F0CEFFF1
:100D800002214FF40160CDE9007102A94FF05A0B26
:100D900081E81108DFF834440A2014215A221E2366
:100DA000A047A246DFF82844DFF82854022120613A
:100DB000A847DFF82494206999F80C10DFF81C6428
:100DC000B04740F611004FF0020800973C21CDE9F2
:100DD000018001205A22CDE9030B0A201E23D047AF
:100DE00002216061A84799F80D106069B04740F68C
:100DF0001201F020CDE9007802910121CDE9031024
:100E00000A2082215A221E234FF00208D0470221D5
:100E1000A061A84799F80E10A069B04740F61300EA
:100E200002A94FF0170B5A22CDE9007881E881081A
:100E30000A20AA211E234FF00208D0470221E061B8
:100E4000A84799F80F10E069B04740F6140002A9CE
:100E5000CDE9007881E881080A20D2215A221E2398
:100E60004FF00208D04702212062A84799F81010DD
:100E7000206AB04740F6160002A9CDE9007881E863
:100E80008108BE2014215A221E23D0470221C9F80E
:100E90006C00A847CB48DFF848B30078A846D9F8DB
:100EA0006C60D84701463046CC4A90473B2040F61C
:100EB000170102220097CDE90121CDE90370BE2080
:100EC0003C215A221E23D04702215546C9F8700002
:100ED000C047BC48D9F870604078C846D84701463A
:100EE0003046DFF8F892DFF8E0A2C8471F2040F64E
:100EF000180102224FF0010B00971E23CDE90121BA
:100F0000CDE903B0BE2082215A22A8470221B14E6A
:100F10004546C8F87400B0479AF80200DFF8C0A24E
:100F2000D8F87450D04701462846C8470C2040F6F0
:100F3000190102220097CDE90121CDE903B0BE20BD
:100F4000AA215A221E23DFF88482C047A24D022123
:100F5000A867B047DFF870B2AD6F9BF80100D047CB
:100F600001462846C84740F633004FF4FA6140F680
:100F70001A0202230097CDE90132CDE90310BE2009
:100F8000D2215A221E23C04702212060B0479BF87D
:100F900003002568D04700F5FA612846C8471C20A1
:100FA00040F6150102254FF0010A00975A22CDE9BB
:100FB0000151CDE903A04FF4AA7014211E23C047AC
:100FC00002216060B047844E6068F17AC84740F6FD
:100FD0001C004621CDE900704FF4AA706E22142344
:100FE0000295022509F033FB4FF47F41A06009F020
:100FF0005BFCA0687BA109F033FC716AA068C1F3B7
:10100000804109F011FC40F61F006421CDE9007514
:10101000CDE902A04FF4AA708222642309F0D8FD22
:1010200073A5E060072F06D055F8271009F0E3FC00
:101030000137E068F6E764490978013909F09FFF54
:10104000022540F60100CDE900054FF4AA70B42155
:1010500082221E2309F0F8F86C49A06209F078FAA0
:101060004FF40060E621CDE900054FF4AA7082221A
:101070001E2309F0E9F86649606209F069FAF07A1E
:10108000644951F820000CF083FE4FF4AA7033211C
:101090004FF4D7723B230BF0DBFF6FF07F400CF077
:1010A00077FE5D480CF078FE0C200CF0CBFE5B4F19
:1010B0000F200521A022B847594D0A200521A84735
:1010C00058A05D4EB0476E202321A8475BA0B047D3
:1010D0006E204B21A8475BA0B0470F20B9214FF4E9
:1010E000A072B847BE200521A84757A0B0474FF4CB
:1010F00091702321A847574C2046B0474FF4917078
:101100004B21A84754A0B0470F2040F24F1140F2A6
:10111000DB12B8474FF4AA700521A84750A0B0478A
:101120004FF4DC701A21A84750A0B0474FF4DC7090
:101130002621A8474FA0B0477D200521A022B8470F
:101140000A207321A8474DA0B0476E209121A847DF
:101150004FA0B0476E20B021A8474FA0B0476E20E7
:10116000BC21A8472046B0476E20D821A8474CA0F4
:10117000B0476E20E421A8472046B0477D20B92122
:101180004FF4A072B847BE207321A84746A0B047CD
:101190004FF491709121A84746A0B0474FF4917049
:1011A000B921A84744A0B0474FF49170E121A84766
:1011B00043A0B047012005B0BDE8F04F0CF08CBC57
:1011C000700B0120580B0120380B01202B1902084D
:1011D000700C01207F1B0208F40B0120D31B0208B6
:1011E000610C010853435245454E53415645520048
:1011F00064BC030868BC030860BC030881BC030826
:1012000085BC030853BC030857BC030889BC03080A
:101210005BBC030894B90308BCD30208E1CD010804
:1012200081D20108444953504C4159204241434B1B
:101230004C4947485400000031CA01084849474812
:10124000000000004C4F57005345542054494D4571
:101250000000000073BC03084D494E555445000082
:1012600053455420434F4C4F5200000046554C4CC0
:1012700000000000434C4F434B00000053435245D5
:10128000454E5341564552204F5054494F4E000051
:1012900054494D454F555400454E41424C45000080
:1012A00044495341424C4500534554204441544520
:1012B00000000000444159004D4F4E5448000000CA
:1012C00059454152000000002DE9F041764C064698
:1012D00020461021012200F084FE012000F06CFE67
:1012E00020461021002200F07CFE6FF07F400CF0C1
:1012F0004FFD6E480CF050FD02200CF0ADFD0E20AD
:101300000CF0A0FD4F2E18BF422E2FD164200021DB
:101310004FF4B972322300250BF042FA4F2E4ED013
:10132000422E40F0B480634EDFF88481B07900250E
:1013300008EB0001002881F8485000F0A380013834
:1013400000273224B071C1B28F4280F09C80EB2024
:1013500014210BF095FF07FB04F00F22823001B23D
:101360002A200BF045FBB0790137ECE7A6F13000FD
:10137000092822D84F4CA07930B9642000214FF4BD
:10138000B97232230BF00CFA0C200CF05BFDA07943
:10139000042808D88221322210FB02112A200F22B1
:1013A0000BF026FBA0794249014481F84860411CBA
:1013B000A171C9B2062928BFA071002567E03D4E82
:1013C0003B48B17980F84D50483006F08DFE054617
:1013D000EB2014210BF054FF42F20F7085421ED116
:1013E0004FF47F400CF0D4FC39A00BF021FB706A65
:1013F000102140F4805001227062204600F0F1FD7F
:101400004FF4FA7000F0D8FD20461021002200F0C1
:10141000E8FD4FF47A7000F0CFFD022537E0EB20B5
:1014200014210BF02DFFFF200CF0B2FC22A00BF0DA
:10143000FFFA254E204610210122B047234F3220CB
:10144000B8472046102100220025B0476420B84745
:10145000204610210122B0473220B84720461021F3
:101460000022B0476420B847204610210122B0472F
:101470003220B847204610210022B0474FF47A703E
:10148000B84704E0002058FA80F080F84850002067
:101490000CF0E2FC02F060FB064947F23052C1E971
:1014A0000A022846BDE8F081000C0240C002030891
:1014B000700C0120F40B012057524F4E4720504131
:1014C0005353574F52440000E31F0108B91F01084E
:1014D000534552564943452050415353574F524468
:1014E000204F4B0070B51E4C1E4E2069B0476069FE
:1014F000B047A068B047606CB047A069B047E069EA
:10150000B047206AB047E068B047224DE86EB04768
:10151000286FB047686FB047A86FB0472068B047E2
:101520006068B047606AB047A06A3146BDE8704065
:10153000084700BFB0B50A4C0A4DE06AA847206BC7
:10154000A847606BA847A06BA847E06BA847206C32
:10155000A847606AA847A06A2946BDE8B040084786
:10156000700C0120E524020810B50A4C606A00F4F2
:101570000811B1F5081F01D10621217020F4840063
:10158000606202F0E9FAA061207BBDE8104000F043
:1015900003B800BFF40B0120502828BF50200528B5
:1015A00098BF052000EB80000249400009684863AD
:1015B000704700BFB40B012080B5034802F006F865
:1015C00002480221016080BDE46B012008B00240A6
:1015D00010B501686FF00F0252FA81F21823B2FBC6
:1015E000F3F306A45F2AE35C40F2FF3421EA04012E
:1015F00088BF0431C0E91613084610BD0006101656
:1016000000061016704781B000210091C1B20A296E
:1016100004D300990A3801310091F7E700990901D4
:101620000091009951FA80F000900098C0B201B08A
:10163000704705F019B980B5FFF7FBFFA02040F611
:10164000B83100F009F828B1A8209121BDE8804008
:1016500000F096B880BD00000A46014640484FF4AD
:101660007A7302F0FBBA00BF80B513460246A02091
:1016700000F002F880BD00001CB50C4699B2CDE91F
:101680000021C1B236482246022305F067F91CBD8D
:101690002DE9F8430C46054602F03F08960911F083
:1016A0003F001DD01746C0F1400936B328462146F9
:1016B0004A4600F057F8E8BBA7EB09004D4400F09C
:1016C0003F0780B24C448609300435D0A1B2284689
:1016D000402200F047F868BB013E40354034F3E754
:1016E000E6B130041DD0A1B22846402200F03AF8FD
:1016F00000BB013E40354034F3E7B9450ED22846E1
:1017000021464A4600F02EF8A0B909EB0401A7EBE8
:10171000090205EB090089B292B208E02846214689
:1017200004E0B8F1000F0CD0A1B22846424600F008
:1017300019F830B1BDE8F8831FB1A1B228463A4686
:10174000F5E70020BDE8F8831CB50C4699B2CDE959
:101750000021C1B202482246022305F031F91CBD26
:10176000706C012080B513460246A020FFF7ECFF05
:1017700000B180BDA02040F6B831FFF76DFF80BDFD
:1017800006F0D0BB2DE9F0410B680268012B1ED199
:10179000D1E9073422F4F84201F10C0C1A43D1E9E3
:1017A00001E8496A224311439CE8E0104268016065
:1017B00047F6FF7122EA010141EA0E0141EA080100
:1017C00029433143394341EA0C01416017E047F6B0
:1017D000FF730F1D22EA030CD1F82080F8CFD1E966
:1017E000062E43EA0C03496A23432B4333433B430E
:1017F0001A4342EA0E0242EA080211430160002045
:10180000BDE8F081426942EA410141610020704730
:10181000F8B5054600200090144691E80D006FF0E1
:101820001F06C96806EB43131043184340EA4120E2
:1018300000900098286102F08FF90646671CA8699D
:10184000800609D5002FFAD024B102F085F9801B5B
:10185000A042F4D90320F8BD0020F8BDF0B583689C
:10186000012A27D1294A1A4091E87810D1E9057E4A
:101870002349013B01EB06311143234A02EB075296
:101880001143C26881606FF00F0102F0704201EBFA
:1018900004111A4311436FF0FF0202EB05221143BA
:1018A000184A02EB0C421143AEF1010241EA026117
:1018B000C16022E091E874006FF00F0703F07043FD
:1018C000013A07EB04141A436FF0FF03224303EBC2
:1018D00005231A430A4B03EB06330A4C1A430B69E0
:1018E00004EB0343084C1A434B6904EB0353896927
:1018F0001A43013942EA016181600020F0BD00BF56
:1019000000F0FFFF0000FFFF0000F0FFFF0F0FFFE0
:1019100070B5494E0546307A0C46C00713D005F025
:1019200043FB2289F168606806F0E9F818B10020ED
:10193000C6E9030003E02089F1680844F06005F07F
:1019400033FB06F045F82846214606F03FFE02F03C
:1019500003F97061012070BD70B5374E0546307ACD
:10196000C00767D148680C46417A022915D1F27840
:10197000017A914212D1016809BAF160406800BA57
:10198000306105F011FBD6E90301014405F0D8FFF1
:10199000E0B30020C6E9030048E0F27841789142C4
:1019A00011D10278A13A1F2A0DD8012303FA02F2BD
:1019B000224B1A4207D02846214606F007FE6068EF
:1019C0000078B07036E0FF2934D10178D52931D1C3
:1019D0008178C27803794579194C21701949E570ED
:1019E000194DA2706370C2880A800122007A887043
:1019F000284604F095FA28462146012204F03CFAD4
:101A00001248016841F40041016013E0B068114AD6
:101A100040F001000221B0600D4806F0D2FC2846DB
:101A2000214606F0D3FD02F097F8706105F0BCFA8C
:101A300005F0CEFF012070BDF00A012001000083F7
:101A4000380B0120580B0120700B0120180C0120CD
:101A5000946E01201119010802484FF400110AF098
:101A6000E5BB00BF000060C006490A6810440A6870
:101A70009042FCDC704700BF7047000001480068DE
:101A8000704700BF940D012070470000F8B5002298
:101A9000009290F83C20012A01D1022156E0012257
:101AA00080F83C200A681FFA82FC0A2A4FEA4C049C
:101AB00014FA82F60FD31E3E072404FA06F70468D0
:101AC000254655F80C3FBB432B60324B8F689A423A
:101AD0000ED13E060EE0046807232546B34055F8B4
:101AE000107F27EA03032B608B6803FA06F601E0F8
:101AF00007FA06F62B6833432B604D68062D05D890
:101B000005EB850304F134015D1F0CE005EB850650
:101B10000C2D04D804F13001A6F1230503E004F1F3
:101B20002C01A6F141051F230E68AB4026EA0303F2
:101B30000B600CFA05F30D682B430B607149A1F59E
:101B400041739C4204D0002180F83C100846F8BD47
:101B5000112A09D00F4B9A4206D0122AF3D10A68F3
:101B600042F480020A60EEE70B6843F400030B6066
:101B700008498A42E7D1BB49BB4A0968B1FBF2F187
:101B800001EB81014900009100990029DBD0009907
:101B90000139F8E712000010B8B110B5044600682A
:101BA000216C41F002012164816821F00101816012
:101BB0008068C00705D1204600F0ACF800206064C2
:101BC0002064002084F83C0010BD012070470068AC
:101BD000C06C7047002841D070B50446006C30B925
:101BE000002084F83C006064204600F094F8206CEB
:101BF000C00635D4206C41F20211884341490230BD
:101C00002064086820F44030086094E80D002569DD
:101C10000E6832430A60416821F480714160416876
:101C200041EA05214160416821F04071416041680D
:101C30001943354B4160816821F400618160E1689E
:101C4000826811438160816821F070618160A26ABD
:101C500081689A4206D121F040510CE00120704782
:101C600001204AE011438160816821F04051816088
:101C7000E16A826811438160816821F0020181601C
:101C8000A169226A836843EA4101816041686AB1BF
:101C900041F400611D4A4160416821F460414160A6
:101CA000616A02EB41314268114301E021F40061B5
:101CB0004160174DC16A21F47001C162E269616936
:101CC000236B05EB0252C56A2A43C262826822F482
:101CD00000728260826842EA43228260826822F453
:101CE00080628260826842EA812101228160002054
:101CF0006064216C62F301012164002184F83C10CE
:101D000070BD00BF042301400100000F00E0FFFF91
:101D10000000F0FF70477047F8B5044600680D46B4
:101D20008168490544BF80685FEAC05027D401F04C
:101D300013FF06466F1C20680168890710D4002F26
:101D4000F9D025B101F008FF801BA842F3D900208B
:101D500084F83C00206C40F0040020640320F8BDAF
:101D60006FF012010160216C41F4007121648168FF
:101D700011F0405F01D1A16951B10020F8BD0020F0
:101D800084F83C00206C40F0200020640120F8BD65
:101D9000C16A11F4700F02D080684005EDD4206C48
:101DA00020F480702064206CC004E6D4206C40F0E5
:101DB00001002064E1E7000081B00021009190F86B
:101DC0003C10012901D1022049E0012180F83C109A
:101DD00001688A68D20710D18A68234B42F0010259
:101DE0008A60204A1268B2FBF3F202EB42020092D0
:101DF000009A12B1009A013AF9E78A68D2072DD009
:101E0000026C40F201739A4302F5807202644A68E0
:101E1000520504D5026C012363F30D320264026C97
:101E20000023D20444BF436C23F006030022436422
:101E30006FF022030B6080F83C200C48D0F804239C
:101E4000D20603D0814209D1806800E0886810F092
:101E5000405F03D1886840F080408860002001B076
:101E6000704700BFBC06012040420F000020014027
:101E700010B51F2321FA03F4E40704D1013B5C1CD5
:101E8000F8D14FF0FF330124B4EBF20F09D04FEA41
:101E9000F204022C10D0032C05D1062B03D901200B
:101EA00010BD0F2BFBD800684161816821F018013B
:101EB00011438160002010BD072BF0D8F3E7B0B5C7
:101EC00098B10446407F022502280FD0657700258F
:101ED0002068816841F00101816001790571204627
:101EE00000F03EF82577657700E001252846B0BD73
:101EF00010B588B10446407F20B9002020772046E5
:101F000000F02FF802206077207938B1D4E902126E
:101F10002046FFF7ADFF40B1012010BD20680F49FA
:101F20004161816821F018018160607908B1206900
:101F300001E04FF0FF302168D4E90523086188688B
:101F400020F0600010438860886820F0800018430B
:101F5000886001206077002010BD00BFB71DC1045C
:101F6000704770477047704790F83510022909D1C3
:101F7000052180F835100068016821F00101016039
:101F800000207047802141650120704780B50948D5
:101F90004FF0FF3100220161026141614261016045
:101FA0000260416042608160826002F065FC002056
:101FB00080BD00BF103802401CB5019001F0CCFD7F
:101FC000044601F0C9FD001B01998842F9D31CBDEC
:101FD00090F84100704770470069084018BF012021
:101FE0007047002A08BF09048161704702480068F1
:101FF0006FF31F30704700BF002004E07047704748
:10200000000000000000000017112031000001084E
:102010002DE9F04F91B001F09FFDDFF8707E7969F6
:10202000401A642804D301F097FD78610AF0B4FFE8
:10203000DFF85C1EDFF85C8E097898F80000C907AD
:102040001BD1022841D0012803D10020B86188F8B3
:10205000000038780138072800F2D980DFE810F056
:102060000800DB005E01A602EC02FC021C03240453
:10207000F869002840F0658639E0002841F0328197
:10208000012088F8000001200BF0B4FC0AF079FB75
:10209000DFF8040E0BF080FE4AF2FF500BF078FEE2
:1020A00002200BF0D9FE0E200BF0CCFEF020872191
:1020B0000BF0E6F80FF6E4500AF0BAFC01200BF042
:1020C0000BFDFFF751FA01F00DB90AF05AFBDFF8EA
:1020D000F00D012180F8541080F850100020F861B4
:1020E00088F8000040F201103970A7F8010001F0F3
:1020F00033FDF86101200BF07DFC4FF4C870002126
:102100004FF4E67250230AF04BFB5A206421A022C0
:10211000A0230AF045FB09200BF08CFEDFF8A05D40
:10212000797895F850007C4C51B148B94FF47F4014
:102130000BF02EFE012620464FF4805101220BE0C9
:10214000002953D0002851D0FF200BF021FE00269B
:1021500020464FF480510022FFF743FF85F850607E
:10216000B97895F8540011B108B9012202E041B1E3
:1021700038B1002204F58060042185F85420FFF76F
:1021800030FFDFF8405D4FF4C87014214FF4E17266
:102190001423A8474FF4C87028214FF4E172282374
:1021A000A8474FF4C8703C214FF4E1723C233C2413
:1021B000A84796208821322232230AF011FD4FF4DD
:1021C0007F000BF0E5FD4FF4A57088213222322309
:1021D0000AF006FD01200BF07FFC002088F801408A
:1021E0007871A7F80300386200F0AABD50EA010236
:1021F00000F0A2830029B3D10028B1D04FF47F4072
:102200000BF0C6FD20464FF4805101229BE30020D5
:10221000787100F0DFBCF878002840F0928501204A
:10222000F87097F82500800701D5FEF725FD0120FD
:102230000BF0E0FB0AF0A5FA09200BF0FBFDFF20F4
:102240000BF0A6FDDFF87C4C14208821DC228823CB
:10225000A0474FF4827088214FF4E6728823A0478C
:10226000F0201421F0227423A047F0209C21F022BA
:10227000FC23A047DFF8500CDFF8504C5021172208
:10228000A047DFF84C0C4FF4A0711722A047DFF8ED
:10229000440C50219F22A047DFF83C0C4FF4A07162
:1022A0009F22A047DFF8F00B0BF076FD4AF2FF50BB
:1022B0000BF06EFD02200BF0CFFDDFF8204C0E205E
:1022C000A047DFF81C5C78207821A847DFF8140CC1
:1022D000DFF8146CB0470E20A0474FF4B47078219B
:1022E000A8470FF60840B0470E20A0477820FA21F3
:1022F000A847DFF8000CB0470E20A0474FF4B47099
:10230000FA21A8470FF6F030B04701200BF0E4FBAC
:102310000020B88000F015BD00080240787901283F
:1023200000F03D84002840F00C850120A7F805004E
:1023300000200BF013FD0AF024FA01200BF00EFD33
:102340004FF07F400BF022FD0AF01BFA01200BF04A
:1023500051FB022440F60200CDE90004DFF8A05B47
:10236000642032213C223C23A847786340F60300D6
:10237000CDE90004AA2032213C223C23A847B863BF
:1023800040F60400CDE90004F02032213C223C2339
:10239000A847F86340F60500CDE900044FF49B70B0
:1023A00032213C223C23A847386440F60600CDE9A0
:1023B0000004642078213C223C23A847786440F63E
:1023C0000700CDE90004AA2078213C223C23A8473D
:1023D000B86440F60800CDE90004F02078213C22E2
:1023E0003C23A847F86440F60900CDE900044FF407
:1023F0009B7078213C223C23A847386540F60A00B0
:10240000CDE90004AA20BE213C223C23A8477865E0
:1024100040F60B06F020BE213C223C23CDE90064AF
:10242000A84738636420BE213C223C23CDE90064E8
:10243000A847F86540F60C00CDE900044FF49B7006
:10244000BE213C223C23A847B865DFF84C4A386BD4
:10245000DFF8B05A2146A847786B2146A847B86BE9
:102460002146A847F86B2146A847386C2146A84763
:10247000786C2146A847B86C2146A847F86C2146DD
:10248000A847386D2146A847786D2146A847DFF850
:10249000784AB86D2146A847F86D2146A847386BA1
:1024A0000FF66821DFF8684AA047786B0FF66421C1
:1024B000A047B86B0FF66021A047F86B0FF65C21C0
:1024C000A047386C0FF65821A047786C0FF65421BE
:1024D000A047B86C0FF65021A047F86C0FF64C21BE
:1024E000A047386D0FF64821A047786D0FF64421BC
:1024F000A047B86D0FF64021A047F86D0FF63C21BC
:10250000A047EB2014210AF0BBFE6FF07F400BF0D8
:102510003FFCDFF82C0A0BF03FFC02200BF09CFC88
:102520000E200BF08FFC0FF61C200AF081FA012020
:102530000BF0D2FA786A40F40070786201F00CFB7C
:10254000B862DFF87C0948300021062207F002FE5D
:1025500009200BF06FFC4FF47F400BF019FCDFF803
:1025600064494FF4C87014214FF4E1721423A0475A
:102570004FF4C87028214FF4E1722823A0474FF48C
:10258000C8703C214FF4E1723C23A04747F2305021
:1025900006ACF86220460BF00FFB002800F0198310
:1025A00006F046FB14200AF00BFAF3E7387901280D
:1025B00000F01383002840F051830120387101207E
:1025C0000BF018FA0AF0DDF84FF47F400BF0E0FB57
:1025D000DFF8F0484FF4C87014214FF4E17214236F
:1025E000A0474FF4C87028214FF4E1722823A04778
:1025F0004FF4C8703C214FF4E1723C23A047DFF850
:102600005409DC2150220AF0C5FAFF200BF0C0FB70
:10261000CF4C4FF480612046FFF7DEFC012840F0EC
:102620006E83DFF8340903213C2228230AF0DCFC06
:1026300001F092FA386669E3B87A012800F018834D
:10264000002840F07E830120B8720AF09AF800203A
:102650001E2178717966BDE2002000240BF07EFB1C
:1026600000200BF095FB0AF08CF8012001250BF0FF
:1026700075FB4FF07F400BF089FB0AF082F897F86A
:102680002500800701D5FEF7F7FAFC61BC72A7F8B8
:1026900003407C713D7054E3DFF8284EF86E2578D6
:1026A0000FF05CFAC0B2FEF7AEFF854210D0F86EB4
:1026B0000FF054FAC0B2FEF7A6FF2070DFF8080E44
:1026C0002146012203F02CFC786A40F40040786235
:1026D0006578386F0FF042FAC0B2FEF794FF85427A
:1026E00010D0386F0FF03AFAC0B2FEF78CFF60706E
:1026F000DFF8D40D2146012203F012FC786A40F481
:1027000000407862DFF8C44D786FA5780FF026FAA4
:10271000C0B2FEF778FF854210D0786F0FF01EFA36
:10272000C0B2FEF770FFA070DFF89C0D21460122B9
:1027300003F0A2FB786A40F4004078626578B86FD5
:102740000FF00CFAC0B2FEF75EFF854210D0B86FF2
:102750000FF004FAC0B2FEF756FF6070DFF8680DA4
:102760002146012203F088FB786A40F40040786239
:10277000DFF8445DE67828680FF0F0F93030C0B239
:10278000FEF741FF864211D028680FF0E7F930309C
:10279000C0B2FEF738FFE070DFF82C0D21460122B1
:1027A00003F06AFB786A40F400407862FE7A686859
:1027B0000FF0D4F9B04212D068680FF0CFF9F87278
:1027C000C0B2DFF80C1D51F820000BF0E1FA4FF415
:1027D000AA7033214FF4D7723B230AF039FCA86862
:1027E00008F014F8796A012821F4802208BF41F426
:1027F00080222678E8687A6208F0A9FB0130C0B22E
:10280000FEF701FF864211D0E86808F0A0FB013016
:10281000C0B2FEF7F8FE2070DFF8AC0C21460122B2
:1028200003F02AFB786A40F4004078622869DFF8F8
:102830008C4CA04738736869A0477873A869A04793
:10284000B873E869A047F873286AA04738746868C5
:10285000A047F872686A07F055FE00287AD005F0A4
:1028600023FC397B7A7BF87ABB7B8DF81820072212
:102870008DF81910B7F80F108DF81A30ADF81B103D
:102880000A218DF81D00786AC0F380408DF81E0083
:1028900006A8FEF7FDFEDFF8280C20210122FEF736
:1028A000F7FEFEF71FFE4AE2DFF80C4CDFF80C5C87
:1028B000E06AA847DFF8081C0870206BA84784F876
:1028C0004E00606BA84784F85200A06BA84784F8BC
:1028D0005600E06BA84784F85A00206CA84784F89B
:1028E0005E00606A07F00EFE002800F04C8105F0E3
:1028F000DBFB397B7A7BF87ABB7B8DF818200722CB
:102900008DF81910B7F80F108DF81A30ADF81B10AC
:102910000A218DF81D00786AC0F380408DF81E00F2
:1029200006A8FEF7B5FEDFF8980B20210122FEF77E
:10293000AFFEFEF7FFFD02E2FF200BF029FA204672
:102940004FF480510022FFF74CFBFFF709BC00BF9A
:1029500000080240A86A07F0D5FD002800F0F181C8
:10296000FEF7C0FD002000260BF0F8F909F009FF82
:10297000012001240BF0F2F94FF07F400BF006FA32
:1029800009F0FFFE01200BF035F8FE204FF4026144
:1029900002221E23CDE90062CDE902140490DFF883
:1029A000344B0A200A215A22A047DFF82CBB02210F
:1029B000E862D847DFF8080BDFF820AB0178E86A57
:1029C000D04740F6210002214FF018090096CDE9CA
:1029D00001100A2032215A221E23CDE90369A047A3
:1029E00002212863D84795F84E10286BD04740F64F
:1029F0002200022100965A22CDE901100A205A2114
:102A00001E23CDE90369A04702216863D84795F8E2
:102A10005210686BD04740F62300022100965A22DC
:102A2000CDE901100A2082211E23CDE90369A047C8
:102A30000221A863D84795F85610A86BD04740F6F6
:102A40002400022100965A22CDE901100A20AA2171
:102A50001E23CDE90369A0470221E863D84795F812
:102A60005A10E86BD047022140F62500019102A9D7
:102A700000965A2281E841020A20D2211E23DFF863
:102A8000546A0224B04702212864D84795F85E10A2
:102A9000286CD04740F60100A021CDE900044FF496
:102AA000AA708222282307F0CFFBDFF8341AA8622D
:102AB00007F04EFD4FF40060DC21CDE900044FF437
:102AC000AA708222282307F0BFFBDFF8181A686279
:102AD00007F03EFD6FF07F400BF05AF9DFF8080A6F
:102AE0000BF05AF90C200BF0ADF9DFF8005A6E200C
:102AF0000E21A8470FF6F810DFF8FC69B0476E20EA
:102B00001A21A8470FF6F410B0476E203621A847C7
:102B10000FF6F010B0476E204221A847DFF8F049C9
:102B20002046B0476E205E21A8470FF6E810B04758
:102B30006E206A21A8472046B0476E208621A8470C
:102B40000FF6DC10B0476E209221A8472046B04710
:102B50006E20AE21A8470FF6D410B0476E20BA21E0
:102B6000A8472046B0476E20D621A8470FF6C810C8
:102B7000B0476E20E221A8472046B04701200AF066
:102B8000ABFF0820DCE0A06A07F0BCFC002800F0E6
:102B9000D880FEF7CFFCFEF7CFF80720D0E000F09A
:102BA000DBFFD7E90A12401A904280F0C680386BEA
:102BB00007F0A8FC002800F09883386B07F0A2FC0F
:102BC000002800F0EB8206F033F8142009F0F8FE3C
:102BD000F3E70020A7F80300B3E0387A002800F0FC
:102BE00098820220DD4C387120464FF400610022AB
:102BF000FFF7F7F901200AF0FDFE00200021DC229A
:102C00004FF4887309F0CCFD4FF47F000BF0C0F84F
:102C1000DFF8540903213C22B4230AF043F9FF20D2
:102C20000BF0B6F820464FF48061FFF7D5F9012884
:102C300040F0B68220464FF48061FFF7CDF90128BD
:102C400040F07483DFF8240903213C2228230AF092
:102C500029F9002520464FF480619AE2022802BF3C
:102C6000387A797A50EA01006BD10120387168E036
:102C700000F072FFB96E401AB0F57A7F61D300F0B0
:102C80006BFFB86601200AF0B5FE002032214FF438
:102C9000F072C82309F084FD796EFF20052988BFF2
:102CA0004FF47F400BF074F8DFF89C080BF074F8D9
:102CB00002200BF0D1F80E200BF0C4F8F0205021C8
:102CC0000AF0DEFA0FF6840009F0B2FEDFF894088D
:102CD0000BF062F802200BF0BFF80E200BF0B2F8F8
:102CE000F0209C210AF0CCFA786E09F089FE0120D0
:102CF0000AF0F2FE786E10B30138786621E0DFF852
:102D00006C0803213C2228230AF0CCF84FF47F0002
:102D10000BF03EF820464FF40061FFF75DF9012803
:102D200040F0E981DFF8400803213C22B4230AF097
:102D30005BF900F011FF3866E4E1FDF79DFF062026
:102D4000387097F8260080071ED400F005FFB97B85
:102D50004FF47A725143BA69801A884214D3387892
:102D6000082804D0072804D1FEF7BCFB01E0FEF7D9
:102D7000E1FB787BFEF710FC06203870786A20F4BF
:102D8000840000F500307862F86940B100F0E4FE9C
:102D9000F969401AB0F5FA7F01D30020F861386E66
:102DA00018B300F0D9FE396E401A4AF6C87188424D
:102DB0001BD30020694C3866DFF8B85720464FF423
:102DC00080610022A84720464FF400610022A847F6
:102DD00004F58064102120460122A8470120FFF756
:102DE000EBF8204610210022A84700F0B5FE396A12
:102DF000401AB0F57A7FC0F0758200F0ADFE3862FF
:102E00003878012800F2688297F82500000640F122
:102E10006382DFF8B456DFF8AC66284631460122FB
:102E200002F0A8FFDFF8A44628462146012202F05E
:102E300075FFF97B3A7C3078914210D200219042A4
:102E400038BF01210846FDF70BFF30B13078FDF7A0
:102E500007FFF97B884280F08380796A0EE0FDF7F6
:102E6000FFFEF97B88427BD23078FDF7F9FE3A7C91
:102E7000796A904202D241F4001174E0880273D55D
:102E8000062021F4001138706DE000BFF40B012022
:102E9000F80A0120B8060120C00203084649524D35
:102EA00057415245205550444154452052554E0AF1
:102EB0000D504C45415345205741495400000000F6
:102EC000700C01202DCE010858B9030895CB0108DC
:102ED00044B9030880B9030830B9030845DE010886
:102EE00081D201086CBC030831CA0108484F4D4526
:102EF0000000000078BC0308434C45414E00000030
:102F000049A2010823A5010828EF020830000000AB
:102F100051A501083100000032000000330000001C
:102F200034000000350000003600000037000000CB
:102F300038000000390000004F4B000042434B00B6
:102F4000F0200308454E5445522050415353574FEB
:102F5000524400006CB9030824B903080008024079
:102F6000786A40F40011796201F41810B0F5181F66
:102F700040F08E80480203D520787A7C82423FD090
:102F800041F48000786200200AF034FD00200AF04D
:102F9000E5FE09F0F6FB00200AF09EFD01200AF094
:102FA00029FD01200AF0DAFE4FF07F400AF0EEFE24
:102FB00009F0E7FB3C2088F80100207878740920AC
:102FC0000AF038FF4FF47F400AF0E2FEDFF8A05528
:102FD0004FF4C87014214FF4E1721423A8474FF442
:102FE000C87028214FF4E1722823A8474FF4C87015
:102FF0003C214FF4E1723C23A84701200AF06CFD0C
:1030000009AD31462846022203F0C2FAB078711C9D
:103010000222C0074FF03A0008BF20208DF826009A
:10302000E81C03F0B5FAF02088210AF029F9F87AB3
:10303000DFF89C1451F820000AF0AAFEDFF83805EA
:103040000AF0AAFE0E200AF0FDFE01200AF0D2FCD2
:10305000002050214FF4F072C02309F0A1FB0020A2
:10306000DC2164224FF4877309F09AFB284609F0AB
:10307000DFFC2078072800F2BD80DFE800F004A321
:10308000A6A9ACAFB20607202070DFF80805AAE0B9
:10309000707898F80110814200F0078109AD88F836
:1030A000010028463146022203F072FA3A20711CD0
:1030B0008DF82600E81C022203F06AFADFF8880483
:1030C0000AF06AFE6FF07F400AF062FE02200AF00A
:1030D000C3FE0C200AF0B6FE01200AF08BFC05208E
:1030E000F5210AF0CDF80020DC2164224FF487732B
:1030F00009F056FBD3E0DFF8700403213C22B4232F
:1031000009F0D0FE01200AF0E7FC00207871F87089
:1031100017E6787A00283FF414AE0220C54C3871C7
:1031200020464FF480610022FEF75BFF01200AF089
:1031300061FC00200021DC224FF4887309F030FB91
:10314000FF200AF025FEDFF8240403213C22282377
:1031500009F0A8FE4FF47F000AF01AFE20464FF453
:103160000061FEF739FF012840F0CD8020464FF482
:103170000061FEF731FF012840F0D880DFF8E80356
:1031800003213C22B42309F08DFE002520464FF494
:1031900000610022FEF725FF3D66C7E030204CE1CC
:1031A000DFF8C80303213C22282309F01DFF4FF458
:1031B0007A70FEF701FF00F0CFFC386620464FF42E
:1031C0008061B0E0DFF8C8030DE0DFF8C0030AE07B
:1031D000DFF8B40307E0DFF8AC0304E0DFF8A00396
:1031E00001E0DFF8980301684268008909910A92BA
:1031F000ADF82C0005F10A00A11C022203F0C8F969
:1032000060780138112830D8DFE800F0090C0F127F
:1032100015181B1E212F2F2F2F2F2F232527DFF8C7
:10322000A4031BE0DFF8980318E0DFF8900315E033
:10323000DFF8840312E0DFF87C030FE0DFF87003AF
:103240000CE0DFF8680309E0DFF85C0306E0D5482E
:1032500004E0D34802E0D14800E0CF48016842686A
:1032600000890C910D92ADF838003020E11C8DF8EA
:103270003C0043F22020ADF83A0005F1190002228B
:1032800003F086F92E20ADF83F008A480AF084FD4D
:10329000F020CE2109F0F4FF0E200AF0D3FD09A89A
:1032A00009F0C6FB01200AF017FC2078797C8142E6
:1032B00012D0A278844D7874C34E28460221B047BC
:1032C000627828460321B047227828460421B04777
:1032D000E27828460521B047786A810302D440F499
:1032E0008010786211B0BDE8F08F786B07F00AF9B2
:1032F00010B3786B07F006F9E0B105F099FC1420E3
:1033000009F05EFBF5E7984803213C22B42309F05D
:103310006BFE4FF47A70FEF74FFE00F01DFC38662E
:1033200020464FF400610122FEF75BFE01200AF007
:10333000D3FB06E5312080E0B86B07F0E3F858B125
:10334000B86B07F0DFF828B105F072FC142009F023
:1033500037FBF5E7322070E0F86B07F0D3F858B18F
:10336000F86B07F0CFF828B105F062FC142009F0E3
:1033700027FBF5E7332060E0386C07F0C3F890B91D
:10338000786C07F0BFF8B8B1786C07F0BBF888B17B
:1033900005F04EFC142009F013FBF5E705F048FC9E
:1033A000142009F00DFB386C07F0ACF80028F5D1BB
:1033B000342042E0352040E0B86C07F0A3F858B163
:1033C000B86C07F09FF828B105F032FC322009F004
:1033D000F7FAF5E7362030E0F86C07F093F858B1CB
:1033E000F86C07F08FF828B105F022FC142009F0E2
:1033F000E7FAF5E7372020E0386D07F083F858B199
:10340000386D07F07FF828B105F012FC142009F0A0
:10341000D7FAF5E7382010E0786D07F073F888B137
:10342000786D07F06FF838B105F002FC142009F050
:10343000C7FAF5E7000802403920FDF745FFF871AB
:10344000FFF77FBCB86D07F05DF850B9F86D07F075
:1034500059F8F0B9FFF775BC05F0EAFB142009F044
:10346000AFFAB86D07F04EF80028F5D14F20FDF700
:103470002BFFF871FDF700FCF879022810D0012825
:1034800013D0A0B906200EE005F0D2FB142009F0FD
:1034900097FAF86D07F036F80028F5D14220CCE70E
:1034A000FDF74AFC0720387001E002207871002007
:1034B000C5E700BFC0020308700C01205D1B0208B5
:1034C000F30A0120580B0120700B0120380B01205A
:1034D00094B903082B1902087F1B0208D31B0208AA
:1034E00089BC03085BBC0308BCD3020881D2010875
:1034F000444556494345000031CA0108425553200E
:10350000494400004D41494E20535731000000000E
:103510004CBC03084D41494E205357320000000077
:10352000414C41524D20475545535400414C415266
:103530004D20484F55534500414C41524D2046497E
:10354000544E455300000000F020030844495350F6
:103550004C415920434C45414E2054494D454F550F
:10356000543A0000B836030818B9030824B9030810
:103570002DCE0108E31F0108805A030830BE03085E
:10358000F4BD030854BE03083CBE030848BE03084C
:1035900000BE03080CBE03086CBE030884BE03080B
:1035A00024BE030878BE0308E8BD030818BE03085C
:1035B000C4BD0308B8BD0308DCBD0308D0BD0308C3
:1035C00090BE030860BE03086B5C010870B504463A
:1035D000006846680568F10718BF15F480717DD151
:1035E000B0061AD515F4005017D02068616902683A
:1035F00022F4005202604FF020028260E06B40F043
:103600000200E0634FF0000084F838004FF004003F
:1036100084F8390009B12046884730071AD515F4D7
:10362000006017D020686169026822F400620260BD
:103630004FF008028260E06B40F00400E0634FF05E
:10364000000084F838004FF0040084F8390009B114
:103650002046884770070CD515F4806009D0206893
:10366000016821F480610160042181602046FEF739
:103670007AFCB00718D515F4007015D020682169C0
:10368000026822F4007202604FF002028260E06B76
:10369000E0634FF0000084F838004FF0010084F838
:1036A000390009B120468847F00616D515F4805038
:1036B00013D02068016821F48051016010218160DD
:1036C000E06BE063002084F83800012084F83900C2
:1036D0002046BDE87040FEF745BC70BD016821F48E
:1036E00080710160E16B41F00101E16301218160C2
:1036F000002084F83800042084F83900616900292A
:103700003FF46EAF204688476AE770B50446866D81
:1037100000F022FA054694F8350002281ED12068F0
:10372000216C026822F016020260426922F08002D7
:10373000426109B9A16C19B1016821F00801016069
:10374000016821F0010101600068C0070DD000F0A0
:1037500003FA401B052814D82068F5E7002084F8F8
:10376000340080206065012070BDE06D3F2101FACA
:1037700000F00121B060002084F8340084F8351096
:1037800070BD20206065002084F83400032084F898
:10379000350070BDB0B530B1054690F8350002284F
:1037A00003D102241BE0012419E0286800240168E9
:1037B00021F0010101602121046044608460C46043
:1037C000046141612846FDF703FFE96D3F2202FADB
:1037D00001F181606C6585F8344085F835402046FC
:1037E000B0BD00002DE9F041044600F0B5F9ACB1E0
:1037F0000546022084F83500002084F83400216852
:10380000086820F0010008600868C00709D000F0CF
:10381000A3F9401B052839D82168F5E70120BDE848
:10382000F081271D0868354AE8CF00EA020E43EA16
:103830000E032B43D4E9050C33433B43D4E907285B
:103840001843636A40EA0C00042B40EA020040EA95
:1038500008021FD1D4E90A53206B1A4340EA020040
:10386000086051F8140F20F0030040EA050040F012
:103870000402B3B1BCF5005F24D0BCF1000F31D11C
:10388000022D32D0012D27D07DB30AE00326202758
:10389000032012E00A6051F8140F20F0070040EAFC
:1038A000030220460A60FDF793FEE16D3F2202FA13
:1038B00001F10027816001260020676584F83560EA
:1038C000BDE8F081032DECD8012640270120DFE878
:1038D00005F0020C0203F0E7A3F1C070B0FA80F02B
:1038E000400904E0032D04D3DBD1C3F300600028BA
:1038F000D7D0012640270120DFE700BF3F8010F02E
:103900002DE9F04F8E4A4FF00A0A90428D4A024448
:1039100008BF4FF0090A4FEAB2234FF0000E092BFF
:1039200038BF4FEAB22A884A01264FF00F09A2F5A4
:103930007E7B4FF000080025102D49D006FA05F2D5
:103940000A423FD00323076803FA0EF46FF0030323
:10395000A74303EA550C076008F01C0700EB0C03B3
:1039600009FA07F71E6ABE431E628368A343836099
:10397000436893434360C368A343AC08C36008F043
:103980000C0309FA03F75BF824603E400AFA03F3DC
:103990009E424FF0010615D15BF82430D243BB4361
:1039A0004BF82430684B1C461B6813402360636847
:1039B00013406360A3681340A360644B1C461B68FC
:1039C0001A4022600EF1020E08F104080135B3E737
:1039D000BDE8F08F2DE9F84F594A4FF00A0990429F
:1039E000584A024408BF4FF009094FEAB2234FF08A
:1039F000000E092B38BF4FEAB2294FF0010A4FF0F1
:103A00000F084FF0000B0022102A00F096800AFAEF
:103A100002F60C68344200F08A804F6847F01004C8
:103A2000122C11D16FF003030BF01C0403EA5205B2
:103A300008FA04F70544D5F820C00B692CEA0707FB
:103A4000A3403B432B624F68032407F0030304FAAF
:103A50000EF4056803FA0EF3A5432B43E443122F3B
:103A6000036012D80AFA07F313F0061F0DD083681B
:103A7000CD68234005FA0EF52B438360C7F300138E
:103A800045689340B5432B434360C36823408C682B
:103A900004FA0EF42343C360FB0048D52C4B22F0FC
:103AA00003051C461B6843F48043274F2360BC4634
:103AB00023683D4403F4804300930BF00C03009F04
:103AC00008FA03F4234F09FA03F3B846EF5927EA3B
:103AD0000404234345F808304FF00F08DCF80030A9
:103AE0004D6843EA0604EF0358BF23EA0604CCF806
:103AF0000040DCF80430AF0343EA060458BF23EA71
:103B00000604CCF80440DCF80830EF0243EA06046F
:103B100058BF23EA0604CCF808400C4BAD021F4600
:103B20001B6843EA060458BF23EA06043C600EF112
:103B3000020E0BF1040B013266E7BDE8F88F00BFFF
:103B4000002402400000FEBF003C01400C3C01404C
:103B50004438024008FCFFFF01480068704700BF7E
:103B60008C75012001480068704700BF20F4F01FE9
:103B700001480068704700BF24F4F01F0148006846
:103B8000704700BF28F4F01FB0B110B504462420E0
:103B900084F841002068016821F00101016020469D
:103BA000FEF719FA0020606484F84100206384F86D
:103BB000400084F8420010BD0120704710B3B0B53A
:103BC000044690F8410028B9002084F840002046BF
:103BD000FEF714FA242084F84100D4E90003D4E964
:103BE0000212056823F0706325F00105012A0560C3
:103BF0000361836823F40043836005D141F40041ED
:103C0000816009E00120704741F40441022A81608B
:103C100002D14FF40061416041680F4A114304F141
:103C200010054160C16821F40041C1602ECD1143EF
:103C300041EA0321C160216A29430160016841F022
:103C40000101016000202021606484F8411020639C
:103C500084F84200B0BD00BF008000022DE9FE4F95
:103C600004460020029094F84100202808D12068E2
:103C700089468169090403D494F84010012902D1CE
:103C80000220BDE8FE8F24211D4684F84110012149
:103C9000904684F8401000216FF39F295F1C4FF07D
:103CA000200A6164E16801294FF4205104BF42F207
:103CB0000001C0F2002149444160FFF74DFF064674
:103CC0002068816989065CBF81695FEAC1610CD4A3
:103CD00094F84110A02908D0002FF1D075B3FFF758
:103CE0003BFF801BA842EBD928E0D0F818B0204653
:103CF000202100222B46009602F036FD5FEACB61C0
:103D000023D518BB20681021C161C0F81CA00299FE
:103D10004A1C414502920ED14168002241F4804183
:103D20002B46416020462021009602F01DFD68B917
:103D30002068C0F81CA002994145B3D3002084F844
:103D40004000202084F8410000E010B10320BDE8CD
:103D5000FE8F20682021C161002084F8400084F893
:103D60004110BDE8FE8F00002DE9FE4F044690F89B
:103D7000410020280ED10C9D0120002D00F0B580BF
:103D8000DDF834B0BBF1000F00F0AF8094F84000D4
:103D9000012802D10220BDE8FE8F01201F461646F1
:103DA0008A4684F84000FFF7D7FE814600902046FF
:103DB0004FF400410122192302F0D6FC10B1032078
:103DC000BDE8FE8F22200E9984F8410040204FF07C
:103DD000000884F84200C4F84480204665620D461D
:103DE000C4F834803246A4F82AB03B46CDE9001925
:103DF000514602F037FC40B184F84080616C0320EA
:103E0000042908BF0120BDE8FE8F608DB0F5807FDA
:103E10000AD3FF20514620854FF4105000902046D1
:103E2000FF224FF0807309E0608D4FF410514FF086
:103E300000732085C2B200912046514602F082FCF8
:103E40000026FF272046042100222B46CDF80090B3
:103E500002F08AFC0028B2D1616A20684A1C6262C2
:103E6000406A0870208D013820850004618DA1F121
:103E70000101618521D1608DF8B1204680210022A9
:103E80002B46CDF8009002F06FFC002897D1608D92
:103E9000B0F5807F07D32785204600965146FF2244
:103EA0004FF0807307E0608D51464FF0007320851E
:103EB000C2B22046009602F045FC608D0028C1D1B8
:103EC000204629464A4602F078FC002896D1206810
:103ED0002021C161654B42681A404260002084F88D
:103EE000411084F8400084F84200BDE8FE8F00BF16
:103EF0002DE9FE4F044690F8410020280ED10C9D7C
:103F00000120002D00F0AF80DDF834B0BBF1000FD0
:103F100000F0A98094F84000012802D10220BDE8F9
:103F2000FE8F01201F4616468A4684F84000FFF7A0
:103F300013FE8146009020464FF4004101221923D0
:103F400002F012FC10B10320BDE8FE8F21200E9973
:103F500084F8410040204FF0000884F84200C4F883
:103F60004480204665620D46C4F834803246A4F889
:103F70002AB03B46CDE90019514602F0AAFB10B128
:103F800084F840805AE0608DB0F5807F09D3FF202F
:103F900051462085002000902046FF224FF080737C
:103FA00008E0608D00214FF000732085C2B20091BF
:103FB0002046514602F0C6FB0026FF272046294630
:103FC0004A4602F020FCC8BB616A20684A1C626253
:103FD00009788162208D013820850004618DA1F16E
:103FE0000101618521D1608DF8B120468021002238
:103FF0002B46CDF8009002F0B7FB0028A3D1608DCE
:10400000B0F5807F07D32785204600965146FF22D2
:104010004FF0807307E0608D51464FF000732085AC
:10402000C2B22046009602F08DFB608D0028C5D1FB
:10403000204629464A4602F0C0FB30B1616C03209D
:10404000042908BF0120BDE8FE8F20682021C1613E
:10405000064B42681A404260002084F8411084F800
:10406000400084F84200BDE8FE8F00BF00E800FE7B
:10407000B0B5C0B104460068D4E901124CF6CC4397
:10408000036045F25553036041608260FFF764FDB1
:1040900005462068C16841B1FFF75EFD401B30282E
:1040A000F7D90320B0BD0120B0BDE16802698A42A2
:1040B00003D14AF6AA21016000E001610020B0BDF1
:1040C00000684AF6AA210160002070470248016892
:1040D00001310160704700BF8C75012080B5074831
:1040E000016841F400710160032000F003FC0F201F
:1040F00000F006F800F0C1FB002080BD003C02404B
:1041000010B50446074800684FF47A71B0FBF1F02F
:1041100001F0E0FF4FF0FF302146002200F0CEFB1F
:10412000002010BDBC060120F0B590F8A05002247C
:10413000012D2DD080F8A140012480F8A040342426
:1041400003FB0404842505EBC31E002604F1480C80
:104150000025BAB1DCF80070013A062F06F180772D
:1041600008BF2E4610C9E3B205F18855334304F465
:104170007F46334304F47F042343046874443E467B
:104180002364E6E70024012180F8A04080F8A11014
:104190002046F0BD10B590F8A0400223012C13D0AA
:1041A00080F8A130036803EBC212D2F8904004F00B
:1041B0007F44C2F89040C2F8901001215962002358
:1041C00080F8A03080F8A110184610BDF8B50E4652
:1041D00090F8A01004460220012919D084F8A1000B
:1041E000342002FB00401546012731463830342286
:1041F00084F8A070FCF704F8204631462A4602F005
:1042000041FE20684762002084F8A00084F8A17075
:10421000F8BD10B5044600F085F90020C4F8A400EC
:1042200084F8A00084F8A100002010BD90F8A03010
:104230000222012B11D080F8A120026802EBC111EB
:10424000D1F8843023F00203C1F884300121516297
:10425000002280F8A02080F8A1101046704790F846
:10426000A0300222012B11D080F8A120026802EBBD
:10427000C111D1F8843043F01003C1F8843001211A
:104280005162002280F8A02080F8A11010467047EB
:1042900090F8A0300222012B11D080F8A1200268F2
:1042A00002EBC111D1F8843043F00203C1F884302D
:1042B00001215162002280F8A02080F8A110104650
:1042C0007047000090F8A0200221012A0CD080F84D
:1042D000A11006490A6842F480320A6000210122D6
:1042E00080F8A01080F8A1200846704718680140A7
:1042F00010B504460068816B490744BF816B5FEAD3
:10430000417126D4816B890744BF816B5FEA81715B
:1043100035D4816BC9071CBF816B5FEAC17145D180
:10432000816B090744BF816B5FEA017100D410BD46
:10433000416B21F0080141630821C163002084F82A
:10434000A000012084F8A1002046BDE8104000F044
:10435000CFB9416B21F0040141630421C163D4F85A
:10436000A40040F00100C4F8A400002084F8A000DC
:10437000204684F8A110FDF742FE2068C2E7416B99
:1043800021F0020141630221C163D4F8A40040F08E
:104390000200C4F8A400002084F8A000042084F8DF
:1043A000A1002046FDF72BFE2068B2E7416B21F00B
:1043B000010141630121C163002084F8A00020466F
:1043C00084F8A11000F070F82068A9E7002867D0F1
:1043D000B0B5044690F8A10028B9002084F8A000E8
:1043E000204600F0A1F8022084F8A10094E80F0014
:1043F00011438569194325F0704585612269114390
:10440000826911438161274982680A408260D4E948
:10441000052343EA024283681A438260C2680A4065
:10442000C260C268D4E9073545EA03431A43C26053
:1044300002690A4002610269D4E9093545EA034389
:104440001A4302614269114041614169D4E90B2379
:1044500043EA024211434161C16A01F07F41C162F6
:1044600094F8362094F83510120442EA012194F8A9
:1044700034201144C26A1143C162416B41F004010E
:104480004163416B41F002014163816941F00101E7
:10449000816100200121C4F8A40084F8A110B0BDFE
:1044A0000120704700F800F02DE9F04780461A48D7
:1044B00000F108066FF00107184CDFF864904FF028
:1044C000FF3A1FB3206800281AD456F8081CB268B7
:1044D00048433168BD1C4843D9F8001000FB021165
:1044E00040462A4600F005F9D8F80000416A41F03C
:1044F000010141622846216809F0D8FAC4F800A0F9
:10450000043609F1040904340137DAE74046002192
:10451000BDE8F04700F0D4B8D00A0120C006012061
:1045200044BC0308704700002DE9F04F85B0624895
:104530004FF00E0A4169032541F080610027416177
:1045400002244169E94601F08061DFF85C8B00914B
:104550000099016841F400010160016801F4000163
:1045600000910099016841F001010160016801F0CA
:10457000010100910099016841F0020101600168A8
:1045800001F0020100910099016841F0040101600D
:10459000016801F0040100910099016841F00801EF
:1045A0000160016801F0080100910099016841F083
:1045B00010010160016801F010010091009901688B
:1045C00041F020010160016801F020010091009993
:1045D000016841F040010160384900688B4600F0F5
:1045E000400000900098CDF810A04FF48060039533
:1045F00002970194009001F5A0504946C047C120A0
:104600004946CDE9035ACDE9014700900BF500601A
:10461000C04778204946CDE9035ACDE901470090CB
:104620005846C04709200BF580660490304649463D
:10463000CDE90275CDE90054C0474FF4706049469A
:10464000CDE9035ACDE9014700903046C0474FF409
:104650000C600BF5C056CDE9035ACDE90147009037
:1046600030464946C04708204946CDE9035ACDE9BE
:10467000014700900BF54060C04709204946CDE94D
:1046800003504FF4A050CDE9014700903046C04799
:104690000BF580550421284600220424FDF7A1FCD7
:1046A00001204946CDE90277CDE900402846C047C0
:1046B00005B0BDE8F08F00BF303802400000024076
:1046C00090F8A0300222012B0ED080F8A1200268C1
:1046D000536B43F001035363044A1160002201212C
:1046E00080F8A02080F8A110104670474068014073
:1046F0007047B0B590F8A03004460220012B14D0CA
:1047000084F8A100342002FB0040012584F8A05069
:10471000C16500F13801204602F0B4FB2068456213
:10472000002084F8A00084F8A150B0BDB0B590F886
:10473000A03004460220012B14D084F8A1003420BC
:1047400002FB0040012584F8A050C16400F138014B
:10475000204602F097FB20684562002084F8A00004
:1047600084F8A150B0BDF8B590F8A05004460220DE
:10477000012D1CD084F8A100342003FB0045012644
:1047800084F8A06045F8381FD5E90A070844B9182D
:10479000C5E90102E960204629461A4602F072FB8B
:1047A00020684662002084F8A00084F8A160F8BD6B
:1047B000F8B5044690F8A000022501281AD034204C
:1047C00084F8A15003FB00460127002584F8A0705F
:1047D00046F8385F2046C6E90A12C6E90115F260BC
:1047E00031461A4602F04EFB2068476284F8A0501A
:1047F00084F8A1702846F8BD0278437810490B6010
:10480000D2B143684B60037B42EA0372C37A42EA47
:104810000362837A42EAC342437B42EA8342837B58
:1048200042EA4342C37B42EA0342437A007A42EAC5
:10483000032242EA400001E000204860886070479F
:1048400098ED00E0BFF35F8F0A48016821F48031E2
:10485000016000210167704740F0010005490867C9
:10486000086840F480300860BFF34F8FBFF36F8F4C
:10487000704700BF24ED00E07047704700280CD45B
:1048800000F01F01012202FA01F14009034A42F837
:104890002010BFF34F8FBFF36F8F704780E100E0B0
:1048A000002808D400F01F01012202FA01F140099A
:1048B000014A42F82010704700E100E0B0B5134B08
:1048C0004FF0FF351B68C3F30223DC1E83F00703A0
:1048D00038BF0024042B28BF042305FA03F39943AF
:1048E00005FA04F3A1409A431143BDE8B04004F037
:1048F00093BE00BF05494FF6FF030A681A4060F3F4
:104900000A22034810430860704700BF0CED00E026
:104910000000FA0504F092FEBCB518481B4D016872
:1049200041F080510160006800F0805001900198D2
:10493000286840F480302860FFF70EF90446686864
:10494000C00306D4FFF708F9001BB0F57A7FF6D94B
:104950000FE0286840F400302860FFF7FDF80446B7
:104960006868800307D4FFF7F7F8001BB0F57A7F7B
:10497000F6D90320BCBD0020BCBD00BF40380240BA
:104980000248016841F48071016070470070004086
:104990007CB50446FFF7E0F8054694F8410080072F
:1049A0004FF000002BD584F84000206801684907CB
:1049B0000BD5016821F004010160E06BFEF7A5FE54
:1049C00018B1606C40F0040060642068A16C02685B
:1049D0002B4642F00202022602602046009102218C
:1049E000012203F063F850B92068A16CC66020462C
:1049F0000091202100222B4603F058F800B17CBD25
:104A0000012084F8410000207CBD704780B590F8FB
:104A10004110890721D5002180F84010082180F835
:104A2000411001680A6822F4F8120A600A68520705
:104A30000AD40220C860086840F4003008600868A2
:104A400040F00200086008E0C06BD94A02650A68BD
:104A500022F004020A60FDF787FA002080BD00BF43
:104A60002DE9FC411D46174688460446FFF774F8B9
:104A7000064694F84000012802D10220BDE8FC81DE
:104A8000012084F8400094F84100012832D1002030
:104A900020216064422084F84100204600223346F1
:104AA000009503F003F830BB97E80E102068816290
:104AB0004262C362C8F828C03969026822F4400221
:104AC00011434FF0006241F48001016020464146ED
:104AD00002F070FE20460821012233460095082589
:104AE000012702F0E3FF30B92068C560002084F898
:104AF000417000E00220002184F84010BDE8FC81F4
:104B00007047F8B515460F460446FFF725F80646E8
:104B100094F84000012801D10220F8BD012084F85A
:104B20004000022094F84110012921D100210022E7
:104B30006164202184F8410020463346009502F04C
:104B4000B5FFA8B920463946002202F033FE786A44
:104B500020B1012084F84100002009E02046022114
:104B60000122334600950225012702F09FFF18B16C
:104B7000002184F84010F8BD2068C56084F84170B9
:104B8000EAE710B50446006828B194F840100129FE
:104B900003D1022010BD012010BD012184F8401076
:104BA000016821F00101016000F0A6F900206064B5
:104BB00084F8410084F8400010BD70477047000041
:104BC00010B5016804468A680868530718D510F4C0
:104BD000802315D094F84100122838D10846826805
:104BE000520763D5E26A002A5CD0606A421C6262A6
:104BF000007881F820002068E26A013AE262EEE77C
:104C0000930739D510F4003336D00220C860086805
:104C100020F4E020086094F8410012284BD1086885
:104C2000400709D5086820F004000860E06B0068C0
:104C3000016821F0010101602046FFF7E7FE012035
:104C400084F841002046BDE8104000F0EFBA94F827
:104C5000410022282AD108468268520726D5A26B35
:104C600002B391F82000226B531C2363107020685C
:104C7000A26B013AA263EFE7130725D510F40023D6
:104C800022D00820C8600868400206D5086820F4D1
:104C900010200860012084F841002046BDE8104043
:104CA00000F065BA016821F4802101602046BDE86A
:104CB0001040FFF783BF94F84100222815D10868FF
:104CC00040072ED4084650E0D30718BF10F48033B5
:104CD00017D1D2063ED510F480103BD01020C8600A
:104CE0002046BDE8104000F043BA94F84100022885
:104CF00022D1012084F841002046BDE81040FFF792
:104D0000FFBE0120C8600A6822F470220A60626C4B
:104D100042F0020262640A68520738D484F8410003
:104D200013E0086820F004000860E06B0068016888
:104D300021F0010101601FE094F84100082809D129
:104D4000012084F84100606C60B32046BDE810404B
:104D5000FFF733BF10BD91F82000226B531C236373
:104D600010702068A26B013AA263806810F4F85FAB
:104D70001CBFA06B0028EED12046FFF747FE0120A4
:104D800084F841002046BDE8104000F0EFB9E06B28
:104D9000074A02650A6822F004020A60BDE8104072
:104DA000FDF7E2B82046BDE81040FFF72EBE00BF79
:104DB0000F7901082DE9FC410446FEF7CDFE3CB118
:104DC000054694F84000012805D10220BDE8FC8189
:104DD0000120BDE8FC81012084F8400094F84100E6
:104DE00008B1A06C08E0002084F84000204600F0E4
:104DF000BDF841F28830A0642168A2686FF0FF031B
:104E00004FF0000803EB02220B6823F4F8531A4317
:104E10002B460A60202100902046002202F046FE28
:104E200008BBD4E90012D4E903350F68104E3E40A8
:104E3000334343EA0262E3691A43236A1A430D4B80
:104E40000A604A681A4063691A43A36942EA054244
:104E50001A434A600A6842F001020A600121C4F85C
:104E6000448084F8411084F84080BDE8FC8100BF94
:104E70002FFFFF00FEF8E0FF7CB516460D46044606
:104E8000FEF76AFE034694F84000012801D1022093
:104E90007CBD012084F8400094F84100012826D10F
:104EA000002020216064822084F841000022A06C50
:104EB0000090204602F0FAFDD0B9206871680268BF
:104EC000082922F0080242EA0102026007D1316893
:104ED00001631021C160016841F480110160204626
:104EE00029464FF0406202F065FC002000E00220FD
:104EF000002184F840107CBD70B54620FFF7BEFC51
:104F00005C20FFF7BBFC154815490160FEF742FC29
:104F1000644C144EA4F5805540212846B0472846DD
:104F20000421B04720464FF48071B04720464FF42B
:104F30000071B04720468021B04720464021B0474D
:104F40000948016841F002010160016821F0020195
:104F50000160016A21F00201016270BD340D01207F
:104F6000B864024001390108183802402DE9F047C1
:104F700086B04B484FF00A0981684A4C41F0020163
:104F8000A4F58056816001AD81684FF0400801F0C2
:104F90000201454F0191019950F8181C41F002019E
:104FA00040F8181C50F8181C21F0020140F8181C99
:104FB000016841F002010160016801F00201019104
:104FC0000199016841F002010160016801F00201EC
:104FD00001910199016841F020010160016801F02F
:104FE000200101910199016841F0200101600168EF
:104FF00001F0200101910199016841F02001016057
:10500000016801F0200101910199016841F020013E
:1050100001602946006800F0200001900198CDF859
:105020001490032004900120039002200290304647
:10503000CDF80480B8474FF0090A0020CDF814A03D
:1050400029460390042001903046B8474FF4807001
:10505000CDF81490019020462946B8474FF40070CF
:10506000CDF81490019020462946B8478020CDF80D
:1050700014A0019020462946B84720462946CDF87D
:1050800014A0CDF80480B8475C200F210022FFF760
:1050900015FC5C20FFF704FC06B0BDE8F08700BFFC
:1050A0003038024000140240D53901082DE9FC4196
:1050B000154688460446FEF74FFD27680646B86940
:1050C00094F84010012902D10220BDE8FC810121A1
:1050D00084F8401094F84110012929D10021B8F139
:1050E000000F616426D02221012284F84110396921
:1050F0000131A163396901316163796962F39B61AF
:105100007961C4F83080B861A06BC8B1204606212F
:1051100001223346009502F0C9FCF8B997F8200047
:10512000216B4A1C22630870A06B0138A063EBE777
:10513000022016E0606C40F008006064012010E07E
:1051400020460221012233460095022502F0AEFCE2
:1051500020B92068C5602046FFF71AFC012184F8B9
:105160004110002184F84010BDE8FC817047704771
:1051700070472DE9FC41154688460446FEF7ECFCD5
:105180000646276894F84000012802D10220BDE8B5
:10519000FC81012084F8400094F84100012827D1C7
:1051A0000020B8F1000F606424D0122084F8410080
:1051B00038690130E06238690130A062C4F82480A7
:1051C000786920F040607861E06AC8B12046042127
:1051D00001223346009502F069FCF8B9606A411C6F
:1051E0006162007887F82000E06A0138E062EBE74E
:1051F000022016E0606C40F008006064012010E0BE
:1052000020460221012233460095022502F04EFC81
:1052100020B92068C5602046FFF7BAFB012184F859
:105220004110002184F84010BDE8FC817047000067
:105230002DE9FC47D0F800A004465FEACA70B24EE0
:1052400002D14FF000090BE0B06820F40000B0601C
:10525000606BB1680143B0FA80F04FEA5019B16059
:105260005FEA0A3002D44FF0000811E0E06BD6F894
:105270008C1021F44011B0F5801F41EA0001B0FA12
:1052800080F04FEA5018C6F88C1008BF4FF00109A3
:105290005FEACA2011D5206CD6F88C1021F44001A9
:1052A000002841EA0001C6F88C1008BF4FF0010841
:1052B000B0F5800F08BF4FF001095FEA8A605746DA
:1052C00053D5306C914F40F080503064306C00F01A
:1052D000805001900198386840F480703860FEF783
:1052E0003BFC05463868C00505D4FEF735FC401B7D
:1052F0006428F7D9F7E1306F10F4407022D0216BA9
:1053000001F4407188421DD0306F316F41F480311B
:1053100020F440703167316F21F48031316730679C
:10532000306FC0070ED0FEF717FC054641F28837F4
:10533000306F800706D4FEF70FFC411B0320B942F3
:10534000F6D9D1E12768206BB268714922F4F812CE
:1053500000F440730140B3F5407F08BF0A43B260D8
:105360006FF31F30316F08433067F8060BD5D6F85E
:105370008C0020F08070C6F88C00A06BD6F88C10E2
:105380000843C6F88C00780407D5606ED6F89010F4
:1053900021F440310843C6F89000380407D5A06EC8
:1053A000D6F8901021F440210843C6F89000F80385
:1053B00007D5E06ED6F8901021F440110843C6F8E6
:1053C0009000B80307D5206FD6F8901021F4400163
:1053D0000843C6F89000780607D5606CD6F89010A0
:1053E00021F003010843C6F89000380607D5A06CE9
:1053F000D6F8901021F00C010843C6F89000F8058B
:1054000007D5E06CD6F8901021F030010843C6F8BB
:105410009000B80507D5206DD6F8901021F0C00196
:105420000843C6F89000780507D5606DD6F890104F
:1054300021F440710843C6F89000380507D5A06DE7
:10544000D6F8901021F440610843C6F89000F804A3
:1054500007D5E06DD6F8901021F440510843C6F806
:105460009000B80407D5206ED6F8901021F4404182
:105470000843C6F89000780207D5A06FD6F89010C0
:1054800021F080610843C6F89000B8020DD5E06FA6
:10549000D6F8901021F00061B0F1006F41EA0001F0
:1054A000C6F8901008BF4FF00108780307D5606F69
:1054B000D6F8901021F040710843C6F890000AF029
:1054C0008070390208D5D4F88010D6F8902022F0E8
:1054D00080521143C6F8901030B9B9F1000F03D1D2
:1054E000B7F1007F40F08280306820F0806030604B
:1054F000FEF732FB0546306800010BD5FEF72CFBAA
:10550000401B6428F7D9EEE00038024000700040EC
:10551000FFFCFF0F2068C10712D0616B81B9D6F87C
:105520008410D6F8842001F4403102F070621144F6
:10553000D4E9012341EA821141EA0371C6F88410DB
:10554000010303D5E16BB1F5801F05D0C1021DD564
:10555000216CB1F5800F19D1D6F88410D6F88420CB
:1055600001F4403102F0E04211446268E36841EA2C
:10557000821141EA0361656AC6F88410691ED6F893
:105580008C2022F01F021143C6F88C10C10110D5E7
:10559000D6F88410D6F8842001F0706102F0E04261
:1055A00011446268236941EA821141EA0341C6F865
:1055B000841080010AD5231D0FCB1B0443EA801001
:1055C00040EA026040EA0170C6F88400306840F0AA
:1055D00080603060FEF7C0FA05463068000105D4EF
:1055E000FEF7BAFA401B6428F7D97CE017F00800F0
:1055F00008BFB8F1000F79D0306820F080503060DB
:10560000FEF7AAFA05463068800005D5FEF7A4FA31
:10561000401B6428F7D966E02068010301D5E16BDF
:1056200019B1C1021ED5216CE1B9D6F88810D6F89F
:10563000882001F4403102F0E0421144A56AD4E927
:10564000052341EA821141EA0361C6F888106FF030
:10565000FF01D6F88C2001EB052122F4F85211430A
:10566000C6F88C10810214D5E16FB1F1006F10D132
:10567000D6F88810D6F8882001F0706102F0E04278
:1056800011446269236A41EA821141EA0341C6F882
:105690008810000718D5D6F88800D6F8881000F0D2
:1056A000706001F4403108446169E26940EA8110A8
:1056B00040EA0270E36AC6F88800D6F88C0020F44D
:1056C00040301843C6F88C00306840F0805030609D
:1056D000FEF742FA04463068800007D4FEF73CFA31
:1056E000001B6528F7D30320BDE8FC870020BDE838
:1056F000FC8700002DE9F041002800F08280544B27
:105700000446D3F800040D4600F00F0088420CD286
:10571000D3F8000420F00F002843C3F80004D3F8A6
:10572000000400F00F00A8426BD12068810705D566
:10573000A1689A6822F0F00211439960C0072AD04C
:105740006068012803D11968890308D459E01968F1
:10575000022802D1890102D453E0890751D5996802
:10576000984621F0030108439860FEF7F5F90646D4
:1057700041F288376068D8F8081001F00C01434600
:10578000B1EB800F07D0FEF7E7F9801BB842F1D9E3
:105790000320BDE8F081D3F8000400F00F00A84218
:1057A0000CD9D3F8000420F00F002843C3F80004FC
:1057B000D3F8000400F00F00A84222D1206841076E
:1057C00005D5E1689A6822F4E05211439960000718
:1057D00006D52069996821F4604141EAC0009860CB
:1057E0001C4600F05BF8A168074AC1F30311515C45
:1057F000C840274908600F20FEF782FC0020BDE862
:10580000F0810120BDE8F08100B90308F348114B95
:10581000016841F0810101600021816002681A4045
:105820000D4B0260416042681A430C4B4260C0F865
:105830008410D0F884201A43C0F88420026822F42F
:1058400080220260C160124826490160704700BF93
:1058500000380240FFFFF6FA10300024003000202C
:105860000B480068704700BF09480A49006809688A
:10587000C1F38221084A515CC84070470448054979
:1058800000680968C1F34231034A515CC84070475F
:10589000BC0601200838024010B9030810494868C6
:1058A00000F00C020F48082A03D0042A17D10E4832
:1058B00070470A680B685B020B4B58BF034602F047
:1058C0003F00B3FBF0F00A68C2F388120968C1F325
:1058D00001415043022202EB4101B0FBF1F070475D
:1058E000043802400024F40000127A002DE9FC4143
:1058F000002800F0B18004460078B84EC0074AD0B6
:10590000B06800F00C00042817D0B06800F00C005C
:10591000082802D1706840020FD4606898B1B0F5D1
:10592000803F06D03168B0F5A02F21D141F480200E
:105930003060306840F4803020E0306880032AD541
:10594000606840BB88E0306820F4803030603068A8
:1059500020F480203060FEF7FFF8054630688003B1
:1059600019D5FEF7F9F8411B03206429F6D92FE178
:1059700021F480303060306820F480203060FEF701
:10598000EBF805463068800305D4FEF7E5F8401BC8
:105990006428F7D9EFE0207880072DD5B06810F0A3
:1059A0000C0F07D0B06800F00C00082809D170680F
:1059B000400206D43068800717D5E068012814D06B
:1059C0004AE03068E168002900F0998040F0010069
:1059D0003060FEF7C1F805463068800705D4FEF751
:1059E000BBF8401B0228F7D9C5E02069316821F0D7
:1059F000F80141EAC00030602078000720D5706FC0
:105A0000616971B140F001007067FEF7A5F80546C5
:105A1000706F800714D4FEF79FF8401B0228F7D957
:105A2000A9E020F001007067FEF796F80546706F58
:105A3000800705D5FEF790F8401B0228F7D99AE0B9
:105A4000207840070BD4A769002F00F0C380B0680E
:105A500000F00C00082835D10120BDE8FC81306C35
:105A6000C0000BD4306C4FF0010840F0805030641F
:105A7000306C00F080500190019801E04FF0000878
:105A8000574F3868C0050FD4386840F480703860CC
:105A9000FEF762F805463868C00505D4FEF75CF8E5
:105AA000401B6428F7D966E0A068C8B3012805D078
:105AB000316F05284BD141F004003067306F40F062
:105AC00001004AE0306820F080703060FEF744F852
:105AD0000546022F09D13068800158D5FEF73CF801
