:020000040800F2
:1000000000C000209D380008E7380008E9380008E3
:10001000FD380008FF380008013900080000000022
:10002000000000000000000000000000053900088A
:10003000033900080000000007390008ED38000807
:10004000E5380008E5380008E5380008E53800081C
:10005000E5380008E5380008E5380008E53800080C
:10006000E5380008E5380008E5380008E5380008FC
:10007000E5380008E5380008E5380008E5380008EC
:10008000E5380008E5380008E5380008E5380008DC
:10009000E5380008E5380008E538000809390008A7
:1000A000E5380008E5380008E5380008E5380008BC
:1000B000E5380008E5380008E5380008E5380008AC
:1000C000E5380008E5380008E5380008E53800089C
:1000D000E5380008E5380008E5380008E53800088C
:1000E000E5380008E5380008E5380008E53800087C
:1000F000E5380008E5380008E5380008E53800086C
:10010000E5380008E5380008E5380008E53800085B
:10011000E5380008E5380008E5380008E53800084B
:10012000E5380008000000000000000000000000AA
:0C01300000000000000000005FF808F173
:1001400010B5054C237833B9044B13B10448AFF311
:1001500000800123237010BD48050020000000002E
:100160003C01000808B5034B1BB103490348AFF33A
:10017000008008BD000000004C0500203C01000884
:1001800010F8012B11F8013B012A28BF9A42F7D041
:10019000D01A7047034613F8012B002AFBD1181A16
:1001A0000138704781F0004102E000BF83F0004356
:1001B00030B54FEA41044FEA430594EA050F08BF02
:1001C00090EA020F1FBF54EA000C55EA020C7FEAC6
:1001D000645C7FEA655C00F0E2804FEA5454D4EB43
:1001E0005555B8BF6D420CDD2C4480EA020281EA0D
:1001F000030382EA000083EA010180EA020281EA45
:100200000303362D88BF30BD11F0004F4FEA013196
:100210004FF4801C4CEA113102D0404261EB4101A5
:1002200013F0004F4FEA03334CEA133302D052422B
:1002300063EB430394EA050F00F0A780A4F10104E7
:10024000D5F1200E0DDB02FA0EFC22FA05F2801821
:1002500041F1000103FA0EF2801843FA05F3594107
:100260000EE0A5F120050EF1200E012A03FA0EFC86
:1002700028BF4CF0020C43FA05F3C01851EBE371B0
:1002800001F0004507D54FF0000EDCF1000C7EEBCD
:1002900000006EEB0101B1F5801F1BD3B1F5001F0B
:1002A0000CD349085FEA30004FEA3C0C04F101042A
:1002B0004FEA445212F5800F80F09A80BCF1004F53
:1002C00008BF5FEA500C50F1000041EB045141EAD5
:1002D000050130BD5FEA4C0C404141EB010111F4D6
:1002E000801FA4F10104E9D191F0000F04BF014681
:1002F0000020B1FA81F308BF2033A3F10B03B3F15F
:1003000020020CDA0C3208DD02F1140CC2F10C02EE
:1003100001FA0CF021FA02F10CE002F11402D8BF4C
:10032000C2F1200C01FA02F120FA0CFCDCBF41EA18
:100330000C019040E41AA2BF01EB0451294330BDE7
:100340006FEA04041F3C1CDA0C340EDC04F11404C4
:10035000C4F1200220FA04F001FA02F340EA03009B
:1003600021FA04F345EA030130BDC4F10C04C4F1E1
:10037000200220FA02F001FA04F340EA03002946C1
:1003800030BD21FA04F0294630BD94F0000F83F40B
:10039000801306BF81F480110134013D4EE77FEAEE
:1003A000645C18BF7FEA655C29D094EA050F08BF3A
:1003B00090EA020F05D054EA000C04BF194610461B
:1003C00030BD91EA030F1EBF0021002030BD5FEA5F
:1003D000545C05D14000494128BF41F0004130BD87
:1003E00014F580043CBF01F5801130BD01F00045DB
:1003F00045F0FE4141F470014FF0000030BD7FEA4E
:10040000645C1ABF194610467FEA655C1CBF0B4648
:10041000024650EA013406BF52EA033591EA030F5F
:1004200041F4002130BD00BF90F0000F04BF002157
:10043000704730B54FF4806404F132044FF000058A
:100440004FF0000150E700BF90F0000F04BF002103
:10045000704730B54FF4806404F1320410F0004569
:1004600048BF40424FF000013EE700BF42004FEA64
:10047000E2014FEA31014FEA02701FBF12F07F43E1
:1004800093F07F4F81F06051704792F0000F14BFDE
:1004900093F07F4F704730B54FF4607401F0004522
:1004A00021F0004120E700BF50EA010208BF704779
:1004B00030B54FF000050AE050EA010208BF70476E
:1004C00030B511F0004502D5404261EB41014FF4D7
:1004D000806404F132045FEA915C3FF4DCAE4FF0DB
:1004E00003025FEADC0C18BF03325FEADC0C18BFC2
:1004F000033202EBDC02C2F1200300FA03FC20FA13
:1005000002F001FA03FE40EA0E0021FA02F114445F
:10051000C1E600BF70B54FF0FF0C4CF4E06C1CEA74
:1005200011541DBF1CEA135594EA0C0F95EA0C0FE9
:1005300000F0DEF82C4481EA030621EA4C5123EA5C
:100540004C5350EA013518BF52EA033541F480118B
:1005500043F4801338D0A0FB02CE4FF00005E1FB3E
:1005600002E506F00042E0FB03E54FF00006E1FB88
:1005700003569CF0000F18BF4EF0010EA4F1FF04CB
:10058000B6F5007F64F5407404D25FEA4E0E6D410B
:1005900046EB060642EAC62141EA55514FEAC5201C
:1005A00040EA5E504FEACE2EB4F1FD0C88BFBCF598
:1005B000E06F1ED8BEF1004F08BF5FEA500E50F149
:1005C000000041EB045170BD06F0004646EA01010F
:1005D00040EA020081EA0301B4EB5C04C2BFD4EB41
:1005E0000C0541EA045170BD41F480114FF0000E3A
:1005F000013C00F3AB8014F1360FDEBF002001F0A8
:10060000004170BDC4F10004203C35DA0C341BDC21
:1006100004F11404C4F1200500FA05F320FA04F0F3
:1006200001FA05F240EA020001F0004221F0004127
:1006300010EBD37021FA04F642EB06015EEA430E9A
:1006400008BF20EAD37070BDC4F10C04C4F12005CA
:1006500000FA04F320FA05F001FA04F240EA02007D
:1006600001F0004110EBD37041F100015EEA430E4E
:1006700008BF20EAD37070BDC4F1200500FA05F26E
:100680004EEA020E20FA04F301FA05F243EA0203ED
:1006900021FA04F001F0004121FA04F220EA0200FC
:1006A00000EBD3705EEA430E08BF20EAD37070BD42
:1006B00094F0000F0FD101F00046400041EB010122
:1006C00011F4801F08BF013CF7D041EA060195F004
:1006D000000F18BF704703F00046520043EB0303BE
:1006E00013F4801F08BF013DF7D043EA06037047AB
:1006F00094EA0C0F0CEA135518BF95EA0C0F0CD0B6
:1007000050EA410618BF52EA4306D1D181EA0301FB
:1007100001F000414FF0000070BD50EA410606BFF5
:100720001046194652EA430619D094EA0C0F02D13A
:1007300050EA013613D195EA0C0F05D152EA03367F
:100740001CBF104619460AD181EA030101F000419D
:1007500041F0FE4141F470014FF0000070BD41F0E6
:10076000FE4141F4780170BD70B54FF0FF0C4CF4C0
:10077000E06C1CEA11541DBF1CEA135594EA0C0FDF
:1007800095EA0C0F00F0A7F8A4EB050481EA030E2C
:1007900052EA03354FEA013100F088804FEA033313
:1007A0004FF0805545EA131343EA12634FEA0222E1
:1007B00045EA111545EA10654FEA00260EF00041A2
:1007C0009D4208BF964244F1FD0404F5407402D2F4
:1007D0005B084FEA3202B61A65EB03055B084FEA85
:1007E00032024FF480104FF4002CB6EB020E75EB82
:1007F000030E22BFB61A754640EA0C005B084FEAAA
:100800003202B6EB020E75EB030E22BFB61A754626
:1008100040EA5C005B084FEA3202B6EB020E75EB71
:10082000030E22BFB61A754640EA9C005B084FEAE9
:100830003202B6EB020E75EB030E22BFB61A7546F6
:1008400040EADC0055EA060E18D04FEA051545EAE5
:1008500016754FEA06164FEAC30343EA52734FEA8E
:10086000C2025FEA1C1CC0D111F4801F0BD141EA07
:1008700000014FF000004FF0004CB6E711F4801F6C
:1008800004BF01430020B4F1FD0C88BFBCF5E06F4C
:100890003FF6AFAEB5EB030C04BFB6EB020C5FEA5C
:1008A000500C50F1000041EB045170BD0EF0004EB1
:1008B0004EEA113114EB5C04C2BFD4EB0C0541EAE3
:1008C000045170BD41F480114FF0000E013C90E6E0
:1008D00045EA060E8DE60CEA135594EA0C0F08BFA4
:1008E00095EA0C0F3FF43BAF94EA0C0F0AD150EAA3
:1008F00001347FF434AF95EA0C0F7FF425AF104636
:1009000019462CE795EA0C0F06D152EA03353FF45D
:10091000FDAE1046194622E750EA410618BF52EADA
:1009200043067FF4C5AE50EA41047FF40DAF52EAAE
:1009300043057FF4EBAE12E74FF0FF3C06E000BF4B
:100940004FF0010C02E000BF4FF0010C4DF804CD58
:100950004FEA410C7FEA6C5C4FEA430C18BF7FEA18
:100960006C5C1BD001B050EA410C0CBF52EA430C46
:1009700091EA030F02BF90EA020F0020704710F1C6
:10098000000F91EA030F58BF994208BF90422CBF55
:10099000D8176FEAE37040F0010070474FEA410C4E
:1009A0007FEA6C5C02D150EA013C07D14FEA430C6C
:1009B0007FEA6C5CD6D152EA033CD3D05DF8040BDD
:1009C000704700BF8446104662468C46194663460F
:1009D00000E000BF01B5FFF7B7FF002848BF10F1E6
:1009E000000F01BD4DF808EDFFF7F4FF0CBF01202B
:1009F00000205DF808FB00BF4DF808EDFFF7EAFFA7
:100A000034BF012000205DF808FB00BF4DF808ED61
:100A1000FFF7E0FF94BF012000205DF808FB00BF56
:100A20004DF808EDFFF7CEFF94BF012000205DF8E0
:100A300008FB00BF4DF808EDFFF7C4FF34BF0120ED
:100A400000205DF808FB00BF4FEA410C7FEA6C5CB8
:100A500002D150EA013C0AD14FEA430C7FEA6C5CB8
:100A600002D152EA033C02D14FF0000070474FF030
:100A7000010070474FEA410212F5001215D211D55C
:100A80006FF47873B3EB625212D94FEAC12343F08B
:100A9000004343EA505311F0004F23FA02F018BF0D
:100AA000404270474FF00000704750EA013005D1D6
:100AB00011F0004008BF6FF0004070474FF0000099
:100AC000704700BF4FEA4102B2F1E04324BFB3F5E3
:100AD000001CDCF1FE5C0DD901F0004C4FEAC002B5
:100AE0004CEA5070B2F1004F40EB830008BF20F099
:100AF0000100704711F0804F21D113F13872BCBF53
:100B000001F00040704741F480114FEA5252C2F1A7
:100B10001802C2F1200C10FA0CF320FA02F018BFF0
:100B200040F001004FEAC1234FEAD32303FA0CFC43
:100B300040EA0C0023FA02F34FEA4303CCE77FEAD2
:100B4000625307D150EA01331EBF4FF0FE4040F41C
:100B50004000704701F0004040F0FE4040F40000CB
:100B6000704700BF80F0004002E000BF81F000410C
:100B700042001FBF5FEA410392EA030F7FEA226C43
:100B80007FEA236C6AD04FEA1262D2EB1363C1BFD3
:100B9000D218414048404140B8BF5B42192B88BF42
:100BA000704710F0004F40F4000020F07F4018BF65
:100BB000404211F0004F41F4000121F07F4118BF85
:100BC000494292EA030F3FD0A2F1010241FA03FC2D
:100BD00010EB0C00C3F1200301FA03F100F0004315
:100BE00002D5494260EB4000B0F5000F13D3B0F1DD
:100BF000807F06D340084FEA310102F10102FE2A4C
:100C000051D2B1F1004F40EBC25008BF20F00100BB
:100C100040EA03007047490040EB000010F4000F69
:100C2000A2F10102EDD1B0FA80FCACF1080CB2EBFC
:100C30000C0200FA0CF0AABF00EBC250524218435B
:100C4000BCBFD0401843704792F0000F81F4000100
:100C500006BF80F400000132013BB5E74FEA4103D3
:100C60007FEA226C18BF7FEA236C21D092EA030F3F
:100C700004D092F0000F08BF0846704790EA010FB9
:100C80001CBF0020704712F07F4F04D1400028BFE6
:100C900040F00040704712F100723CBF00F50000C8
:100CA000704700F0004343F0FE4040F400007047FE
:100CB0007FEA226216BF08467FEA236301464202AA
:100CC00006BF5FEA412390EA010F40F480007047BD
:100CD0004FF0000304E000BF10F0004348BF404263
:100CE0005FEA000C08BF704743F0964301464FF09F
:100CF00000001CE050EA010208BF70474FF00003FB
:100D00000AE000BF50EA010208BF704711F000433B
:100D100002D5404261EB41015FEA010C02BF84460B
:100D20000146002043F0B64308BFA3F18053A3F56A
:100D30000003BCFA8CF2083AA3EBC25310DB01FAB1
:100D400002FC634400FA02FCC2F12002BCF1004F35
:100D500020FA02F243EB020008BF20F001007047C6
:100D600002F1200201FA02FCC2F1200250EA4C001A
:100D700021FA02F243EB020008BF20EADC70704760
:100D80004FF0FF0C1CEAD0521EBF1CEAD15392EA6E
:100D90000C0F93EA0C0F6FD01A4480EA010C40024A
:100DA00018BF5FEA41211ED04FF0006343EA5010A4
:100DB00043EA5111A0FB01310CF00040B1F5000FE6
:100DC0003EBF490041EAD3715B0040EA010062F195
:100DD0007F02FD2A1DD8B3F1004F40EBC25008BF7F
:100DE00020F00100704790F0000F0CF0004C08BF9D
:100DF00049024CEA502040EA51207F3AC2BFD2F16A
:100E0000FF0340EAC250704740F400004FF0000377
:100E1000013A5DDC12F1190FDCBF00F000407047B1
:100E2000C2F10002410021FA02F1C2F1200200FAEF
:100E300002FC5FEA310040F1000053EA4C0308BFB6
:100E400020EADC70704792F0000F00F0004C02BF07
:100E5000400010F4000F013AF9D040EA0C0093F082
:100E6000000F01F0004C02BF490011F4000F013BDC
:100E7000F9D041EA0C018FE70CEAD15392EA0C0F4A
:100E800018BF93EA0C0F0AD030F0004C18BF31F0B5
:100E9000004CD8D180EA010000F00040704790F08B
:100EA000000F17BF90F0004F084691F0000F91F02F
:100EB000004F14D092EA0C0F01D142020FD193EAF5
:100EC0000C0F03D14B0218BF084608D180EA01007D
:100ED00000F0004040F0FE4040F40000704740F059
:100EE000FE4040F4400070474FF0FF0C1CEAD05227
:100EF0001EBF1CEAD15392EA0C0F93EA0C0F69D083
:100F0000A2EB030280EA010C49024FEA402037D0ED
:100F10004FF0805343EA111143EA10130CF00040E4
:100F20008B4238BF5B0042F17D024FF4000C8B42D4
:100F300024BF5B1A40EA0C00B3EB510F24BFA3EBB4
:100F4000510340EA5C00B3EB910F24BFA3EB910384
:100F500040EA9C00B3EBD10F24BFA3EBD10340EADE
:100F6000DC001B0118BF5FEA1C1CE0D1FD2A3FF624
:100F700050AF8B4240EBC25008BF20F001007047D9
:100F80000CF0004C4CEA50207F32C2BFD2F1FF037C
:100F900040EAC250704740F400004FF00003013AAD
:100FA00037E792F0000F00F0004C02BF400010F451
:100FB000000F013AF9D040EA0C0093F0000F01F065
:100FC000004C02BF490011F4000F013BF9D041EA87
:100FD0000C0195E70CEAD15392EA0C0F08D14202BA
:100FE0007FF47DAF93EA0C0F7FF470AF084676E78D
:100FF00093EA0C0F04D14B023FF44CAF08466EE766
:1010000030F0004C18BF31F0004CCAD130F0004233
:101010007FF45CAF31F000437FF43CAF5FE700BF8B
:101020004FF0FF3C06E000BF4FF0010C02E000BFB4
:101030004FF0010C4DF804CD4FEA40024FEA410356
:101040007FEA226C18BF7FEA236C11D001B052EA0C
:10105000530C18BF90EA010F58BFB2EB030088BFD2
:10106000C81738BF6FEAE17018BF40F00100704741
:101070007FEA226C02D15FEA402C05D17FEA236C23
:10108000E4D15FEA412CE1D05DF8040B704700BF6A
:10109000844608466146FFE70FB5FFF7C9FF002801
:1010A00048BF10F1000F0FBD4DF808EDFFF7F4FF3A
:1010B0000CBF012000205DF808FB00BF4DF808EDD3
:1010C000FFF7EAFF34BF012000205DF808FB00BFF6
:1010D0004DF808EDFFF7E0FF94BF012000205DF818
:1010E00008FB00BF4DF808EDFFF7D2FF94BF0120C9
:1010F00000205DF808FB00BF4DF808EDFFF7C8FFC2
:1011000034BF012000205DF808FB00BF4FEA400219
:10111000B2F1FE4F0FD34FF09E03B3EB12620DD925
:101120004FEA002343F0004310F0004F23FA02F08F
:1011300018BF404270474FF00000704712F1610F36
:1011400001D1420205D110F0004008BF6FF000400D
:1011500070474FF00000704742000ED2B2F1FE4FD0
:101160000BD34FF09E03B3EB126209D44FEA002376
:1011700043F0004323FA02F070474FF0000070473D
:1011800012F1610F01D1420202D14FF0FF307047DE
:101190004FF00000704700BF2DE9F04F87B0059079
:1011A0000FF014F881460FF019F807460FF01EF8FB
:1011B0008742044609DA4FF4080010F03BFD002195
:1011C00023464A46084613F077FE3C4D2C68002C17
:1011D00064D14FF00108C923DFF8ECB0DFF8ECA0D0
:1011E0001A46CDF808B0CDF804A0CDF8008021460D
:1011F00020460CF0F7FCCDF8008006463B464A46F8
:10120000214620460DF0B6FB4246642321468DE878
:10121000000D286020460CF0E5FC804630460DF0BD
:10122000E3FB82464FF4080010F004FD13F076FE55
:1012300040460DF0D9FB4FF40803214A21468DE8C2
:101240000C0020466423224612F014FE40460CF0A7
:10125000BDFC834630460DF0C7FB5BF8240010F060
:10126000EBFC642122460846013413F06BFF642C2A
:10127000F3D128680DF0B8FB00223B4602921146DC
:1012800030468DE880020CF0AFFA30460DF050FB8E
:1012900040460DF04DFB50460DF0A6FB28680CF0C3
:1012A000CFF9059B3BB105221146064807B0BDE8C2
:1012B000F04F13F04BB907B0BDE8F08F9C0500204C
:1012C0005555FF00A8490308840A040870B80308AC
:1012D000036873B50F2B044659D007DC0E2B21D0C1
:1012E000204602B0BDE870400CF0A8B81D2B21D0FC
:1012F000262BF5D180680AF0B6FEE368022B58D1A0
:10130000B0F5006F57D040F60103984251D1012249
:10131000364B1A600023364A1360364A1360364A49
:10132000136046E00AF0ECFE214602B0BDE87040D2
:101330000BF00ABC4FF4047140680AF0DCFE05466D
:101340000E2105F0ABFA28462C4905F0D2FA4FF4ED
:10135000006160680AF0CFFE00210AF01FF840F635
:10136000010160680AF0C7FE00210AF017F84FF487
:10137000B07160680AF0BFFE0446214903F068FDC1
:101380002046204902B0BDE8704003F089BD4068A6
:101390000AF05CFD054660680AF06CFD6FF07F4264
:1013A0000021194B8DE80C00431E6A1E084612F0FE
:1013B00061FD02B070BD0E4B0E4E1A680E4D62B14B
:1013C00000241C6010F0A9FB2B68C01A3060204676
:1013D00002B0BDE870400AF0B3BC01221A6010F000
:1013E0009CFB3368C01A28606068F1E78005002024
:1013F00074050020780500207C050020A03002083C
:101400008CCC010898F80308C0CEDC0037B5044640
:101410000EF0DCFE05460EF0E1FE4FF4080300215D
:10142000094A8DE80C0003462A46084612F022FDC0
:101430003CB105221146054803B0BDE8304013F029
:1014400085B803B030BD00BF5555FF00A84903085B
:1014500038B5446805461CB1BDE8384008F0B0BD59
:101460000E21006809F0D4FA2868214609F060F8D6
:10147000204638BD02680F2A0DD01E2A10D00E2A31
:1014800011D1C3685A6882B11B686E2B0DD101223D
:10149000064B1A607047064B064A1B6810781847BF
:1014A0000022C26070470BF0C9BF70478005002062
:1014B0009805002064050020036837B50E2B04460C
:1014C0000FD00F2B15D0012B26D10EF07FFE41221D
:1014D000431000921946002260680AF0FCF803B03D
:1014E00030BD0AF00DFE214603B0BDE830400BF0E0
:1014F0002BBB40680AF0AAFC054660680AF0BAFCFB
:101500006FF07F420021074B8DE80C00431E6A1EDE
:10151000084612F0AFFCE2E703B0BDE830400BF044
:101520008DBF00BFC0CEDC0010B504464FF40800EC
:1015300010F080FB13F0F2FC34B1BDE8104005223E
:101540000248114613F002B810BD00BFA8490308B5
:10155000034670B51C1A13F8012B002AFAD1012298
:101560000A261346B1FBF2F5092D10D800222344B8
:10157000C254034420440A24B1FBF4F204FB1211C8
:10158000303103F8011D98421146F5D170BD724308
:101590000133E7E7024610B5131A12F8014B002C8D
:1015A000FAD10139034411F8012F1C1A0AB9025566
:1015B00010BD03F8012BF6E710B5084C2368012B8A
:1015C00007D00023064A106801280CBF1360184694
:1015D00010BD0A2010F0A3FAF0E700BF7405002048
:1015E000800500207FB50D460C6811F099FC01A81C
:1015F00011F0C4FA9DF80C302BB1012300242B60AC
:10160000204604B070BD012C044E02D12B60346022
:10161000F6E7FFF7D1FF0446F9E700BF8005002099
:10162000014B1B68184700BF9805002008B5064B02
:101630001B682BB910F071FA044B1B68C01A08BD67
:10164000034B186808BD00BF740500207805002012
:101650007C0500202DE9F0411E4C05464FF4047135
:1016600020680AF048FD642D064606DD4FF404713B
:1016700020680AF040FD0AF01BF80021304605F012
:1016800073FA2A460021304605F01AF910F045FA9F
:101690008046FFF7CBFF642DA0EB080703DD39463A
:1016A000304605F061FA052010F039FAFFF784FFA3
:1016B000AF4201D20028ECD0642D06DD4FF4047156
:1016C00020680AF018FD0AF081FBBDE8F04111F036
:1016D00027BC00BF8805002008B5054B18680AF034
:1016E00075FB0AF00DFDBDE8084009F029BF00BFF9
:1016F0008C05002008B5044B186809F0D9FFBDE837
:10170000084011F00DBC00BF8805002038B5084C1A
:10171000054620680AF042FB48B14FF4B0712068DA
:101720000AF0E9FC2946BDE8384003F091BB38BD1A
:101730008C050020014B186809F0BABF8C05002009
:1017400010B586B01422002101A81AF05DFB154BDC
:101750004FF4B07118680AF0CEFC0446124901A893
:10176000FFF718FF114B01A819680131FFF7F0FED0
:1017700001A80F49FFF70EFF0E4B01A81968FFF7EC
:10178000E7FE01A80C49FFF705FF0C4B01A85968BB
:101790000139FFF7DDFE01A9204603F059FB06B031
:1017A00010BD00BF88050020C0CB010890050020B7
:1017B0003E08020894050020C6CB010868050020F9
:1017C000064A1368013313600023054A1360054A73
:1017D0001360054A1360FFF7B3BF00BF94050020F4
:1017E00074050020780500207C05002008B5FFF76F
:1017F00031FFBDE80840FFF7E3BF0000F8B50D4634
:1018000007460EF0E3FC04460EF0E8FC0646FFF740
:1018100063FFFFF76FFF11F083FB0120FFF700FF6D
:101820006FF07F4010F008FA022010F08DF964107C
:101830000F4810F0C9F93C222146384613F018F839
:101840000C4810F0C1F913F0CBFFC0EB66020A326E
:101850002146284613F00CF82B465A1B13F8011B9F
:101860000029FAD15020BDE8F8405043FFF7BEBF31
:1018700024360208ECCF03082DE9F04F002491B084
:101880005F4960480CF040F90AF03AFC5E490AF002
:1018900003F909F013FD002105A808F077FD2146A2
:1018A00005A80A9408F04AFD012105A808F06EFD7C
:1018B000012105A80A9408F041FD544808F022FED1
:1018C000534804F0DDFF534809F0C2FB524804F0CE
:1018D00099FB524803F0B0FE514C524806F07AFF93
:1018E000022010F031F9204600F0BCFF0EF086FC1B
:1018F0000F284D4D69DD23895B0766D514F0C8F8C4
:10190000B0F5001FCCBF494B494B4A4F0122BA46A4
:101910002B60494B1A700AF0F3FB0BF08DF913F0B2
:10192000FDFA13F061FA0EF051FC05460EF056FC7C
:1019300006460AF0E5FB3D3EA5F150033F4A05216E
:101940000196009303463E4809F0B6F94FF00009AE
:1019500038600AF0D5FB6D10013D0346394A02217B
:10196000CDF804900095384809F0A6F9374EDFF815
:10197000EC803546C8F800000AF028FA38680BF009
:1019800039F90AF0BDFB0AF0CFF911F0C9FA0AF0F3
:10199000B7FB0AF0C0F9DFF8C8B001F0DDF9C6F80E
:1019A00000902B48DFF8BC902A68236853F8223057
:1019B0006BB9DAF8000033600BF05EF9D8F800007C
:1019C0000BF05AF913F008FAA5E7224B9DE7002126
:1019D00002900160CBF80010C9F800100391FFF7E6
:1019E000AFFE2A68236853F8223098471A4B0399B0
:1019F00002981960024B19602B6801332B60D3E702
:101A000084050020E515000875140008511400082D
:101A1000B965000859AD0008255C00087D50000834
:101A20006805002005840008980500209911000829
:101A30000D1400088805002064050020D11200085C
:101A4000C8CB0108B914000854CC01089005002047
:101A50007C05002029150008940500208C05002035
:101A600074050020780500202DE9F04F03C80227F7
:101A700095B002AC84E80300204610F0DFF80022A5
:101A80004121204611F026F9BDF90CE0BDF90E30D8
:101A9000BDF90850BDF90A6075441E4495FBF7FE78
:101AA00096FBF7F78C4E04AD0FCE0FC50FCE0FC5CA
:101AB0000FCE45F2E47B0FC596E80F004FF08C0A7D
:101AC000BE00002785E80F004FEA8E050BFB07F8E4
:101AD00040460FF083F8814640460FF0C1F880463B
:101AE00014AB03EB870353F8400C10F0A5F814F087
:101AF00027FE042014F014FE0AFB09F10AFB08F08B
:101B00008C2206EB114105EB1040013714F0A4FEC6
:101B100014F00EFE102FD9D100256FF07F46FF275D
:101B20006FF07F4010F088F8012321460E226B48A9
:101B300012F042FD20460022412111F0CBF8BDF900
:101B40000C20BDF90A10BDF90E30BDF908008DE872
:101B5000600012F0C1F9BDF80A30FF201F33ADF864
:101B60000E3010F069F821460E225D4812F07BFE1F
:101B700029461F22204611F0ADF84FF47F4010F0A7
:101B80005BF821460E22564812F06DFE29461F22B0
:101B9000204611F09FF84FF47F0010F04DF82146D9
:101BA0000E224F4812F05FFE294620466FF03D029C
:101BB00011F090F8BDF80A302A4641215D332046E5
:101BC000ADF80E3011F086F8BDF80A30FF201F3353
:101BD000ADF80E3010F02EF813F0A0F929461F22B0
:101BE000204611F077F84FF47F4010F023F813F0FF
:101BF00095F929461F22204611F06CF84FF47F001A
:101C000010F018F813F08AF929466FF03D022046CB
:101C100011F060F8BDF80A3030465D33ADF80E3093
:101C200010F00AF8012321460E222C4812F0C4FCC1
:101C30002A462046412111F04DF800974FF47F4786
:101C4000BDF90A10BDF90C2001F11F031BB2BDF94B
:101C500008000195ADF80E3012F00CF92946204627
:101C60001F2211F037F800974FF47F07BDF90E30AF
:101C7000BDF90C20BDF90A10BDF90800019512F05C
:101C8000F9F8294620461F2211F024F8BDF90E303C
:101C9000BDF90C20BDF90A10BDF9080001950097A7
:101CA00012F0E8F829466FF03D02204611F012F8D4
:101CB000BDF80A3030465D33ADF80E300FF0BCFF92
:101CC00001230E222146054812F076FC28460FF02B
:101CD000B5FF15B0BDE8F08F14CB010840CD010869
:101CE00048CD010873B52A492A48FFF787FD01202E
:101CF000FFF796FC012011F0D1FB064626480FF0B5
:101D000063FF0C22BE21254812F0B2FD2B23ADF853
:101D100002303B230025ADF804308A23204CADF877
:101D200006302046ADF800500FF04EFF6FF07F40B8
:101D30000FF082FF012369460E221A4812F03CFC84
:101D400019480FF041FF6846FFF78EFE29466522CD
:101D5000684610F0BFFF20460FF036FF6FF07F405F
:101D60000FF06AFF01230E226946104812F024FC8E
:101D70000F480FF029FF6846FFF776FE4FF47A60B0
:101D8000FFF734FD304611F089FB02B070BD00BF93
:101D9000B1CC0108E3CC010824360208F4CC0108D8
:101DA00044DF03080CCD01084C30020826CD0108A1
:101DB000F82F020800000000B0F57A7F08B503464E
:101DC00010D2FEF741FB3CA3D3E90023FEF7A2FBB0
:101DD00002460B463AA1D1E90001FEF7E7F9FEF70A
:101DE00071FE08BDA0F57A72F92A5AD9A0F2E24034
:101DF000B0F5FA6F0CD2FEF727FB33A3D3E900232B
:101E0000FEF788FB02460B4631A1D1E90001E4E769
:101E1000A3F6B242F92A46D940F6C312A3F6AC5053
:101E200090420CD8FEF710FB2BA3D3E90023FEF75A
:101E300071FB02460B462AA1D1E90001CDE7A3F5CB
:101E4000BB52103AF92A30D940F6B732A3F5C35045
:101E50000A3890420CD8FEF7F7FA1FA3D3E9002303
:101E6000FEF758FB02460B461FA1D1E90001B4E77B
:101E7000A3F51052223AF92A19D9A3F5145041F2C8
:101E80007B531C38984214D8FEF7DEFA18A3D3E926
:101E90000023FEF73FFB02460B4617A1D1E90001E4
:101EA0009BE7174808BD174808BD174808BD1748E5
:101EB00008BD174808BD00BF7B14AE47E17A943FC8
:101EC0000000000000206C407B14AE47E17A843FA4
:101ED0000000000000A06940FCA9F1D24D62703FF3
:101EE00000000000002067400000000000E06540A6
:101EF000613255302AA9533F000000000060644061
:101F000000004D430000394300002F4300002343ED
:101F100000000743F8B507460EF058F93B78054630
:101F20001C4E9BB13168A0F1C804493164104900CE
:101F300001F1320304F1C702204612F0BDFF3268FE
:101F4000214631325200144812F000FB6FF07F40FE
:101F50000FF072FE062233686D107633534304216E
:101F600005EB4502B81C14F093F93B788BB10220C5
:101F70000FF0EAFDFF200FF05FFE08480FF024FE8F
:101F800032682946BDE8F8405200B032044812F0E9
:101F90006FBCF8BDAC0500203C07020824360208DF
:101FA00013CE0108F8B507460EF010F93B78044649
:101FB0001A4E83B13168A0F1C8056D1001F16203BA
:101FC00005F1C7024931284612F076FF32682946EA
:101FD000134812F0BBFA6FF07F400FF02DFE33680C
:101FE00064108A3303EB430304EB44020521B81C5D
:101FF00014F04EF93B7883B102200FF0A5FDFF20CD
:102000000FF01AFE07480FF0DFFD32682146BDE8E9
:10201000F8404E32044812F02BBCF8BDAC0500204D
:102020003C0702082436020808CE01081A4B2DE9A5
:10203000F0411B68054663B3184E3368834228D0CD
:102040000EF0C4F804460EF0C9F807466FF07F4062
:1020500035600FF0F1FD00200FF076FD10480FF015
:10206000B3FD104810F0E8FE8046312013F0E8FB85
:10207000064613F0B5FB444401343A1AC6EB640437
:1020800021B22846BDE8F041012342F34F020FF090
:102090009DBBBDE8F08100BFA4050020A005002085
:1020A0002436020828CE0108B0F57A7F10B5034621
:1020B0000DD2FEF7C9F94FF03332434BFEF72AFA3F
:1020C00002460B4600204149FEF770F80FE0A0F5EC
:1020D0007A70F9280ED8FEF7B7F92FA3D3E90023B9
:1020E000FEF718FA2EA3D3E90023FEF761F8FEF7F6
:1020F000E9FC10BDA3F2E244B4F5FA6F09D2022064
:10210000FFF794FF2046FEF79FF927A3D3E90023AA
:10211000D4E7A3F6B240F928DDD940F6C312A3F6FE
:10212000AC54944209D80320FFF780FF2046FEF705
:102130008BF91FA3D3E90023C0E7A3F5BB501038E8
:10214000F928C8D940F6B732A3F5C3540A3C9442E3
:1021500009D80420FFF76AFF2046FEF775F916A399
:10216000D3E90023AAE7A3F510502238F928B2D901
:10217000A3F5145441F27B531C3C9C4209D8052022
:10218000FFF754FF2046FEF75FF90DA3D3E90023C4
:1021900094E70F4810BD00BF333333333333D33F9D
:1021A0000000000000E06040333333333333A33F9B
:1021B000B81E85EB51B89E3F9A9999999999993F84
:1021C00079E9263108AC6C3F3333B33F00406A40B5
:1021D000000007432DE9F04FAF49A7B0AF48FFF724
:1021E0000DFB0DF0F3FF05460DF0F8FF0323A0F102
:1021F000C40494FBF3F4AA4AC83D1388A94F6D1098
:102200000533AB4280463C60C0F2C2805388053340
:102210009C42D4BF00240124A34810F00DFE854247
:10222000A24E06DC3B68A8F128086233B8EB430FE6
:1022300001DD012333609E480FF0C6FC054613F014
:10224000CFFA3B6801309842B8BF0123994F284626
:10225000B8BF3B600FF0B8FC0DF0B8FF80460DF042
:10226000BDFF05466FF07F400FF0E6FC00200FF049
:102270006BFC00200FF0DEFC12F050FE24B10522B2
:102280008748114612F062F9336883B18A480FF02B
:102290009BFCA5F128020A21834812F003FBA5F15B
:1022A0001702032312B20A2100200FF08FFA3B68B5
:1022B0005BB17F480FF088FC13F092FA2A1A521093
:1022C0004FEA68017D4812F0D3FA002414F038FA7E
:1022D000032014F025FA4822002114A819F094FDD7
:1022E00009940A940DF07AFF754F81460120FFF79B
:1022F0009DFE0BA805970BF01BFD2046FFF7D4FEB3
:102300007049FEF73DFD704D03461C9005226F4954
:102310000DF1520010F0F6FB14AB19462A680BA819
:102320000BF00BFD0DF13E0006970BF001FD204672
:10233000FFF742FD6349FEF723FD04220346259083
:1023400063490DF1760010F0DDFB1DAB19466A689C
:102350000DF13E000BF0F1FCFFF768F9DFF864A126
:102360004FEA690301900293FFF760F9019BC51AD8
:1023700043F697239D423FDD0BA80BF0DDFC0DF1EA
:102380003E000BF0D9FC14F0D3F927B0BDE8F08F74
:10239000012441E7142394FBF3F503FB1545002DBD
:1023A00076D16FF07F400FF047FC28460FF0CCFB52
:1023B000A9F1170740480FF007FC3BB2039307ABA6
:1023C0000DF1240B53F825805BF8253098450FD08C
:1023D000394B029A1B7E39463B440A2012F06CFDB1
:1023E0000323039A0A2140460FF0F0F94BF82580A9
:1023F0000135022DE3D14BE0FFF7DEF80028BBD119
:102400002846FFF751FE5146FEF7BAFC05990746EC
:102410001C90FEF749FEA8B90597FFF707F91C9B2A
:102420000746052229490DF1520010F06BFB264AA0
:1024300014AB126819460BA80BF07FFCFFF7F6F8F7
:10244000C01B07902846FFF7B7FC5146FEF798FCE3
:10245000069905462590FEF727FEB0B90695FFF7C9
:10246000E5F8259B0546042219490DF1760010F088
:1024700049FB154A1DAB526819460DF13E000BF0A1
:102480005CFCFFF7D3F8401B08903368002B81D128
:1024900010F046FD013467E74CCD010872CD01080C
:1024A000A8490308AC05002085CD0108A805002037
:1024B00024360208A40500208031020828CE010835
:1024C000000080BF35FA8E3C240000200000002070
:1024D000140000202DE9F34731493248FFF78EF907
:1024E000FFF728F90020FFF79BF80DF06FFE8146FB
:1024F0000DF074FE3222142180462B4812F026F88B
:102500002A48FFF703F940F6B830FFF76FF90020CB
:10251000FFF786F832221421254812F017F82548D3
:10252000FFF7F4F840F6B830FFF760F93D2399FB68
:10253000F3F95C23002598FBF3F81E46DFF870A042
:102540004D450EDC3D2700246F4306E006FB04F2F8
:102550003946504611F0FAFF01344445F6DD0135A5
:10256000EEE74FF4FA60FFF741F91348FFF7CEF8B2
:102570000DF02CFE04460DF031FE032342106110D5
:1025800000938A3A5A390A4811F01AFF0B48FFF7AC
:10259000BDF84FF47A6002B0BDE8F047FFF726B906
:1025A00090070208C7070208281B0208CF07020885
:1025B00040080208E6070208FA0702082408020891
:1025C0002DE9F04796B05022002102A819F01CFC1A
:1025D0000DF0FCFD05460DF001FE8F4906468F48C3
:1025E000FFF70CF90120FFF71BF86FF07F400FF0A9
:1025F00023FB8B480FF0E8FA0C226910894812F08F
:1026000037F989480FF0E0FA2B220121874812F0B0
:1026100049F93F220121864812F044F95322012151
:10262000844812F03FF962220121834812F03AF9FE
:1026300071220121814812F035F98522012180485B
:1026400012F030F9992201217E4812F02BF97E48D0
:102650000FF0BAFA0DF0D2FD014602A8FEF778FF9E
:102660007A4902A8FEF796FF09200DF075FD044691
:1026700058B1774902A8FEF78DFF214602A8FEF760
:1026800067FF744902A8FEF785FFA6F119020C2125
:1026900002A812F007F9FEF7C9FF06466E4FDFF8F1
:1026A000BC8141F26F7A4FF4FA69FEF7BFFF801BDD
:1026B000504502DCFEF780FF10B116B0BDE8F08790
:1026C000FEF7B4FF841B94FBF9F04FF47A7309FB17
:1026D000104090FBF3F307FB0300B0F5FA7FE4DC56
:1026E0004FF4FA74C0EB002090FBF4F44FF0FF0AB3
:1026F000C3EB03235C4004EB042304EB0324CDF879
:1027000000A02A46019434232B213C2011F0E4FB45
:10271000CDF800A04FF47F4AC4F1FF1909F57F49B5
:10272000CDF804902A463E2335213C2011F0D4FBFD
:10273000CDF800A02A46019448233F213C2011F007
:10274000CBFBCDF800A04FF47F0ACDF804902A46C9
:10275000522349213C2011F0BFFBCDF800A02A46AE
:1027600001945C2353213C2011F0B6FBCDF800A06E
:102770004FF6FF7ACDF804902A4666235D213C206F
:1027800011F0AAFB2A460194CDF80080702367213E
:102790003C2011F0A1FBCDF80490CDF800A02A4612
:1027A0007A2371213C2011F097FBCDF800A0DFF8CF
:1027B000B0A02A46019484237B213C2011F08CFB9D
:1027C000CDF804902A46CDF800A08E2385213C2028
:1027D00011F082FB2A460194CDF800A098238F21A6
:1027E0003C2011F079FBCDF804904FF0FF192A46F8
:1027F000CDF80090A22399213C2011F06DFBAC2371
:102800002A46A3210194CDF800903C2011F064FBEE
:1028100010F086FB45E700BF3C1B0208B51B020811
:1028200024360208BF1B0208ECCF0308CA1B0208AB
:10283000CE1B0208D41B0208D91B0208DE1B0208AB
:10284000E51B0208EA1B020898F80308F21B0208BD
:10285000F71B02088925020818FCFFFF8080800012
:1028600000FFFF00034B03600A234360052303813D
:10287000704700BF2C0000202DE9F74F00260546C9
:10288000884691463446334655F8331001330A687A
:102890005288A242C4BF8E681446032BF4D11F484D
:1028A0000FF092F94A464146A86911F0FBFF12F079
:1028B00097FF013081441A480FF086F902344C44E6
:1028C00008F10507043508F159084E4424B255F8BB
:1028D00004BC15F808ABDBF80820DBF80030B21AAE
:1028E0005046B3F80090019212F0AAFF39460090CA
:1028F000019ADBF8000011F029FE009B2246A9EBAB
:10290000030107EB610109B250461C3712F09CF835
:10291000B845DCD103B0BDE8F08F00BF80310208BC
:10292000F8E8030810B522492248FEF767FF0120A6
:10293000FEF776FE12F050FA0DF048FC0446022035
:102940000FF002F91C480FF03FF90C2261101B48F0
:1029500011F08EFF2046FDF777FD194B0022FDF7A1
:1029600003FFFEF787F80446442205211548FFF7C8
:1029700083FF8F2205211448FFF77EFF2146442262
:102980001248FFF779FF21468F221148FFF774FFA5
:102990004FF47A60FEF72AFF12F026FA002108466B
:1029A00012F02AFABDE810400A4812F00DBA00BF32
:1029B000FA1B02081B1C020824360208221C02080B
:1029C00000000440341C02086C1C0208501C020861
:1029D000881C0208F409040801292DE9F041804609
:1029E0000C4605D002291DD0F9B90326462501E081
:1029F0000E4632250E4F57F824000EF0EFF84FF434
:102A00007A7257F82430684302FB0636094B47F8C0
:102A100024601D6805EB204001B24046BDE8F0414E
:102A200006F0D6BD07261E25E4E7BDE8F08100BF0D
:102A3000B8050020B405002010B5094C094B2268E8
:102A400053F82210084B1B68194409B206F0C0FD68
:102A500023680133462B08BF0023236010BD00BF4D
:102A6000B0050020141D0208B405002003680F2BD8
:102A700002D10120FEF7D4BD0AF0E0BC2DE9F04FF1
:102A8000AA4991B0AA48FEF7B9FEFEF753FE0DF031
:102A90009DFB06460DF0A2FB0446A64802F0CAF9CB
:102AA000A4F14B09079009F02BFBA34908F0F4FFB0
:102AB000B9F1F20FA6F1140706DDB7F5DC7FA8BF68
:102AC0004FF4DC774FF0F20909F01AFB002540F6CD
:102AD0000203A4EB09046410A6EB070E462C214662
:102AE0008DE80900B8BF46214FEA6E003A464B46D2
:102AF0000395029507F01AF9092304462A46132183
:102B000000932B4607F03FFA204608F0FFFD2A46C7
:102B10008A49204607F0C4F901224FF408012046F3
:102B200007F0BEF902222946204607F0B9F9032230
:102B30008349204607F0B4F90121204607F0CDF97A
:102B40001921204607F0E0F90A21204607F0F1F9A3
:102B5000204609F07BFB7B4F0DF12C08002357F832
:102B600025001A46A6F1270106F0F2FC48F82500D8
:102B70000135052DF2D1A9F109030493002219238F
:102B80000C21042006F0D6FB6F4D1423012228608F
:102B90000221092006F0CEFB6C4FA9F10401386038
:102BA000286806F00AFC6FF00401286806F0F2FBC2
:102BB000674EA9F112030893D6F81090B9F1000FEF
:102BC00021D12968204607F038F93968204607F0F6
:102BD00034F9286806F0DCFB386806F0D9FB58F8B1
:102BE000290009F1010906F0F1FCB9F1050FF6D150
:102BF00020460AF041F8079802F01CF911B0BDE830
:102C0000F04FFEF7DDBD3068FEF780FD29682046F5
:102C100007F0F1F83968204607F0EDF8049AB36838
:102C2000F16853434B4A5B121360049B204659439F
:102C3000491207F093F9089B7168386859434912A3
:102C400006F0A8FB3369D6F8149005930DF0BEFA90
:102C50004FF0000BA0F1270AD94505DC00239A4567
:102C600017DD4FF0000B10E058F82B10204607F04E
:102C70006DF80BF1010BEFE70693594658F82B005E
:102C8000059B9847069B0BF1010BD945F4DC0133FA
:102C9000E5E7FEF7CBFC4FF0010A8346FEF7C6FCE2
:102CA000A0EB0B030693002399452EDCBAF1000F2D
:102CB0000CD010F035F92968204607F0BEF8204600
:102CC000396807F0BAF8204608F03AFCFEF774FCC1
:102CD0008246FEF7ABFC069BA0EB0B00C01A0E2849
:102CE00003DCC0F10F000EF01AFF41F28732069BA1
:102CF000934202DCBAF1000FD0D04FF0000AD14568
:102D00000CDCFEF75DFD183656E7194658F823002F
:102D10000993059B9847099B0133C5E758F82A108A
:102D2000204607F035F80AF1010AE8E7D21C02084C
:102D3000031D0208FCB703086D2A0008404040004C
:102D4000808080002C1E0208880900208409002051
:102D500054000020B40500202DE9F04188B06A46F7
:102D60006F46414B03F11005144618685968083343
:102D700003C4AB422246F7D1002618681B792060B5
:102D80002371CDF81560CDF819608DF81D600DF038
:102D90001DFA80460DF022FA04463046FEF740FC4C
:102DA00002200EF0D1FE6FF07F404FEA68050EF072
:102DB00043FF2E480EF008FF44F3191229462C4811
:102DC00011F056FD2B480EF0FFFE0B221626624333
:102DD000664329469211284811F04AFDB61127484A
:102DE0000EF02AFF32462946254811F041FD2548BC
:102DF0000EF0EAFE06F112022946234811F038FDD2
:102E00006FF07F400EF018FF1A480EF0DDFE10F054
:102E100009F80146384619F05DF8C4EB441229461A
:102E20003846921111F024FD2622184B624319886E
:102E30009211A8EB01014910154811F087FB6FF0C2
:102E40007F400EF0F9FE09480EF0BEFE38226243C4
:102E5000294692110F4811F00BFD41F28830FEF720
:102E6000F9FB08B0BDE8F08154CB01082436020814
:102E7000551E0208ECCF03085D1E0208FF882200E1
:102E8000921E02088CF70308C11E0208BC49030801
:102E900094490308DF1E02082DE9F04F8C499BB0CE
:102EA0008C48FEF7ABFC0120FEF7BAFBFEF742FCB4
:102EB0000DF08CF904460DF091F9A4F1D2067610CC
:102EC000552EA0F14103D8BFA4F591764FEAE30750
:102ED000D8BF7610A3EB470409F012F94FF4007342
:102EE000002503930223D22207F141018DE8090056
:102EF00002952346304605F08FF9044608F0F2FCAF
:102F0000204604F089FA012105F072FC01212046D7
:102F100004F057FA0121204604F01AFA0521204650
:102F200004F018F90521204604F037F96A4EB36819
:102F300032687168204605F08AF9F2682946204611
:102F4000013504F087F8032D06F11006EFD10025B6
:102F50004FF0FF36A946A8462F46204604F097F8C2
:102F600005955E4B03EB050ADAF8080008B1FEF799
:102F7000CDFBDAF80430013B052B0CD8DFE803F079
:102F80004C95423A3E03204604F023FA4FF0000AE3
:102F90008346D3450DD1514BE8580EF0C0FDB5F531
:102FA000C07F40F08E80204609F066FE1BB0BDE871
:102FB000F08F4B4B424653F8293039460093204658
:102FC000002309F1010904F07EF9B9F1180F204638
:102FD00008BF4FF0000904F00FFA013708F10108AB
:102FE000874208BF0027C34508BF4FF000080AF119
:102FF000010ACEE7204605F01FF9CCE7204605F090
:1030000020F9C8E7059B83F001031A460593314672
:10301000204604F04EF8BEE74FF0280B0DF12C0AC5
:103020003C220021504618F0EFFE18F0F5FEF52383
:10303000B0FBF3F202FB13002A4B53F8201050466A
:1030400018F057FF00221A210791069218F0E4FEAB
:103050000799069A90FBF1F303FB11000AEB020EAD
:1030600001324130052A8EF81400EDD118F0D4FE5B
:1030700042F2107290FBF2F303FB120215ABA2F5C1
:103080009C52083A18491846069318F0FFFE069B12
:1030900010AA08A92046CDF820A009920A9305F0AD
:1030A00027F9BBF1010BBBD175E7731C02D10026D8
:1030B000059AACE7204604F09FF901368642F7D125
:1030C000F5E7FEF779FA0C3500283FF44AAF6AE7D6
:1030D000F01E02081A1F0208B82002082C1F02085E
:1030E000E820020848210208281F02082DE9F04FB5
:1030F00097B0282200210CA818F086FE0DF066F883
:1031000005460DF06BF804460DF070F8064611F018
:1031100063FEB4420BDA002302A8ADF80830ADF824
:103120000A30ADF80C50ADF80E400EF087FD654941
:103130006548FEF763FB0026DFF89C8104AF58F872
:10314000260011F073FF47F826000136082EF6D14D
:103150000226FEF76BFA95FBF6F894FBF6F682462C
:103160004FF0000941F2873BC8F1000876421FFA90
:1031700088F8B6B2FEF75AFAA0EB0A00584564DDAB
:10318000FEF71EFB0DF022F807460DF027F88046EB
:10319000A0F13D0B0FF077FE00900FF06DFE0EF0EA
:1031A0004BFDFEF743FA0026814600F1640307F168
:1031B000FF3A019352465B46412100200FF07AFE10
:1031C000FEF734FA019A0136821A002AF2DD0190E4
:1031D00000980EF031FD00200EF030FD0020FEF7CB
:1031E0001FFA6FF07F400EF027FD02200EF0ACFCBE
:1031F00036480EF0E9FC0522A8F17D0807FB08F728
:103200001146334811F0A2F97E430CA83149FEF76C
:10321000C1F9019B4FF47A71A3EB0903B6FBF3F6F6
:103220000CA87143FEF794F90FF024FE221A5210F5
:1032300069100CA811F01CFB4FF47A60FEF70AFA33
:1032400011F0D2FD17B0BDE8F08FFEF7B5F90028F8
:1032500096D116AA09F0070302EB830353F8480C32
:103260000EF0DEFC18F0D8FD90FBF5F707FB150714
:1032700018F0D2FD90FBF4F101FB1401314489B246
:10328000019118F0C9FD009018F0C6FD90FBF4F311
:10329000009A03FB140392FBF5F005FB1022019941
:1032A0004744BFB2143314320B443A441BB212B237
:1032B00009B238B20FF0FEFD09F101090FF030FE3E
:1032C00058E700BFD0490308FE4903082436020826
:1032D000A8490308094A0308184A030870B590E88A
:1032E00028001D2B044611D0262B34D00F2B2BD1B8
:1032F000294B18780EF0F6FC28480EF09BFC11F0D4
:103300000DFEBDE8704000200EF0ECBC4FF498714B
:10331000284608F0F0FE0646FF22002102F00EFBD0
:103320001D4B3046196802F033FA40F2311128463D
:1033300008F0E1FE05460021FF2202F0FFFA184BDB
:103340002846196802F024FA164B1B681BB3204666
:10335000BDE870401847806808F085FEE3680646BF
:10336000052BF1D10146284608F0C5FE02F003FB0B
:10337000B6F5987F09D040F231139E42E4D1084B54
:103380001860284608F0DFFD02E0034B186028466D
:1033900009F030FCD8E770BD9C000020AAAAAA0062
:1033A000CC050020D0050020036810B50F2B044683
:1033B00003D1064B18780EF095FC204607F040FB31
:1033C000BDE8104000200EF08DBC00BFCC050020F1
:1033D0002DE9F041074645680CF0F8FE06460CF072
:1033E000FDFE3B680446B3F5806F51D040F20142C8
:1033F000934245D00F2B40F092806FF07F400EF04B
:1034000019FCB6F5C87FC8BFA6F5C873454DC4BF43
:103410005B102B60B4F5A07FC8BFA4F5A073424F2A
:10342000C4BF5B103B603A682968404811F08EF8D1
:103430002A682AB10021631E013A084611F03CFDBA
:10344000286800F5C870864204DD631E721E0021E4
:1034500011F032FD3B6833B12868013B00F28F1256
:10346000002111F029FD396801F5A0718C4256DD6B
:103470002868631E00F28F12BDE8F04111F01CBDF8
:103480002B4B1B6823B92B4B1A680AB902221A600E
:10349000274B1968002921DA2249A6F5C872096864
:1034A0008A4205DB00226FF001011A60214A116097
:1034B000B6F5C87F04DA1B491B680A681A440A601B
:1034C000B4F5A07F05DA184A1A49136809680B4455
:1034D00013602846BDE8F04109F08CBB154A10681E
:1034E000002809DA1048A4F5A07100688142DFDBEA
:1034F000022119600021DAE739B10A490968002977
:10350000D6DB002119600221D1E70028D0D006487F
:1035100000680028CCDB6FF001001860C7E7BDE849
:10352000F08100BFD8050020E0050020804B030893
:10353000D4050020DC0500202DE9F04F664985B058
:103540006648FEF75BF9FEF7C7F80CF03FFE04464D
:10355000634807F011F8022007F01EF84FF0FF1142
:10356000002007F00FF84FF0FF11012007F00AF8D4
:1035700001F0B4FC80465A4801F0A4FC4FF47F00EF
:1035800001F0A6FC08F0BCFD564908F085FA81461A
:1035900008F0B6FD40F2014108F093FA3723019399
:1035A0000223DC3C94FBF3F4002305211A4600942B
:1035B0004D4807F081FB044608F0A8F84B49204627
:1035C00008F06AFA204608F0A7FD054608F09EF8C4
:1035D0004749284608F060FA464B1D2118602846E6
:1035E00008F06FFA204608F097FD4FF4987108F044
:1035F00082FD8246204608F08FFD40F2311108F02E
:103600007AFD8346FEF712F841F28837054600F14D
:10361000280601200EF083FAFEF708F8B04224DBFA
:1036200000F12806039008F06BFD4FF4806108F06C
:1036300048FA039A521B92FBF7F307FB132340F659
:10364000C312934238DC4FF47F725A4342F2107334
:1036500092FBF3F319465046039302F099F8039B4B
:103660005846C3F1FF0102F093F8FDF7DFFF42F285
:103670000F73401B98422ADD204609F0FDFA1E48D0
:1036800006F07AFF002006F087FF1C49002006F0B4
:1036900079FF4FF47F01012006F074FF404601F0EE
:1036A00011FC002001F014FC08F02AFD494605B089
:1036B000BDE8F04F08F0F0B942F21072A3F6C4135F
:1036C000A3EB03239B0093FBF2F3FF33C2E7FDF769
:1036D00073FF00289DD0CFE7A84A0308D44A030807
:1036E00050C40308D1330008F44A0308A933000882
:1036F000DD320008D0050020D80204084040400018
:103700004FF47A7208B51C4B1B68B3FBF2F3013B14
:10371000B3F1807F09D2F021184A5360184B83F827
:1037200023100023936007231360002000F086F924
:10373000012000F083F9022000F080F9032000F05E
:103740007DF90021012000F0B1F90021022000F0F4
:10375000ADF90021032000F0A9F90021042000F0B8
:10376000A5F90021052000F0A1F901214FF48050B6
:1037700001F02CF8002008BDA000002010E000E0BF
:1037800000ED00E010B5042000F0E6F900284FF04D
:10379000020014BF0024022400F0DEF908B944F04E
:1037A0000404012000F0D8F908B944F0080403200B
:1037B00000F0D2F908B944F00104052000F0CCF97A
:1037C00008B944F01004204610BD1FB50023019332
:1037D00002930393FFF7D6FFC20744BF4FF0FF33B6
:1037E0000293830744BF01230293410744BF4FF074
:1037F000FF330193020744BF01230193C30648BF6F
:10380000012301A848BF8DF80C300FF09FFA05B0D6
:103810005DF804FB08B54FF4407000F081FEFFF73F
:103820006FFF042008F0ACF811F0B6FB0122034B47
:103830001A70FEF721F8002008BD00BFE405002043
:10384000134A08B51368642B08D801331360114A72
:103850001368322B10D80133136008BD00201060AC
:1038600000F014F9012000F011F9022000F00EF927
:10387000032000F00BF9EAE700231360064B1B78E6
:10388000012B03D1BDE80840FFF79FBF08BD00BF73
:10389000E8050020EC050020E4050020002103E0FD
:1038A0000B4B5B58435004310A480B4B42189A4269
:1038B000F6D30A4A02E0002342F8043B084B9A423E
:1038C000F9D300F02FF818F047FAFFF7A3FF70477D
:1038D0002C120408000000204805002048050020A4
:1038E00004970020FEE77047FEE70000024A1368D5
:1038F00001331360FFF7A4BF8C950020FEE7FEE7BD
:10390000FEE770477047704708B54FF4807000F0CD
:103910007FFE28B1BDE808404FF4807000F082BE01
:1039200008BD0000404B82B01A6842F480721A60F1
:1039300099683E4A0A409A601A68194622F08852ED
:1039400022F001121A601A6822F480221A609A6822
:1039500022F47D029A600022DA60009201921A68D5
:1039600042F480321A601A6802F400320192009A1E
:1039700001320092019A1AB9009AB2F5A06FF2D101
:103980000B6813F4003318BF01230193019B012B33
:1039900005D04FF00062264B9A6002B070474FF49A
:1039A0000061244B1A68A3F5806342F00402C3F857
:1039B0000024D3F8002442F00202C3F80024D3F814
:1039C000002442F00102C3F800245A6A42F08052F7
:1039D0005A62194A11605168C906FCD49A689A6003
:1039E0009A689A609A689A609A6822F47D029A604E
:1039F0009A6842F411029A601A6842F080721A6062
:103A0000094B19461A689201FCD59A6822F0030204
:103A10009A609A6842F003029A608B6803F00C0384
:103A20000C2BFAD1B5E700BF003802400CC0FF886C
:103A300000ED00E0003C02400070004073B5044619
:103A40000F4B012153F8200000F0C0FE0D4B0E4E2D
:103A500033F8145001238DF8043000238DF806301C
:103A60008DF807300323694656F824008DF8053099
:103A7000009500F043FE56F824301D8302B070BD5F
:103A800014A6030824A60308BC000020054B53F825
:103A90002020054B918A33F810304B409BB2938223
:103AA000704700BFBC00002024A6030870B5234B5C
:103AB00086B004460E4653F82000012100F086FE31
:103AC00001210025084600F08DFE1D4B06A933F8A4
:103AD00014308DF80C5041F8103D1A4B8DF80F50F2
:103AE00053F8240000F00AFE012E23D1164B195D75
:103AF000164B185D00F082FE154B8DF8145033F80C
:103B000014300493C4B10C23012504A88DF815309A
:103B10008DF8165000F042FD0E4B01A81B5D8DF88C
:103B200007508DF804300F238DF805308DF80630DE
:103B300000F000FD06B070BD0823E5E7D0A503083E
:103B4000FAA50308A400002006A603080CA6030893
:103B5000E8A50308F4A5030808B5044B33F81010D2
:103B6000034B53F8200000F018FE08BDFAA5030827
:103B7000A4000020002384B00190039342F210734C
:103B8000019A53430393039B0BB904B07047039B03
:103B9000013BF7E773B50121D82000F017FE4CF286
:103BA00033730025009303260223484C69462046C0
:103BB0008DF804308DF805608DF806508DF80750AB
:103BC00000F09CFD294620460C2200F0ECFD20462A
:103BD0000C22012100F0E7FD20460C22042100F018
:103BE000E2FD20460C22052100F0DDFD20460C22DE
:103BF000082100F0D8FD20460C22092100F0D3FD59
:103C000020460C220A2100F0CEFD20460C220E2177
:103C100000F0C9FD0C2220460F2100F0C4FD4FF634
:103C2000807304F5806469462046009300F066FDC9
:103C300020460C22072100F0B6FD20460C22082168
:103C400000F0B1FD20460C22092100F0ACFD204619
:103C50000C220A2100F0A7FD20460C220B2100F0C7
:103C6000A2FD0C222046114600F09DFD20460C22AC
:103C70000D2100F098FD20460C220E2100F093FD4E
:103C80000C2220460F2104F5006400F08CFD6946EB
:103C90002046009600F032FD294620460C2200F016
:103CA00082FD0C222046012100F07DFD4FF480535F
:103CB00004F5806469462046009300F01FFD0C2245
:103CC0002046114600F06FFD02B070BD000C0240AE
:103CD00030B5012197B04FF0804000F077FD02220F
:103CE000029210220023012506240A924FF48052EA
:103CF00007A80193039304930593069308930993EC
:103D00000B930C930D930E930F93109211931293A8
:103D1000139300950794CDF850D0CDF854D000F00F
:103D200087FC2946204600F0DDFC17B030BD0000BE
:103D30002DE9F74FFFF72EFFFFF7CAFF0520FFF72A
:103D400019FF00244FF0D8418C804A888A4B92B2E8
:103D50001A801A8892B2472A40F01481EA238B8095
:103D6000EB23CC808B802023CB80EC234FF00C0CFA
:103D70008B80ED23A1F806C08B80C423CB80E82381
:103D800040208B80E923C8808B804FF03803CB80A4
:103D9000F12301258B80F223CD8027268B801023F1
:103DA000CB808E80A326CE8088804120CD808880E5
:103DB0004220CC8088804320CC808880CB804423E4
:103DC0008B800E23CB8045234FF0240E8B804FF049
:103DD00004084623A1F806E08B80A1F8068048235A
:103DE0008A8050220226CA808B804923CE808B8015
:103DF0001323CB804A234B208B801923CB808880D0
:103E00004C20CB8088804FF01600C8808A801B2011
:103E10005122C8808A803122CA80522253278A8048
:103E20002F224FF03F09CA808F805427A1F80690B7
:103E30008F805527A1F806908F803E27CF80562788
:103E40008F804FF05707CA808F807B27CF805827FD
:103E50004FF0090A8F805927A1F806A04FF05A0B9E
:103E60008F800627CF80A1F804B04FF05B0BCF8086
:103E7000A1F804B0A1F806C04FF05C0CA1F804C092
:103E80004FF01D0CA1F806C04FF05D0CA1F804C066
:103E90004FF0CC0CA1F806C08880C8801A2088801A
:103EA000CD80A1F804E0CA8025228A804FF0570215
:103EB000CA8023228A808622CA8018228A803622DB
:103EC0004FF01F0BCA8001928B808823CD80304633
:103ED0008D80CC80A1F804B0CB80FFF74BFE80230F
:103EE000A1F804B03046CB80FFF744FE9023A1F840
:103EF00004B03046CB80FFF73DFED023A1F804B0DC
:103F00003046CB80FFF736FE172303208B80052336
:103F1000CB808D80CC808E80CC808880CC80A1F8B6
:103F20000480CD808B800723A1F806908F80CC8001
:103F30008B800823CC808B80EF23CC80A1F804A059
:103F4000CB804FF0160328258B804FF03803019A61
:103F5000CD8038468A80CC808A80A1F806808D800A
:103F6000CB80FFF707FE3C238D80CB80034A044BB8
:103F70001A6003B0BDE8F08FF4050020CC000020EB
:103F8000F005002045F208401A8892B2824240F0C3
:103F9000FB804FF001084FF48073A1F80480CB80C0
:103FA00002238B804FF4E0630325CB8041F2300382
:103FB0008D80CB8004238B800823CC808B8040F2C3
:103FC0000223CB8009238B800A23CC808B800C2397
:103FD000CC808B800D23CC8010268B8011270F2363
:103FE0004FF0120A4FF01309CC8014208B80CC8044
:103FF0008E80CC808F80CC80A1F804A0CC80A1F8EA
:104000000490CC80FFF7B6FD8F8007270520CF8076
:10401000FFF7B0FD41F2B0238E800520CB80FFF783
:10402000A9FD40F2BD13A1F804A00520CB80FFF745
:10403000A1FD4FF4A053A1F80490CB8029238B80DD
:104040000E230520CB80FFF795FD20238B802123B5
:10405000CC8030228B8040F23F13CB808A8040F6A8
:104060000D32CA8031228A8041F62312CA80322260
:104070008A8041F62642CA8033228A8042F21C623C
:10408000CA8034228A8042F21942CA8035228A804C
:1040900040F60B52CA8036228A8041F20602CA805C
:1040A00037228A804FF4C262CA8038228A8040F266
:1040B0000672CA8039228A804FF44172CA803A223D
:1040C0008A8040F60562CA803B228A8040F60162FF
:1040D000CA803C228A804FF48772CA803D228A803F
:1040E00040F20E52CA803E228A8040F20342CA80C9
:1040F0003F228A8040F20762CA8050228A80512281
:10410000CC808A80EF22CA8052228A805322CC80BF
:104110008A80CB8060238B804FF42743CB80612340
:104120008B806A23A1F806808B808023CC808B80D3
:104130008123CC808B808223CC808B808323CC8096
:104140008B808423CC808B808523CC808B809023B4
:10415000CC808B809223CE808B809323CC808B80ED
:104160009523CD808B804FF48873CB8097238B80F1
:104170009823CC808B8041F21803CC808D80CB803B
:104180008F804FF48973F0E649F220301A8892B29A
:10419000824240F0DE80E5238B804FF4004301270C
:1041A000CB804FF480738C80CF808F80CB800223B4
:1041B0008B804FF4E0630325CB8041F230038D8088
:1041C000CB8004238B800823CC808B8040F2022399
:1041D000CB8009238B800A23CC808B800C23CC805E
:1041E0008B800D23CC8010268B804FF013080F237B
:1041F0004FF0110A4FF01209CC8014208B80CC8034
:104200008E80CC80A1F804A0CC80A1F80490CC8052
:10421000A1F80480CC80FFF7ADFC41F2B0738E8032
:10422000CB8040F23713A1F804A00520CB80FFF724
:10423000A1FC40F23913A1F804900520CB80FFF7D0
:1042400099FC4FF4E853A1F80480CB802923052082
:104250008B80A1F80680FFF78DFC20238B80212323
:10426000CC808B803023CC808B800623CB80312385
:104270008B8040F20113CB8032238B803523CD809D
:104280008B804FF48373CB8036238B8040F60233D0
:10429000CB8037238B8040F20233CB8038238B8056
:1042A00040F20773CB8039233C228B800723CB80DD
:1042B0008A804FF4C062CA803D228A8040F20B227D
:1042C000CA8050228A805122CC808A80EF22CA8004
:1042D00052228A805322CC808A8040F23F12CA80C8
:1042E00060228A804FF41C52CA8061228A806A222E
:1042F000CF808A808022CC808A808122CC808A8074
:104300008222CC808A808322CC808A808422CC80C6
:104310008A808522CC808A809022CC808A809222DA
:10432000CE808A809322CC808A809522CD808A801C
:104330004FF48872CA8097228A809822CC808A8023
:1043400041F21802CC808D80CA808B8040F27313BA
:104350000BE649F225321B889BB293427FF406AEEE
:1043600001274FF480738C80CF808F80CB80022315
:104370008B804FF4E0630325CB8041F218090423BE
:104380008D80A1F806908B800823CC808B8040F232
:104390000223CB8009238B800A23CC808B800C23C3
:1043A000CC808B800D23CC8010268B804FF013089F
:1043B0000F234FF0110B4FF0120ACC8014208B808A
:1043C000CC808E80CC80A1F804B0CC80A1F804A071
:1043D000CC80A1F80480CC80FFF7CCFB41F2B07315
:1043E0008E80CB8040F23713A1F804B00520CB803B
:1043F000FFF7C0FB40F23913A1F804A00520CB80E1
:10440000FFF7B8FB4FF4E853A1F80480CB802923D1
:1044100005208B80A1F80680FFF7ACFB20238B8062
:104420002123CC808B803023CC8031228B800723CA
:10443000CB808A8040F20232CA80322240F20510DC
:104440008A803522C88040F2062E8A803622A1F862
:1044500006E04FF0370C8A8040F60802CA80A1F8C7
:1044600004C0A1F806E04FF0380EA1F804E040F2D5
:10447000045EA1F806E04FF0390EA1F804E04FF019
:104480003C0ECB80A1F804E0C8803D208880CA8023
:1044900050228A805122CC808A80EF22CA80522208
:1044A0008A805322CC808A8040F23F12CA806022E8
:1044B0008A804FF42742CA8061228A806A22CF8094
:1044C0008A808022CC808A808122CC808A8082224D
:1044D000CC808A808322CC808A808422CC808A808F
:1044E0008522CC808A809022CC808A809222CE80C5
:1044F0008A809322CC808A809522CD808A804FF456
:104500008872CA8097228A809822CC808A80CC8048
:104510008D80A1F806908B8040F2331325E500BF13
:1045200040F0BF60024B40F40030D860704700BFDD
:1045300000ED00E010B5C3780278FBB1154BD968E7
:104540004378C943C1F30221C1F10404E4B2A3409A
:104550000F24807844FA01F10140DBB20B430E498D
:104560001B018818DBB280F800330123500902F0E8
:104570001F0203FA02F241F8202010BD0121530965
:1045800002F01F0201FA02F20349203341F823200E
:1045900010BD00BF00ED00E000E100E0827930B521
:1045A0000168037942B3CC43184A03F1804315688C
:1045B00003F582332540156055682C4054601C6813
:1045C0002143196003689468D9430C409460D4680F
:1045D0002140D1604179102906D191681943916039
:1045E000D1680B43D36030BD01F1804202F58232C5
:1045F00011680B43136030BD03F1804303F5823330
:104600001A6822EA0101196030BD00BF00040140B0
:10461000034B5B69034214BF01200020704700BFB9
:1046200000040140014B5861704700BF0004014085
:104630008168436830B5C4680B4323430469C26A88
:1046400023434469082943EA04038469416B43EA2C
:104650000403C4698D6943EA0403046A43EA04035A
:10466000446A43EA0403846A43EA0403046B43EAAA
:10467000020343EA040304684FEA840404F120447B
:10468000236002BF236843F0400323600B68B2F548
:10469000804F43EA05034D6843EA05138D6843EAFA
:1046A0000523CD6843EA05430D69496943EA05538B
:1046B00043EA0163636012D1826B916913680B4313
:1046C000516843EA0113916843EA01231169526971
:1046D00043EA015343EA0263C4F8043130BD6FF08A
:1046E0007043F9E7800000F12040036819B143F0FE
:1046F00001030360704723F00103FAE72DE9F0435B
:104700000022012603240D6806FA02FE3EEA050394
:104710003ED1570004FA07F3DB43D0F800C00CEA9F
:10472000030CC0F800C091F804C0D0F800900CFA57
:1047300007F80CF1FF3C48EA0908BCF1010FC0F88A
:10474000008018D8D0F808C003EA0C0383604B79C6
:10475000D0F808C0BB4043EA0C03836083889BB257
:1047600023EA0E0383808B79B0F804E0934043EA98
:104770000E039BB28380C36804FA07FE23EA0E038C
:10478000C360CB79D0F80CE0BB4043EA0E03C360B2
:104790000132102AB8D1BDE8F083038A194214BF50
:1047A00001200020704710B50F2401F00703C9084D
:1047B00000EB8100016A9B009C4021EA0401016238
:1047C000016A9A400A43026210BD0000044BDA6994
:1047D00011B11043D861704722EA0000FAE700BF28
:1047E00000380240044B1A6A11B110431862704736
:1047F00022EA0000FAE700BF0038024010B50F249B
:1048000001F0030301F0FC0101F1804101F5803169
:104810008A689B009C4022EA04028A608A68984069
:104820001043886010BD00004FF40C41014811F0A6
:1048300037B900BF8C090020014B1868704700BFD2
:104840008C950020034B1A6810441A68821A002ABB
:10485000FBDC70478C95002070470000014B1880EE
:10486000704700BF0400006C014B1880704700BF08
:104870000600006C044B00EB4101884200D17047F8
:1048800030F8022B1A80F8E70600006C044B00EBAE
:104890004101884200D170471A8820F8022BF8E7BE
:1048A0000200006C10B5A0B01422002101A817F07E
:1048B000ABFA6822002106A817F0A6FA00231449D3
:1048C0001A46144810F062F94FF4A0720446F02121
:1048D00000200BF054F94FF4A072F02100200BF0EF
:1048E00037F9062301A9204603930BF0D0F80A4BB1
:1048F0000A4A0E930A4B06A90F930A4B20461193BE
:10490000094B1593094B0BF0E0F820B010BD00BF28
:10491000B40A0408F00404085D48000829EE000801
:1049200069480008754800088D480008A1F400088F
:10493000012908B503D1FFF7FBF9002008BD4FF0AE
:10494000FF3008BD10B59EB0044668460EF07EF8F4
:10495000094B18680CF0DAF8B4F90000B4F9021049
:10496000B4F90420B4F9063011F08AFB68460EF061
:1049700077F81EB010BD00BFF805002010B59EB03E
:10498000044668460EF062F8094B18680CF0BEF851
:10499000B4F90000B4F90210B4F90420B4F90630F7
:1049A00011F06EFB68460EF05BF81EB010BD00BF44
:1049B000F805002007B5684607F0CEFB6846FFF70C
:1049C000C1FF0EBD07B5684607F0C6FB6846FFF796
:1049D000D5FF0EBD37B5C36A02460D4600F108018A
:1049E0001C6803C98DE803001046694606F07EFD89
:1049F000B5F90000BDF9003002199A4217DCB5F98B
:104A00000410BDF90420081B904210DBB5F90230F8
:104A1000BDF902001919814209DCB5F90600BDF99A
:104A20000620041B9442ACBF0020012000E00120BE
:104A30003EBD70B5B0F90030B0F904601588F01AC9
:104A4000948883B2D0885288181A9B1A08808B8069
:104A50004D80CC8070BD438E13B503F008000C462A
:104A600081B279B1684607F077FBBDF80220BDF846
:104A70000630BDF80000BDF804102280A3806080DD
:104A8000E18002E0204607F067FB1CBD38B5044614
:104A90000D4608F067F8E36A28461A682946BDE81B
:104AA00038400CF04FB9438E03F008018AB222B1AE
:104AB000B0F90610B0F9020003E0B0F90410B0F943
:104AC00000000B1A581C7047438E03F008018AB28D
:104AD00022B1B0F90410B0F9000003E0B0F90610FB
:104AE000B0F902000B1A581C704713B5044610F0B9
:104AF000A9FF438E019003F0080081B2204611B156
:104B000007F0B8F901E007F0A1F9044601A810F098
:104B1000A7FF20461CBD37B50C46054610F092FF96
:104B2000428E0190944203D04486284608F062F8F1
:104B300001A810F095FF3EBD37B50C46054678B18B
:104B400010F080FF428E019004EA02018C4204D0F2
:104B500014434486284608F04DF801A810F080FF61
:104B60003EBD37B50D46044670B110F06BFF428E66
:104B7000019022EA05018A4203D04186204608F0CE
:104B800039F801A810F06CFF3EBD0000024B4286D0
:104B90001B680186C3627047D4000020F0B50D4643
:104BA00085B00646002800F0938010F04BFF2B687C
:104BB0000246152B029030D006DC112B30D0142B7E
:104BC0007AD00D2B7DD13CE01E2B48D004DC162B77
:104BD00077D1EB68038672E01F2B68D0B3F5407F76
:104BE0006FD1C06AED680168D5622A6802A88D1A83
:104BF00010F036FF304610F025FF04AC694244F84F
:104C0000040D0A462B46009506F0CFFB204610F017
:104C100027FF304607F0EEFF51E0B0F9300049E0E1
:104C2000428E02F0100398B200284AD0E9680C7A4C
:104C3000002C46D002A810F013FF304606F052FEBA
:104C40003FE0E868C16800293BD00C7A002C38D0DE
:104C500002A810F005FF304607F0BEFA2FE0EF681B
:104C6000418E012F0AD101F0100294B26CB130468E
:104C700041F00101FFF74FFF082708E021F0010193
:104C80003046FFF748FF092701E04FF0FF3702A841
:104C900010F0E6FE7B1C4FF0000405D0304639468C
:104CA00006F08BFFEC600DE00123EB600AE0438E21
:104CB000C3F30010E86002E0E968FFF7E7FE0024B4
:104CC00000E00124029820B102A810F0C9FE00E023
:104CD0000124204605B0F0BD70B50D46FE211646F4
:104CE000044607F008FA294606F080FDFF21204619
:104CF00007F001FA3146BDE8704006F077BD13B504
:104D00001446428E0B4602F008018AB222B11A46BE
:104D10006946FFF78EFE6B46184621460FF00EF9E6
:104D20001CBD1FB5448E04F00804A4B2ACB189B216
:104D3000ADF80010ADF80410ADF8022002A96A46E3
:104D4000ADF80630FFF775FEBDF90A00BDF9081091
:104D5000BDF90C200EF07EFE04E0084611461A460E
:104D60000EF0E4FB1FBD438E07B50A4603F00801B1
:104D70008BB21BB16946FFF75CFE6A4610460EF027
:104D80008DF80EBDF8B51C46438E0D4603F00800A5
:104D900081B21646069F51B1002C07DB2846311B15
:104DA000A2190EF057FE013CED19F5E7F8BD002CF5
:104DB00007DB2846311BA2190EF0B8FB013CED19A8
:104DC000F5E7F8BD37B505460C4619B9684607F052
:104DD000C3F96C466B8E03F0080081B229B12246FC
:104DE00028466946FFF725FE6C4628462146FFF710
:104DF000F1FD18B1EA6A2046136998473EBD0021CB
:104E0000FFF7E0BF438E37B50C4603F008018AB2C6
:104E1000054622B122466946FFF70BFE6C4628463E
:104E20002146FFF7D7FD18B1E86A83682046984706
:104E30003EBD0000024B1A6818601046704700BF64
:104E4000D4000020014B1868704700BFD400002038
:104E500037B50C46054600B310F0F4FD436C0090E6
:104E60006846019310F0FCFD214601A80BF0FEFE00
:104E7000D0F1010438BF002484B9284610F0E2FDC7
:104E8000019A416C0090914218BF4264684610F04C
:104E9000E7FD284607F0AEFE00E0012420463EBDB7
:104EA00037B50C46054660B110F0CCFD426B019061
:104EB000A24203D04463284607F09CFE01A810F0EC
:104EC000CFFD3EBD014B1860704700BFD8000020E9
:104ED000014B5860704700BFD8000020014B186894
:104EE000704700BFD8000020F0B587B0B0F90C7053
:104EF000B0F90E60B0F91050B0F90AE0009102214B
:104F00000191448A0294B0F9081003914468F91899
:104F1000049484692B460EEB02000594324600F09F
:104F200065F807B0F0BD30B54568044685B0284641
:104F30002146FFF733FE002855D023680C2B10D0F4
:104F40000F2B1BD00B2B4BD1284610F07BFD04AD53
:104F500045F80C0D443010F0CDFF284610F080FDD0
:104F60003EE0E16829B10A7A002A0CBF0221012142
:104F700000E00321284606F020FE31E0284610F02C
:104F800061FD0090806B0BF0C1FD0098406B0CF050
:104F90001BFE284606F0D8FB28B90099C86B0BF019
:104FA000ADFD0FF0BBFF009A536CABB102200CF0CB
:104FB000CBFD02A807F0D0F80098406C10F042FD3D
:104FC000009B02A9B3F9482093F8403001900FF0FC
:104FD000F3FA01A810F044FD684610F041FD02E02C
:104FE000204608F02BFA05B030BD0000F0B587B0C0
:104FF0000C9D109C00950D9D45F0010501951D4DE2
:105000000295119D2035039507F0B0FE054668B363
:105010000CB9002713E02046FBF7BCF8013010F074
:10502000FEFF07460028F4D010F00CFD06AE46F84F
:10503000040D214616F05DFF304610F011FD2846A4
:1050400010F000FD06AE0F9900220590FFF79EFDBF
:1050500056F8044D0E9B0848A4F848306764343471
:105060000FC884E80F00304610F0FAFC284607B05D
:10507000F0BD00BF274F0008D80000202DE9FF47F2
:10508000036A0446002B00F0D6814068DA6885493F
:10509000854D0A38002A18BF0D460A2800F2CB8138
:1050A000DFE810F0B601C901C901C901C9010B004F
:1050B000C901C901C90181007E011E69AA6A002EC9
:1050C00036D02769A1696B6ACE1BF01A811A0226B5
:1050D00091FBF6F3FE1806EB020808F1FF3728698A
:1050E0000CF0AAFD314660693A460EF0B3FC6269E5
:1050F0003046511CE2690EF019FA01366869A8F1D0
:1051000002080CF099FDE069314642460EF0A2FC1F
:105110006169E269013138460EF008FAA8690CF0BD
:105120008BFD6269E369511C30464246013B37E022
:1051300067696B6AE169F818CF1BFB1A0221461CEC
:10514000981A90FBF1F7F61906EB020808F1FF3701
:1051500028690CF071FD314620693A460EF0E6F9F7
:1051600022693046511CA2690EF074FC0136686950
:10517000A8F102080CF060FDA069314642460EF02D
:10518000D5F92369A269591C38460EF063FCA86959
:105190000CF052FD2069A26901303146013A4346C4
:1051A0000DF088FE47E11E681F69721C5610002F23
:1051B0007CD0686AA769C0EB070928680CF03CFD41
:1051C00009F1FF3A6169C6EB0A0808F101078B197A
:1051D00052463846013B0EF01FFCE16952468B1BDC
:1051E000013338460EF018FC6069216942460EF022
:1051F00031FCE069216942460EF02CFC6169E269EC
:1052000020690EF093F968680CF016FD6169A9F148
:10521000020A8B19384601315246013B0EF0FCFB65
:10522000E2693846931B511E013352460EF0F4FBDF
:10523000606921690130013142460EF00BFC23699F
:10524000E269591C501E42460EF004FC2069616957
:10525000E26901300131013A0EF068F9AA6820696B
:105260000092EA686169E3690192023002313A46CC
:10527000023B0EF031FEE8680CF0DEFC0225701EE9
:10528000854280F2D8806169E2697318591B931BCB
:105290005A1909F1FF30401B0131013A0EF046F96D
:1052A0000135ECE7E8000020140100206B6A60691A
:1052B00000EB030928680CF0BFFC09F1010A226920
:1052C0000AEB060808F1FF379119481E3B46514684
:1052D0000EF0A2FBA2693B46901B514601300EF036
:1052E0009BFB20694146E2690EF020F9A069414626
:1052F000E2690EF01BF92369A269591C013AE069C1
:105300000EF0A8FB68680CF097FC236909F1020A0B
:105310009919481E5A1C51463B460EF07DFBA26966
:105320005146901B0130013A3B460EF075FB236954
:10533000E269581C4146013A0EF0F8F8E369A169A8
:105340005A1E481E41460EF0F1F8E0692169A26933
:1053500001380231023A0EF07DFBA9682069009104
:10536000E968A269E369019102303946023A023BD9
:105370000EF080FDA8680CF05FFC0225701E8542CF
:1053800059DA226909F10100B318A269591B931B6C
:105390005A1940190131013A0EF05CFB0135EDE775
:1053A0001E69E869D6B10CF047FC276A00267B68C5
:1053B0009E4240DA3968022091FBF0F06169013BBE
:1053C0004018B968A269714391FBF3F3696AC01888
:1053D000511A01310EF03EFB0136E8E70CF02CFCCF
:1053E000276A7B689E4226DA3A68022092FBF0F038
:1053F0002269013B8018BA686169724392FBF3F33A
:105400006A6AC0188A18013A0EF090F80136E8E787
:10541000286A0CF011FC20696169A269E369ADF8A2
:105420000800ADF80A1002A80021ADF80C20ADF874
:105430000E300EF083FD002004B0BDE8F08700BF01
:1054400030B58BB0054610F0FDFA0AAB43F8280DD5
:10545000446C684610F004FB00200290099001950E
:1054600001A8A0470BB030BD2DE9F04395B006462A
:1054700010F0E8FAC56CD0F85090C26DB0F9601029
:105480000190446C476D408E0792C0F30023C0F337
:10549000C00200F0010801A8099306910A9210F0D9
:1054A000DFFA304602A906F054FE0A98A94514BF57
:1054B000C5EB0903012320B1BDF90E10BDF90A2087
:1054C00003E0BDF90C10BDF908208A1A0699C943FA
:1054D0008A1807990892002909DA4FF0050E591C1D
:1054E00092FBFEF29142079101DD0B21079128B159
:1054F000BDF90A20BDF90E10501C04E0BDF90820CA
:10550000BDF90C10501C8A1A0699013A521A7D1BDB
:10551000554395FBF3F7069BC519E8180F22BDF913
:105520000A300C92471EBDF90820BDF90E0006A9ED
:105530001391591C431E501CBDF90C200F90013AC9
:10554000ADF8100004A810911293ADF81210ADF848
:1055500016301192ADF814200B9606F0CBF80BA87C
:10556000A047002006F0C6F80A9B13210C9113B146
:105570001095129701E00F9511970F98109A1199B5
:10558000129BADF8100004A8ADF81220ADF814106D
:10559000ADF8163006F0AEF80BA8A047002006F0D4
:1055A000A9F8BDF90A2014200C90BDF90800511C7F
:1055B000BDF90E30BDF90C200130013B013A0F90CE
:1055C000ADF8100004A8109112931192ADF81210CA
:1055D000ADF81420ADF8163006F08CF80BA8A047F3
:1055E000002006F087F8B8F1000F21D0BDF80A10AE
:1055F0000A250BB21093BDF80E300C9518B212901C
:10560000BDF80800ADF8121002B20F92BDF80C20E0
:10561000ADF8100015B204A8ADF81420ADF816309E
:10562000119506F067F80BA8A047002006F062F875
:1056300015B0BDE8F08300000349044A044B1A602A
:105640000A6908611046704750010020400100209F
:105650004C010020F0B587B0B0F90C70B0F90E60C5
:10566000B0F91050B0F90AE0009100210191448A8C
:105670000294B0F9081003918469F9180EEB020046
:10568000049432462B4600F003F807B0F0BD00004A
:105690002DE9F04186B00C9C00940D9C44F001046F
:1056A00001941B4C0294109C3834039407F05EFB69
:1056B000804648B310F0C6F90E9B0F9913F0080FFF
:1056C00014BF1822102206AF0590FFF75FFA57F8B3
:1056D000046D104D06F134040FCD0FC42868082264
:1056E00020600D4C642321680020B1644FF0FF312D
:1056F000A6F860203365F064F165384610F0B0F923
:105700002268404653689847404606B0BDE8F0819D
:10571000DB570008500100204C01002037B505463A
:10572000C0B110F08FF9426DC16C02AC8A4244F8EE
:10573000040D0CDD531E4365284607F05BFA204636
:1057400010F08EF92846052106F037FA02E02046CF
:1057500010F086F93EBD37B50546C0B110F072F9BC
:10576000426D016D02AC8A4244F8040D0CDA531C00
:105770004365284607F03EFA204610F071F92846A6
:10578000052106F01AFA02E0204610F069F93EBD44
:1057900073B50E460546F8B110F054F9C26C036DAE
:1057A0009642ACBF31461146426D9942A8BF194698
:1057B00002AC8A4244F8040D0BD04165284607F03C
:1057C00019FA204610F04CF92846052106F0F5F9A3
:1057D00002E0204610F044F97CBD2DE9F74F446803
:1057E000054629462046FFF7D9F9002800F0A48095
:1057F0002B680E2B00F08D800F2B03D00C2B40F06C
:10580000988010E0204610F01DF902AB43F8040D1B
:10581000856C18462D6810F023F9002D00F08C805F
:105820002046A84788E0EF68002F00F082802046DD
:1058300010F008F9014602A840F8041DCE6CD1F81A
:105840005090B1F860B0B1F83280D1F828A010F0D3
:1058500007F9387A002848D00FFA8BFB022108F0AC
:1058600008029BFBF1F093B200F1010B0BB17F68D2
:1058700000E03F68CBEB07072046FFF736F9002F23
:1058800012DDA0EB4B018F420DDA002908BF012188
:105890000220C6EB090991FBF0F209FB0727B7FBD1
:1058A000F1F39E1900E04E46204606F080FA10B152
:1058B000204606F017F82046012106F0D1F808F43A
:1058C000807831462046FFF763FF1FFA88F181BBDD
:1058D00020464FF480710AF0020AFFF72DF91FFAF3
:1058E0008AF030B32046012110E008F480781FFAD6
:1058F00088F2F2B120464FF480710AF0020AFFF7F5
:1059000030F91FFA8AF3A3B12046022106F055F9B7
:105910000FE0EA685068116800280ADD102905D0F8
:10592000122906D12046FFF716FF02E02046FFF7B6
:10593000F5FE284607F082FDBDE8FE8F73B50C46E4
:1059400016460546B0B110F07DF8416DA642ACBFD9
:1059500032462246A142B8BF4465436D019093424E
:10596000C4640265C8BF426501A810F079F82846F2
:1059700007F040F97CBD13B5044640B110F062F861
:1059800002AB43F8040D446D184610F069F8204648
:105990001CBD10B521B1B0F90440B0F9001003E00E
:1059A000B0F90640B0F90210601A411C0C1F032028
:1059B00094FBF0F010600A1AA1EB6201481E186017
:1059C00010BD70B5B0F90030B0F90460B0F9025004
:1059D000F218B0F9063056105C1BE01C82109C1ABD
:1059E000AD18886A0CF028F93046294622460DF099
:1059F0009DFDB01C294622460DF098FD301D29461C
:105A000022460DF093FDB01E294622460DF08EFD74
:105A1000301F29462246BDE870400DF087BD70B5A5
:105A2000B0F90230B0F90660B0F90050F218B0F9E0
:105A3000043056105C1BE01C82109C1AAD18886A5A
:105A40000CF0FAF83046294622460EF003F8B01C56
:105A5000294622460DF0FEFF301D294622460DF054
:105A6000F9FFB01E294622460DF0F4FF301F2946EB
:105A70002246BDE870400DF0EDBF38B50446086819
:105A80000D460CF0D9F8B4F90010B4F90420B4F9BB
:105A900002000131013A0DF0DDFFB4F90030B4F934
:105AA0000420591CB4F90600013A0DF0D3FFB4F9F3
:105AB0000630B4F902105A1EB4F9000001310DF09D
:105AC00035FDB4F90210B4F906200131013AB4F9F8
:105AD00004000DF02BFD68680CF0AEF8B4F900304E
