:020000040000FA
:2000000088750320DD010108096F0108E1630108056F0108730C0108F18E0108000000007E
:20002000000000000000000000000000EF010108D115010800000000F30101089D7F0108B6
:20004000F7010108F7010108F7010108F7010108F7010108F7010108F7010108F701010898
:20006000F7010108F7010108F7010108F7010108F7010108F7010108F7010108F701010878
:20008000F7010108F7010108F7010108F7010108F7010108F7010108F7010108F701010858
:2000A000F7010108F7010108F7010108F7010108F7010108F7010108F7010108F701010838
:2000C000F7010108F7010108F7010108F7010108F7010108D98E0108E58E0108F70101082E
:2000E000F7010108F7010108F7010108F7010108F7010108F7010108F7010108F7010108F8
:20010000F7010108F7010108F7010108F7010108F7010108F7010108F7010108F7010108D7
:20012000F7010108F7010108F7010108F7010108F7010108F7010108F7010108F7010108B7
:20014000F7010108F7010108F7010108F7010108F7010108F7010108F7010108F701010897
:20016000F7010108F7010108F7010108F7010108F7010108F7010108F70101080000000078
:20018000F7010108F7010108F7010108F7010108F7010108F7010108F7010108F701010857
:2001A000CD6C0108F701010885150108F7010108057B0108F7010108F7010108F7010108CC
:2001C000F7010108F7010108DFF80CD000F06CFB00480047FD9601088875032006488047B3
:2001E00006480047FEE7FEE7FEE7FEE7FEE7FEE7FEE7FEE7FEE7FEE7B97F0108C901010864
:2002000010B5441A0346944209D28318114403E011F8014D03F8014D521EF9D210BD40EA1C
:200220000104A40703D009E010C9121F10C3042AFAD203E011F8014B03F8014B521EF9D2C1
:2002400010BDD2B201E000F8012B491EFBD270470022F6E710B513460A4604461946FFF751
:20026000F0FF204610BD421C10F8011B0029FBD1801A704730B504460020034600E05B1CA5
:20028000934203D2E05CCD5C401BF8D030BD034611F8012B00F8012B002AF9D11846704794
:2002A0002DE9FE4F804681EA0300C00F0C46009021F0004123F00045B8EB0200A94105D2E6
:2002C0004046214690461C460B46024623F00040104347D0270DC7F30A00C3F30A51029008
:2002E000401A019040286BDAC3F3130040F4801B0098924620B10023D2EB030A63EB0B0B3C
:2003000001985946C0F14002504600F0D8F906460D4650465946019A00F0F0F910EB080010
:200320006141002487EA115284EAE7731A4340D0009A62B3019A012A4FEA075215DC001BDB
:2003400061EB02014FF0004202EA0752CDE90042001C41F5801132462B4600F027FA03B000
:20036000BDE8F08F40462146F9E7001B61EB0201001C41F5801300185B412018A2F50017A3
:2003800047EB030140EAD570B6196D4111E06D084FEA360645EAC0754FEA0752001B61EB03
:2003A0000201001C41F5801149084FEA30000019514132462B4603B0BDE8F04F00F0E7B9E2
:2003C0000098012240000023D0EB020263EBE073009821464FEAE074B8EB000061EB04011F
:2003E000E9E783F000435BE781F0004158E72DE9FE4F81EA030404F0004421F00041009451
:200400004FF0000B23F0004350EA01045ED052EA03045BD0C3F30A54C1F30A552C44A4F234
:20042000F3340194A0FB0254C1F3130141F48011C3F3130343F4801301FB024400FB034E5D
:20044000840A970A44EA815447EA8357A4FB076802958D0A05FB07854FEA932C04FB0C5440
:200460002705029D4FEA065847EA1637B5EB08056EEB070C870E920E47EA811742EA8312C4
:20048000A7FB0201B6EB0B0164EB00042B0D43EA0C335E1844EB1C50DA465146E7FB020166
:2004A000C5F313044FEA0B3343EA14534FEA0432019C43EA0603A4F10C040294009CCDE993
:2004C00000B400F073F903B0BDE8F08F00200146F9E72DE9F04D81EA030404F0004B21F0D9
:2004E000004514464FF0000A23F0004150EA050220D054EA01021DD0C5F30A570246C5F348
:200500001303C1F31300C1F30A5640F4801543F48013A7EB0608101BD64608F2FD3873EBE3
:20052000050002D308F1010801E092185B41B8F1000F03DA00200146BDE8F08D00204FF437
:200540008011064684460EE0171B73EB050705D3121B63EB050306434CEA010C49084FEAF9
:20056000300092185B4150EA0107EDD152EA030012D082EA040083EA0501084305D0101BB6
:20058000AB4106D20122002306E000224FF0004302E06FF0010253101AEB06004CEB085185
:2005A00010EB0A0041EB0B01BDE8F04D00F0EFB80EB5C10F80EAE0700844CA07002140F2C8
:2005C00033438DE80E000A460B4600F0EFF803B000BD00F0004230F000400AD0C10D01F50A
:2005E0006071C0F3160042EA0151C20840071143704700200146704701F0004330B421F080
:20060000004150EA010206D00A0DA2F56072C1F31301002A02DC30BC00207047440F44EAF2
:20062000C104C100E01830BC00EBC25000F078B830B50B46014600202022012409E021FA2B
:2006400002F59D4205D303FA02F5491B04FA02F52844151EA2F10102F1DC30BD2DE9F05F4B
:200660000546002092469B4688460646814640241BE0284641464746224600F02FF853467C
:200680005A46C01A914110D311461846224600F016F82D1A67EB01084F462246012000212F
:2006A00000F00DF817EB00094E41201EA4F10104DFDC484631462A464346BDE8F09F202A9C
:2006C00004DB203A00FA02F1002070479140C2F1200320FA03F3194390407047202A04DB5A
:2006E000203A21FA02F00021704721FA02F3D040C2F120029140084319467047202A06DB69
:20070000CB17203A41FA02F043EAE07306E041FA02F3D040C2F120029140084319467047C3
:200720000029A8BF7047401C490008BF20F00100704710B4B0FA80FC00FA0CF050EA01041F
:2007400004BF10BC704749B1CCF1200421FA04F411FA0CF118BF012121430843A3EB0C011A
:20076000CB1D4FEA00614FEA102042BF002010BC704700EBC35010440029A4BF10BC704789
:20078000401C490008BF20F0010010BC704710B5141E73F1000408DA401C41F100019218DF
:2007A0005B411A4301D120F0010010BD2DE9F04D92469B4611B1B1FA81F202E0B0FA80F2A6
:2007C00020329046FFF77BFF04460F4640EA0A0041EA0B0153465A46084313D0114653EA7C
:2007E000010019D0C8F140025046FFF777FF05460E46504659464246FFF761FF084305D040
:20080000012004E020463946BDE8F08D0020054346EAE0762C4337430A986305E40AA0EB72
:2008200008000022FD0A44EA47540A3002D500200146E9E7010510196941DDE90845001971
:200840006941BDE8F04DA2E7C1F30A52C1F3130140F2FF3341F480119A4202DA0020014662
:20086000704740F233439A42A2F2334202DC5242FFF734BFFFF723BF30B5041E71F1000494
:2008800004DB4FF00044404264EB0101141E73F1000405DB1C464FF00043524263EB0403DC
:2008A000994208BF904230BD064C074D06E0E06840F0010394E8070098471034AC42F6D372
:2008C000FFF786FC68BB030898BB030870B58C1810F8015B15F0070301D110F8013B2A1187
:2008E00006D110F8012B03E010F8016B01F8016B5B1EF9D12B0705D40023521E0DD401F876
:20090000013BFAE710F8013BCB1A921C03E013F8015B01F8015B521EF9D5A142D8D3002058
:2009200070BD00002DE9FC47204D4FF0010945F8049F804600244FF0100A1D4F4FF6FF7236
:2009400005F12C0629463046C5E901A9EC600194B847012002F0ECFE02202946C5E9000A0C
:2009600030464FF6FF72C5E90294B84708200321C5E9001AC5E90204304629464FF6FF72A5
:20098000B8474FF40871042001914FF6FF720199C5E9000AC5E9029130462946B847304643
:2009A0004146BDE8FC4705F08CBA00BF6C0A0120E55E01082DE9F04F85B080465F4881680B
:2009C0004FF00C0B41F001014FF0030A816000278168022401F00101594D00916E460099B4
:2009E000DFF86091016841F480010160016801F4800100910099016841F001010160016840
:200A000001F0010100910099016841F004010160016801F0040100910099016841F008018D
:200A20000160016801F0080100910099016841F010010160016801F01001009100990168BE
:200A400041F020010160016801F0200100910099016841F0400101603146006800F04000F3
:200A600000900098CDF810B04FF63F00CDF80CA002970194009005F5A050C84701A83146FD
:200A800080E8900C802000902846C84701A8314680E8900C3020009005F50060C84701A88F
:200AA000314680E8900C48F23310009005F5C050C84701A8314680E8900C4FF683700090A9
:200AC00005F58050C84701A8314680E8900C4CF20370009005F54060C8471B4D4FF4003054
:200AE00005F12001194C81E88104C5E90B774FF480404FF480514FF480624FF40073C5E9BC
:200B000000478024C5E90243C5E90421C5E906072846C8F83050C5F8388002F03EFD2846AB
:200B200002F062FD38200F21002203F0F1FD382003F0E0FD05B0BDE8F08F00BF303802406F
:200B4000000002401D380108C80C0120106402402DE9F04F8BB0DFF80491824699F80000F5
:200B6000D9F808100969884700288AF8000070D000260DF10E040DF1040B4FF00008C0B265
:200B8000804566D299F80000D9F80830A1190BEB06025B69984799F80100012808D1A15BD3
:200BA0000DF1220006AA81533BF8060090531FE0810705D5A15B0DF12202C1F5805191538B
:200BC000410705D53BF8061006AAC1F580519153000705D406A80DF12201805B895B07E03A
:200BE000A05B06A90DF1220288533BF80610915309EB4605EB682A6A5C1A38BFCC1A171A77
:200C000038BF871ABFB217FA84F4062C03D302460B462862E96099F80040702C03D10AEB98
:200C2000060251800AE0B9F802100AEB06005943090B4180B9F804005043000B0AEB060173
:200C40000DF10E04888102369AF8000008F1010895E700200BB0BDE8F08F00BFE409012067
:200C600000F00F01000900EB800001EB4000C0B2704707F091B80000E0B50CF04FF9164834
:200C80000CF00EFE012011F075FF0DF073F800200CF0AAFE0BF007FC01200CF0A5FE4FF08D
:200CA0007F400CF0B9FE0BF0FEFB0DF105003021032200F0BFFC9DF805109DF806209DF8B0
:200CC0000730064880F84A1080F84E2080F852300BF0AEFF8CBD00BF0D6F0108700C01200B
:200CE0002DE9F04F85B0002000270CF07DFE0BF0DAFB012001240CF077FE4FF07F400CF02B
:200D00008BFE0BF0D0FB01200CF0BAFCDFF85464DFF854143046012204F056FFDFF84C14CA
:200D20003046012204F024FF02214FF40160CDE9007102A94FF05A0881E81101DFF8304403
:200D40000A2014215A221E23A047A146DFF82444DFF8245402216061A847DFF820A46069E4
:200D60009AF80910DFF81864B04740F611004FF0020B00973C21CDE901B001205A22CDE93D
:200D800003080A201E23C8470221A061A8479AF80A10A069B04740F61201F020CDE9007B85
:200DA00002910121CDE903100A2082215A221E23B046C84702214E46E061A8479AF80B1092
:200DC000E069C047022140F61300019102A94FF0170B009781E881080A20AA215A221E237E
:200DE0004FF00209B04702212062A8479AF80C10206AC04740F6140002A9CDE9007981E852
:200E000081080A20D2215A221E234FF00209B04702216062A8479AF80D10606AC04740F6A4
:200E2000160002A9CDE9007981E88108BE2014215A221E23B0470221B046CAF87000A847CF
:200E4000C948A9460078CF4DDAF87060A847AB4601463046CA4DA8473B2040F617010222EC
:200E60000097CDE90121CDE90370BE203C215A221E23C0470221CAF87400C847BA48DAF89F
:200E800074604078D84701463046A8471F2040F6180102224FF0010900971E23CDE9012150
:200EA000CDE90390BE2082215A22C0470221DFF8C8B2CAF87800D847DFF8B082DAF8785075
:200EC00098F80200DFF8BCA2D04701462846AC4EB0470C2040F6190102220097CDE901217F
:200EE000CDE90390BE20AA215A221E23DFF88092C84702212060D84798F801002568D04754
:200F000001462846B04740F633004FF4FA6140F61A0202230097CDE90132CDE90310BE2080
:200F2000D2215A221E23C84702216060D84798F803006568D04700F5FA612846B0471C2088
:200F400040F6150102254FF0010A00975A22CDE90151CDE903A04FF4AA7014211E23B04697
:200F6000C8470221A060D847844EA068317AC04740F61C004621CDE900704FF4AA706E22C8
:200F800014230295022509F0A0FA4FF47F41E06009F0C8FBE0687CA109F0A0FBF16EE0682A
:200FA000C1F3804109F07EFB40F61F006421CDE90075CDE902A04FF4AA708222642309F06C
:200FC00045FD74A52061072F06D055F8271009F050FC01372069F6E764490978013909F061
:200FE0000CFF022540F60100CDE900054FF4AA70B42182221E2309F065F86D49E06209F06F
:20100000E5F94FF40060E621CDE900054FF4AA7082221E2309F056F86649A06209F0D6F98B
:20102000307A654951F820000CF0F8FC4FF4AA7033214FF4D7723B230BF056FE6FF07F40F7
:201040000CF0ECFC5D480CF0EDFC0C200CF040FD5B4F0F200521A022B8475A4D0A20052106
:20106000A84759A05D4EB0476E202321A8475CA0B0476E204B21A8475BA0B0470F20B9214E
:201080004FF4A072B847BE200521A84757A0B0474FF491702321A847574C2046B0474FF461
:2010A00091704B21A84755A0B0470F2040F24F1140F2DB12B8474FF4AA700521A84751A0A6
:2010C000B0474FF4DC701A21A84751A0B0474FF4DC702621A84750A0B0477D200521A02247
:2010E000B8470A207321A8474DA0B0476E209121A84750A0B0476E20B021A8474FA0B04716
:201100006E20BC21A8472046B0476E20D821A8474CA0B0476E20E421A8472046B0477D2043
:20112000B9214FF4A072B847BE207321A84747A0B0474FF491709121A84747A0B0474FF43C
:201140009170B921A84745A0B0474FF49170E121A84744A0B047012005B0BDE8F04F0CF023
:2011600001BB00BF700B0120580B0120380B0120B7150208700C01200B180208F40B0120B0
:201180005F180208610C010853435245454E53415645520004B9030808B9030800B90308BF
:2011A00011B9030815B90308F3B80308F7B8030819B90308FBB8030834B6030848D002085F
:2011C00079CA01080DCF0108444953504C4159204241434B4C4947485400000055C70108FA
:2011E00048494748000000004C4F57005345542054494D45000000000CB903084D494E5599
:201200005445000053455420434F4C4F5200000046554C4C00000000434C4F434B0000000B
:2012200053435245454E5341564552204F5054494F4E000054494D454F555400454E414237
:201240004C45000044495341424C4500534554204441544500000000444159004D4F4E54C3
:201260004800000059454152000000002DE9F041764C064620461021012200F0A0FE012037
:2012800002F056FA20461021002200F098FE6FF07F400CF0C3FB6E480CF0C4FB02200CF066
:2012A00021FC0E200CF014FC4F2E18BF422E2FD1642000214FF4B972322300250BF002F990
:2012C0004F2E4ED0422E40F0B480634EDFF88481B079002508EB0001002881F8445000F0AB
:2012E000A380013800273224B071C1B28F4280F09C80EB2014210BF009FE07FB04F00F22BB
:20130000823001B22A200BF005FAB0790137ECE7A6F13000092822D84F4CA07930B96420DD
:2013200000214FF4B97232230BF0CCF80C200CF0CFFBA079042808D88221322210FB0211DE
:201340002A200F220BF0E6F9A0794249014481F84460411CA171C9B2062928BFA0710025FC
:2013600067E03D4E3B48B17980F84950443006F0EDFD0546EB2014210BF0C8FD42F20F708B
:2013800085421ED14FF47F400CF048FB39A00BF0E1F9F06E102140F480500122F066204636
:2013A00000F00DFE4FF4FA7002F0C2F920461021002200F004FE4FF47A7002F0B9F9022535
:2013C00037E0EB2014210BF0A1FDFF200CF026FB22A00BF0BFF9254E204610210122B04748
:2013E000234F3220B8472046102100220025B0476420B847204610210122B0473220B847D0
:20140000204610210022B0476420B847204610210122B0473220B847204610210022B047E7
:201420004FF47A70B84704E0002058FA80F080F8445000200CF056FB00F0DCFD064947F2F0
:201440003052C1E90B022846BDE8F081000C02404CFF0208700C0120F40B012057524F4E29
:20146000472050415353574F52440000BF1F010831370108534552564943452050415353D2
:20148000574F5244204F4B00B0B5354C2C4D606BA847A06BA847E06BA847206CA847606CC2
:2014A000A847A06CA847E06CA847206DA847606DA847A06DA847E06DA847206EA847E06ECC
:2014C00020F40070E066B0BD70B51C4C1C4E6069B047A069B047E068B047E069B047206A15
:2014E000B047606AB0472069B0471D4D286FB047686FB047A86FB0472068B0476068B047A2
:20150000A068B047A06AB047E06A3146BDE87040084700BFB0B5094C094D206BA847606B52
:20152000A847A06BA847E06BA847206CA847A06AA847E06A2946BDE8B0400847700C0120DA
:201540007121020810B5064CE06E20F48400E06600F050FD6061607ABDE8104000F002B835
:20156000F40B0120502828BF5020052898BF052000EB80000249400009684863704700BF4B
:20158000B40B012080B5034801F068FF02480221016080BDD86B012008B0024010B50168FC
:2015A0006FF00F0252FA81F21823B2FBF3F306A45F2AE35C40F2FF3421EA040188BF0431CB
:2015C000C0E91613084610BD0006101600061016704781B000210091C1B20A2904D3009916
:2015E0000A3801310091F7E7009909010091009951FA80F000900098C0B201B0704705F089
:201600005DB880B5FFF7FBFFA02040F6B83100F009F828B1A8209121BDE8804000F096B8CA
:2016200080BD00000A46014640484FF47A7302F03BBA00BF80B513460246A02000F002F8F8
:2016400080BD00001CB50C4699B2CDE90021C1B236482246022305F0ABF81CBD2DE9F843C8
:201660000C46054602F03F08960911F03F001DD01746C0F1400936B3284621464A4600F033
:2016800057F8E8BBA7EB09004D4400F03F0780B24C448609300435D0A1B22846402200F059
:2016A00047F868BB013E40354034F3E7E6B130041DD0A1B22846402200F03AF800BB013ECF
:2016C00040354034F3E7B9450ED2284621464A4600F02EF8A0B909EB0401A7EB090205EB0F
:2016E000090089B292B208E02846214604E0B8F1000F0CD0A1B22846424600F019F830B102
:20170000BDE8F8831FB1A1B228463A46F5E70020BDE8F8831CB50C4699B2CDE90021C1B2C4
:2017200002482246022305F075F81CBD646C012080B513460246A020FFF7ECFF00B180BD41
:20174000A02040F6B831FFF76DFF80BD06F024BB2DE9F0410B680268012B1ED1D1E9073402
:2017600022F4F84201F10C0C1A43D1E901E8496A224311439CE8E0104268016047F6FF7177
:2017800022EA010141EA0E0141EA080129433143394341EA0C01416017E047F6FF730F1DC6
:2017A00022EA030CD1F82080F8CFD1E9062E43EA0C03496A23432B4333433B431A4342EAB0
:2017C0000E0242EA0802114301600020BDE8F081426942EA4101416100207047F8B505464E
:2017E00000200090144691E80D006FF01F06C96806EB43131043184340EA412000900098FC
:20180000286100F0F7FB0646671CA869800609D5002FFAD024B100F0EDFB801BA042F4D929
:201820000320F8BD0020F8BDF0B58368012A27D1294A1A4091E87810D1E9057E2349013B95
:2018400001EB06311143234A02EB07521143C26881606FF00F0102F0704201EB04111A438E
:2018600011436FF0FF0202EB05221143184A02EB0C421143AEF1010241EA0261C16022E008
:2018800091E874006FF00F0703F07043013A07EB04141A436FF0FF03224303EB05231A4365
:2018A0000A4B03EB06330A4C1A430B6904EB0343084C1A434B6904EB035389691A4301391D
:2018C00042EA016181600020F0BD00BF00F0FFFF0000FFFF0000F0FFFF0F0FFF70B5494E5A
:2018E0000546307A0C46C00713D005F087FA2289F168606806F03DF818B10020C6E90300EF
:2019000003E02089F1680844F06005F077FA05F099FF2846214606F08BFD00F06BFB7061D9
:20192000012070BD70B5374E0546307AC00767D148680C46417A022915D1F278017A914235
:2019400012D1016809BAF160406800BA306105F055FAD6E90301014405F02CFFE0B3002015
:20196000C6E9030048E0F2784178914211D10278A13A1F2A0DD8012303FA02F2224B1A4254
:2019800007D02846214606F053FD60680078B07036E0FF2934D10178D52931D18178C27806
:2019A00003794579194C21701949E570194DA2706370C2880A800122007A8870284604F02A
:2019C000D9F928462146012204F080F91248016841F40041016013E0B068114A40F001009F
:2019E0000221B0600D4806F01EFC2846214606F01FFD00F0FFFA706105F000FA05F022FFA9
:201A0000012070BDF00A012001000083380B0120580B0120700B0120600C0120886E0120B1
:201A2000DD18010802484FF400110AF091BA00BF000060C006490A6810440A689042FCDCB5
:201A4000704700BF7047000001480068704700BF880D012070470000F8B50022009290F8DC
:201A60003C20012A01D1022156E0012280F83C200A681FFA82FC0A2A4FEA4C0414FA82F671
:201A80000FD31E3E072404FA06F70468254655F80C3FBB432B60324B8F689A420ED13E0677
:201AA0000EE0046807232546B34055F8107F27EA03032B608B6803FA06F601E007FA06F6FC
:201AC0002B6833432B604D68062D05D805EB850304F134015D1F0CE005EB85060C2D04D813
:201AE00004F13001A6F1230503E004F12C01A6F141051F230E68AB4026EA03030B600CFAF5
:201B000005F30D682B430B607149A1F541739C4204D0002180F83C100846F8BD112A09D0CD
:201B20000F4B9A4206D0122AF3D10A6842F480020A60EEE70B6843F400030B6008498A42FB
:201B4000E7D1BB49BB4A0968B1FBF2F101EB81014900009100990029DBD000990139F8E75D
:201B600012000010B8B110B504460068216C41F002012164816821F0010181608068C00791
:201B800005D1204600F0ACF8002060642064002084F83C0010BD012070470068C06C704745
:201BA000002841D070B50446006C30B9002084F83C006064204600F094F8206CC00635D44F
:201BC000206C41F202118843414902302064086820F44030086094E80D0025690E683243CA
:201BE0000A60416821F480714160416841EA05214160416821F04071416041681943354BFF
:201C00004160816821F400618160E168826811438160816821F070618160A26A81689A42FE
:201C200006D121F040510CE00120704701204AE011438160816821F040518160E16A826846
:201C400011438160816821F002018160A169226A836843EA4101816041686AB141F4006146
:201C60001D4A4160416821F460414160616A02EB41314268114301E021F400614160174DD8
:201C8000C16A21F47001C162E2696169236B05EB0252C56A2A43C262826822F40072826075
:201CA000826842EA43228260826822F480628260826842EA81210122816000206064216CD6
:201CC00062F301012164002184F83C1070BD00BF042301400100000F00E0FFFF0000F0FF0E
:201CE00070477047F8B5044600680D468168490544BF80685FEAC05027D400F07BF906469E
:201D00006F1C20680168890710D4002FF9D025B100F070F9801BA842F3D9002084F83C0083
:201D2000206C40F0040020640320F8BD6FF012010160216C41F400712164816811F0405F73
:201D400001D1A16951B10020F8BD002084F83C00206C40F0200020640120F8BDC16A11F492
:201D6000700F02D080684005EDD4206C20F480702064206CC004E6D4206C40F001002064C5
:201D8000E1E7000081B00021009190F83C10012901D1022049E0012180F83C1001688A683C
:201DA000D20710D18A68234B42F001028A60204A1268B2FBF3F202EB42020092009A12B154
:201DC000009A013AF9E78A68D2072DD0026C40F201739A4302F5807202644A68520504D564
:201DE000026C012363F30D320264026C0023D20444BF436C23F00603002243646FF02203D4
:201E00000B6080F83C200C48D0F80423D20603D0814209D1806800E0886810F0405F03D1CD
:201E2000886840F080408860002001B0704700BFBC06012040420F000020014010B51F23B7
:201E400021FA03F4E40704D1013B5C1CF8D14FF0FF330124B4EBF20F09D04FEAF204022CC7
:201E600010D0032C05D1062B03D9012010BD0F2BFBD800684161816821F018011143816023
:201E8000002010BD072BF0D8F3E7B0B598B10446407F022502280FD0657700252068816828
:201EA00041F00101816001790571204600F03EF82577657700E001252846B0BD10B588B13B
:201EC0000446407F20B900202077204600F02FF802206077207938B1D4E902122046FFF744
:201EE000ADFF40B1012010BD20680F494161816821F018018160607908B1206901E04FF0A6
:201F0000FF302168D4E905230861886820F0600010438860886820F080001843886001203C
:201F20006077002010BD00BFB71DC104704770477047704770B50446866D00F05BF80546B9
:201F400094F8350002281ED12068216C026822F016020260426922F08002426109B9A16CEB
:201F600019B1016821F008010160016821F0010101600068C0070DD000F03CF8401B05281E
:201F800014D82068F5E7002084F8340080206065012070BDE06D3F2101FA00F00121B060A4
:201FA000002084F8340084F8351070BD20206065002084F83400032084F8350070BD002A63
:201FC00008BF09048161704790F841007047704790F83510022909D1052180F83510006840
:201FE000016821F00101016000207047802141650120704701480068704700BF80750120D1
:20200000BCFE0200635ED83417112031000001082DE9F04F91B0FFF7EDFFDFF8107E396936
:20202000401A642804D3FFF7E5FF38610AF000FEDFF8FC1DDFF8FC8D097898F80000C90747
:202040001BD1022841D0012803D10020786188F8000038780138072800F29780DFE810F0FB
:2020600008009B000A0152025402680287029403F869002840F015862EE0002841F09780AC
:20208000012088F8000001200BF0FAFA0AF00BFADFF8A40D0BF0C6FC4AF2FF500BF0BEFC0B
:2020A00002200BF01FFD0E200BF012FDF02087210AF02CFF0FF684500AF04CFB01200BF09C
:2020C00051FBFFF73FFA01F072B800200121C7E90600396088F80000FFF78CFFF861B8695E
:2020E000002840F0D4850120DFF8745DB861B87818B1284610F8541F29B9F87828B12846D2
:2021000010F8501F09B10021017001200BF0B8FA0AF0C9F909200BF0D3FC4FF47F400BF082
:202120007DFCDFF8404D4FF4C87014214FF4E1721423A0474FF4C87028214FF4E1722823B9
:20214000A0474FF4C8703C214FF4E1723C23A047DFF8140D5C2145220AF0AEFB797895F8E7
:202160004C00F24C002900F05683002840F0538320464FF4805101220126FFF720FF85F85F
:202180004C60DFF8E80C00F0D9BC0020B862B861B88000F085BDB86A002840F082850120E4
:2021A000B86201200BF06CFA0AF07DF909200BF087FCFF200BF032FCDFF8A84C142088217C
:2021C000DC228823A0474FF4827088214FF4E6728823A047F0201421F0227423A047F0207F
:2021E0009C21F022FC23A047DFF8840CDFF8844C4FF4A0711722A047DFF87C0C50219F22F7
:20220000A047DFF8780C4FF4A0719F22A047DFF8280C0BF007FC4AF2FF500BF0FFFB0220D5
:202220000BF060FCDFF8584C0E20A047DFF8545C4FF4B4707821A8470FF64C40DFF8506C1D
:20224000B0470E20A0477820FA21A8470FF64440B0470E20A0474FF4B470FA21A8470FF6C5
:202260004040B04701200BF07DFA0020B880B86100F017BD7879012800F0F483002840F046
:2022800010850120A7F8050000200BF0ADFB0AF00AF901200BF0A8FB4FF07F400BF0BCFBB5
:2022A0000AF001F901200BF0EBF9022440F60200CDE90004DFF8F05B642032213C223C235C
:2022C000A847B86340F60300CDE90004AA2032213C223C23A847F86340F60400CDE90004E9
:2022E000F02032213C223C23A847386440F60500CDE900044FF49B7032213C223C23A847F1
:20230000786440F60600CDE90004642078213C223C23A847B86440F60700CDE90004AA2045
:2023200078213C223C23A847F86440F60800CDE90004F02078213C223C23A847386540F6DC
:202340000900CDE900044FF49B7078213C223C23A847786540F60A00CDE90004AA20BE21A7
:202360003C223C23A847B86540F60B06F020BE213C223C23CDE90064A84778636420BE215A
:202380003C223C23CDE90064A847386640F60C00CDE900044FF49B70BE213C223C23A84704
:2023A000F865DFF8944A786BDFF8005B2146A847B86B2146A847F86B2146A847386C214663
:2023C000A847786C2146A847B86C2146A847F86C2146A847386D2146A847786D2146A8476A
:2023E000B86D2146A847DFF8C84AF86D2146A847386E2146A847786B0FF6B821DFF8B84A28
:20240000A047B86B0FF6B421A047F86B0FF6B021A047386C0FF6AC21A047786C0FF6A821C2
:20242000A047B86C0FF6A421A047F86C0FF6A021A047386D0FF69C21A047786D0FF69821DE
:20244000A047B86D0FF69421A047F86D0FF69021A047386E0FF68C21A047EB2014210AF054
:2024600055FD6FF07F400BF0D9FADFF87C0A0BF0D9FA02200BF036FB0E200BF029FB0FF653
:202480006C200AF067F901200BF06CF9F86E40F40070F866FFF7AEFDF862DFF8C40944305A
:2024A0000021062207F094FD09200BF009FB4FF47F400BF0B3FADFF8AC494FF4C8701421FD
:2024C0004FF4E1721423A0474FF4C87028214FF4E1722823A0474FF4C8703C214FF4E1724E
:2024E0003C23A04747F2305006AC386320460BF0A9F9002800F0D58306F0CCFA14200AF033
:20250000F1F8F3E70220CBE33879012800F0C482002840F0C6830120387109F0C4FF0020D1
:202520001E21B862B86179667871BAE300080240002000240BF058FA00200BF06FFA09F06C
:20254000B2FF012001250BF04FFA4FF07F400BF063FA09F0A8FF97F86D00800701D5FEF7FB
:2025600093FFBC62C7E90644BC803D6099E3DFF8EC4D386F25780FF037F9C0B2FFF729F850
:20258000854210D0386F0FF02FF9C0B2FFF721F82070DFF8CC0D2146012203F0EBFBF86E3C
:2025A00040F40040F8666578786F0FF01DF9C0B2FFF70FF8854210D0786F0FF015F9C0B2F4
:2025C000FFF707F86070DFF8980D2146012203F0D1FBF86E40F40040F866DFF8884DB86F66
:2025E000A5780FF001F9C0B2FEF7F3FF854210D0B86F0FF0F9F8C0B2FEF7EBFFA070DFF876
:20260000600D2146012203F061FBF86E40F40040F866DFF8385D667828680FF0E5F8C0B214
:20262000FEF7D7FF864210D028680FF0DDF8C0B2FEF7CFFF6070DFF8280D2146012203F035
:2026400045FBF86E40F40040F866E67868680FF0CBF83030C0B2FEF7BCFF864211D0686817
:202660000FF0C2F83030C0B2FEF7B3FFE070DFF8F00C2146012203F029FBF86E40F400408A
:20268000F8663E7AA8680FF0AFF8B04212D0A8680FF0AAF83872C0B2DFF8CC1C51F82000A5
:2026A0000BF0BCF94FF4AA7033214FF4D7723B230AF01AFBE86807F0E7FFF96E012821F4EE
:2026C000802208BF41F4802226782869FA6608F07CFB0130C0B2FEF77CFF864211D028696F
:2026E00008F073FB0130C0B2FEF773FF2070DFF8700C2146012203F0E9FAF86E40F400404D
:20270000F8666869DFF8484CA0477872A869A047B872E869A047F872286AA0473873686A94
:20272000A0477873A868A0473872A86A07F028FE002800F08D8005F0F1FB797ABA7A387A18
:20274000FB7A8DF81820DFF8104C8DF81910B9898DF81A300722ADF81B100A218DF81D008F
:20276000F86EC0F380408DF81E0006A8A047DFF8E40B20210122A04707F10E002A210122C3
:20278000A047FEF7A1FE8AE2DFF8C04BDFF8C05B206BA847DFF8BC1B0870606BA84784F8A8
:2027A0004A00A06BA84784F84E00E06BA84784F85200206CA847B873A06A07F0E1FD002856
:2027C00000F0448105F0AAFB797ABA7A387AFB7A8DF81820DFF8804B8DF81910B9898DF888
:2027E0001A300722ADF81B100A218DF81D00F86EC0F380408DF81E0006A8A047DFF8540B82
:2028000020210122A04707F10E002A210122A047FEF780FE43E251B148B120464FF4805105
:2028200000220026FFF7CBFB85F84C6084E150EA010200F07B81002940F08581002800F066
:20284000828120464FF480510122FFF7B8FB98E4E86A07F095FD002800F02382FEF734FEF4
:2028600000204FF0000B0BF0BFF809F01CFE012001240BF0B9F84FF07F400BF0CDF809F080
:2028800012FE01200AF0FCFEFE204FF4026102221E23CDE900B2CDE902140490DFF8CC4A35
:2028A0000A200A215A22A047DFF8C46A02212863B047DFF8A00ADFF8BC9A0178286BC847ED
:2028C000182140F621004FF0020ACDF800B0CDE901A0CDE903B10A2032215A221E23A047C6
:2028E00002216863B04795F84A10686BC84740F622005A21CDE900BACDE9020B18205A2270
:2029000004900A201E234FF0020AA0470221A863B04795F84E10A86BC84740F62300822158
:20292000CDE900BACDE9020B18205A2204900A201E234FF0020AA0470221E863B04795F88D
:202940005210E86BC84740F624017820CDE900BA02910A21CDE903100A20AA215A221E2317
:20296000A04702212864B047B97B286CC84740F601008C21CDE9000A4FF4AA7082223223F9
:2029800007F0A0FBDFF8F019E86207F01FFD4FF40060C821CDE9000A4FF4AA7082223223C6
:2029A00007F090FBDFF8D419A86207F00FFD6FF07F400BF033F8DFF8C8090BF033F80C2086
:2029C0000BF086F8DFF8BC596E200C21A8470FF6B810DFF8BC69B0476E201C21A8470FF669
:2029E000B410B0476E203821A8470FF6B010B0476E204421A847DFF8B0492046B0476E20ED
:202A00006021A8470FF6A410B0476E206C21A8472046B0476E208821A8470FF69C10B04761
:202A20006E209421A8472046B0476E20B021A8470FF69010B0476E20BC21A8470FF68C1022
:202A4000B04701200AF08EFE082029E1E06A07F097FC002800F02581FEF75CFDFEF740F998
:202A600007201DE1FFF7C6FAD7E90B12401A904280F01381786B07F083FC002800F09A83E0
:202A8000786B07F07DFC002800F0048306F002F8142009F027FEF3E7FFF7ACFAB96E401A0B
:202AA000B0F57A7FC0F0FD80FFF7A4FAB86601200AF0E6FD002032214FF4F072C82309F09F
:202AC00001FD796EFF20052988BF4FF47F400AF0A5FFDFF804090AF0A5FF02200BF002F844
:202AE0000E200AF0F5FFF02050210AF00FFA0FF6EC0009F02FFEDFF8FC080AF093FF022096
:202B00000AF0F0FF0E200AF0E3FFF0209C210AF0FDF9786E09F006FE01200AF023FE786E00
:202B2000002800F0BC8001387866BAE020464FF480510022FFF743FADFF8C0084FF48771E7
:202B4000462209F0B9FEFF200AF068FFB97895F85000A1B198B920464FF480610122012658
:202B6000FFF72DFADFF89808032150220A2385F850600AF085F8FFF73DFA386233E091B13E
:202B800088B120464FF4806100220026FFF717FADFF86C08032150220A2385F8506009F0EF
:202BA000CDFF3E621FE050EA01020FD0D9B9D0B120464FF480610122FFF701FADFF84008BE
:202BC000032150220A230AF05BF80CE020464FF480610022FFF7F3F9DFF8240803215022D2
:202BE0000A2309F0ABFF4FF47F000AF017FFF97895F85400A1B198B920464FF40061012211
:202C00000126FFF7DCF9DFF8FC0703215022BE2385F854600AF034F8FFF7ECF9386233E092
:202C200091B188B120464FF4006100220026FFF7C6F9DFF8D00703215022BE2385F85460BC
:202C400009F07CFF3E621FE050EA01020FD0D9B9D0B120464FF400610122FFF7B0F9DFF88F
:202C6000A40703215022BE230AF00AF80CE020464FF400610022FFF7A2F9DFF88807032103
:202C80005022BE2309F05AFF01200AF06BFD00203C21786288F8011002E0FEF7F5FB062037
:202CA000387097F86E00800727D43878042824D8FFF7A0F9F97A4FF47A7251437A69801AD3
:202CC00088421AD397F86D00800701D5FEF7DCFB3878082804D0072804D1FEF7F5FB01E09A
:202CE000FEF718FCB87AFEF73DFC06203870F86E20F4840000F50030F866F86940B1FFF7D4
:202D000079F9F969401AB0F5FA7F01D30020F861386AD8B3FFF76EF9B97B4FF47A72514399
:202D20003A6A801A884231D3744C002520464FF4806100223D62FFF742F920464FF400611C
:202D40000022FFF73CF9DFF8040680F8545080F85050F86E00F41810B0F5181F07D038782C
:202D6000012804D80020C7E906000120386004F58064102120460122FFF721F9012000F007
:202D8000D7FC204610210022FFF719F9FFF732F9796A401AB0F57A7FC0F00982FFF72AF94F
:202DA00078623878012800F2FC8197F86D00000640F1F781DFF8A855DFF8A06528463146B1
:202DC000012202F001FFDFF89C4528462146012202F0CEFE397B7A7B3078914210D2002149
:202DE000904238BF01210846FDF73AFF30B13078FDF736FF397B884280F08280F96E0EE076
:202E0000FDF72EFF397B88427AD23078FDF728FF7A7BF96E904202D241F4001173E08802DF
:202E200072D5062021F4001138706CE0F40B0120F80A0120B80601204CFF02084649524D66
:202E400057415245205550444154452052554E0A0D504C4541534520574149540000000025
:202E6000700C0120C5CA0108BCB50308F8B503080CB60308B9C8010820B60308D0B5030821
:202E8000D1DA01080DCF0108484F4D450000000055C7010853455454494E475300000000DA
:202EA000434C45414E000000C5A001089FA30108B4EB020830000000CDA301083100000073
:202EC000320000003300000034000000350000003600000037000000380000003900000046
:202EE0004F4B000042434B007C1D0308454E5445522050415353574F524400000008024069
:202F0000F86E40F40011F96601F41810B0F5181F40F08D80480203D52078FA7B82423FD06F
:202F200041F48000F86600200AF0AAFB00200AF05BFD09F0B8FA00200AF014FC01200AF05D
:202F40009FFB01200AF050FD4FF07F400AF064FD09F0A9FA3C2088F801002078F873092071
:202F60000AF0AEFD4FF47F400AF058FDDFF888544FF4C87014214FF4E1721423A8474FF4F9
:202F8000C87028214FF4E1722823A8474FF4C8703C214FF4E1723C23A84701200AF0E2FB2C
:202FA00009AD31462846022203F01CFAB078711C0222C0074FF03A0008BF20208DF826007E
:202FC000E81C03F00FFAF020882109F09FFF387ADFF8941351F820000AF020FDDFF82804EE
:202FE0000AF020FD0E200AF073FD01200AF048FB002050214FF4F072C02309F063FA002035
:20300000DC2164224FF4877309F05CFA284609F0A1FB2078072857D8DFE800F0043E41442A
:20302000474A4D0607202070DFF8F80345E0707898F80110814200F09D8009AD88F801006E
:2030400028463146022203F0CDF93A20711C8DF82600E81C022203F0C5F9DFF87C030AF0F3
:20306000E1FC6FF07F400AF0D9FC02200AF03AFD0C200AF02DFD01200AF002FB0520F52190
:2030800009F044FF0020DC2164224FF4877309F019FA69E030201CE1DFF884030DE0DFF850
:2030A0007C030AE0DFF8700307E0DFF8680304E0DFF85C0301E0DFF854030168426800896F
:2030C00009910A92ADF82C0005F10A00A11C022203F088F96078013811282BD8DFE800F090
:2030E000090C0F121416181A1C2A2A2A2A2A2A1E2022DFF8600316E0DFF8540313E0DFF89E
:203100004C0310E0D0480EE0CE480CE0CC480AE0CA4808E0C84806E0C64804E0C44802E09A
:20312000C24800E0C0480168426800890C910D92ADF838003020E11C8DF83C0043F2202065
:20314000ADF83A0005F11900022203F04BF92E20ADF83F007C480AF065FCF020CE2109F0DD
:20316000D5FE0E200AF0B4FC09A809F0F3FA01200AF0F8FA2078F97B814212D0A278784D70
:20318000F873B54E28460221B047627828460321B047227828460421B047E27828460521C4
:2031A000B047F86E810302D440F48010F86611B0BDE8F08FB86B07F0E3F858B1B86B07F039
:2031C000DFF828B105F066FC142009F08BFAF5E731207EE0F86B07F0D3F858B1F86B07F023
:2031E000CFF828B105F056FC142009F07BFAF5E732206EE0386C07F0C3F858B1386C07F0D0
:20320000BFF828B105F046FC142009F06BFAF5E733205EE0786C07F0B3F890B9B86C07F0FE
:20322000AFF8B8B1B86C07F0ABF888B105F032FC142009F057FAF5E705F02CFC142009F0C0
:2032400051FA786C07F09CF80028F5D1342040E035203EE0F86C07F093F858B1F86C07F095
:203260008FF828B105F016FC322009F03BFAF5E736202EE0386D07F083F858B1386D07F06B
:203280007FF828B105F006FC142009F02BFAF5E737201EE0786D07F073F858B1786D07F038
:2032A0006FF828B105F0F6FB142009F01BFAF5E738200EE0B86D07F063F870B1B86D07F0D0
:2032C0005FF828B105F0E6FB142009F00BFAF5E73920FDF7CBFFF871E3E4F86D07F050F8EF
:2032E00048B9386E07F04CF8E8B9DAE405F0D2FB142009F0F7F9F86D07F042F80028F5D12A
:203300004F20FDF7B3FFF871FEF7BEF8F879022810D0012813D0A0B906200EE005F0BAFBE6
:20332000142009F0DFF9386E07F02AF80028F5D14220CEE7FDF7D4FC0720387001E002202E
:2033400078710020C7E700BF4CFF0208700C0120E9170208F30A01205D160108580B0120DD
:20336000700B0120380B012034B60308B71502080B1802085F18020819B90308FBB8030839
:2033800048D002080DCF0108444556494345000055C7010842555320494400004C49474896
:2033A000542053572E000000ECB80308424C494E4420555000000000424C494E4420444FC8
:2033C000574E0000424C494E4400000054494D45204F5554000000007C1D030844495350C4
:2033E0004C415920434C45414E2054494D454F55543A000044330308C5CA0108E4B5030825
:20340000B0B50308A4B503080C570308C0BA030884BA0308E4BA0308CCBA0308D8BA0308C5
:2034200090BA03089CBA0308FCBA030814BB0308B4BA030808BB030878BA0308A8BA03084A
:2034400054BA030848BA03086CBA030860BA030820BB0308F0BA0308BF5A010870B50446C4
:20346000006846680568F10718BF15F480717DD1B0061AD515F4005017D020686169026811
:2034800022F4005202604FF020028260E06B40F00200E0634FF0000084F838004FF0040029
:2034A00084F8390009B12046884730071AD515F4006017D020686169026822F4006202605C
:2034C0004FF008028260E06B40F00400E0634FF0000084F838004FF0040084F8390009B15A
:2034E0002046884770070CD515F4806009D02068016821F480610160042181602046FEF7D4
:2035000018FDB00718D515F4007015D020682169026822F4007202604FF002028260E06BBE
:20352000E0634FF0000084F838004FF0010084F8390009B120468847F00616D515F48050B7
:2035400013D02068016821F48051016010218160E06BE063002084F83800012084F8390006
:203560002046BDE87040FEF7E3BC70BD016821F480710160E16B41F00101E1630121816039
:20358000002084F83800042084F83900616900293FF46EAF204688476AE7B0B530B1054624
:2035A00090F83500022803D102241BE0012419E028680024016821F00101016021210460DA
:2035C00044608460C460046141612846FDF7E6FFE96D3F2202FA01F181606C6585F83440A9
:2035E00085F835402046B0BD2DE9F0410446FEF701FDACB10546022084F83500002084F86B
:2036000034002168086820F0010008600868C00709D0FEF7EFFC401B052839D82168F5E716
:203620000120BDE8F081271D0868354AE8CF00EA020E43EA0E032B43D4E9050C33433B4301
:20364000D4E907281843636A40EA0C00042B40EA020040EA08021FD1D4E90A53206B1A439F
:2036600040EA0200086051F8140F20F0030040EA050040F00402B3B1BCF5005F24D0BCF1BD
:20368000000F31D1022D32D0012D27D07DB30AE003262027032012E00A6051F8140F20F03E
:2036A000070040EA030220460A60FDF777FFE16D3F2202FA01F100278160012600206765E2
:2036C00084F83560BDE8F081032DECD8012640270120DFE805F0020C0203F0E7A3F1C070B6
:2036E000B0FA80F0400904E0032D04D3DBD1C3F300600028D7D0012640270120DFE700BFB7
:203700003F8010F080B509484FF0FF310022016102614161426101600260416042608160E2
:20372000826000F0D3FF002080BD00BF103802401CB50190FEF75EFC0446FEF75BFC001BDD
:2037400001998842F9D31CBD2DE9F04F8E4A4FF00A0A90428D4A024408BF4FF0090A4FEA9F
:20376000B2234FF0000E092B38BF4FEAB22A884A01264FF00F09A2F57E7B4FF0000800259B
:20378000102D49D006FA05F20A423FD00323076803FA0EF46FF00303A74303EA550C0760E9
:2037A00008F01C0700EB0C0309FA07F71E6ABE431E628368A3438360436893434360C368E7
:2037C000A343AC08C36008F00C0309FA03F75BF824603E400AFA03F39E424FF0010615D1CD
:2037E0005BF82430D243BB434BF82430684B1C461B6813402360636813406360A3681340CB
:20380000A360644B1C461B681A4022600EF1020E08F104080135B3E7BDE8F08F2DE9F84FD0
:20382000594A4FF00A099042584A024408BF4FF009094FEAB2234FF0000E092B38BF4FEA02
:20384000B2294FF0010A4FF00F084FF0000B0022102A00F096800AFA02F60C68344200F06B
:203860008A804F6847F01004122C11D16FF003030BF01C0403EA520508FA04F70544D5F845
:2038800020C00B692CEA0707A3403B432B624F68032407F0030304FA0EF4056803FA0EF37C
:2038A000A5432B43E443122F036012D80AFA07F313F0061F0DD08368CD68234005FA0EF575
:2038C0002B438360C7F3001345689340B5432B434360C36823408C6804FA0EF42343C36036
:2038E000FB0048D52C4B22F003051C461B6843F48043274F2360BC4623683D4403F480437F
:2039000000930BF00C03009F08FA03F4234F09FA03F3B846EF5927EA0404234345F80830CD
:203920004FF00F08DCF800304D6843EA0604EF0358BF23EA0604CCF80040DCF80430AF0363
:2039400043EA060458BF23EA0604CCF80440DCF80830EF0243EA060458BF23EA0604CCF8D4
:2039600008400C4BAD021F461B6843EA060458BF23EA06043C600EF1020E0BF1040B0132C3
:2039800066E7BDE8F88F00BF002402400000FEBF003C01400C3C01404438024008FCFFFF06
:2039A000024800686FF31F30704700BF002004E001480068704700BF20F4F01F014800682F
:2039C000704700BF24F4F01F01480068704700BF28F4F01FB0B110B50446242084F8410087
:2039E0002068016821F0010101602046FEF7EFFA0020606484F84100206384F8400084F8C2
:203A0000420010BD0120704710B3B0B5044690F8410028B9002084F84000204600F04EFA29
:203A2000242084F84100D4E90003D4E90212056823F0706325F00105012A056003618368A7
:203A400023F40043836005D141F40041816009E00120704741F40441022A816002D14FF49E
:203A60000061416041680F4A114304F110054160C16821F40041C1602ECD114341EA032105
:203A8000C160216A29430160016841F00101016000202021606484F84110206384F842007D
:203AA000B0BD00BF008000022DE9FE4F04460020029094F84100202808D1206889468169CA
:203AC000090403D494F84010012902D10220BDE8FE8F24211D4684F841100121904684F8EC
:203AE000401000216FF39F295F1C4FF0200A6164E16801294FF4205104BF42F20001C0F2B1
:203B0000002149444160FEF775FA06462068816989065CBF81695FEAC1610CD494F8411078
:203B2000A02908D0002FF1D075B3FEF763FA801BA842EBD928E0D0F818B0204620210022D0
:203B40002B46009602F03AFD5FEACB6123D518BB20681021C161C0F81CA002994A1C41451F
:203B600002920ED14168002241F480412B46416020462021009602F021FD68B92068C0F851
:203B80001CA002994145B3D3002084F84000202084F8410000E010B10320BDE8FE8F20686B
:203BA0002021C161002084F8400084F84110BDE8FE8F00002DE9FE4F044690F84100202809
:203BC0000ED10C9D0120002D00F0B580DDF834B0BBF1000F00F0AF8094F84000012802D18F
:203BE0000220BDE8FE8F01201F4616468A4684F84000FEF7FFF98146009020464FF40041D5
:203C00000122192302F0DAFC10B10320BDE8FE8F22200E9984F8410040204FF0000884F89E
:203C20004200C4F84480204665620D46C4F834803246A4F82AB03B46CDE90019514602F00B
:203C40003BFC40B184F84080616C0320042908BF0120BDE8FE8F608DB0F5807F0AD3FF203C
:203C6000514620854FF4105000902046FF224FF0807309E0608D4FF410514FF0007320854B
:203C8000C2B200912046514602F086FC0026FF272046042100222B46CDF8009002F08EFC73
:203CA0000028B2D1616A20684A1C6262406A0870208D013820850004618DA1F101016185C3
:203CC00021D1608DF8B12046802100222B46CDF8009002F073FC002897D1608DB0F5807FEB
:203CE00007D32785204600965146FF224FF0807307E0608D51464FF000732085C2B22046BC
:203D0000009602F049FC608D0028C1D1204629464A4602F07CFC002896D120682021C161E6
:203D2000654B42681A404260002084F8411084F8400084F84200BDE8FE8F00BF2DE9FE4F72
:203D4000044690F8410020280ED10C9D0120002D00F0AF80DDF834B0BBF1000F00F0A98086
:203D600094F84000012802D10220BDE8FE8F01201F4616468A4684F84000FEF73BF98146C9
:203D8000009020464FF400410122192302F016FC10B10320BDE8FE8F21200E9984F841008B
:203DA00040204FF0000884F84200C4F84480204665620D46C4F834803246A4F82AB03B46BF
:203DC000CDE90019514602F0AEFB10B184F840805AE0608DB0F5807F09D3FF2051462085E3
:203DE000002000902046FF224FF0807308E0608D00214FF000732085C2B20091204651460B
:203E000002F0CAFB0026FF27204629464A4602F024FCC8BB616A20684A1C626209788162C4
:203E2000208D013820850004618DA1F10101618521D1608DF8B12046802100222B46CDF8A4
:203E4000009002F0BBFB0028A3D1608DB0F5807F07D32785204600965146FF224FF0807391
:203E600007E0608D51464FF000732085C2B22046009602F091FB608D0028C5D12046294612
:203E80004A4602F0C4FB30B1616C0320042908BF0120BDE8FE8F20682021C161064B4268E3
:203EA0001A404260002084F8411084F8400084F84200BDE8FE8F00BF00E800FE7047B0B5AC
:203EC000C0B104460068D4E901124CF6CC43036045F25553036041608260FEF78BF80546B3
:203EE0002068C16841B1FEF785F8401B3028F7D90320B0BD0120B0BDE16802698A4203D1B8
:203F00004AF6AA21016000E001610020B0BD00684AF6AA2101600020704700000248016808
:203F200001310160704700BF8075012080B50748016841F400710160032000F005FC0F202B
:203F400000F006F800F0C3FB002080BD003C024010B50446074800684FF47A71B0FBF1F06A
:203F600001F0E2FF4FF0FF302146002200F0D0FB002010BDBC060120F0B590F8A0500224AA
:203F8000012D2DD080F8A140012480F8A040342403FB0404842505EBC31E002604F1480CD9
:203FA0000025BAB1DCF80070013A062F06F1807708BF2E4610C9E3B205F18855334304F4E5
:203FC0007F46334304F47F042343046874443E462364E6E70024012180F8A04080F8A11002
:203FE0002046F0BD10B590F8A0400223012C13D080F8A130036803EBC212D2F8904004F048
:204000007F44C2F89040C2F8901001215962002380F8A03080F8A110184610BDF8B50E465C
:2040200090F8A01004460220012919D084F8A100342002FB00401546012731463830342263
:2040400084F8A070FCF7DCF8204631462A4602F043FE20684762002084F8A00084F8A17093
:20406000F8BD10B5044600F087F90020C4F8A40084F8A00084F8A100002010BD90F8A0300E
:204080000222012B11D080F8A120026802EBC111D1F8843023F00203C1F8843001215162B6
:2040A000002280F8A02080F8A1101046704790F8A0300222012B11D080F8A120026802EB57
:2040C000C111D1F8843043F01003C1F8843001215162002280F8A02080F8A1101046704779
:2040E00090F8A0300222012B11D080F8A120026802EBC111D1F8843043F00203C1F88430B3
:2041000001215162002280F8A02080F8A11010467047000090F8A0200221012A0CD080F850
:20412000A11006490A6842F480320A600021012280F8A01080F8A120084670471868014050
:20414000704710B504460068816B490744BF816B5FEA417126D4816B890744BF816B5FEA5D
:20416000817135D4816BC9071CBF816B5FEAC17145D1816B090744BF816B5FEA017100D4B6
:2041800010BD416B21F0080141630821C163002084F8A000012084F8A1002046BDE81040C6
:2041A00000F0D0B9416B21F0040141630421C163D4F8A40040F00100C4F8A400002084F83A
:2041C000A000204684F8A110FFF7BAFF2068C2E7416B21F0020141630221C163D4F8A400B1
:2041E00040F00200C4F8A400002084F8A000042084F8A1002046FFF7A3FF2068B2E7416BE5
:2042000021F0010141630121C163002084F8A000204684F8A11000F071F82068A9E7000061
:20422000002867D0B0B5044690F8A10028B9002084F8A000204600F0A1F8022084F8A100FC
:2042400094E80F0011438569194325F07045856122691143826911438161274982680A40E1
:204260008260D4E9052343EA024283681A438260C2680A40C260C268D4E9073545EA0343AE
:204280001A43C26002690A4002610269D4E9093545EA03431A4302614269114041614169A4
:2042A000D4E90B2343EA024211434161C16A01F07F41C16294F8362094F83510120442EAB8
:2042C000012194F834201144C26A1143C162416B41F004014163416B41F0020141638169F0
:2042E00041F00101816100200121C4F8A40084F8A110B0BD0120704700F800F02DE9F04760
:2043000080461A4800F108066FF00107184CDFF864904FF0FF3A1FB3206800281AD456F8AA
:20432000081CB26848433168BD1C4843D9F8001000FB021140462A4600F005F9D8F8000014
:20434000416A41F0010141622846216809F0F4F9C4F800A0043609F1040904340137DAE731
:2043600040460021BDE8F04700F0D4B8D00A0120C0060120E4B80308704700002DE9F04FA9
:2043800085B062484FF00E0A4169032541F080610027416102244169E94601F08061DFF892
:2043A0005C8B00910099016841F400010160016801F4000100910099016841F00101016066
:2043C000016801F0010100910099016841F002010160016801F0020100910099016841F038
:2043E00004010160016801F0040100910099016841F008010160016801F00801009100993D
:20440000016841F010010160016801F0100100910099016841F020010160016801F0200164
:2044200000910099016841F040010160384900688B4600F0400000900098CDF810A04FF44C
:204440008060039502970194009001F5A0504946C047C1204946CDE9035ACDE90147009099
:204460000BF50060C04778204946CDE9035ACDE9014700905846C04709200BF580660490C5
:2044800030464946CDE90275CDE90054C0474FF470604946CDE9035ACDE901470090304620
:2044A000C0474FF40C600BF5C056CDE9035ACDE90147009030464946C04708204946CDE916
:2044C000035ACDE9014700900BF54060C04709204946CDE903504FF4A050CDE901470090C8
:2044E0003046C0470BF580550421284600220424FDF765FD01204946CDE90277CDE9004062
:204500002846C04705B0BDE8F08F00BF303802400000024090F8A0300222012B0ED080F8A4
:20452000A1200268536B43F001035363044A11600022012180F8A02080F8A1101046704734
:20454000406801407047B0B590F8A03004460220012B14D084F8A100342002FB00400125AE
:2045600084F8A050C16500F13801204602F0B4FB20684562002084F8A00084F8A150B0BD33
:20458000B0B590F8A03004460220012B14D084F8A100342002FB0040012584F8A050C1647D
:2045A00000F13801204602F097FB20684562002084F8A00084F8A150B0BDF8B590F8A0507D
:2045C00004460220012D1CD084F8A100342003FB0045012684F8A06045F8381FD5E90A079B
:2045E0000844B918C5E90102E960204629461A4602F072FB20684662002084F8A00084F828
:20460000A160F8BDF8B5044690F8A000022501281AD0342084F8A15003FB00460127002539
:2046200084F8A07046F8385F2046C6E90A12C6E90115F26031461A4602F04EFB206847628E
:2046400084F8A05084F8A1702846F8BD0278437810490B60D2B143684B60037B42EA03724D
:20466000C37A42EA0362837A42EAC342437B42EA8342837B42EA4342C37B42EA0342437A74
:20468000007A42EA032242EA400001E0002048608860704798ED00E0BFF35F8F0A480168DB
:2046A00021F48031016000210167704740F0010005490867086840F480300860BFF34F8F59
:2046C000BFF36F8F704700BF24ED00E07047704700280CD400F01F01012202FA01F14009E3
:2046E000034A42F82010BFF34F8FBFF36F8F704780E100E0002808D400F01F01012202FA98
:2047000001F14009014A42F82010704700E100E0B0B5134B4FF0FF351B68C3F30223DC1EA3
:2047200083F0070338BF0024042B28BF042305FA03F3994305FA04F3A1409A431143BDE826
:20474000B04004F09BBE00BF05494FF6FF030A681A4060F30A22034810430860704700BF01
:204760000CED00E00000FA0504F09AFEBCB518481B4D016841F080510160006800F08050A8
:2047800001900198286840F480302860FDF732FC04466868C00306D4FDF72CFC001BB0F53E
:2047A0007A7FF6D90FE0286840F400302860FDF721FC04466868800307D4FDF71BFC001B17
:2047C000B0F57A7FF6D90320BCBD0020BCBD00BF403802400248016841F4807101607047CD
:2047E000007000407CB50446FDF704FC054694F8410080074FF000002BD584F84000206878
:20480000016849070BD5016821F004010160E06BFDF790FB18B1606C40F004006064206840
:20482000A16C02682B4642F0020202260260204600910221012203F073F850B92068A16C97
:20484000C66020460091202100222B4603F068F800B17CBD012084F8410000207CBD70473C
:2048600080B590F84110890721D5002180F84010082180F8411001680A6822F4F8120A6064
:204880000A6852070AD40220C860086840F400300860086840F00200086008E0C06BD94AA9
:2048A00002650A6822F004020A60FDF791FB002080BD00BF2DE9FC411D46174688460446D6
:2048C000FDF798FB064694F84000012802D10220BDE8FC81012084F8400094F84100012826
:2048E00032D1002020216064422084F84100204600223346009503F013F830BB97E80E1055
:20490000206881624262C362C8F828C03969026822F4400211434FF0006241F4800101604B
:204920002046414602F080FE204608210122334600950825012702F0F3FF30B92068C5608B
:20494000002084F8417000E00220002184F84010BDE8FC817047F8B515460F460446FDF7A7
:2049600049FB064694F84000012801D10220F8BD012084F84000022094F84110012921D111
:20498000002100226164202184F8410020463346009502F0C5FFA8B920463946002202F08D
:2049A00043FE786A20B1012084F84100002009E0204602210122334600950225012702F021
:2049C000AFFF18B1002184F84010F8BD2068C56084F84170EAE710B50446006828B194F837
:2049E0004010012903D1022010BD012010BD012184F84010016821F00101016000F0A6F932
:204A00000020606484F8410084F8400010BD70477047000010B5016804468A6808685307CA
:204A200018D510F4802315D094F84100122838D108468268520763D5E26A002A5CD0606AB8
:204A4000421C6262007881F820002068E26A013AE262EEE7930739D510F4003336D00220F4
:204A6000C860086820F4E020086094F8410012284BD10868400709D5086820F0040008607E
:204A8000E06B0068016821F0010101602046FFF7E7FE012084F841002046BDE8104000F01C
:204AA000EFBA94F8410022282AD108468268520726D5A26B02B391F82000226B531C2363C2
:204AC00010702068A26B013AA263EFE7130725D510F4002322D00820C8600868400206D5A1
:204AE000086820F410200860012084F841002046BDE8104000F065BA016821F480210160D2
:204B00002046BDE81040FFF783BF94F84100222815D1086840072ED4084650E0D30718BF1D
:204B200010F4803317D1D2063ED510F480103BD01020C8602046BDE8104000F043BA94F820
:204B40004100022822D1012084F841002046BDE81040FFF7FFBE0120C8600A6822F47022A8
:204B60000A60626C42F0020262640A68520738D484F8410013E0086820F004000860E06B43
:204B80000068016821F0010101601FE094F84100082809D1012084F84100606C60B32046D7
:204BA000BDE81040FFF733BF10BD91F82000226B531C236310702068A26B013AA2638068E3
:204BC00010F4F85F1CBFA06B0028EED12046FFF747FE012084F841002046BDE8104000F0E3
:204BE000EFB9E06B074A02650A6822F004020A60BDE81040FDF7ECB92046BDE81040FFF737
:204C00002EBE00BF837701082DE9FC410446FDF7F1F93CB1054694F84000012805D1022046
:204C2000BDE8FC810120BDE8FC81012084F8400094F8410008B1A06C08E0002084F84000DC
:204C4000204600F0BDF841F28830A0642168A2686FF0FF034FF0000803EB02220B6823F483
:204C6000F8531A432B460A60202100902046002202F056FE08BBD4E90012D4E903350F6814
:204C8000104E3E40334343EA0262E3691A43236A1A430D4B0A604A681A4063691A43A3699B
:204CA00042EA05421A434A600A6842F001020A600121C4F8448084F8411084F84080BDE819
:204CC000FC8100BF2FFFFF00FEF8E0FF7CB516460D460446FDF78EF9034694F840000128B3
:204CE00001D102207CBD012084F8400094F84100012826D1002020216064822084F8410039
:204D00000022A06C0090204602F00AFED0B9206871680268082922F0080242EA0102026043
:204D200007D1316801631021C160016841F480110160204629464FF0406202F075FC002083
:204D400000E00220002184F840107CBD70B54620FFF7BEFC5C20FFF7BBFC154815490160AB
:204D6000FEF71BFC644C144EA4F5805540212846B04728460421B04720464FF48071B047C6
:204D800020464FF40071B04720468021B04720464021B0470948016841F00201016001688E
:204DA00021F002010160016A21F00201016270BD280D0120B86402404937010818380240A0
:204DC0002DE9F04786B04B484FF00A0981684A4C41F00201A4F58056816001AD81684FF092
:204DE000400801F00201454F0191019950F8181C41F0020140F8181C50F8181C21F002010B
:204E000040F8181C016841F002010160016801F0020101910199016841F002010160016838
:204E200001F0020101910199016841F020010160016801F0200101910199016841F02001D4
:204E40000160016801F0200101910199016841F020010160016801F020010191019901681E
:204E600041F0200101602946006800F0200001900198CDF814900320049001200390022078
:204E800002903046CDF80480B8474FF0090A0020CDF814A029460390042001903046B847AB
:204EA0004FF48070CDF81490019020462946B8474FF40070CDF81490019020462946B84770
:204EC0008020CDF814A0019020462946B84720462946CDF814A0CDF80480B8475C200F2112
:204EE0000022FFF715FC5C20FFF704FC06B0BDE8F08700BF30380240001402401D38010828
:204F00002DE9FC41154688460446FDF773F827680646B86994F84010012902D10220BDE8D0
:204F2000FC81012184F8401094F84110012929D10021B8F1000F616426D02221012284F88F
:204F4000411039690131A163396901316163796962F39B617961C4F83080B861A06BC8B17A
:204F60002046062101223346009502F0D9FCF8B997F82000216B4A1C22630870A06B013819
:204F8000A063EBE7022016E0606C40F008006064012010E02046022101223346009502256A
:204FA00002F0BEFC20B92068C5602046FFF71AFC012184F84110002184F84010BDE8FC814F
:204FC0007047704770472DE9FC41154688460446FDF710F80646276894F84000012802D147
:204FE0000220BDE8FC81012084F8400094F84100012827D10020B8F1000F606424D01220E0
:2050000084F8410038690130E06238690130A062C4F82480786920F040607861E06AC8B15E
:205020002046042101223346009502F079FCF8B9606A411C6162007887F82000E06A013818
:20504000E062EBE7022016E0606C40F008006064012010E02046022101223346009502256A
:2050600002F05EFC20B92068C5602046FFF7BAFB012184F84110002184F84010BDE8FC814F
:20508000704700002DE9FC47D0F800A004465FEACA70B24E02D14FF000090BE0B06820F499
:2050A0000000B060606BB1680143B0FA80F04FEA5019B1605FEA0A3002D44FF0000811E05A
:2050C000E06BD6F88C1021F44011B0F5801F41EA0001B0FA80F04FEA5018C6F88C1008BF69
:2050E0004FF001095FEACA2011D5206CD6F88C1021F44001002841EA0001C6F88C1008BF8D
:205100004FF00108B0F5800F08BF4FF001095FEA8A60574653D5306C914F40F080503064FB
:20512000306C00F0805001900198386840F480703860FCF75FFF05463868C00505D4FCF7C0
:2051400059FF401B6428F7D9F7E1306F10F4407022D0216B01F4407188421DD0306F316FFB
:2051600041F4803120F440703167316F21F4803131673067306FC0070ED0FCF73BFF05469C
:2051800041F28837306F800706D4FCF733FF411B0320B942F6D9D1E12768206BB26871490F
:2051A00022F4F81200F440730140B3F5407F08BF0A43B2606FF31F30316F08433067F80629
:2051C0000BD5D6F88C0020F08070C6F88C00A06BD6F88C100843C6F88C00780407D5606E1B
:2051E000D6F8901021F440310843C6F89000380407D5A06ED6F8901021F440210843C6F80F
:205200009000F80307D5E06ED6F8901021F440110843C6F89000B80307D5206FD6F89010D8
:2052200021F440010843C6F89000780607D5606CD6F8901021F003010843C6F890003806FF
:2052400007D5A06CD6F8901021F00C010843C6F89000F80507D5E06CD6F8901021F030016C
:205260000843C6F89000B80507D5206DD6F8901021F0C0010843C6F89000780507D5606D70
:20528000D6F8901021F440710843C6F89000380507D5A06DD6F8901021F440610843C6F8EE
:2052A0009000F80407D5E06DD6F8901021F440510843C6F89000B80407D5206ED6F89010F8
:2052C00021F440410843C6F89000780207D5A06FD6F8901021F080610843C6F89000B80287
:2052E0000DD5E06FD6F8901021F00061B0F1006F41EA0001C6F8901008BF4FF00108780379
:2053000007D5606FD6F8901021F040710843C6F890000AF08070390208D5D4F88010D6F8ED
:20532000902022F080521143C6F8901030B9B9F1000F03D1B7F1007F40F08280306820F0B0
:2053400080603060FCF756FE0546306800010BD5FCF750FE401B6428F7D9EEE00038024092
:2053600000700040FFFCFF0F2068C10712D0616B81B9D6F88410D6F8842001F4403102F010
:2053800070621144D4E9012341EA821141EA0371C6F88410010303D5E16BB1F5801F05D014
:2053A000C1021DD5216CB1F5800F19D1D6F88410D6F8842001F4403102F0E042114462681F
:2053C000E36841EA821141EA0361656AC6F88410691ED6F88C2022F01F021143C6F88C1032
:2053E000C10110D5D6F88410D6F8842001F0706102F0E04211446268236941EA821141EAC8
:205400000341C6F8841080010AD5231D0FCB1B0443EA801040EA026040EA0170C6F8840037
:20542000306840F080603060FCF7E4FD05463068000105D4FCF7DEFD401B6428F7D97CE0C2
:2054400017F0080008BFB8F1000F79D0306820F080503060FCF7CEFD05463068800005D572
:20546000FCF7C8FD401B6428F7D966E02068010301D5E16B19B1C1021ED5216CE1B9D6F854
:205480008810D6F8882001F4403102F0E0421144A56AD4E9052341EA821141EA0361C6F830
:2054A00088106FF0FF01D6F88C2001EB052122F4F8521143C6F88C10810214D5E16FB1F1FD
:2054C000006F10D1D6F88810D6F8882001F0706102F0E04211446269236A41EA821141EA34
:2054E0000341C6F88810000718D5D6F88800D6F8881000F0706001F4403108446169E269DB
:2055000040EA811040EA0270E36AC6F88800D6F88C0020F440301843C6F88C00306840F056
:2055200080503060FCF766FD04463068800007D4FCF760FD001B6528F7D30320BDE8FC876B
:205540000020BDE8FC8700002DE9F041002800F08280544B0446D3F800040D4600F00F0098
:2055600088420CD2D3F8000420F00F002843C3F80004D3F8000400F00F00A8426BD12068EF
:20558000810705D5A1689A6822F0F00211439960C0072AD06068012803D11968890308D4DE
:2055A00059E01968022802D1890102D453E0890751D59968984621F0030108439860FCF7C1
:2055C00019FD064641F288376068D8F8081001F00C014346B1EB800F07D0FCF70BFD801BA8
:2055E000B842F1D90320BDE8F081D3F8000400F00F00A8420CD9D3F8000420F00F002843B8
:20560000C3F80004D3F8000400F00F00A84222D12068410705D5E1689A6822F4E05211438F
:205620009960000706D52069996821F4604141EAC00098601C4600F05BF8A168074AC1F3B9
:205640000311515CC840274908600F20FEF780FC0020BDE8F0810120BDE8F0818CB5030850
:20566000F348114B016841F0810101600021816002681A400D4B0260416042681A430C4B97
:205680004260C0F88410D0F884201A43C0F88420026822F480220260C16012482649016028
:2056A000704700BF00380240FFFFF6FA10300024003000200B480068704700BF09480A4983
:2056C00000680968C1F38221084A515CC84070470448054900680968C1F34231034A515C48
:2056E000C8407047BC060120083802409CB503081049486800F00C020F48082A03D0042A99
:2057000017D10E4870470A680B685B020B4B58BF034602F03F00B3FBF0F00A68C2F388121C
:205720000968C1F301415043022202EB4101B0FBF1F07047043802400024F40000127A00B7
:205740002DE9FC41002800F0B18004460078B84EC0074AD0B06800F00C00042817D0B068C5
:2057600000F00C00082802D1706840020FD4606898B1B0F5803F06D03168B0F5A02F21D1E3
:2057800041F480203060306840F4803020E0306880032AD5606840BB88E0306820F4803087
:2057A0003060306820F480203060FCF723FC05463068800319D5FCF71DFC411B03206429FF
:2057C000F6D92FE121F480303060306820F480203060FCF70FFC05463068800305D4FCF789
:2057E00009FC401B6428F7D9EFE0207880072DD5B06810F00C0F07D0B06800F00C000828AF
:2058000009D17068400206D43068800717D5E068012814D04AE03068E168002900F099801D
:2058200040F001003060FCF7E5FB05463068800705D4FCF7DFFB401B0228F7D9C5E0206941
:20584000316821F0F80141EAC00030602078000720D5706F616971B140F001007067FCF7D0
:20586000C9FB0546706F800714D4FCF7C3FB401B0228F7D9A9E020F001007067FCF7BAFBAC
:205880000546706F800705D5FCF7B4FB401B0228F7D99AE0207840070BD4A769002F00F01F
:2058A000C380B06800F00C00082835D10120BDE8FC81306CC0000BD4306C4FF0010840F0C9
:2058C00080503064306C00F080500190019801E04FF00008574F3868C0050FD4386840F4F4
:2058E00080703860FCF786FB05463868C00505D4FCF780FB401B6428F7D966E0A068C8B335
:20590000012805D0316F05284BD141F004003067306F40F001004AE0306820F080703060B2
:20592000FCF768FB0546022F09D13068800158D5FCF760FB411B03200229F6D972E03068C4
:20594000800171D5FCF756FB411B03200329F6D368E020F001003060FCF74CFB05463068C2
:2059600080077FF573AFFCF745FB411B03200229F5D957E0306F20F001003067306F20F032
:2059800004003067FCF736FB054641F28837306F80071DD5FCF72EFB411B0320B942F6D98E
:2059A00040E021F001003067306F20F004003067FCF720FB054641F28837306F800707D488
:2059C000FCF718FB401BB842F7D90320BDE8FC81B8F1000F3FF461AF306C20F0805030644C
:2059E0005BE71C341FCC0843D90340EA82104FF6FF72914340EA0460A1F58031084340F06D
:205A000000507060306840F080703060FCF7F2FA04463068800107D4FCF7ECFA011B0320E9
:205A20000229F6D9BDE8FC810020BDE8FC8100BF0038024000700040F8B5C8B1044690F827
:205A400069001E4615460F4628B9002084F86800204600F018FC242084F869002068016860
:205A600021F001010160204603F036F9012801D10120F8BD606A10B1204603F069F820688C
:205A8000816841F480418160816821F40041394381603104026841EA45516FF31942114339
:205AA0000160016841F0010101602046BDE8F84003F0A3B8006800EB8100006D7047006897
:205AC00000EB810002657047B0B5044602206077CA212068416253214162204602F003F913
:205AE000216828B1FF2001254862042060773BE00020086042F201104860886800F00700E3
:205B00008860FCF777FA05462168C86840070AD4FCF770FA401BB0F57A7FF5D92068FF2144
:205B2000416203251FE0886800254FF6FF708D6048610E480861CD610D62CD62CD634D64D0
:205B40008D64CD600D64CD648868800605D4204600F07EF921680028C4D1FF2048622046F4
:205B600000F0A6F8257765772846B0BDFF007F0070B5006840684FEA104300F03F05CB7096
:205B80008D70C0F304244C70C0F342360E70CAB9020A2D09240900F00F0645EA850502F026
:205BA0000F0244EA840406EB450502EB44028D704A70C0F3035003F00F0200EB800002EB97
:205BC0004000C870002070BD70B50068836A4B6003696FF3DF338B6003684FF0400000EA3C
:205BE000134003F07F0508738D70C3F306244C70C3F305400870CAB92D091A0A1E0C03F05A
:205C00000F0305EB850502F00F0203EB450300098B70230903EB830302EB43024A7006F039
:205C20000F0240EA800002EB40000870002070BDB8B170B50446407F20B90020207720462A
:205C400000F03CF80220CA2160772068416253214162204602F047F8216820B101200422C2
:205C600020E0012070478868104A1040261D88606CCE6069324310438A68104388600D6121
:205C8000086940EA03400861C86820F08000C860C86C20F00800C864A069CA6C10430122A8
:205CA000C8640020FF234B62627770BDBFFF8FFF0548016821F400410160704702480168A0
:205CC00041F4004101607047703802402DE9F0410D46017F04460220012949D0607701208B
:205CE000207732B16878E978AE78000240EA014714E06E78F00604D506F0EF0000F10A06C0
:205D00006E70E878DFF84081C04707463046C047000240EA0747A878C04706462068CA217C
:205D200041625321416220462D7801F0DCFF18B121680120042216E047EA0600216820F073
:205D4000C00040EA45304860C86820F08000C8608868800605D4204600F07AF8216800288C
:205D6000E7D100200122FF234B62002121776277BDE8F0812DE9F0470D46017F0446022025
:205D800001295FD06077012020772768B86800F0400022B140B1287B4FEA004808E070B14B
:205DA000287B4FEA00480EE04FF0000885F80C8069782878AE78090241EA004910E04FF02C
:205DC000000885F80C802878DFF87CA0D04706466878D047000240EA0649A878D0470646C7
:205DE000CA20786253207862204601F07CFF18B121680120042220E049EA0600134940EA68
:205E00000800084021680860886820F480208860D5E9040210438A6810438860C86820F031
:205E20008000C8608868800605D4204600F010F821680028DDD100200122FF234B6200217B
:205E400021776277BDE8F087BF7C01087F7F7F00B0B504460068C16821F0A001C160FCF7EE
:205E6000C9F805462068C068800607D4FCF7C2F8401BB0F57A7FF5D90320B0BD0020B0BD74
:205E8000E0B1B0B5044690F82C000D4628B9002084F82D00204600F013F80220211D84F8D4
:205EA0002C002068FBF754FCD4E900022946FBF7BBFC012084F82C000020B0BD01207047E7
:205EC000704710B590F82C2004460220022A08D084F82C002068FBF77BFC012084F82C00A0
:205EE000002010BDB0B50D4690F82C100446022002290ED084F82C0029462068FBF76EFCC9
:205F00002868012102284FF0000008BF052184F82C10B0BD0C4904280A6822F0040308BF81
:205F200042F004030B607047411E0020B0EB116F01D001207047044AF023516003490B70EA
:205F4000072190601160704710E000E023ED00E070B50D4690F83C1004460220012955D03A
:205F600084F83D004FEAB2000126052884F83C6047D8DFE800F0030B131B233320682946B2
:205F800002F0E6FB206850F8181F1EE02068294602F006FC206850F8181F26E0206829463A
:205FA00002F02CFC206850F81C1F0EE02068294602F052FC206850F81C1F16E0206829469F
:205FC00002F06EFC206850F8541F41F008010160016821F00401016029690FE0206829462F
:205FE00002F082FC206850F8541F41F400610160016821F4806101602969090202681143DC
:206000000160002084F83C0084F83D6070BD10B50446022084F83D0041F211122068016ACE
:20602000114208D1016A40F24442114203D1016821F001010160204600F021F8002084F802
:206040003C0084F83D00002010BDB0B110B5044690F83D0028B9002084F83C00204600F01A
:206060000FF80220211D84F83D00206802F0F8FA012084F83D00002010BD0120704770473E
:206080007047000010B504460068012202F052FB2068074A40F48061914203D1416C41F4F9
:2060A00000414164016841F001010160002010BD00040140B0B5B8B10446242084F869008A
:2060C00000252068016821F001010160056045608560204600F0D6F8E56684F8695084F827
:2060E000685084F86A5000E001252846B0BD00000068BA49884218BF704701F009BD00BF98
:20610000F8B504460068C169026801F02F0502F020038668202D05D123B12046BDE8F8402A
:2061200002F0A0BD5FEA017E07D006F0010612F4907F86F0010727D137B311400A060ED4BC
:20614000490640F18080016821F040010160202084F869002046BDE8F84000F037B994F8CF
:20616000691021296FD1B4F85210002971D0A168B1F5805F02D12169002973D0E16C4A1C9A
:20618000E2640978816274E0CD0718BF12F4807505D001250562E56E45F00105E56601F02F
:2061A00002054FF0010C8CEA55053D4305D102250562E56E45F00405E56601F004058CEA8C
:2061C00095053D4305D104250562E56E45F00205E566334318BF0123BEF1000F06D52BB17F
:2061E00008230362E06E40F00800E066E06E50B302EA0100800602D5204602F033FDE06ED2
:20620000000709D420688068400605D42046FFF76FFF0020E06616E0204602F016FD2068F2
:206220008168490610D5816821F040018160606E50B113490165FBF7CBFE20B1606E016DCC
:20624000BDE8F8400847F8BD2046BDE8F840FFF74FBF016821F080010160016841F04001DF
:206260000160F8BDE16C31F8022B6FF35F22E1648262B4F852000138A4F85200F8BD00BFC0
:206280003B8C01087047704790F86A30202B06D1012329B122B190F86830012B02D1022367
:2062A00018467047A0F85A20A0F858204165012180F86810816851B1B1F1805F0BD0B1F502
:2062C000805F0FD1016921B940F2FF1108E0016929B9FF2104E0016909B13F2100E07F213D
:2062E000A0F85C1000232221C36680F86A1001688A6842F001028A6080F86830086840F4EB
:2063000090700860CCE7000000683449884218BF704701F031BC00BF2DE9F843044690F865
:206320006900202808D10E46012731B1154622B194F86800012803D102273846BDE8F8838F
:2063400000209946E066012084F86800212084F86900FBF74FFE8046A4F85250A4F850504E
:20636000B4F85200F8B1B4F852008021002243460138A4F852002046CDF8009002F076FDE5
:20638000D8B9A068B0F5805F01D1206920B116F8010B21688862E3E736F8021B20686FF328
:2063A0005F218162DCE72046402100224346CDF80090002702F05AFD08B10327BDE72020B9
:2063C00084F8687084F86900B7E7000000680349884218BF704701F071BC00BF00100140AC
:2063E00001F0DABC78B5002301303724009315041FD0009E0D7866B105F00F05013105F134
:206400003006092D88BF05F1370600F8016C00930BE02E099F2D06F1300688BF04EB151622
:2064200000F8016C009D0135009500F8013B013ADDE778BD00688169890701D5002181626B
:206440008169C90703D1816941F0010181617047F8B5044600680E468169C90601D4002097
:20646000F8BD1546771C8169890609D4002FFAD0B6B1FBF7BFFD401BB04211D82068F2E77E
:206480001021C1612021C1612046FFF7D3FF2068084A41681140416004206064012000E0BA
:2064A0000320202184F84110002184F8401084F84210F8BD00E800FE2DE9FC4104464FF475
:2064C00000501E4615460090DAB22046002300F063F8DDE90887204641463A4600F0BDF856
:2064E00030B1616C0320042908BF0120BDE8FC81012E09D02068290A8162204641463A4681
:2065000000F0ABF80028ECD12068E9B281622046402100224346009700F050F8002818BFBD
:206520000320BDE8FC812DE9FC4104464FF400501E4615460090DAB220464FF0807300F083
:206540002BF8DDE90887204641463A4600F085F830B1616C0320042908BF0120BDE8FC81E1
:20656000012E09D02068290A8162204641463A4600F073F80028ECD12068E9B2816220465C
:20658000802100224346009700F018F8002818BF0320BDE8FC810000B0B56FF39F210068E5
:2065A00019434468044D41EA0241049A2C40114321434160B0BD00BF009800FC2DE9F843A0
:2065C0001D4691460F460446DDF820805E1C206880693840C01BB0FA80F04009484513D15B
:2065E000002EF4D02DB1FBF705FDA0EB0800A842EDD9202084F84100002084F8400084F83F
:2066000042000320BDE8F8830020BDE8F88370B515460E46044620688069800619D420464D
:2066200031462A46FFF714FFA8B926B1FBF7E2FC401BB042EFD9606C40F02000606420202D
:2066400084F84100002084F8400084F84200032070BD002070BD012070BDF8B515460E469C
:2066600004464F1C2068806980071BD4204631462A46FFF7EDFEB8B9002FF3D026B1FBF724
:20668000B9FC401BB042EDD9606C40F020006064202084F84100002084F8400084F84200BB
:2066A0000320F8BD0020F8BD0120F8BD80B53C48FDF790F9BDE88040AFF300802DE9F04F45
:2066C00087B0374C2046FBF77FFC002864D1002601213448694AC4E90766C4E90020C4E9C5
:2066E0000261C4E90466304F4FF0030B38694FF0120940F0080002F5D63538610DF1080878
:206700003869DFF8A8A000F00800414602900298386940F040003861386900F04000019002
:20672000042006904FF48050CDE9046BCDF80C90029001982846D04704204146CDE905B040
:206740004FF40050CDE9039602902846D0474B48042100F5DC3500222846FBF730FC0120B3
:206760004146CDE9046B0390042002902846D047386A40F080703862386A00F08070019030
:206780000198386840F080703860386820F0807038602046FDF738F907B0BDE8F08F00BFAB
:2067A000646C012032279140203802401D380108BFB505464FF47A70029009980190089876
:2067C00000902846FDF7F6F90446F8B128682A49884205D02949884218D1FFF767FF15E0CD
:2067E0002748284D016821F40001016028464FF48071FCF7A9FF05F500604FF40071FCF797
:20680000A3FF2148FDF7E6F802F096F8204604B0B0BD00BFBFB505464FF47A7002900998B6
:206820000190089800902846FDF788FA0446F8B128681149884205D01049884218D1FFF735
:2068400035FF15E00E480F4D016821F40001016028464FF48071FCF777FF05F500604FF4D5
:206860000071FCF771FF0848FDF7B4F802F064F8204604B0B0BD00BF005C00400060004084
:206880004038024000000240186C012003207047F8B5754D2846FDF7E4FB0024802085F88C
:2068A000364040F21321A88640F2291040F2251240F20B2315276D4EC5E90873C5E90A21A1
:2068C00028632B2009210122C5E90064C5E90244C5E90442C5E906102846FDF7A1FC28466A
:2068E0000021FDF717FE2846FDF714FC58200E210022FDF70DFF5820FDF7FCFE5A200E2124
:206900000022FDF705FF5A20FDF7F4FE06F5284004210122FBF753FB022C05D02046032185
