:020000040800F2
:10000000500D0020C50000085B18000859180008B2
:1000100000000000000000000000000000000000E0
:100020000000000000000000000000005F18000851
:1000300000000000000000005D18000861180008C2
:10004000D700000800000000D7000008D700000813
:10005000D7000008D7000008D7000008D700000824
:1000600000000000D7000008D7000008D7000008F3
:10007000D7000008D7000008D700000800000000E3
:10008000D70000080000000000000000D7000008B2
:1000900000000000D7000008D7000008D7000008C3
:1000A00000000000D700000800000000CD1F00087D
:1000B0000348854600F03AFA004800476D200008E2
:1000C000500D00200448804704480047FEE7FEE743
:1000D000FEE7FEE7FEE7FEE7F9180008B1000008BA
:1000E000421C0178401C0029FBD1801A704730B5B2
:1000F0000B46014600202022012409E00D46D54090
:100100009D4205D31D469540491B25469540401903
:100110001546521E002DF1DC30BDF0B51FB4064669
:10012000002082B005464024019100901BE0019917
:1001300022460F46304600F01BFA049A059B801AAF
:10014000994110D310461946224600F001FA361A9A
:100150008F410197224601200021009F00F0F8F90D
:1001600038184D4100902046641E0028DFDC019BBA
:1001700000982946324607B0F0BD03460B439B0763
:1001800003D009E008C9121F08C0042AFAD203E00C
:100190000B780370401C491C521EF9D270470000B6
:1001A000F0B507460846584087B0C00F0490480095
:1001B0000E46590040084908BC1A884105D2384605
:1001C00031461E4617460B4602465800400810436B
:1001D0004CD0300D039040055900400D490D05905D
:1001E000401A0290402872DA18030121000B090519
:1001F0000843019004980092002805D001995242CA
:100200000020884100920190029840210A1A019929
:10021000009800F09DF905460C466B4607CB00F0B0
:10022000B8F9C0197141039A0E0D0023D717564033
:100230001A467A40164344D0049A002A2DD0029AD6
:10024000012A039A15DC1205C01A914101263605D0
:10025000001C7141D20F059ED207009301920296B5
:100260002A46234600F0B5F907B0F0BD38463146BE
:10027000FAE71605224A0F46B218C01AB741012103
:100280000905001C4F4100187F411146181879419B
:10029000E20F10436D19644113E0E2076D08154346
:1002A0006408C2071443039A01261205C01A91413B
:1002B0003605001C7141CE07400830434908C0187C
:1002C00051412A46234600F077F9CDE7FFE704982D
:1002D00001224000C117121A00238B4104983146B5
:1002E000C417381AA141EEE730B40124E407634093
:1002F00030BC55E730B40124E407614030BC4FE71F
:100300000000E0FFF0B51FB488B00B9909980024F5
:1003100048400999C00F490049080991C0070B9945
:100320000090490049080B9109990898A64608438E
:100330001CD00B990A98084318D009980124400052
:10034000420D4800410D099824050003000B20438D
:1003500009900B980003000B20430B9050181C4988
:100360004018002201901446104605E00020014686
:100370000DB0F0BD032801DA034600E003239C46DC
:10038000C11A0AAE0AE05F0008ADED5B4F00F75BF3
:100390007D430027AA187C41491C5B1E6145F2DDA4
:1003A000410004AB5A522104120C0A43240C401C95
:1003B0000828DFDB019802900099704601910090B7
:1003C000059B049A0799069800F003F9D0E700000E
:1003D0000DFCFFFFF0B50C465C4085B0E40FE40770
:1003E00003944C00002664085900944649080246CC
:1003F0000296224321D062460A431ED06200570D66
:100400004A000E032303550D012402462C492405FE
:10041000781B1B0B360B4018234326436146009084
:100420001C46501AB44103D30098401C009002E0CF
:10043000921800985B41002803DA0020014605B0BD
:10044000F0BD0020012109050746864611E06446FB
:100450001D46141BB54106D36546521BB341744675
:1004600007430C43A646CD07400849082843921885
:100470005B4105460D43EAD11046184313D0604650
:10048000194650407140084306D06046101AB341E7
:1004900006D20122002306E000220123DB0702E04E
:1004A0000122D2435310009874460105381C614163
:1004B000029C039D0019694100F07EF8BFE700002F
:1004C000FD0300004A0009030123090B1B05194322
:1004D0000A4B10B5520D9A4202DA0020014610BDB7
:1004E000064B34339A4203DC9A1A00F041F810BDEF
:1004F000034BD21800F02CF810BD0000FF030000E1
:10050000CDFBFFFF10B5002904DB0124E4074042C6
:100510008C412146002B04DB1C460123DB075242A1
:10052000A341994200D1904210BD0000064C012524
:10053000064E05E0E36807CC2B430C3C984710348B
:10054000B442F7D3FFF7B8FDAC3D0008CC3D00083E
:1005500010B5202A04DB0146203A9140002010BD4E
:10056000914020239C1A0346E3401943904010BD5C
:1005700010B5202A04DB0846203AD040002110BDE7
:100580000B46D340D0402024A21A9140084319467C
:1005900010BD10B5202A06DBCB170846203A1041C3
:1005A000C1170B4306E00B461341D0402024A21A8A
:1005B00091400843194610BD10B5002B08DA0024FD
:1005C000401C614192185B411A4301D14008400030
:1005D00010BDF0B51FB482B005460C0003D008462C
:1005E00002F0ECFD02E002F0E9FD2030024600904E
:1005F00021462846FFF7ACFF049B059A04460F46A8
:1006000018431143084314D0184610431BD00098D8
:1006100040210A1A18460599FFF7AAFF05460E461B
:10062000009A05990498FFF793FF084305D001202D
:1006300004E02046394607B0F0BD0020C11705434D
:100640000E432C43374300990E986305401A7905F1
:10065000E40A00220C43FD0A0A3002D500200146BC
:10066000E9E70105101969410C9C0D9D00196941CC
:10067000FFF7A2FFDFE7D2B201E00270401C491E83
:10068000FBD270470022F6E710B513460A4604462F
:100690001946FFF7F0FF204610BDF8B502464A4064
:1006A000D40F42004B0052085B089A4202D2024625
:1006B000084611464A0023D0C30D4A00DDB2120E8F
:1006C000AD1A202D35DA49020126490AF6058A19A4
:1006D000002C00D0524220214F1B1146B9402A4124
:1006E0001018C20D9A4221D0002C17D0012D08DC21
:1006F000DA05801AD20F8019D207DBB200F092F827
:10070000F8BDDA05801A012340001B06C0188018C6
:100710005A428018CA0F1043490007E04908C2072F
:100720001143DA05801A80194008801800F072F829
:10073000F8BD61000122511A001BF7E70122D20720
:100740005140AAE70122D2075040A6E770B5024601
:100750004A40D50F40004A00ED07400852080028E3
:1007600014D0002A12D0C40DD30D41020120C005BF
:100770005202490A520AE41A091812187D349142A9
:1007800001D3641C00E04900002C01DA002070BD98
:100790000023914201D3891A0343400849000028ED
:1007A000F7D100290AD0914202D10121C90705E001
:1007B000914201D2012101E00121C943E005C018A5
:1007C000401900F027F870BDC217C10F504010B596
:1007D0004018CA079623002100F024F810BD10B578
:1007E00000229623114600F01DF810BDC20FD2075B
:1007F000400040080BD0C10D0723DB01C91840029F
:100800000905400A1143C208400711437047002000
:1008100001467047002904DA401C490001D1400814
:100820004000704770B40024050C05D1102400046A
:1008300002D1002921D01124050E01D10002083473
:10084000050F01D10001241D850F01D18000A41CDA
:10085000002801DB4000641C002908D020252E1B45
:100860000D46F540A14000D001212943084301066F
:100870001B1B000ADB1D02D5002070BC7047DB0586
:10088000181880180029F8DA401C4900F5D170BC0E
:100890004008400070470000F0B583B00C4601905E
:1008A000088902282DD30026029410E01343029CED
:1008B00017490B54091840004A300F233A4600F0FC
:1008C0004FFB761CF0B221894908884219D2616831
:1008D0003006C50D485D002813D0421ED017400FCA
:1008E0001018C008C0B20A4B1B5CC700D21BD4B2A0
:1008F00001273A46A2403D43495D0029D6D19343A2
:10090000D5E70198214601F023FA012003B0F0BD9C
:1009100056020020F0B5ADB00C4607460889022803
:1009200013D30020984962680306DD0D535D002B48
:100930000BD001263543525D5B185B1E1A70401CBC
:10094000C2B223895B089A42EDD390480078002810
:1009500000D011E142208E4E00213152F187718783
:10096000F1867186F1857185F1847184F1837183DB
:10097000F1827182F1817181F1801997824F38780B
:1009800001097172000130727878010971730001F8
:100990003073B8780109717400013074F878010976
:1009A0007175000130753879010971760001307672
:1009B00078790109717700013077B879010921222E
:1009C0000992B1540001202118917054F87901095D
:1009D00025221792B1540001242116917054387ABF
:1009E000010929221592B154000128211491705453
:1009F000787A01092D221392B15400012C21129111
:100A00007054B87A010931221192B1540001302199
:100A100010917054F87A010935220F92B1540001F7
:100A200034210E917054387B010939220D92B15452
:100A3000000138210C917054787B01093D220B9202
:100A4000B15400013C210A917054B87B0109412244
:100A50001A92B1540001402170540A460291F87B69
:100A6000010945230893F154000144210791705472
:100A70001BAD062006902870681C05900195B11DDD
:100A80000491FFF77AFB90200C23039329461A9ACE
:100A900000F066FA387C0109717200013072787CCE
:100AA0000109717300013073B87C01097174000190
:100AB0003074F87C0109717500013075387D0109C9
:100AC000717600013076787D010971770001307709
:100AD000B87D0109099AB154000118997054F87D44
:100AE0000109179AB154000116997054387E010912
:100AF000159AB154000114997054787E0109139A23
:100B0000B154000112997054B87E0109119AB15480
:100B1000000110997054F87E01090F9AB154000138
:100B20000E997054387F01090D9AB15400010C9947
:100B30007054787F01090B9AB15400010A997054DE
:100B4000B87F01091A9D71550001029AB054F87FCF
:100B5000199F0109089BF154000107997054019EE7
:100B60000698307005980499FFF707FB92203146EC
:100B70002A46039B00F0F4F93846214601F0E8F8D4
:100B800001202DB0F0BDC0463402002054020020E8
:100B90003401002001207047F0B583B00024029496
:100BA0003425874F7B5D012B1ED0019201227A559F
:100BB0003E68B3685B0712D40094134683402B4C05
:100BC000A14213D1B16A9943B16201469143102900
:100BD000009C7B4F07D110281AD0274819E0B86B2A
:100BE00020210143B9637C5503B0F0BDB16A1943BC
:100BF000B1627349C96A4B1E072B25D20146914346
:100C00001029009C6E4FEED1102807D0910506E008
:100C1000184817490A6802400A60E4E7D105144AF7
:100C200013680B4313601028DDD1674800686749DB
:100C3000FFF75DFA0A214143029102980028D2D0C1
:100C40000298401E0290F8E713079942D6D07369C4
:100C500007210B40019CA342D0D073698B43736181
:100C6000019B0B40716919437161C7E701100000D6
:100C700008270140FFFF7FFFFFFFBFFFB0B55048CF
:100C800001684269082A01D1082203E0CA68D20734
:100C90002CD10C224E4B1C680D68154209D11D68E1
:100CA0002D1B052DF8D9342100224254816B0422DA
:100CB00021E001225302846B1C438463CB681B0533
:100CC0009B0F22D1837E002B1FD10B681B071CD5E5
:100CD0008B685B0712D44A680C239A434A60FF2250
:100CE0000232836B93435A1C82630EE0342100224C
:100CF0004254816B20220A438263B0BD836B20245F
:100D00001C438463C36B1343C363007E002800D07D
:100D1000B0BD0C200860B0BDF0B581B0284C25688E
:100D2000A868400749D43427E05D012845D0012652
:100D3000E655607E012831D000200090A86803218C
:100D40000140012905D12868C00727D1E8680004BF
:100D500024D4A8681B49084217D1A8683043A8606A
:100D6000194800681949FFF7C2F900900098002857
:100D700002D00098401EF8E7154801682A68D2079B
:100D80000CD10268521A032AF8D3A06B1021014338
:100D9000A163E06B3043E06301B0F0BD0020E0559B
:100DA000A16B0C4A0A4031025118A163E0631C2078
:100DB0002860A86804210143A96001B0F0BDC046C5
:100DC00008000020170000800000002040420F00B3
:100DD0004C090020FEF0FFFFF0B589B00A68002A38
:100DE00000D1ACE004465748844201D0052000E021
:100DF00003200090012000231F46039005460CE0CD
:100E00002A43F2600A681046059DE840079B9B1C38
:100E10003F1D6D1C002800D191E007930595681EC9
:100E2000039E069086403240ECD0049701924F68B2
:100E30001020384312280D460FD11C200499084079
:100E40000F218140069AD3089B00E3181A6A8A434F
:100E500029698140114319626F6829460322384687
:100E60001040079DA8400292AA4023689343034381
:100E70002360D043122F12D80122BA40344B1A42B9
:100E80000DD0A2680240CB68AB401343A360FA06C2
:100E9000D20F069B9A406368B34313436360E268D2
:100EA00002408868A8401043E060F800049FA9D57C
:100EB0002648024600680123184310601068184055
:100EC00008900C263E400F22B240069D02988543B2
:100ED00008982048074628589043EF190922D2065F
:100EE000944209D01C4A944207D01C4A9442009B69
:100EF000019D03D1022301E00023019DB340034380
:100F00003B60114E33684868C20301D52B4300E0B3
:100F1000AB43049F33607368820301D52B4300E029
:100F2000AB437360B368C20201D52B4300E0AB430F
:100F3000B360F268800200D562E7AA4361E709B0B6
:100F4000F0BDC046000C00480004014018100240EB
:100F500006000600080001400004004800080048A0
:100F6000F0B589B0089107904026F54CA05D412767
:100F7000E15D0225202900D0BAE1012800D1B7E1C6
:100F8000059701250496A555EE48066821680F4689
:100F900018378869000409D5E803EA4C2468A41BC3
:100FA000192C00D9E3E03C680442F6D106912120D7
:100FB000E349059C085542201024019000940C54EC
:100FC000002048644A85089A4A6203904863488D25
:100FD000000ADD4A02950AD007981040069D6A680B
:100FE000DA4C144020182D1DFF22DA4C0EE0154675
:100FF0004A8D06984068D54C044007982840D5B2E1
:101000002D0428180019069C251DD14C04432C6082
:101010000A85488D0028029D0C46069900D194E06F
:101020000798C94C204007903868800718D45C1C8A
:1010300010D0002B00D112E13868C00600D5A4E022
:10104000C0480068801B984200D90DE138688007CD
:10105000F2D505E03C683868E40648D48007F9D545
:10106000089C20788862B6480146408D401E48851D
:10107000641C08944C62521E0A85488D14041ED1CB
:10108000002806992DD038680006AD4C0BD4002BF3
:1010900000D120E1AB480068801B984200D91CE1D8
:1010A00038680006F6D5608D000A0AD0FF22228536
:1010B0004868AA4C2040079C2043A94C0EE00699A2
:1010C0000FE0628D22854868A44C2040D4B22404ED
:1010D00007996418069904430120400620430C1D1B
:1010E0002060974C608D00289ED12EE038688006E5
:1010F000FCD50098C86108462021C161806980073D
:101100008F4B049C019E02D50698039A8262386830
:10111000C00703D13868012202433A60069F78680D
:101120008D4A02407A60586C042202435A64059842
:101130001954039818559855DAE03868C00654D405
:1011400080480068801B98427DD838688006F4D5B6
:101150002020C8610B4649687F4A0A405A600599B9
:1011600060540498039D255401982554C0E07448A8
:101170000246406C20210843506405981154002019
:101180000499505442215054B2E0386880066C4AA9
:1011900010D4002B76D0002C06D138688006FCD500
:1011A00008E03868800605D466480068801B9842CD
:1011B000F7D969E00098C8612020C8618869800774
:1011C00001D5039888623868C007049B019E04D14A
:1011D0003868012101433960069948680C465E4928
:1011E000014061600420059C52E0386880060FD4FD
:1011F000002B56D0581C03D138688006FCD507E078
:1012000050480068801B98424DD838688006F7D552
:101210000098C8612020C8618869800701D5002036
:1012200088623868C007049A019E04D13868012199
:1012300001433960069948680B46474901405960A7
:101240000420059B33E0606C20210843606405980E
:1012500021540020049960540199605448E0386892
:10126000C0062DD43748006835480246406C20211E
:101270000843506405981154049803991154019837
:10128000115435E02F4800682020049B059C019EE6
:10129000516C01435164202010550398D05490554F
:1012A00026E0284800682020049A059B019E616C76
:1012B000014361642020E0540020A054A05517E0B1
:1012C0003868800617D41F48006820201C4A049BF9
:1012D000059C019E2AE01B480068606C20210843A1
:1012E000606405982154049803992154019821546D
:1012F000284609B0F0BD0098C8612020C8618869FF
:10130000800701D5039888623868C0070C4A049B9F
:10131000019E04D13868012101433960069948686B
:101320000C460D49014061600420059C516C01434D
:101330005164202010550398D0549055D8E7C046EA
:10134000640000204C090020FF0300000098007C8E
:10135000002000820020FF8100E800FE009C00FCCD
:101360000000FF01F0B583B0E54B18680127076264
:101370000222026204260662102505620824046225
:1013800009225101026801918A4302608268029732
:10139000BA438260826852062AD582684027BA43DF
:1013A0008260DF6E002F23D03A46203200237B6319
:1013B0005178022913D139680D680E26B5430D60A6
:1013C0000D680093029B9D430D60F96B3D6C1E46BA
:1013D000AE404E60009911705370C94B08E0BE6377
:1013E0001370C74BD96E896B202901D1DD6709E0E5
:1013F0005A2100225A520F210162816921438161E1
:1014000020219967996F202946D102990F039C6882
:1014100022467A40196911434D424D41B74929424C
:101420003AD17026995D012936D05A21029D5D522C
:1014300058215D529D553546B049596500261E66B6
:10144000002C08D0BC420DD1AD4B196900290DD13B
:101450005C21AC4C0CE0AA4B1969002906D05C2138
:101460007F2405E05C21A64B5E5202E05C21FF2454
:101470005C52DE67222199678168029C214381606A
:101480005E5519690A4301D0A04A00E09E4A019CBA
:101490001A6601682143016003B0F0BDF0B589B060
:1014A0000668F269376820233946079319400125F9
:1014B000EB021C462F3414400896B668202C05D148
:1014C000002903D0016E002926D1B5E006950593C9
:1014D0001C460F3422420AD0069C264073427341B8
:1014E00025022C462034274219D1002B17D0174053
:1014F00039060DD479060346089800D49CE00168AB
:10150000402291430160002058660798586793E095
:10151000416E002900D18FE0884709B0F0BD0493E7
:10152000D40708D03D4006D0069B089C23620546A0
:10153000C46F1C43C467022314461C4065426541C6
:10154000049C25430AD1089C236204460190C46F81
:1015500003940425039C2543019CE567029304251D
:10156000144603952C4065426541049B1D43054686
:10157000059B06D10898039C0462EC6F0298044313
:10158000EC670E43711E8E411107089C07D5002E93
:1015900005D008212162EC6F0C43EC67089C1A42CD
:1015A00008D006988106394004D02362E96F079875
:1015B0000143E967E96F00293ED01740B90605D518
:1015C000296E002902D0284688472C68E96F282315
:1015D0000B40A16840221140C91833D009214901AC
:1015E00023688B432360A16806988143A160002192
:1015F00029660798A867A3685B061FD5A36893436D
:10160000A360E86E002819D002462032134B4363D2
:101610005378022B1CD103681C680E25AC431C6058
:101620001C68069EB4431C60C36B046C3546A54021
:101630005D60117056700DE009B0F0BDFFF792FECD
:1016400009B0F0BDFFF78EFE0020E86709B0F0BDDD
:101650000399816300F07EFC09B0F0BD551F0008BE
:10166000F0B581B0254C2178A04800F047F97848C2
:10167000816F202940D101221503866831466940D7
:1016800003690B435F425F413C4235D17023C75C25
:10169000012F31D05A27C2535827C253C254446530
:1016A00000240466002E07D0AE420BD10569002D40
:1016B0000BD15C25674E0AE00569002D05D05C253D
:1016C0007F2604E05C25445302E05C25FF26465358
:1016D000C467222585670568AE681643AE60C454AA
:1016E0000269114301D0094900E007490166092058
:1016F000400129680143296001B0F0BD5502002076
:10170000B0000020FF0100006B1F0008112000083E
:10171000F0B584B04E4A536F202B00D083E00028F0
:1017200000D180E000297ED0976801252B039F42DD
:1017300004D11469002C01D1C40774D17026945DC2
:10174000012C70D002950196955550241153002517
:10175000D56721245467634C26685224039411539F
:101760009F420AD111690029034600D0002300934B
:1017700000295C4D03D1084601E00095594D0399BD
:10178000535A1168002B24D0029BDF02CB691B0641
:101790000AD42B689C1B0B682E2C2FD25B07F5D527
:1017A000CB693B42F2D040E0002803D003780B85A0
:1017B000401C07E0009B1888264C204008859B1C95
:1017C00000930020039C135B5B1E1353135B002BE1
:1017D000DCD1C869400621D40298C00202E0CB697E
:1017E0005B061BD42B689C1B0B682E2C06D25B0758
:1017F000F5D5CB690342F2D0086217E00D20400115
:1018000083430B608868029B98438860002001999D
:10181000505420205067906704B0F0BD002001991B
:1018200050542020506704B0F0BD0F620D204001DD
:101830000B6883430B608868029B98438860002094
:1018400001995054202050679067D06704B0F0BDD4
:10185000B0000020FF010000FEE77047FEE7FEE752
:10186000F0B585B01F480168491C01601E4800782A
:10187000002835D01D4CA089312801D8401CA081FA
:101880001B4D605D00282BD01A496618002704E024
:1018900014367F1CC1B28F4222D23268002AF7D0A0
:1018A000B1880029F4D0491EB1800904F0D1B16893
:1018B000002901D0F36802E0F368002B07D00493FD
:1018C000039100200190694620469047605D002109
:1018D0003160C1B2491E8F42DAD1401E6055D7E750
:1018E00005B0F0BD4C090020300100205C02002052
:1018F000EC060000AC04000070470000F0B581B0B9
:1019000004465C482018A27AA389322B11D3002AFE
:1019100001D00022A2720022A281012900D0A0E001
:101920000021C171564A42800322A272018001B097
:10193000F0BD0025A581062A00D992E07A441279EB
:10194000520097440304193547585F00E5E7428881
:10195000D3B24B405B00484EF35A120A5A404280C1
:10196000228A1202511821820188491C018089B201
:10197000022976D104212BE00288521C0280838840
:101980001B025918818092B2022A6AD189B2428818
:101990008A426BD1218A002965D00522A272458036
:1019A0000580364A91425CD30121C17101B0F0BD7E
:1019B0004288D3B24B405B002F4EF35A120A5A4072
:1019C0004280A17301884A1C0280002949D101216B
:1019D000A17243E081710288531C03804388DEB208
:1019E0004E407100244E715A1B0A4B404380002A1E
:1019F00037D1022130E0C279002A19D00188491C70
:101A0000018024E00288521C028083881B0259183E
:101A1000818092B2022A24D189B242888A4205D1B9
:101A2000C079002802D1204600F0BEF8A57218E067
:101A30000288531C03804388DEB24E4076000E4F6E
:101A4000BE5B1B0A73404380A21891740188228AEE
:101A500089B2914205D10621A1728580058001B02D
:101A6000F0BD01B0F0BD204600F09EF8A57201B0B7
:101A7000F0BDC04612040000A43A000801040000B2
:101A8000C1C00000B0B5454C03190459002C3CD02E
:101A90009C68002C3BD01C69002C3BD09C69002C1E
:101AA0003BD01C6A002C3BD09C6A002C3BD01C6BAA
:101AB000002C3BD09C6B002C3BD01C6C002C3BD0F2
:101AC0009C6C002C3BD01C6D002C3BD09C6D002CE2
:101AD0003BD01C6E002C3BD09C6E002C3BD01C6F6E
:101AE000002C3BD09C6F002C3BD02D4BC3181C68A6
:101AF000002C39D09C68002C38D01C69002C38D0C0
:101B00009C69002C38D00020B0BD002436E008339A
:101B1000012433E01033022430E0183303242DE095
:101B2000203304242AE02833052427E03033062418
:101B300024E03833072421E0403308241EE04833F2
:101B400009241BE050330A2418E058330B2415E015
:101B500060330C2412E068330D240FE070330E2440
:101B60000CE078330F2409E0102407E00833112437
:101B700004E01033122401E018331324094D4519F1
:101B80001A60E2008018C722D2008154297801200F
:101B90008C4201D3611C2970B0BDC0463C060000D8
:101BA000BC060000ED060000F0B58DB00346002233
:101BB0000C920B920A9209920892807B08A90092DB
:101BC0004A7008708320C000185C88701846123074
:101BD0000990188A08815D4819180291185C0390D1
:101BE0000028079340D09521CD002846103006905C
:101BF0002C460C342A460A322946083105912E1DFE
:101C0000012111E0069F1436143514341437069759
:101C1000411C049A14321F4603460598143005905F
:101C2000039883423B461FD2049208469A59002AE1
:101C3000E8D0595D08AB1B789942079B069FE2D11B
:101C4000019018590B90D8590C9008A91846904744
:101C5000079B0B9919510C99D95100284DD1029825
:101C6000007803900198CEE700980C900B900298B2
:101C7000407800281BD0C721C9005C18012103E06F
:101C80000834691C854212D20D466268002AF7D0DA
:101C900008A9897823788B42079BF1D108A91846B7
:101CA000904700283FD102984078079BE8E70298C8
:101CB0008078002842D0DB21CC00012507E0029883
:101CC0008078079B241D691C85420D4636D21A591F
:101CD000002AF7D008A9184690470028EFD003281B
:101CE00007992BD10098085102988078A84225D1F5
:101CF000401E029988700DB0F0BD022820D0032844
:101D00001CD100981851D8519859002816D0029823
:101D1000007800999951019988420FD1401E02998B
:101D200008700DB0F0BD032808D1009860600298DB
:101D30004078A84202D1401E029948700DB0F0BD13
:101D40000498185A059958520DB0F0BDEC060000E1
:101D5000F0B589B00A4601215170514BC35C002B8C
:101D600002D0002009B0F0BD4B4BC6184B4B009081
:101D7000C718B9721378737001913170547AB470C6
:101D80001189F17090783071C1255D40EBB25B0034
:101D9000444DEB5A1D0ADBB26340C0245C40630033
:101DA000404CE35ADCB26C40C9B2614049003D4D41
:101DB000695ACCB21B0A63402C4643405800285A4B
:101DC000090A4140B171000A707107213960148914
:101DD00000253D817C60002C56D050680290002880
:101DE00057D00721049602E05D19002C35D08020E1
:101DF0000390431AA34200D3234618041DD008942D
:101E0000079502984219711806939BB20593254CC9
:101E1000107808703D89EEB246407000205A2D0AB5
:101E200045403D81521C5B1E491C002BF0D1396896
:101E3000049E089C05AD29CD00E0002041183960C2
:101E4000E41A8029D0D1802130461E4600F02CF8BB
:101E50003346049E00213960C6E77868002813D015
:101E60000398401A0128009C04D8304600F01CF862
:101E7000002139606018797A074A81548018397ACC
:101E800041703868811C3960304600F00DF8002040
:101E9000B872019809B0F0BD1A0400009C0400005B
:101EA000A6040000A43A0008F0B581B089B2FFF79B
:101EB0002FFC4C48816F202941D1012215038668EF
:101EC0003146694003690B435F425F411D4C3C4210
:101ED00035D17023C75C012F31D05A27C253582700
:101EE000C253C254446500240466002E07D0AE429B
:101EF0000BD10569002D0BD15C25134E0AE0056955
:101F0000002D05D05C257F2604E05C25445302E0CB
:101F10005C25FF264653C467222585670568AE68A1
:101F20001643AE60C4540269114301D0084900E071
:101F3000064901660920400129680143296001B072
:101F4000F0BDC04655020020FF0100006B1F0008D5
:101F50001120000880B5406A0146523100220A81F2
:101F600052214252FFF7FEF980BD10B55C21425A62
:101F70000168836F222B0ED103465A338C8C144098
:101F8000426D1480921C42651A88521E1A801A886B
:101F9000002A05D010BD8869082202438A6110BD5D
:101FA000092252010B6893430B608A6801239A430C
:101FB0008A600021016620218167FFF751FB10BD77
:101FC00070470A68531C0B601070704780B5012081
:101FD000C006034908600348FFF760FA80BDC046A9
:101FE00080E200E0B000002002E008C8121F08C133
:101FF000002AFAD17047000000000102030400002B
:10200000000000000000000006032141000000085D
:1020100080B55C21425A0168836F222B0FD10346A1
:102020005A33898C1140426D1170416D491C4165D4
:102030001988491E19801988002905D080BD886932
:10204000082202438A6180BD0921490102681368A0
:102050008B431360916801239943916000210166CD
:1020600020218167FFF7FCFA80BD000000B5A5B014
:10207000E64E306810210E91084330607D20C1008B
:10208000E34800681391FEF732F8401E010E11D1AB
:10209000E0494860E0480268E04B1C461A400323D0
:1020A0009B07D218026000228A6007220A6001683A
:1020B00021400160DA4D6869012738436861686929
:1020C0003840149014983807A9690143A961A96997
:1020D00001401491149838040C907C06286800077D
:1020E000800F16D028680C210140082903D12868E8
:1020F0000C9908420DD0281F016839430160C94975
:102100000A6803689B0706D40B689B1A022BF8D950
:102110004EE0281F0168016880220A4378218A4323
:102120000260286B042101432963286B01210843C5
:102130002863BC4802682B6B9B0704D403689B1A76
:10214000022BF8D934E02A6B80231343782293437F
:102150002B632A680C231340082B02D12868A86A35
:1021600026E00A06291F0B6893430B6002680B6880
:10217000234204D003689B1A022BF8D918E0AA6AFC
:102180000F239A43AA623D2212042B68934305222F
:10219000D2049A182A60A14A521C0B6813430B60A0
:1021A00002680B68234203D103689B1A022BF8D9FB
:1021B00011943068C00708D1944802460068012194
:1021C000014311601068C00760D0072630022968FB
:1021D000014329602968F02291432960291F096879
:1021E000119A114252D0296802220A43BA432A6046
:1021F0008C490A68F94C2D680C231D40082D05D028
:102200000B689B1AA342864DF5D93FE07F490968C8
:10221000834C21688143216020680340082BF84DDE
:1022200012D18102090FF74A555CA16A0C9A10423B
:1022300007D00F200140F448415CF148FDF757FFFB
:1022400000E0F7484543764C20680006000FF5A1F2
:10225000085CC5406E48056028461399FDF747FFA6
:10226000401E6E498842254610D86A4948606A482F
:1022700002686A4B1C461A4003239B07D21802606F
:1022800000228A600E60016821400160E86A3843DC
:1022900002239843E862E86A0E990843E862EE4830
:1022A0000246083AED490A604A7D002A01D100221F
:1022B0000A750D934B750A790026F343002A04939F
:1022C0001A4600D08A688260026860239A43CB680D
:1022D00013430360026880239A430B69134303602E
:1022E0004F751896B905286908432861286908912F
:1022F00008402490249879042869084328612869B3
:102300000791084024902498B80429690143296161
:102310002969014024912498D1488762179616961E
:102320001597149714AD2946FEF756FD1696159687
:102330003C460D9F1497CA482946FEF74DFD169658
:10234000159614940920C00606902946FEF744FD10
:102350001696159614972746C2482946FEF73CFD67
:10236000C14DC249C24843C52C606E60AE60EE608C
:102370002E616E6141240C3D2A5D032310935B02A4
:102380000B93002A3A462BD1402000212954189162
:1023900017911691159114912148024600690799E9
:1023A0000843106110690840249004201890109888
:1023B0001790122015900B981490249801261696C9
:1023C00014A90698FEF708FD7005154A91690143A6
:1023D0009161916901402491249843CD2A680C3D74
:1023E000242312932B550368BB4303600F230593EB
:1023F0001B069943016181689E4B19408160F90376
:10240000012A099110D10E43866016E00020024097
:102410000000002010E000E020ED00E0FFFFFF00E2
:10242000041002404C090020212189020E438660DD
:10243000022A02D10121C902416041688E4A0A4341
:102440004260C1688B4A1140C16029696A690A43C8
:10245000A96909021143C160E9692A6A0A43026055
:1024600001680127394301600021696420220F922D
:102470002A5529634222A9544022AB5C2E5D202EAE
:1024800012D1012B10D0129B2B550368BB43036064
:102490003B0306689E4306600368036003683B4392
:1024A0000360A9540F9B2B55AB5C2E5D202E11D1E0
:1024B000012B0FD0129B2B550368BB430360059B78
:1024C0001B0206689E43066003683B430360A954F1
:1024D0000F9828551397694C0C23694F216261624C
:1024E000E120400227606060A160E16021616361DA
:1024F000A161E161606F00280A460A9108460D4615
:102500000E463AD170210020605418901790169012
:1025100015901490139DA9035A4A134652690A4311
:102520005A615A690A40249224991969079A1143F9
:1025300019611969114024911895109917911690F5
:102540000D9815900E201490249814A90698FEF763
:1025500043FC4D4801684D4A11404D4A8918491CB9
:102560000160E8064B490860A668E0680A902569A2
:102570006369A269E069216A27680D92129A62670D
:102580003A68139CA2433A6035431D4305433A68B9
:10259000414B13402B433B60109A12037B689343DB
:1025A0000A9A13437B600D9A11430B221202BB68F7
:1025B00093430B43BB60334BD96A8907090F37A29A
:1025C0005158099A904221D108292C4E00D9DEE0B9
:1025D000364803A2515C49008F44C046881300006E
:1025E00007D9B7D979D9D9D98F0031480068196886
:1025F0004905490F2F4A515CC8404000A5E0C0463C
:1026000000127A00A43C0008B43C000808291B4EC4
:1026100000D9BCE0880007A10858274C8746C0466F
:1026200000093D000000000000000000010203045A
:1026300006070809BD2600088F2700083327000871
:102640008F270008FF2600088F2700088F27000823
:102650008F2700083127000808300240480000207A
:102660000014004800040048640000205D3E302053
:1026700000540040FF7FFFFF00800002B0000020F8
:10268000003801400410024018E400E0FFFFFF00A2
:10269000FFFFFF3F00E100E0F369FFFF00000000E3
:1026A0000400000008000000020000000024F40004
:1026B00000000020F61F000800127A00B8480468E5
:1026C00018684005400FB749085CC44031E01868FD
:1026D0000C2101400829B44C36D18102090FB34ABC
:1026E000545C996A0C9A10422CD005980140B0486D
:1026F000415CAD48FDF7FBFC25E00C9825E018682F
:102700000C2101400829A84C13D18102090FA74AC6
:10271000545C996A0C9A104201D100F0C6FC0598ED
:102720000140A348415CA048FDF7E1FC444300E0C0
:10273000099C716848080019FDF7D9FC80B210287F
:102740000FD224E09B484443600071684A08101887
:10275000FDF7CDFC0C991039014018D00007400F4F
:102760000843F860002535667566716A002961D0F6
:10277000CA0711D18A0718D44A071FD40A0726D4DA
:10278000CA062CD48A0633D44A063AD449E000203B
:1027900030667066139F79E0139842047B68934318
:1027A000B26A1A437A608A07E6D5139802047B68F6
:1027B0009343F26A1A437A604A07DFD5139882047A
:1027C0007B689343326B1A437A600A07D8D57A68DC
:1027D00079480240736B13437B60CA06D2D51398C5
:1027E0000203BB689343B26B1A43BA608A06CBD527
:1027F00013984203BB689343F26B1A43BA604A06CC
:102800000FD5139802057B689343346C23437B6098
:10281000944206D1109842057B689343726C1A4328
:102820007A60090606D51398C1047A688A43B16CA8
:102830001143796013988103BA680A43BA60B96892
:102840005D4A1140B96039685C4A0A403A603968AB
:10285000014339600D95F56759490A683B681B07C4
:1028600002D5FB699B0261D538684007554E04D5F7
:10287000F869089B184200D1D3E30F98706731467E
:102880007831139F0D9A0860702032544E4D28788D
:1028900000281FD14D4C276866686F200101204633
:1028A000FDF7F0FE4A4813992154DB20C000494946
:1028B0002150002020722760139F6660414E2F70C8
:1028C0000321454A2046FFF7DDF80421434A20460C
:1028D000FFF7D8F878020F9038030D90B06F2028DA
:1028E0003F4D00D08BE0B36818460D9948403169E0
:1028F00001434C424C413B4A224200D07FE07021D0
:10290000745C012C7BD05A243753582437537754A6
:10291000726500223266002B29D03C03A3422CD1E1
:102920003369002B2CD15C232F4C2BE013984405EA
:10293000C30202E0F869204296D10D68AE1A3D68E4
:102940001198401E864200D995E36807F2D5F869D0
:102950001842EFD03B620D20400139688143396055
:10296000B86813998843B8600F46164E78E3336908
:10297000002B05D05C237F2404E05C23F25202E0AC
:102980005C23FF24F452F2672223B36733689C6808
:102990003C439C6072543169084329D0134828E0B5
:1029A00000000020F61F000800127A00A43C000876
:1029B000B43C000800093D00FF7FFFFFFFFF00FC63
:1029C0004C090020B0000020300100205C020020F3
:1029D000EE060000950B000899080008150900088C
:1029E0000410024055020020FF01000011200008E1
:1029F000BD4830660F98E038196801431960BB483C
:102A00000024046044608460C460046144618461A3
:102A1000C4613902B648FDF735FE14A906200870D6
:102A20000F2320463A46FEF79BFA002801D0B14812
:102A3000077014A94C700C70902002220F23FEF72F
:102A40008FFA002801D0AB480770AB4E3068316870
:102A5000091A0629FBD314A9A8480880902002224D
:102A60000F23FEF77DFA002801D0A24807703068D6
:102A70003168091A0329FBD314A90C809020022283
:102A80000F23FEF76DFA002801D09A4807703068CE
:102A90003168091A0629FBD314A9984808809220A6
:102AA00002220F230892FEF75BFA002801D091481A
:102AB000077030683168091A0329FBD311948D48D7
:102AC0000078002870D1380314AC03902080902740
:102AD000022202920F230A93384601972146FEF7FD
:102AE0003FFAFE21052582480691455484482080FE
:102AF00038462146029F3A460A9BFEF731FA059571
:102B0000680307902080019821463A460A9BFEF709
:102B100027FA30683168091A0629FBD314AC7748C4
:102B20002080902002250F2721462A463B46FEF7AB
:102B300017FA03982080922021462A463B46FEF74A
:102B40000FFA30683168091A0629FBD368480699DC
:102B5000059A425414AC6A482080922502220A92B7
:102B60000F27284621463B46FEF7FAF907982080B2
:102B7000284621460A9A3B46FEF7F2F9306831684A
:102B8000091A0629FBD314A95C4808809220022266
:102B90000F23FEF7E5F9574800780028594D139F99
:102BA00002D159480D9981614A2058492C460F2578
:102BB0003A462B46FEF7D4F95448411C4C203A467D
:102BC0002B46FEF7CDF95148811C4E203A460A9516
:102BD0002B46FEF7C5F960690F9908436061636988
:102BE0004B4A1298119D155415625583FF074948A9
:102BF0000C3804241060129757609560D5601561F9
:102C0000154654610B401493149B936B002B0DD10C
:102C100034230024EC54EC633A4B1C465B690F9957
:102C20000B43636163690B401493149BAB6BDB062E
:102C300076D438490B1F1C68640771D4364C9E3417
:102C4000AF6B2740BC1C334FAC631B68109C234008
:102C5000012B06D10268D2070ED13A68099B1A42AD
:102C60000AD13A6818239A433A60109A92077B680F
:102C70009343129803437B603968284A0A403A60BC
:102C80000F9A3F3AE96991421198024600D00A46EC
:102C9000A96A01290146139F00D00D992B7E9B0341
:102CA0006C7EE4031C43611811431A4802680A430E
:102CB0000260EA6A531E072B00D3D7E1836807241A
:102CC000A343836022408368134383600068F94A0A
:102CD00002408A4200D076E10020E863A86B3843C6
:102CE000089988431FE0C0466B1F0008340200208B
:102CF00034010020540200204C090020010400008F
:102D0000FE050000041002400004004856020020A6
:102D1000080000200C2401405FFEFFFF1902FEFFA7
:102D2000A86B0E990843294638312F4608601020B9
:102D30000125062429462246FDF72EFFFDF7ECFF6C
:102D4000FDF79CFF3868076C112010952946224634
:102D5000FDF722FFB8B20B99081A7F30FDF734FD5A
:102D6000E149FDF7F3FCE149FDF797FC1390FDF70E
:102D7000D3FFFDF783FFDB480068006C80B2FDF7EE
:102D80002EFD0146DA48FDF7E1FC1290D9480568AE
:102D9000D948854278DBD94C0A212846FDF7A7F9A6
:102DA000A5420546F8D8401C00D304983168119B11
:102DB0003268521A8242FBD314AD2B71D048149062
:102DC0002846FDF78DF981B22846FEF7A1FCCD4ECD
:102DD000304629461CC81CC19CC89CC11CC81CC1CB
:102DE0009CC89CC10288807888700A802846FDF7BC
:102DF00077F981B22846FEF78BFCC3A029469CC810
:102E00009CC19CC89CC1007808702846FDF768F9F1
:102E100081B22846FEF77CFC28460ECE0EC01ECEA0
:102E20001EC00ECE0EC01ECE1EC03188B27882707B
:102E300001802846FDF754F981B22846FEF768FC68
:102E4000BAA029460CC80CC11CC81CC12846FDF7F5
:102E500047F981B22846FEF75BFC984B18680C21B5
:102E60000140082914D18102090F964A555C996ADC
:102E70000C9A10420D9F0ED00A9801409248415C76
:102E80008F48FDF734F907E02846401C8DD28DE7C6
:102E90008B4D0D9F01E08D484543A9492846FDF71C
:102EA00026F9024614AEA749304600F073F93046C1
:102EB000FDF716F981B23046FEF72AFC1298FDF7AD
:102EC00095FC02460B46A049304600F063F93046B7
:102ED000FDF706F981B23046FEF71AFC1398FDF7AC
:102EE00085FC02460B469949304600F053F93046BE
:102EF000FDF7F6F881B23046FEF70AFC781E9449D9
:102F00000A6802409349304600F044F93046FDF724
:102F1000E7F881B23046FEF7FBFB76480CC8006844
:102F200000908DA1304600F035F93046FDF7D8F815
:102F300081B23046FEF7ECFB8D4802685E480240E5
:102F40008CA1304600F026F93046FDF7C9F881B271
:102F50003046FEF7DDFB8E4831461CC81CC13CC81C
:102F60003CC13CC83CC13CC83CC1007808703046FC
:102F7000FDF7B6F881B23046FEF7CAFB544CA06F9D
:102F800020284DD1A1684F40206938434342434136
:102F9000504A1A4244D17020235C012B40D05A235E
:102FA000109DE5525823E55225546265119A226618
:102FB000002913D02A03914216D12169002917D183
:102FC0005C21454A16E0A86B0E990843089988438E
:102FD000A863E86B384329463C31A6E621690029FD
:102FE00006D05C217F2205E05C21119B635203E047
:102FF0005C21FF226252119BE3672221A1672168B5
:103000008A682A438A6023542069074301D03448E0
:1030100000E0324820660F9AE03A086810430860E2
:10302000FEE71398C30204E0F869089C204200D030
:1030300023E40868801A3C68119D6D1EA84225D8BB
:103040006007F1D5F8691842EED03B620D204001CF
:10305000396881433960B86813998843B8600F466E
:103060000F987067B06731467C310BE43B079A429A
:1030700000D123E62AE60D20400185433D60B86873
:1030800013998843B8600F46114E08E00D204001A7
:1030900084433C60B86813998843B8600F460F9822
:1030A000706731467831FFF7EDFB08484443FFF77E
:1030B00040FBC046E7FF3F83FFFFFF0004100240D4
:1030C00000127A00A43C0008B43C000800093D004E
:1030D000B000002055020020FF0100006B1F000817
:1030E00011200008080000205C8FAA400000C841A1
:1030F00000C2AC45ACF7FF1F11270000A9860100F4
:103100000D0A0D0A703D00084C7578484F4D45205A
:10311000496E74657267726174656420436F6E7482
:10312000726F6C6C65720D0A00000000466C617372
:10313000682073697A653A203136204B420D0A00C7
:1031400040420F000F3D0008E03C0008C43C00086E
:1031500000580140FF3C0008494420556E697175D4
:10316000653A2025642D25642D25640D0A00000094
:103170000820000856657273696F6E204669726D8B
:10318000776172653A20524525580D0A000000000B
:10319000303D00080FB410B504A9074B02AA0398EC
:1031A00000F0E4F8044602A90020FEF70AFF2046DA
:1031B00010BC08BC04B01847C31F00082021020C33
:1031C00001D010211046020A01D010460839020928
:1031D00001D01046091F820801D01046891E4208FE
:1031E00001D0881E7047081A7047002001E001C115
:1031F000121F002AFBD17047F0B51FB486B00998A2
:10320000089A030D0021024314D05148514A18185E
:10321000504305141198012810981AD0281A401C00
:1032200000264D4F4D49009601910490002812DA76
:10323000444211E01198012449A3012801D11098BA
:10324000C1430698119A84600360C26041600BB06C
:10325000F0BD4042E4E70446210500203F4A001C3F
:1032600051410391029012E0E00707D032463B46FD
:1032700001990098FDF746F80191009032463B46CF
:1032800010461946FDF73EF806460F466410002C1E
:10329000EAD10498039B0028029A0999089806DA53
:1032A000FDF730F8019B009AFDF72CF805E0FDF7DB
:1032B00091F8019B009AFDF78DF804460E46002216
:1032C000284BFDF71FF903D80020C043014607E053
:1032D0000022254B20463146FCF762FFFDF7F2F84D
:1032E000102409E0002C0ADB0A220023FCF715FF5A
:1032F000079B30321A55641E02460A43F2D111224E
:10330000641C079B121B1C19119B012B03D001236A
:1033100008430ED10AE0084304D011201090002089
:10332000119077E71098151A6D1E0BE010988242E5
:1033300002DD00236D1C03E0824201DA00236D1ED2
:10334000002BEED0069811998260C16030C07EE7F4
:1033500001FCFFFF104D0000000014400000F03F92
:10336000300000000000F0430000E03FFFB597B0E0
:103370000646002518E2252877D100242746FD4976
:10338000049400E00443761C32780120203A9040F7
:103390000842F7D130782A280ED002223078014630
:1033A0003039092916D804990A235943303940186D
:1033B0001443761C0490F1E7189802C80491189001
:1033C000002904DA0120400304434842049002200B
:1033D0000443761C30782E2814D1042004437078DE
:1033E000761C2A2809D11898761C80C8189009E004
:1033F0000A214F43303FC719761C307801463039D7
:103400000929F5D930786C2810D006DC4C281AD060
:1034100068280ED06A2817D104E0742813D07A28BF
:1034200012D110E00120400504430CE00121090500
:1034300001E0032109050C437178814203D1012089
:1034400000052418761C761C3078119066280BD065
:1034500013DC58287DD009DC00287BD04528F6D025
:103460004628F4D047281AD1A5E118E0632835D0C2
:10347000642870D0652812D19DE170286CD008DCDA
:103480006728F1D069287BD06E280DD06F2806D12F
:10349000BAE073282ED0752871D0782859D01A9A9E
:1034A000199990476D1C7EE16002400F022809D0F7
:1034B00003280DD00428189801680DD00D60001D58
:1034C000189070E11898EA1701680D604A60F6E7F5
:1034D000189801680D80F2E70D70F0E718986A46B9
:1034E00001781172001D18900020507202A80090FF
:1034F000012005E0189802C8189000200091C043F0
:1035000061070DD5002101E00199491C0191B942E3
:1035100012DA8142F8DB009A515C0029F4D10BE009
:10352000002101E00199491C01918142FADB019AD5
:103530000099895C0029F5D1019904981A9B471AD2
:1035400021463846199A00F097FA01994019451812
:103550000BE04FE02CE113E04EE00098009900787A
:10356000491C00911A9A199990470198401E0190A0
:10357000401CF2D1214638461A9B199A10E137E0D7
:103580000A200021009001916002410F022907D01A
:10359000189A01CA1892C2179446032908D00AE063
:1035A0001898C01DC108C90005C91891944607E0C4
:1035B00000B2C2179446042902D140B2C1178C460A
:1035C00000226146944506DA0A46002140429141B4
:1035D0008C462D2102E0210504D52B216A4611736A
:1035E000012103E0E10701D02021F7E7029155E036
:1035F0000A200AE0102008E010200090002104209A
:1036000004430191082703E0082000210191009064
:103610006002410F022907D0189A01CA18920022AD
:103620009446032908D008E01898C01DC108C900B5
:1036300005C91891944603E080B2042900D1C0B2B4
:1036400000210291210729D51199702906D0009AED
:103650001021019B4A401A4305D00EE040216A46E2
:103660001173012108E06146014306D030216A460A
:1036700011731199517302210291009A0821019B43
:103680004A401A430AD16146014301D1610705D579
:1036900030216A46117301217F1E02911199582928
:1036A00004D035A10E910DA90D910DE037A1F9E7D8
:1036B0006146019B009AFCF730FD0E9B8C469B5C9B
:1036C0000D9A521E0D92137061460143F0D10D9870
:1036D00005A9081A20300190600703D501200004D5
:1036E000844300E001270198874201DD381A00E099
:1036F0000020019900904118029809180498401A76
:103700000490E00306D421461A9B199A049800F00D
:10371000B3F94519002706E003A81A9AC05D199964
:1037200090476D1C7F1C02988742F5DBE0030CD5A7
:1037300021461A9B199A049800F09EF9451904E055
:103740001A9A3020199990476D1C0099481E0090D4
:103750000029F5DC08E00D980D990078491C0D91C1
:103760001A9A199990476D1C0199481E01900029D9
:10377000F1DC63E10928010030313233343536376A
:1037800038396162636465660000000030313233AD
:10379000343536373839414243444546000000004D
:1037A00000F05AF94519761C3078002800D0E2E57F
:1037B00028461BB0F0BD600700D406271898C01D2E
:1037C000C108C90048680A680831C30FDB071891AF
:1037D000190001D09CA108E0210501D59BA104E0BE
:1037E000E10701D09AA100E09AA1430011985B087B
:1037F000109165280CD006DC452809D046281DD03C
:10380000472841D141E0662818D067283CD13CE0E8
:103810000021112F01DB112000E0781C01910090A4
:1038200008A911A8FFF7E8FC139905910021119A46
:1038300015927F1C12980197009150E00120C0075B
:1038400003900120019008A9009711A8FFF7D4FC6C
:10385000139A149905920022119B009212981593C5
:10386000059A0192002901D0104602E0791C401807
:103870000190381A01D5019804E04042401E0090A2
:10388000781C0190C01B029043E0012F00DA012751
:103890000021112F01DD112000E038460191009038
:1038A00008A911A8FFF7A8FC13990591119A002106
:1038B000129815920091019721070CD40599B942ED
:1038C00001DB019900E00191012904DD159A491EEF
:1038D000515C302906D0B84201DA011D05DA012118
:1038E000029115E00199491EEDE7002805DC0099D9
:1038F000411800910199091A03E0019A411C914273
:1039000000DD01910099401A401C02900120C0077F
:103910000390200706D402990198814202DB00201F
:10392000C043029000206946C87707AF0121039881
:103930000337C907884224D0022011902B2012900F
:10394000039800280CDA404203902D20129007E0E3
:103950000A210398FCF7CBFB30317F1E03903970AE
:103960001199481E11900029F2DC03980028EFD12C
:10397000791E129808703078202108404530BF1E0B
:10398000387006A8C01BC01D03901098007800284E
:1039900000D00120019941180298C0170918039816
:1039A00009180498401A401E0490E00306D42146EA
:1039B0001A9B199A049800F05FF84519109800783E
:1039C000002803D01A9A199990476D1CE00324D55A
:1039D00021461A9B199A049800F04EF845191CE0EC
:1039E0000098002807DB00990598884203DD1598A8
:1039F000405C199901E0199930201A9A9047009873
:103A00006D1C401C00900298401E0290002804D1BA
:103A10001A9A2E20199990476D1C0199481E019001
:103A20000029DDDC05E038781A9A7F1C1999904747
:103A30006D1C0399481E03900029F4DC21461A9B53
:103A4000199A0498ACE600002D0000002B0000003D
:103A50002000000000000000F8B5044600251E46C6
:103A60001746880404D405E039462020B0476D1C71
:103A7000641EF9D52846F8BDFFB50446002581B07F
:103A80001E46C80301D5302700E02027880404D54E
:103A900005E038460399B0476D1C641EF9D52846E9
:103AA00005B0F0BD0000C1C081C1400101C3C00329
:103AB000800241C201C6C006800741C70005C1C5DA
:103AC00081C4400401CCC00C800D41CD000FC1CF9A
:103AD00081CE400E000AC1CA81CB400B01C9C0098A
:103AE000800841C801D8C018801941D9001BC1DB2A
:103AF00081DA401A001EC1DE81DF401F01DDC01DDA
:103B0000801C41DC0014C1D481D5401501D7C017F9
:103B1000801641D601D2C012801341D30011C1D109
:103B200081D0401001F0C030803141F10033C1F349
:103B300081F240320036C1F681F7403701F5C035D9
:103B4000803441F4003CC1FC81FD403D01FFC03F99
:103B5000803E41FE01FAC03A803B41FB0039C1F989
:103B600081F840380028C1E881E9402901EBC02BE9
:103B7000802A41EA01EEC02E802F41EF002DC1EDD9
:103B800081EC402C01E4C024802541E50027C1E7F9
:103B900081E640260022C1E281E3402301E1C02109
:103BA000802041E001A0C060806141A10063C1A309
:103BB00081A240620066C1A681A7406701A5C065D9
:103BC000806441A4006CC1AC81AD406D01AFC06F99
:103BD000806E41AE01AAC06A806B41AB0069C1A989
:103BE00081A840680078C1B881B9407901BBC07B29
:103BF000807A41BA01BEC07E807F41BF007DC1BDD9
:103C000081BC407C01B4C074807541B50077C1B7F8
:103C100081B640760072C1B281B3407301B1C07108
:103C2000807041B00050C190819140510193C053C8
:103C3000805241920196C056805741970055C195D8
:103C400081944054019CC05C805D419D005FC19F98
:103C5000819E405E005AC19A819B405B0199C05988
:103C6000805841980188C04880494189004BC18BE8
:103C7000818A404A004EC18E818F404F018DC04DD8
:103C8000804C418C0044C184818540450187C047F8
:103C9000804641860182C042804341830041C18108
:103CA0008180404002030405060708090A0B0C0D39
:103CB0000E0F10100102030405060708090A0B0C79
:103CC0000D0E0F10436F72652054656D7065726143
:103CD000747572653A20252E31662027430D0A003F
:103CE000436F726520537570706C7920566F6C74D9
:103CF0006167653A20252E3366206D560D0A00490E
:103D000044204465766963653A2025640D0A0043C2
:103D10006F726520436C6F636B2046726571656ED0
:103D200063793A202564204D487A0D0A000000008E
:103D30002D2D2D2D2D2D2D2D2D2D2D2D2D2D2D2DB3
:103D40002D2D2D2D2D2D2D2D2D2D2D2D2D2D2D2DA3
:103D50002D2D2D2D2D2D2D2D2D2D2D2D2D2D2D2D93
:103D60002D2D2D2D2D2D2D2D0D0A0D0A00000000BD
:103D70002D2D2D2D2D2D2D2D2D2D2D2D2D2D2D2D73
:103D80002D2D2D2D2D2D2D2D2D2D2D2D2D2D2D2D63
:103D90002D2D2D2D2D2D2D2D2D2D2D2D2D2D2D2D53
:103DA0002D2D2D2D2D2D2D2D0D0A0000D03D00087F
:103DB0000000002008000000E81F0008D83D0008AF
:103DC00008000020480D0000EA3100080000000053
:083DD00000127A00000000005F
:04000005080000B13E
:00000001FF
