:020000040800F2
:10000000A81100200101000815390008CD320008B0
:1000100011390008690C0008A95000080000000010
:10002000000000000000000000000000F94500088A
:10003000450E000800000000D53D00082D460008D0
:100040001B0100081B0100081B0100081B01000820
:100050001B0100081B0100081B0100081B01000810
:100060001B0100081B0100081B0100081B01000800
:100070001B0100081B0100081B0100081B010008F0
:100080001B0100081B0100081B0100081B010008E0
:100090001B0100081B0100081B0100081B010008D0
:1000A0001B0100081B0100081B0100081B010008C0
:1000B0001B0100081B0100081B0100081B010008B0
:1000C0001B0100081B0100081B0100081B010008A0
:1000D0001B010008915000081B0100081B010008CB
:1000E0001B0100081B0100081B010008DFF80CD0F1
:1000F00000F01EFB0048004735530008A8110020FF
:100100000648804706480047FEE7FEE7FEE7FEE7B1
:10011000FEE7FEE7FEE7FEE7FEE7FEE7E54600084E
:10012000ED000008D2B201E000F8012B491EFBD21D
:1001300070470022F6E710B513460A4604461946F2
:10014000FFF7F0FF204610BD421C10F8011B0029EC
:10015000FBD1801A7047F0B480EA0102D40F42004C
:10016000B2EB410F02D20246084611464A0042D085
:10017000C30DDDB2C1F3C752AD1A202D35DAC1F37C
:10018000160141F4000204B15242C5F1200602FA00
:1001900006F12A411044B3EBD05F23D0C4B1012D46
:1001A000A0EBC35009DCF0BC4FF0004202EAC3529E
:1001B000DBB200F5000000F0D5B8400000F180701F
:1001C00000EBC350A0F1807040EAD170490009E013
:1001D000490841EAC071A0EBC35000F50000400897
:1001E00000EBC350F0BC00F0B4B86142012202EB56
:1001F0004101001BF6E7F0BC704781F00041AAE71F
:1002000080F00040A7E730B480EA010202F0004528
:1002100030F0004221F0004013D090B1C30DD40D56
:10022000C2F31601C0F31600E41A41F4000140F4D1
:1002300000027D34914201D3641C00E04900002C8F
:1002400002DA30BC002070474FF4000000239142D6
:1002500001D3891A034340084FEA4101F7D151B154
:10026000914202D14FF0004105E002D24FF001016E
:1002700001E06FF0010103EBC450284430BC00F0F2
:1002800068B8C10F80EAE0700844CA0796230021CD
:1002900000F068B896230022114600F063B800F021
:1002A000004230F000400AD0C10D01F56071C0F38A
:1002B000160042EA0151C20840071143704700206E
:1002C0000146704730B50B4601460020202201242C
:1002D00009E021FA02F59D4205D303FA02F5491B14
:1002E00004FA02F52844151EA2F10102F1DC30BD2A
:1002F0002DE9F05F0546002092469B46884606465B
:10030000814640241BE0284641464746224600F0ED
:1003100030FA53465A46C01A914110D31146184636
:10032000224600F017FA2D1A67EB01084F462246C5
:100330000120002100F00EFA17EB00094E41201EAB
:10034000A4F10104DFDC484631462A464346BDE8B5
:10035000F09F0029A8BF7047401C490008BF20F04B
:100360000100704710B4B0FA80FC00FA0CF050EABB
:10037000010404BF10BC704749B1CCF1200421FA3C
:1003800004F411FA0CF118BF012121430843A3EB37
:100390000C01CB1D4FEA00614FEA102042BF002044
:1003A00010BC704700EBC35010440029A4BF10BC20
:1003B0007047401C490008BF20F0010010BC704786
:1003C0002DE9FE4F804681EA0300C00F0C460090E5
:1003D00021F0004123F00045B8EB0200A94105D20D
:1003E0004046214690461C460B46024623F00040FC
:1003F000104347D0270DC7F30A00C3F30A510290F8
:10040000401A019040286BDAC3F3130040F4801BBC
:100410000098924620B10023D2EB030A63EB0B0B4A
:1004200001985946C0F14002504600F093F9064643
:100430000D4650465946019A00F0ABF910EB080002
:100440006141002487EA115284EAE7731A4340D0DD
:10045000009A62B3019A012A4FEA075215DC001B89
:1004600061EB02014FF0004202EA0752CDE900427F
:10047000001C41F5801132462B4600F0ABF903B069
:10048000BDE8F08F40462146F9E7001B61EB020111
:10049000001C41F5801300185B412018A2F50017DD
:1004A00047EB030140EAD570B6196D4111E06D08C4
:1004B0004FEA360645EAC0754FEA0752001B61EB6A
:1004C0000201001C41F5801149084FEA3000001973
:1004D000514132462B4603B0BDE8F04F00F06BB9F6
:1004E0000098012240000023D0EB020263EBE0738E
:1004F000009821464FEAE074B8EB000061EB04017C
:10050000E9E783F000435BE781F0004158E72DE91C
:10051000FE4F81EA030404F0004421F000410094FE
:100520004FF0000B23F0004350EA01045ED052EA82
:1005300003045BD0C3F30A54C1F30A552C44A4F25C
:10054000F3340194A0FB0254C1F3130141F4801170
:10055000C3F3130343F4801301FB024400FB034E77
:10056000840A970A44EA815447EA8357A4FB076840
:1005700002958D0A05FB07854FEA932C04FB0C546A
:100580002705029D4FEA065847EA1637B5EB0805DE
:100590006EEB070C870E920E47EA811742EA831230
:1005A000A7FB0201B6EB0B0164EB00042B0D43EA41
:1005B0000C335E1844EB1C50DA465146E7FB02014F
:1005C000C5F313044FEA0B3343EA14534FEA0432E2
:1005D000019C43EA0603A4F10C040294009CCDE9BB
:1005E00000B400F0F7F803B0BDE8F08F002001463A
:1005F000F9E72DE9F04D81EA030404F0004B21F006
:10060000004514464FF0000A23F0004150EA05026D
:1006100020D054EA01021DD0C5F30A570246C5F3A3
:100620001303C1F31300C1F30A5640F4801543F4D9
:100630008013A7EB0608101BD64608F2FD3873EBB3
:10064000050002D308F1010801E092185B41B8F1FE
:10065000000F03DA00200146BDE8F08D00204FF4C2
:100660008011064684460EE0171B73EB050705D381
:10067000121B63EB050306434CEA010C49084FEAE1
:10068000300092185B4150EA0107EDD152EA0300B5
:1006900012D082EA040083EA0501084305D0101B4A
:1006A000AB4106D20122002306E000224FF00043B6
:1006B00002E06FF0010253101AEB06004CEB0851F8
:1006C00010EB0A0041EB0B01BDE8F04D00F073B8F0
:1006D000C1F30A52C1F3130140F2FF3341F4801118
:1006E0009A4202DA00200146704740F233439A42B0
:1006F000A2F2334202DC524200F03BB800F02AB8CA
:1007000030B5041E71F1000404DB4FF00044404298
:1007100064EB0101141E73F1000405DB1C464FF06D
:100720000043524263EB0403994208BF904230BD3C
:10073000064C074D06E0E06840F0010394E807002E
:1007400098471034AC42F6D3FFF7D4FC005F0008A2
:10075000205F0008202A04DB203A00FA02F1002082
:1007600070479140C2F1200320FA03F319439040EF
:100770007047202A04DB203A21FA02F0002170475A
:1007800021FA02F3D040C2F12002914008431946F9
:100790007047202A06DBCB17203A41FA02F043EAE1
:1007A000E07306E041FA02F3D040C2F1200291402A
:1007B00008431946704710B5141E73F1000408DA97
:1007C000401C41F1000192185B411A4301D120F015
:1007D000010010BD2DE9F04D92469B4611B1B1FAD2
:1007E00081F202E0B0FA80F220329046FFF7B2FFC9
:1007F00004460F4640EA0A0041EA0B0153465A46B6
:10080000084313D0114653EA010019D0C8F1400241
:100810005046FFF7AEFF05460E4650465946424643
:10082000FFF798FF084305D0012004E02046394631
:10083000BDE8F08D0020054346EAE0762C433743BF
:100840000A986305E40AA0EB08000022FD0A44EAC6
:1008500047540A3002D500200146E9E70105101986
:100860006941DDE9084500196941BDE8F04DA2E79D
:10087000B0B5044600688168C9071AD0816821F0C4
:100880000101816001F018F8054600BF206880680A
:10089000C0070ED001F010F8401B0328F6D3A06A61
:1008A00040F01000A062E06A40F00100E062012028
:1008B000B0BD0020B0BD0000B0B582B0044600203D
:1008C000019021688A68D2072FD1886840F0010022
:1008D000886040F20000C2F2000000684DF68361BB
:1008E000C4F21B31A0FB0101880C00BF01900198EC
:1008F00010B101980138F9E700F0DEFF054600BFAE
:1009000020688068C00712D100F0D6FF401B032882
:10091000F6D3A06A40F01000A062E06A40F0010047
:10092000E062002084F82400012002B0B0BD002065
:1009300002B0B0BDB0B584B040F21005C2F20005FF
:100940002978002002292FD0012900F0A380002956
:1009500040F0768140F25810C2F200004FF43C6142
:10096000018040F25610C2F200001021018040F2D6
:100970006020C2F200004FF49061018040F25E10EE
:10098000C2F2000040F28951018040F25A10C2F2D6
:10099000000040F22241018040F21800C2F2000043
:1009A0006421016001204BE1022101910121CDE987
:1009B000021040F23000C2F2000001A900F046FA35
:1009C00030B145F6D560C0F60000652104F0B4FBF7
:1009D00040F23004C2F20004204600F0ADFC204694
:1009E000052100F0EFFB204600F020FB40F25C11F7
:1009F000C2F20001088040F25611C2F200010A88DA
:100A000081B2914240F21402C2F20002508007D239
:100A100040F21800C2F200000068002800F0828056
:100A200040F25A10C2F200000088884207D340F218
:100A30001802C2F200021268002A00F0968040F20A
:100A40005812C2F2000212888A4207D840F21803F4
:100A5000C2F200031B68002B00F0A28088420DD276
:100A600040F22C00C2F2000003683BB940F21803C8
:100A7000C2F200031B68002B00F0B7808A424FD9F6
:100A800040F22C00C2F200000068002800F09B80B9
:100A90000120D5E00120CDE901000020039040F2C3
:100AA0003000C2F2000001A900F0D0F930B145F6E3
:100AB000D560C0F60000442104F03EFB40F2300453
:100AC000C2F20004204600F037FC2046052100F069
:100AD00079FB204600F0AAFA40F26221C2F200013E
:100AE000088040F26021C2F20001098840F214033C
:100AF00082B2C2F200038A42188005D840F2180080
:100B0000C2F200000068F8B1914207D240F22C0016
:100B1000C2F200000068D8B3022091E002208FE00A
:100B200001208DE040F22800C2F20000016821F0AF
:100B300008010160016821F002010160016821F0F3
:100B40000401016001207BE040F22800C2F20000B5
:100B5000016841F02001016040F22C00C2F2000067
:100B600044F62061016002206AE040F22800C2F2EF
:100B70000000016841F00401016040F22C0042F2E3
:100B8000C071C2F20000C0F209010160012057E00B
:100B900040F21800C2F200000068E0B102204FE00D
:100BA00040F22800C2F20000016841F00801016033
:100BB00040F22C0042F2C071C2F20000C0F2090102
:100BC000016001203CE040F21800C2F20000006821
:100BD000F0B1012034E040F22800C2F200000168C8
:100BE00021F02001016002202AE040F22802C2F236
:100BF0000002136823F00403136040F25E13C2F294
:100C000000031B888B420DD20068A0B1012017E0C1
:100C100040F22800C2F20000016821F008010160E2
:100C200001200DE0116841F00201116047F23051DE
:100C30000160012004E0106820F002001060012033
:100C4000287004B0B0BD000080B54A6840F281232E
:100C500092F800C05278C2F2000303F80C2003F0AF
:100C6000FBFF012080BD0000FEE700002DE9F047FA
:100C700040F21105C2F200052878002800F09980A2
:100C800040F60048C4F2010840F22406C2F2000611
:100C90000020A8F58065307028464FF4006100F010
:100CA000F7FD012803D1307840F00100307028466C
:100CB0004FF4805100F0ECFD012803D1307840F072
:100CC0000200307028464FF4005100F0E1FD012889
:100CD00003D1307840F00400307028464FF4804152
:100CE00000F0D6FD012803D1307840F008003070C4
:100CF00028464FF4004100F0CBFD012803D13078A5
:100D000040F0100030704046022100F0C1FD012883
:100D100003D1307840F0200030704046042100F0CC
:100D2000B7FD012803D1307840F0400030704046D4
:100D3000082100F0ADFD012803D1307840F080009B
:100D4000307096F800A040F2812240F2912640F2E5
:100D50001C090021C2F200020123C2F20006C2F205
:100D600000094FF0300C4FF0310E13E0357803FAE4
:100D700001F725EA0700002C18BF45EA070017EA2B
:100D80000A0F30700CBF09F801C009F801E0013109
:100D900010293CD0545C0829E8D3A1F10805002CA7
:100DA00003FA05F477780CBF27EA04043C43747017
:100DB000EDE740F60044C4F2010420464FF4006120
:100DC0000122012600F06AFD40F29121C2F20001E9
:100DD0000020088040F2BC00C2F2000002220A2378
:100DE00001F0F8FE20464FF48061012200F056FD2C
:100DF00020464FF48061002200F050FD20464FF461
:100E00000061002200F04AFD2E70BDE8F08740F23C
:100E1000BC0040F29121C2F20000C2F200010222A5
:100E20000A2301F0D7FE40464FF48061012200F012
:100E300035FD40464FF480610022BDE8F04700F0E8
:100E40002DBD00007047000001207047B0B581B093
:100E50000022009290F82420012A01D1022154E0BE
:100E60004A680123062A80F8243005D803686FF009
:100E7000040C03F1340E0AE003680C2A87BF03F167
:100E80002C0E6FF0400C03F1300E6FF0220C02EBD1
:100E90008202DEF8005062441F230C68934025EA6A
:100EA000030304FA02F21A43CEF800200B6802682A
:100EB000092B1CD903EB4304D2F80CC01E3C0725B8
:100EC0008968A5402CEA0505A140294323F00105C6
:100ED000102DD16015D142F20041C4F201018A42C5
:100EE00016D0816A41F02001816201210AE0156972
:100EF00003EB4303072489689C40A5439940294399
:100F000011610021002280F82420084601B0B0BD04
:100F100089680902F5D49168102B41F400019160B1
:100F2000EFD140F20001C2F2000109684DF6836280
:100F3000C4F21B32A1FB0212910C01EB81014900AA
:100F4000009100990029DCD00099013900910099A5
:100F500000294FF00001F7D1D4E70000B0B5002818
:100F600061D00446806A40F00200A0622046FFF78C
:100F70007FFC0546002851D120686FF01F010160F9
:100F800000224168CFF6C072A2F501021140416013
:100F9000816840F2F062CFF6017211408160C16851
:100FA00040F6FF7201F07F41C160016901F04041EC
:100FB000016141699143416181696FF30B01816175
:100FC000C1696FF30B01C161016A6FF30B0101622B
:100FD000416A6FF30B014162816A6FF30B01816219
:100FE000C16A01F07F41C162C16A01F07F41C16203
:100FF000016B01F040410163416B01F040414163ED
:10100000816B6FF315018163816B6FF31501816350
:10101000204600F09DF80020E062A062002084F8E5
:1010200024002846B0BD01252846B0BD0068C06C2C
:1010300070470000002804BF0120704770B50646C5
:10104000044656F8280F30B90020E06284F82400E6
:10105000204600F093F82046FFF70AFCA26AA16A36
:10106000002808BF12F0100004D041F01001012048
:10107000316070BD41F2021021EA00000230A0622E
:10108000E069D4E9012110434A1EB2FA82F2530901
:101090000A46B1F5807F18BF1A02257D237B012DFA
:1010A00040EA430013D143B1A36A43F02003A36293
:1010B000E36A43F00103E36209E0A3694EF200052D
:1010C000CFF6FF7505EB43331A4342F40062236801
:1010D000B1F5807F5D6825F4694542EA05025A60F2
:1010E0009A684FF2FD75CFF6E17502EA050242EA11
:1010F00000029A6001D0012906D121690022CFF6B1
:10110000F07202EB015100E00021DA6A22F4700271
:101110001143D962996840F6FE62CFF61F72114002
:10112000814207D10020E062A16A012262F301013D
:10113000316070BDA06A40F0100020F00200A06293
:1011400054F82C0F40F0010101202646316070BD9B
:10115000014640F60000C4F20100096800F5E052C3
:10116000914218BF704741F21802C4F2020211689E
:1011700021F400730721136000F0F4B980B584B046
:10118000014640F60000C4F20100096800F5E05293
:10119000914201D004B080BD41F21801C4F20201B5
:1011A0000A6842F400720A60096801F40071009153
:1011B00000990721009103210191694600F05AFA34
:1011C00004B080BD2DE9F04182B000260D460446F2
:1011D000019600F071FB21688A68D2053CD48046F4
:1011E0004868C00503D4C86A10F4700F3ED040F2BE
:1011F0000000C2F20000066842F292470220C1F2EB
:10120000492700F0E1FF216844F624130A69B6FB80
:10121000F0F0C2F292431A4206D1CA6844F624138F
:10122000C0F292031A4229D00A693A4206D1CA682A
:1012300042F29243C0F249031A422DD00A6949F2A0
:101240004923C0F224031A424FF0FC0225D1C96899
:10125000194208BF542220E0A06A40F02000A0629A
:1012600084F82460012002B0BDE8F08120680068A5
:10127000800742D43DB36F1C18D01EE00A693A4281
:101280004FF0290209D1C96842F29243C0F24903E2
:10129000194208BF142200E05422019902FB00F712
:1012A000B9422AD27DB16E1C18D01FE0206800BF61
:1012B0000168890721D4002FFAD000F0FDFAA0EBD5
:1012C0000800A842F2D9A06A40F00400A062002001
:1012D00084F82400032002B0BDE8F08101980130B9
:1012E00001900198B84208D2002EF7D000F0E4FA3D
:1012F000A0EB0800A842F1D9E5E720686FF01201E1
:101300000160A16A41F40071A162806800F460206C
:10131000B0F5602F0CD1207B50B9A06A20F480700A
:10132000A062A06AC00403D4A06A40F00100A062D9
:10133000002002B0BDE8F08110B5044690F824000A
:10134000012804BF022010BD012084F8240020469B
:10135000FFF7B2FA18B1002184F8241010BD42F250
:10136000044C2068A16AC4F2010C40F2013291439E
:101370000CF57F7201F580719042A16207D0A16ADD
:1013800021F48011A1624168490519D41DE0DCF8FF
:10139000001011F4702FF2D0A16A42F60003C4F2DB
:1013A000010341F480119842A16205D042F200414C
:1013B000C4F20101884208D1DCF80010490504D5C7
:1013C000A16A012363F30D31A162A16A0023C9045C
:1013D0004FF0000144BFE16A21F00601E1626FF0C5
:1013E000020184F824300160816801F46021B1F5C4
:1013F000602F0AD1904203D0816841F4A00107E038
:10140000DCF8001011F4702FF6D0816841F48011DF
:101410008160002010BD0000B0B5A0B10446407945
:10142000022502280DD0657120680025816841F0F1
:101430000101816001790571204600F019F865719C
:1014400025712846B0BD01252846B0BD002804BF3F
:101450000120704710B50446407920B90020207162
:10146000204600F007F801206071002010BD000048
:10147000704700007047000080B590F821100229E5
:1014800023D10268116821F00E0111602F21136829
:10149000C4F202018A4240F20401C4F2020123F0C4
:1014A0000103136015DD3023C4F202039A421CD0FD
:1014B0004423C4F202039A421AD05823C4F202030E
:1014C0009A421AD14FF480331FE004218163012036
:1014D00080BD0823C4F202039A420CD01C23C4F23C
:1014E00002039A4209D110230FE04FF480730CE0FD
:1014F0004FF4805309E0012307E001F1680C4FF03D
:101500008073624508BF4FF480130B60416B4FF44A
:101510008072028401B18847002080BD80B541F20D
:101520000C00C4F202004FF0FF3100220160426063
:101530000160026000F058FD002080BDB0B5044697
:1015400000F0BAF9054640F20400C2F2000000784B
:10155000611C18BF044400BF00F0AEF9401BA0425C
:10156000FAD3B0BD2DE9F04F81B0002900F07F80A3
:1015700041F20042C4F2010240F2004390424FF0B7
:101580000402C4F2010308BF032200926FF01F059A
:10159000A3F57E7601221BE00746BAF5807F24BFC3
:1015A000A94604373C680F2303FA09F324EA03032E
:1015B000042404FA09F423433B60C36823EA0A03C2
:1015C000C36031FA02F302F1010205F104054ED0C5
:1015D000541E012303FA04F717EA010AF1D005F1BA
:1015E00020094FEA940C09F00C080F2356F82C4000
:1015F00003FA08FE40F60003C4F20103984204EA2D
:101600000E0B10D040F60043C4F20103984208D0FC
:1016100041F20003C4F20103009C984208BF022477
:1016200002E0012400E0002404FA08F4A345B3D149
:1016300056F82C4040F2004324EA0E0746F82C707E
:10164000C4F201031F6827EA0A071F605F6827EAE0
:101650000A075F609F6827EA0A079F6040F20C4311
:10166000C4F201031F6827EA0A071F6094E701B06C
:10167000BDE8F08F2DE9F04F84B00E680290002E87
:1016800000F0038140F2004741F2004202984FF619
:10169000FF7EC4F20107C4F20102042300240125E5
:1016A000C1F2100E4FF0000A4FF00009904208BF3F
:1016B000032300930AE000BF01250E680AF1010A26
:1016C00036FA0AF204F1040400F0DF8005FA0AFB9E
:1016D00016EA0B08F1D04A68724511DC122A54D878
:1016E0000298DFE802F0350A4347535353535353EC
:1016F000535353535353534A4E00D1F80C9045E083
:101700004FF6FF73C1F221039A4210DC0023C1F2AD
:10171000110302989A421BD00023C1F212039A428D
:1017200016D00023C1F221039A4211D02EE00023EB
:10173000C1F2220302989A420AD00023C1F2310377
:101740009A4205D00023C1F232039A421ED100BF53
:101750008A6842B1012A14BFC0F814B0C0F810B0B2
:101760004FF0080912E04FF004090FE0CA6802F1D7
:1017700008090BE04FF0000908E0CA6802F104090B
:1017800004E0CA6802F10C0900E002982246034610
:10179000B8F5807F24BF203A04331D684FF00F0C4A
:1017A0000CFA02F6B54309FA02F22A431A60CA7922
:1017B000D2067FF581AF41F21802CDF80490C4F251
:1017C000020213461268F34642F001021A601A68D8
:1017D0004FEA9A0E02F001020392039AA7F57E7275
:1017E000B94652F82E3004F00C0740F600060CFA09
:1017F00007F5C4F20106B04223EA050C10D040F60A
:101800000043C4F2010398420CD041F20003C4F239
:1018100001039842009B4FF0010508BF022303E03B
:10182000002300E001230125BB4043EA0C0342F8FA
:101830002E304E684F46F203D9F8002054BF22EAFA
:10184000080242EA0802DDF804903A607A68B303BD
:1018500054BF22EA080242EA08027A60BA68F30238
:1018600054BF22EA080242EA0802BA6040F20C427F
:10187000B302C4F20102DE461346126854BF22EAE4
:10188000080242EA08021A6017E704B0BDE8F08FC8
:101890008068084018BF012070470000002A08BF78
:1018A000090401617047000042F20000CEF204001A
:1018B00000686FF31F30704740F6A010C2F20000BE
:1018C000006870474FF2E870C1F6FF70006870471B
:1018D0004FF2EC70C1F6FF70006870474FF2F07085
:1018E000C1F6FF7000687047002804BF01207047F0
:1018F00010B50446242084F83D002068016821F0DA
:1019000001010160204600F083FB0020206484F880
:101910003D00206384F83E0084F83C0010BD0000C8
:10192000B0B570B3044690F83D0028B9002084F8A3
:101930003C00204600F082FB242084F83D00206813
:10194000016821F00101016000F06EFE48F2804163
:10195000C0F21E0140F6001288424FF00001C0F2B2
:101960003D02656838BF0121904248F2A1624FF004
:101970000003C0F2010238BF0123954238BF0B4675
:101980000BB10120B0BD4DF68361C4F21B31A0FB49
:10199000011221684FEA924C4B6823F03F0343EA5F
:1019A00092424A600A6A48F2A063C0F201039D4273
:1019B00022F03F0313D80CF1010201386D001A43E5
:1019C000B0FBF5F00A62CA6901304CF6FF736FF3A1
:1019D0001F3022EA030C042898BF04203FE04FF494
:1019E00096720CFB02FC44F6D352C1F26202ACFBCD
:1019F000022C012202EB9C121A430A62CA69A368F4
:101A00004CF6FF7C22EA0C0CA0F1010E9BB11920D0
:101A10006843BEFBF0F00422013062F31F30000582
:101A200012D09BB119206843BEFBF0F004220130B4
:101A300062F31F3011E005EB4500BEFBF0F0013012
:101A40006FF31F300005ECD1012008E005EB4500E5
:101A5000BEFBF0F001306FF31F3040F4004040EA6D
:101A60000C00C8610868D4E9072320F0C0001043C7
:101A700018430860886848F2FF3204F10C0C904368
:101A80009CE82C10184310438860C86820F0FF00C1
:101A9000284340EA0C00C860086840F00100086074
:101AA00000202021206484F83D10206384F83E004B
:101AB000B0BD00002DE9F04F83B01E4691460F46A1
:101AC0000446FFF7F9FE94F83D1020290CD10221BD
:101AD0000546C0F21001204601221923009501F0AD
:101AE00003FD30B1022700E00227384603B0BDE80D
:101AF000F08F94F83C00012801D10227F5E701217D
:101B0000206884F83C100168C90703D1016841F0DE
:101B100001010160016807F0FE0A21F40061016023
:101B2000242084F83D00002020640020CFF6FF70C0
:101B30004FF0010B4FF0A0080127E062206800225F
:101B40000168334641F48071016020464FF0011175
:101B5000009501F0C9FC002851D12068C0F810A000
:101B6000FFF7AAFE226805465169526994F83D3094
:101B7000A02B1ED002F4806001F00201401818D1A1
:101B8000FFF79AFE36B1401BB04288BF84F83D8013
:101B900002E000BF84F83D8021684869496994F8F3
:101BA0003D20A02A05D001F4806100F00200401819
:101BB000E6D0202084F83D0020684169026889074A
:101BC00042F4007202601CD46FF480614161022112
:101BD0002046C0F2100101221923009501F084FC77
:101BE00000287FF482AF0BF1010BCB45A6D3202058
:101BF00084F83D000020012784F83C0075E70127A8
:101C000073E7002602964169012202918069022150
:101C1000029002982046C0F2100119230095012776
:101C200001F062FC00287FF460AF202084F83D00C2
:101C300084F83C60002758E72DE9F04383B01E4646
:101C400015460F460446FFF737FE94F83D1020294D
:101C50000FD102218146C0F2100120460122192332
:101C6000CDF8009001F040FC18B994F83C00012830
:101C700003D1022003B0BDE8F0830121206884F87D
:101C80003C100168DDF82880C90703D1016841F0E4
:101C9000010101600168424621F4006101602220D7
:101CA00084F83D00102084F83E0000202064656226
:101CB0006685608D394620850020CFF6FF70E06292
:101CC00020464B4601F01CFB18B1012003B0BDE8D3
:101CD000F083218D01290DD011BB002002902068D6
:101CE00041690291816902910299016841F4007190
:101CF000016037E02068016821F480610160EFF342
:101D0000108072B6002002902068416902918169BA
:101D100002910299016841F40071016062B621E00C
:101D200020680229026813D142F400610160EFF3D8
:101D3000108072B60020029020684169029181698A
:101D400002910299016821F48061016062B609E0A4
:101D500042F4806101600021029141690291806931
:101D600002900298208D002800F097800427C0F28E
:101D7000010703E0208D010400F08F8085B220462A
:101D8000032D08D8012D21D141464A4601F038FCE7
:101D9000002872D099E741464A4601F031FC0028FC
:101DA0007FF493AF2068616A00690870606A228DD1
:101DB0000130013A216860622285628D013A6285B4
:101DC0004A695207D6D5096901705AE0394600229E
:101DD0004346CDF8009001F087FB022D18D1002872
:101DE0007FF473AFEFF3108072B62068616A026807
:101DF00042F40072026000690870606A218D01304F
:101E00006062481E2085608D0138608562B634E0CE
:101E100000287FF45AAF206800220168434621F46D
:101E200080610160EFF3108072B62068616A00691A
:101E30000870606A218D01306062481E2085608DC7
:101E40003946013860852046CDF8009001F04CFB02
:101E500000287FF43AAF2068616A026842F4007299
:101E6000026000690870606A218D01306062481E5E
:101E70002085608D0138608562B62068616A0069DE
:101E80000870606A218D01306062481E2085618D76
:101E90000139618501047FF471AF202084F83D0091
:101EA000002084F83E0084F83C0003B0BDE8F083D5
:101EB0002DE9F04782B01E46174689460446FFF7D3
:101EC000FBFC94F83D1020290ED102210546C0F2FA
:101ED0001001204601221923009501F005FB18B9D5
:101EE00094F83C00012803D1022002B0BDE8F0873D
:101EF0000121206884F83C100168DDF82880C907BA
:101F000003D1016841F00101016001684FF0000A4E
:101F100021F400610160212084F83D00102084F844
:101F20003E00C4F840A067626685608D4946208502
:101F30000020CFF6FF70E062204642462B4601F0BB
:101F400055FA18B1012002B0BDE8F087CDF804A021
:101F500020684169019180690190019806E000BF05
:101F6000204641462A4601F08FFA20BB208D58B307
:101F7000204641462A4601F073FBE0B9606A2168B9
:101F8000024612F8013B0B616262628D013A628582
:101F9000228D571E27854B693F0418BF13F0040399
:101FA000DED0437802300B616062608D013860855D
:101FB000901E2085D4E7206C0428C3D120680168D6
:101FC00041F400710160BDE72068016841F40071CF
:101FD0000160202084F83D00002084F83E0084F851
:101FE0003C0002B0BDE8F0877047000003F0FAB88B
:101FF00003F008B903F01AB903F042B903F050F93D
:1020000000000000000000005421232100300008DF
:10201000016845F20040C4F20000814218BF7047D9
:1020200041F21C02C4F20202116800F5384021F4AA
:102030000013C0211360FFF795BA000080B586B089
:10204000016845F20040C4F20000814201D006B0B0
:1020500080BDC0210291122103910321059100F559
:10206000384002A9FFF706FB41F21C00C4F202004F
:10207000016841F400110160006800F40010019053
:10208000019806B080BD000040F2040040F6A011A7
:10209000C2F20000C2F2000100780A681044086031
:1020A0007047000080B542F20000C4F202000168EF
:1020B00041F0100101600320FFF79EFF0F2000F0A8
:1020C00005F800F02BF8002080BD0000B0B540F20C
:1020D0000402C2F2000240F200011278C2F20001D2
:1020E0004FF47A730968B3FBF2F20446B1FBF2F1E4
:1020F000084600F03FFE0F2C4FF001050CD858B9F0
:102100004FF0FF3021460022002500F04DF840F24C
:102110000800C2F2000004602846B0BD80B582B05D
:1021200041F21800C4F20200016841F001010160AF
:10213000006800F00100019001980320FFF75CFFA8
:102140006FF00B000021002200F02EF86FF00A0063
:102150000021002200F028F86FF009000021002281
:1021600000F022F86FF004000021002200F01CF8BB
:102170006FF003000021002200F016F86FF001005C
:102180000021002200F010F84FF0FF300021002263
:1021900000F00AF80420C4F201000168022262F390
:1021A0001A61016002B080BD70B514460D46064646
:1021B00003F04CF82946224601F0AEFB01463046BA
:1021C000BDE8704003F04AB880B5012818D0022855
:1021D00035D0102831D141F20401C4F202010A685D
:1021E00051F8040CC00128D5C2F383402CA3185C1D
:1021F000D2033BD440F60012C0F23D02504341E00E
:1022000041F20400C4F20200C16940F202320A4005
:10221000B2F5817F04BF4FF4004080BD01F44071EE
:10222000B1F5407F1AD0B1F5007F06D1006A49F6BA
:102230004041800701EAE07080BD002080BD00F0D1
:1022400005FA41F20401C4F2020109680222C1F355
:10225000813102EB4101B0FBF1F080BD50F8040C7C
:102260004FF22441800301EAE07080BD0A6810A3A8
:10227000C2F340429A5C41F20023C0F27A03B3FBFE
:10228000F2F250430968490248BF80BD4AF6AB21CB
:102290004000CAF6AA21A0FB0101480880BD00BF8A
:1022A00002030405060708090A0B0C0D0E0F101097
:1022B000010200002DE9F04182B00446007841F2AD
:1022C0001C06C007C4F2020660D03068C0000BD400
:1022D00030684FF0010840F080503060306800F006
:1022E00080500190019801E04FF0000847F200078C
:1022F000C4F200073868C00512D4386840F4807012
:102300003860FFF7D9FA05463868C00508D4FFF7EA
:10231000D3FA401B6428F7D9032002B0BDE8F0814E
:10232000706810F4407024D0616801F440718842F4
:102330001FD0706840F24042C4F24222012320F4D0
:10234000407113600023C0071360716011D0FFF764
:10235000B3FA054641F288377068800709D4FFF761
:10236000ABFA401BB8424FF00300F5D902B0BDE80C
:10237000F0817068616820F440700843B8F1000F84
:10238000706003D0306820F0805030602068810792
:1023900007D556F8181CA26821F44041114346F8AD
:1023A000181CC00607D556F8180CE16820F4800008
:1023B000084346F8180C002002B0BDE8F081000088
:1023C0002DE9F04381B0002800F0AF8042F2000810
:1023D000C4F202080446D8F800000D4600F00700D9
:1023E00088420DD2D8F8000020F007002843C8F832
:1023F0000000D8F8000000F00700A84240F09580E7
:10240000206841F204098107C4F2020917D5410787
:1024100005D5D9F8001041F4E061C9F800100107B2
:1024200005D5D9F8001041F46051C9F80010D9F869
:102430000010A26821F0F0011143C9F80010C00794
:102440002DD06068012804D159F8041C89036CD58B
:1024500008E059F8041C022802D1890165D501E081
:10246000890762D5D9F8001021F003010843C9F8A3
:102470000000FFF721FA064641F28837D9F800003C
:10248000616800F00C00B0EB810F08D0FFF714FA80
:10249000801BB842F2D9032001B0BDE8F083D8F820
:1024A000000000F00700A8420CD9D8F8000020F086
:1024B00007002843C8F80000D8F8000000F0070023
:1024C000A84232D12068410707D5D9F80010E26848
:1024D00021F4E0611143C9F80010000708D5D9F8CC
:1024E0000000216920F4605040EAC100C9F80000F2
:1024F00000F0BEF8D9F8001045F6B042C1F3031160
:10250000C0F60002515C40F2000220FA01F140F2F4
:102510000800C2F200000068C2F200021160FFF77A
:10252000D5FD002001B0BDE8F083012001B0BDE879
:10253000F083000070B541F20005C4F20205FFF718
:10254000BBF92968044641F001002860286880072B
:1025500006D4FFF7B1F9001B0228F7D9032070BD9C
:102560002868102161F3C7002860FFF7A5F9044629
:10257000002041F288366860686810F00C0F06D0C1
:10258000FFF79AF9001BB042F6D9032070BD40F264
:102590000800C2F2000040F2000141F2002200688F
:1025A000C2F20001C0F27A020A60FFF78FFD002834
:1025B0001CBF012070BDFFF77FF92968044621F098
:1025C000807028602868800106D5FFF775F9001B28
:1025D0000228F7D9032070BD00206860FFF76CF96E
:1025E0002968044621F41020286000BF2868800371
:1025F00008D5FFF761F9001B64284FF0030088BF7E
:1026000070BDF3E7286820F480202860686A40F0F5
:10261000807068620020A86070BD000040F2000079
:10262000C2F200000068704780B5FFF7F7FF41F283
:102630000401C4F20201096845F6C042C1F3022157
:10264000C0F60002515CC84080BD000080B5FFF7B5
:10265000E5FF41F20401C4F20201096845F6C042F7
:10266000C1F3C221C0F60002515CC84080BD000029
:1026700041F2040CC4F2020CDCF8003003F00C0050
:10268000082841F20020C0F27A0018BF7047C3F357
:1026900083420AA18A5CD90305D440F60010C0F237
:1026A0003D0050437047DCF8001008A3C1F34041DF
:1026B000595C5043B0FBF1F0704700BF02030405C2
:1026C000060708090A0B0C0D0E0F1010010200007E
:1026D0002DE9F04182B0002800F0CD80044600785A
:1026E00041F20006C007C4F202064CD0706800F048
:1026F0000C00042817D0706800F00C00082802D1E4
:102700007068C0030FD4606898B1B0F5803F06D000
:102710003168B0F5A02F22D141F4802030603068BC
:1027200040F4803021E0306880032CD5606850BBD5
:10273000A1E0306820F480303060306820F48020E0
:102740003060FFF7B9F80546306880031BD5FFF706
:10275000B3F8401B64284FF00300F5D956E121F48B
:1027600080303060306820F480203060FFF7A4F8BB
:10277000054600BF3068800305D4FFF79DF8401B75
:102780006428F7D912E1207880072FD5706810F0FF
:102790000C0F07D0706800F00C00082809D1706891
:1027A000C00306D43068800719D52069012862D19A
:1027B00015E02069002840F20000C4F2422000F039
:1027C000B68001210160FFF777F805463068800781
:1027D00005D4FFF771F8401B0228F7D9E6E030680E
:1027E000616920F0F80040EAC100306020780007FD
:1027F00027D5A06988B10020C4F242200121C0F889
:102800008014FFF759F80546706A800717D4FFF760
:1028100053F8401B0228F7D9C8E00020C4F2422038
:102820000021C0F88014FFF747F80546706A80075A
:1028300007D5FFF741F8401B0228F7D9B6E001F0B1
:1028400015FE207840071AD4E569002D00F0DD80E0
:10285000706800F00C00082848D1012D0BD070687A
:10286000216A00F480328A4205D1616A00F4701056
:10287000884200F0CA80012002B0BDE8F081F06912
:10288000C0000BD4F0694FF0010840F08050F061B7
:10289000F06900F080500190019801E04FF00008CD
:1028A00047F20007C4F200073868C0050FD4386843
:1028B00040F480703860FEF7FFFF05463868C005B9
:1028C00005D4FEF7F9FF401B6428F7D96EE0E068F5
:1028D00000283DD0012805D0316A052851D141F0AA
:1028E00004003062306A40F0010050E00027C4F27A
:1028F000422700203866FEF7DFFF022D05460BD188
:10290000306880015FD5FEF7D7FF401B02284FF0EB
:102910000300F5D97AE000BF3068800175D5FEF775
:10292000CBFF401B02284FF00300F5D96EE00021D9
:102930000160FEF7C1FF0546306880077FF556AF9E
:10294000FEF7BAFF401B02284FF00300F4D95DE008
:10295000306A20F001003062306A20F004003062FA
:10296000FEF7AAFF054641F2883700BF306A8007AC
:1029700020D5FEF7A1FF401BB8424FF00300F5D968
:1029800044E021F001003062306A20F0040030623F
:10299000FEF792FF054641F2883700BF306A800794
:1029A00008D4FEF789FF401BB842F7D9032002B0D4
:1029B000BDE8F081B8F1000F3FF446AFF06920F0B8
:1029C0008050F06140E7206AB0F5803F05D1716822
:1029D000A26821F40031114371607168626A21F4C8
:1029E000741110430843706001203866FEF764FFDD
:1029F000044600BF3068800107D4FEF75DFF001B6E
:102A000002284FF00300F5D900E0002002B0BDE835
:102A1000F0810000002804BF0120704710B5044673
:102A2000022084F851002068016821F04001016013
:102A3000204600F049F80020606584F8510084F8D1
:102A4000500010BD002804BF0120704710B5044697
:102A500090F8510028B9002084F85000204600F07A
:102A600063F8022084F8510094E8071011430368CA
:102A700041EA0C0123F04003036022691143D4E9C9
:102A8000052341EA020C03F40072E16942EA0C02F8
:102A900042EA010C226AA16A42EA0C020A4302607D
:102AA000042202EA13424260B1F5005F04BFE16A0A
:102AB0000161C16921F40061C161002001216065EB
:102AC00084F8511010BD0000006843F60001C4F204
:102AD0000001884215D043F20001C4F2010188428E
:102AE00018BF704741F21802C4F202021068E021D8
:102AF00020F4805340F60000C4F201001360FEF79A
:102B000031BD41F21802C4F2020250684FF4604134
:102B100020F4804340F60000C4F2010000F580601C
:102B20005360FEF71FBD000010B584B0006843F687
:102B30000001C4F20001884222D043F20001C4F235
:102B40000101884244D141F21800C4F20200016838
:102B500040F6000441F4805101600068C4F20104B1
:102B600000F4805000900098A02000900220019076
:102B70000320039069462046FEF77CFD40201FE0BD
:102B800041F21800C4F20200416841F48041416002
:102B90004068694600F48040009000984FF420405F
:102BA0000090022001900320039040F60000C4F240
:102BB000010000F580642046FEF75CFD4FF4804084
:102BC00000900020CDE9010069462046FEF752FD45
:102BD00004B010BD2DE9F04381B0044690F85000D8
:102BE000012803D1022001B0BDE8F0834FF00109B4
:102BF0001D4616460F4684F85090FEF75DFE94F889
:102C00005110012965D18046002F4FF0010018BFF7
:102C1000002E00F0A680032084F85100002060659B
:102C20002763A686E686A063A087E087A168C4E93B
:102C30001000B1F5004F04D12068016841F48041D3
:102C40000160A06AB0F5005F08D12068016821F436
:102C500000510160016841F4005101602068016881
:102C6000490603D4016841F0400101606168731EA8
:102C7000E268B1FA81F1B3FA83F349095B09B2F56D
:102C8000006F41EA030126D139B1216B0988C16087
:102C9000B81C2063E08E0138E086E08E002840D02A
:102CA0006E1C09E0216B31F8022BC2602163E08EBB
:102CB0000138E086E08EA0B3206881688907F1D4EE
:102CC000FEF7FAFD002EF5D0A0EB0800A842F1D3E4
:102CD00025E0022045E039B139780173206B0130DD
:102CE0002063E08E0138E086E08ED0B16E1C0AE0F1
:102CF000216B09780173206B01302063E08E01386D
:102D0000E086E08E68B1206881688907F0D4FEF71C
:102D1000D3FD002EF5D0A0EB0800A842F1D303208C
:102D20001FE0A06AB0F5005F04D12068016841F49B
:102D30008051016020462946424601F0F3FB0028FD
:102D40001CBF20206065A06838B900200090206872
:102D5000C1680091806800900098606D002818BFDD
:102D60000120002184F8519084F8501001B0BDE892
:102D7000F083000001F042BC7047000010B504462B
:102D80000068C16821F49071C160416921F00101BE
:102D900041614169490609D40020E085202084F87A
:102DA0003A002046FFF7E8FF002010BD416921F0FE
:102DB00040014161606B68B144F68561C0F6000175
:102DC0004163FEF759FB0028EED0606B416B8847EA
:102DD000002010BD0020E085202084F83A00204625
:102DE000FFF7CAFF002010BD002804BF0120704774
:102DF00010B50446242084F839002068C16821F405
:102E00000051C160204600F0F9F80020E06384F82A
:102E1000390084F83A0084F8380010BD10B582B04B
:102E2000002140F214140191C2F2000422681368D8
:102E3000019353680193019B0191136801935368B7
:102E40000193019B01911368019353680193019BC6
:102E500001911368019353680193019B01911368D9
:102E6000019353680193019B5268C16340F60000CF
:102E7000C4F201004FF480710122FEF70FFD40F211
:102E80008021C2F200012046012202B0BDE81040BC
:102E900000F074B910B5026804461068D16853692F
:102EA00000F02F02202A07D111F0200204D0204682
:102EB000BDE8104002F006B85FEA007C1EBF03F0D8
:102EC000010301F4907212EB03020FD108400106D6
:102ED00007D4400658BF10BD2046BDE8104001F0A1
:102EE000E7BF2046BDE8104002F072B8C20718BF25
:102EF00011F4807240D1420704D51BB1E26B42F05D
:102F00000202E263820704D51BB1E26B42F00402C5
:102F1000E263BCF1000F04D51BB1E26B42F0080282
:102F2000E263E26BCAB30840800602D5204601F096
:102F3000C9FF20684069E16B00F0400001F0080122
:102F4000401825D0204601F0A5FF206841694906B8
:102F500019D5416921F040014161606B98B144F697
:102F60007961C0F600014163FEF786FAA8B1606B93
:102F7000416BBDE810400847E26B42F00102E2639A
:102F80004207BAD4BEE72046BDE81040FFF746BF6F
:102F90002046FFF743FF0020E06310BD002804BF78
:102FA0000120704710B5044690F8390028B9002078
:102FB00084F83800204600F03FF8242084F83900D7
:102FC0002068C16821F40051C160204601F0B8FFBB
:102FD0002068016921F490410161416921F02A01D1
:102FE0004161C16841F40051C16000202021E063CB
:102FF00084F8391084F83A1010BD000080B50146FD
:1030000040F60000C4F20100096800F54052914208
:1030100018BF80BD41F21801C4F202010A6822F40F
:1030200080420A604FF4E061FEF79CFA2520BDE87B
:103030008040FEF7DDBF000070B584B040F60004AC
:10304000C4F20104006804F54051884201D004B084
:1030500070BD41F21800C4F2020001686D4641F4EF
:10306000804101600068294600F48040009000988B
:103070004FF400700090022001900320039020463E
:10308000FEF7F8FA4FF480600090002620462946AB
:10309000CDE90166FEF7EEFA4FF480700090012052
:1030A000CDE9010620462946FEF7E4FA2520012154
:1030B0000022FFF779F82520FEF79CFF04B070BDD1
:1030C0002DE9F04381B0054690F83A0020280BD155
:1030D0000F464FF0010441B1164632B195F8380061
:1030E000012806D1022400E00224204601B0BDE8F8
:1030F000F083012085F83800002422209946EC63F3
:1031000085F83A00FEF7D8FBAE85EE85E98D51B320
:10311000804604E0C0B227F8010BE88D18B3E88DB3
:1031200020210138E885AE68284642464B4601F02A
:103130007BFFB6F5805F0BD1D8B928682969406854
:103140000029E7D16FF35F2027F8020BE5E700BF06
:1031500088B9286829694068002918BF00F07F00F5
:1031600007F8010BD9E7202085F83A0085F83840A8
:10317000BBE70324B9E70324B7E70000034690F850
:103180003A0020280AD100294FF0010018BF002A78
:1031900000D1704793F83800012801D10220704710
:1031A0009962002022219A85DA85D86383F83A1043
:1031B000196883F83800CA6842F48072CA604A69A4
:1031C00042F001024A61CA6842F02002CA607047B8
:1031D00010B540F28024C2F20004217840F2982019
:1031E000C2F2000001F0A6FA40F21410C2F2000090
:1031F00021460122BDE81040FFF7C0BF2DE9F04194
:10320000044690F8390020280DD10E4600294FF0D1
:1032100001004FD01746002A08BFBDE8F08194F89E
:103220003800012802D10220BDE8F081012084F895
:1032300038000020E06321201D4684F83900FEF7A5
:103240003BFBA784E784E18C804619B922E000BFEC
:10325000E08CF8B1E08C80210138E084A76820463A
:1032600042462B4601F0E0FEB7F5805F0CD1C0B9B5
:103270003088216922686FF35F200029506014BFF5
:1032800001360236E4E700BF58B916F8010B216891
:103290004860DDE72046402142462B4601F0C4FE4F
:1032A00010B10320BDE8F081202084F8390000200F
:1032B00084F83800BDE8F08140F60000C4F2010057
:1032C0004FF480710122FEF7E9BA0000FEE700002A
:1032D0000268516949054FF000010FD56FF4806312
:1032E00053612022016380F83D2080F83E10026C7B
:1032F00042F00402026480F83C1001210846704745
:103300002DE9F04383B0064600681C461546F26A74
:1033100003680F4643F4806112F5803F016018BFD7
:10332000012A29D1016841F48071016030464FF0D3
:10333000011100222B46009400F0D6F818B10120AC
:1033400003B0BDE8F083306940F20208B0F5804F69
:10335000C0F2010816D147F00100C0B231682A4618
:10336000086130464146234600F0FEF8002818BFA9
:10337000012003B0BDE8F083082AD3D0316B1129B6
:10338000D0D0D3E7062000EAD719306809F1F00160
:10339000016108F1060130462A46234600F0E4F8B0
:1033A0000028CCD13068F9B20161304641462A4646
:1033B000234600F0D9F80028C1D1002002903068DF
:1033C000002241692B4602918169029102990168AC
:1033D00041F48071016030464FF00111009400F01B
:1033E00083F80028ABD149F0F100B7E72DE9F041AF
:1033F00082B00646C06A1C46154610F5803F0F464F
:1034000018BF01281CD13068016841F48071016047
:1034100030464FF0011100222B46009400F064F872
:1034200018B1012002B0BDE8F081306940F2020815
:10343000B0F5804FC0F2010808D107F0FE0015E09A
:103440000828E0D0306B1228DDD0E1E7062000EA42
:10345000D7103168F030086108F1060130462A467D
:10346000234600F081F80028DBD1F8B231682A4603
:10347000086130464146234600F076F8002818BF20
:10348000012002B0BDE8F081F0B581B004460068CB
:103490004069400724D415460E464F1C04E000BF87
:1034A0002068406940071BD42046FFF711FFA0B9F0
:1034B000002FF5D0FEF700FA16B1401BB042EFD94D
:1034C00000202021206384F83D1084F83E00216C08
:1034D00041F02001216484F83C00012001B0F0BDDE
:1034E000002001B0F0BD00002DE9F047DDF820809C
:1034F0009A461646814601F47F078CB25D1C00BFD8
:10350000D9F800001821B7F5803F08BF14214058B2
:10351000224608BF22461040801AB0FA80F04009C7
:10352000B0421DD1002DEBD0FEF7C6F9BAF1000F65
:1035300003D0A0EB08005045E2D900202021C9F8B3
:10354000300089F83D1089F83E00D9F8401041F06C
:103550002001C9F8401089F83C000120BDE8F0873F
:103560000020BDE8F08700002DE9F04381B09846C7
:103570001646814601F47F078DB2541CD9F800002D
:10358000B7F5803F14BF816941692940A94218D02D
:103590004169490519D4002CF0D0FEF78DF91EB110
:1035A000A0EB0800B042E9D900202021C9F8300082
:1035B00089F83D1089F83E00D9F8401041F020010B
:1035C00016E0002001B0BDE8F083016841F400710D
:1035D00001606FF48061416100202021C9F8300052
:1035E00089F83D1089F83E00D9F8401041F00401F7
:1035F000C9F8401089F83C00012001B0BDE8F08313
:1036000070B515460E46044620684169490613D434
:103610004169C90612D4FEF74FF916B1401BB042FA
:10362000F2D900202021206384F83D1084F83E0068
:10363000206C40F020000CE0002070BD6FF0100105
:10364000416100202021206384F83D1084F83E0071
:10365000206C2064002084F83C00012070BD000034
:10366000F0B581B0044600684069000624D41546D0
:103670000E464F1C04E000BF2068406900061BD4C2
:103680002046FFF725FEA0B9002FF5D0FEF714F96C
:1036900016B1401BB042EFD900202021206384F8EE
:1036A0003D1084F83E00216C41F02001216484F833
:1036B0003C00012001B0F0BD002001B0F0BD0000D1
:1036C00040F2300042F20041C2F20000C4F20101B7
:1036D00000224FF4602302730275C361C0E9001237
:1036E000022182600161FDF7A5BC000040F260008C
:1036F00043F20001C2F20000C4F202010160FDF7D2
:10370000A5BE00002DE9F04385B041F21800C4F2D7
:103710000200016840F6000441F004010160016804
:10372000C4F2010401F00401019101990168002231
:1037300041F00801016001684FF0000901F0080143
:1037400001910199016841F010010160016801F0E7
:10375000100101910199016841F0200101600068A8
:10376000082100F02000019001982046FEF796F80D
:103770002046102101224FF00108FEF78FF804F5D2
:103780008065284641F230710022FEF787F828460E
:1037900040F601010122FEF781F84FF4005001AE1E
:1037A000CDE9010904F500603146CDF80C80FDF744
:1037B00061FF0320CDE9010904F540603146CDF8F1
:1037C0000C80FDF757FF1820CDE90108022720469D
:1037D00031460497FDF74EFF41F63170CDE90108FF
:1037E000284631460497FDF745FF0E20CDE9010933
:1037F00028463146CDF80C90FDF73CFF4FF41840B9
:10380000CDE9010920463146CDF80C90FDF732FF95
:103810000420C4F20100016841F0E06141F400417C
:10382000016005B0BDE8F08380B540F2680045F264
:103830000041C2F20000C4F2000148F2A06200237D
:103840004FF4804CC0F2010280E80E00C0E9033C56
:10385000C0E90533C0E90733FEF746F8002818BF72
:1038600001F06AFC40F26800C2F20000FEF758F86E
:10387000002808BF80BDBDE8804001F05DBC0000AD
:1038800080B540F2BC0043F20001C2F20000C4F275
:1038900001014FF48272002380E80E0000F1140150
:1038A0004FF4007C4FF0080EC0E9033381E8085064
:1038B0000A21C0E90833C0E90A31FFF7C3F800283C
:1038C00008BF80BDBDE8804001F036BC80B540F245
:1038D000141043F6000140F68812C2F20000C4F250
:1038E0000101C2F2000200234FF00C0C126880E8C4
:1038F0000E00C0E90333C0E905C3C361FFF74EFB07
:10390000002808BF80BDBDE8804001F015BC000064
:10391000FEE700007047000000F0070080F007039A
:10392000042B28BF04234FF0FF3C03380CFA03F3A9
:1039300038BF0020994381400CFA00F022EA0000D1
:1039400008437047B0B582B00020ADF8060040F2E1
:1039500068000C24C2F200000DF10602902102233F
:103960000094FEF7A5FA40F27825C2F2000518B1DE
:10397000286820F0010028600520FDF7DFFD40F2F7
:103980000140ADF8060040F26800C2F200000DF1FF
:103990000602902102230094FEF78AFA18B12868E3
:1039A00020F0010028600220FDF7C8FD02B0B0BD84
:1039B00010B540F2642CC2F2000C40F260129CF888
:1039C0000030C2F200020021D1805181D1815182A8
:1039D000D1825183D1835184D1845185D18551863F
:1039E000D1865187D187A2F842101901FF2B08BF59
:1039F00040F6FF7111819CF801109CF802309CF890
:103A000003000C01FF294FEA03119CF804E008BFF2
:103A100040F6FF749481FF2B08BF40F6FF711182BE
:103A20000101FF2808BF40F6FF714FEA0E10918296
:103A3000BEF1FF0F08BF40F6FF709CF80510108321
:103A40000801FF2908BF40F6FF709CF8061090831C
:103A50000801FF2908BF40F6FF709CF8071010848A
:103A60000801FF2908BF40F6FF709CF808109084F9
:103A70000801FF2908BF40F6FF709CF80910108567
:103A80000801FF2908BF40F6FF7090859CF80A00E6
:103A90009CF80B109CF80C300401FF284FEA011031
:103AA0009CF80DE008BF40F6FF741486FF2908BF9C
:103AB00040F6FF7090861801FF2B08BF40F6FF709C
:103AC00010874FEA0E10BEF1FF0F08BF40F6FF70DF
:103AD0009CF80E1090870801FF2908BF40F6FF7080
:103AE0009CF80F10A2F840000B01FF2908BF40F618
:103AF000FF7306204021A2F84430BDE8104000F0DA
:103B000095B8000080B582B006208DF8070040F21D
:103B100068004FF00C0CC2F200000DF1070200210A
:103B20000123CDF800C0FEF7C3F938B140F2782088
:103B3000C2F20000016821F00101016002B080BD05
:103B4000B0B582B004464FF48050ADF8060040F2A4
:103B500068000C25C2F200000DF10602902102233C
:103B60000095FEF7A5F930B145F6C860C0F6000033
:103B7000A02101F0E1FA47F640012003C0F27D11D7
:103B8000B1FBF0F040F260110138C2F2000181F89F
:103B9000FE00FE218DF806108DF8070040F2680047
:103BA000C2F200000DF10602902102230095FEF7FB
:103BB0007FF930B145F6C860C0F60000A92101F0D8
:103BC000BBFA4FF42040ADF8060040F268000C2428
:103BD000C2F200000DF10602902102230094FEF7CC
:103BE00067F930B145F6C860C0F60000B12101F0B8
:103BF000A3FA0520FDF7A2FC40F20140ADF8060053
:103C000040F26800C2F200000DF10602902102238A
:103C10000094FEF74DF930B145F6C860C0F60000DB
:103C2000BA2101F089FA02B0B0BD000010B594B01D
:103C30008DF80A0089B140F2601C0122C2F2000C2A
:103C40000DF10A0EC4B21CF80440D3B201320EF8D2
:103C50000340D3B201308B42F4D940F268004B1CD0
:103C60000C24C2F200000DF10A0290210094FEF72C
:103C70001FF930B145F6C860C0F60000CC2101F054
:103C80005BFA14B010BD0000B0B540F21204C2F2ED
:103C900000042078022828D0012837D000285FD1DE
:103CA00040F27825C2F200052868002140F00100AA
:103CB000286040F26420C2F20000102201F05AFB9A
:103CC00040F26010C2F2000000214FF4807201F057
:103CD00051FBFFF717FFFFF735FE2868C00712D02A
:103CE0004FF47A70FFF72CFF0DE040F22800C2F28B
:103CF00000000168C90706D1016849075CBF016877
:103D00005FEA01712FD501202070B0BD40F278200C
:103D1000C2F200000068C00724D040F26420C2F262
:103D200000000021102201F025FB40F22800C2F221
:103D300000000168C90706D1016889075CBF0168F6
:103D40005FEA417139D5FFF733FE40F60040C4F217
:103D500001004FF480510022BDE8B040FDF79EBD48
:103D600000202070B0BD0168C9065CBF00685FEA32
:103D70008060C8D440F27C24C2F20004206800288D
:103D800018BFB0BD40F264210020C2F20001002241
:103D90008B5C072B98BF88540132102AF8D1FFF7AB
:103DA00007FE40F60040C4F201004FF480510122AA
:103DB000FDF774FD17202060B0BD016809075CBFE6
:103DC00001685FEAC161BED400688006BBD40220EE
:103DD0002070B0BD704700002DE9F04794B04FF25D
:103DE000E070C1F6FF70B0F80090642001F05EF959
:103DF00040B940F68F10C2F200000078FDF79EFB3C
:103E000001F09AF940F230041020C2F2000401AF30
:103E100040F6000801900125072620463946C4F2E5
:103E2000010802950396FDF711F82046FDF784FA84
:103E300020460521FDF7C6F92046FDF7F7F880B2C8
:103E400040F27F61081AFCF71CFA48F65C71C4F274
:103E5000AA01FCF7D8F90021C4F2C811FCF77BF9DC
:103E60008246112001A961C120463946FCF7EEFFC8
:103E70002046FDF761FA20460521FDF7A3F920460B
:103E8000FDF7D4F880B2FCF705FA014642F60020AF
:103E9000C4F29350FCF7B7F940F21417C2F20007CE
:103EA00005463846FEF76AFF40464FF4807100220F
:103EB000FDF7F4FCFEF7DCFB4DF68361C4F21B3129
:103EC000A0FB010104AC8A0C45A1204601F06EFA6A
:103ED0002046FCF739F982B2384621462D23FFF7F8
:103EE0008DF92846FCF7DBF902460B4644A1204633
:103EF00001F05CFA2046FCF727F982B238462146E9
:103F00002D23FFF77BF95046FCF7C9F902460B4613
:103F100043A1204601F04AFA2046FCF715F982B287
:103F2000384621462D23FFF769F9B9F5806F06D38E
:103F30004FEA992246A104A801F038FA04E03FA113
:103F400004A84A4601F032FA04AC2046FCF7FCF81B
:103F500040F21419C2F2000982B2484621462D23CC
:103F6000FFF74CF9FDF7A0FC02463EA1204601F008
:103F70001DFA2046FCF7E8F882B2484621462D2378
:103F8000FFF73CF9FDF79EFC0646FDF7A1FC07464E
:103F9000FDF7A4FC45F6E3610546C0F600012046A6
:103FA00032463B46009501F001FA2046FCF7CCF87A
:103FB00082B2484621462D23FFF720F940464FF4B0
:103FC00080710122FDF76AFC40F28021C2F20001FB
:103FD00048460122FFF7D2F814B0BDE8F08700BFD1
:103FE0000D0A436F726520436C6F636B20467265E8
:103FF00071656E63793A202564204D487A0D0A0078
:10400000436F726520537570706C7920566F6C74B5
:104010006167653A20252E3366206D560D0A000033
:10402000436F72652054656D706572617475726559
:104030003A20252E31662027430D0A00466C617315
:10404000682073697A653A202564204B420D0A0086
:10405000466C6173682073697A653A202564204D47
:10406000420D0A004465766963652049443A20257B
:10407000640D0A00F0B597B00DF10A042046002146
:104080005222002501F076F9ADF80A5040F2680599
:10409000C2F2000514262846AE21224602230096CD
:1040A000FDF706FF2846AE21224652230096FDF773
:1040B000C3FD9DF85A005A2800F04F814FF48050FC
:1040C000ADF80A00FDF70AFC8DF80C004FF664709D
:1040D000CDF80D004CF20120CAF6003040F2680520
:1040E000CDF81100BA20C2F200058DF815000DF1CF
:1040F0000A022846AE210C230096FDF7D9FE284679
:10410000AE2164221423FDF7D5FC002818BF01F06E
:1041100013F841F6002040F26805C1F20000C2F237
:104120000005CDF80A0014260DF10A022846AE213A
:1041300004230096FDF7BCFE2846AE21642214231A
:10414000FDF7B8FC002818BF00F0F6FF41F600406C
:1041500040F26805CCF20B00C2F20005CDF80A006F
:104160000DF10A022846AE2104230096FDF7A0FEB9
:104170002846AE2164221423FDF79CFC002818BFBA
:1041800000F0DAFF41F6006040F26805C8F605105D
:10419000C2F20005CDF80A0014260DF10A022846E5
:1041A000AE2104230096FDF783FE2846AE2164224B
:1041B0001423FDF77FFC002818BF00F0BDFF42F27A
:1041C000000040F26805C2F20420C2F20005CDF8FA
:1041D0000A000DF10A022846AE2104230096FDF7DD
:1041E00067FE2846AE2164221423FDF763FC0028F5
:1041F00018BF00F0A1FF42F2002040F26805C8F2AB
:104200000400C2F20005CDF80A0014260DF10A02DE
:104210002846AE2104230096FDF74AFE2846AE212B
:1042200064221423FDF746FC002818BF00F084FF29
:1042300042F2004040F26805CEF60300C2F20005EB
:10424000CDF80A000DF10A022846AE21042300969B
:10425000FDF72EFE2846AE2164221423FDF72AFC2A
:10426000002818BF00F068FF42F2006040F26805C5
:10427000CEF60300C2F20005CDF80A0014270DF1B6
:104280000A022846AE2104230097FDF711FE2846B6
:10429000AE2164221423FDF70DFC002818BF00F0A6
:1042A0004BFF0DF10A0528460021522201F062F869
:1042B00044F2000040F26806C0F20330C2F2000689
:1042C000CDF80A003046AE212A4612230097FDF7AA
:1042D000EFFD3046AE2164221423FDF7EBFB0028EE
:1042E00018BF00F029FF4FF4A04040F26805ADF878
:1042F0000A005A20C2F200058DF80C0014270DF1B7
:104300000A022846AE2103230097FDF7D1FD284677
:10431000AE2164221423FDF7CDFB002818BF00F066
:104320000BFF0DF10A05284600215222002601F05C
:1043300021F8ADF80A6040F26806C2F20006304685
:10434000AE212A4602230097FDF7B2FD3046AE218A
:104350002A4652230097FDF76FFC40F293209DF808
:104360000C10C2F200009DF81A20017040F68F1068
:10437000C2F200009DF81B30027040F68D10C2F2B0
:1043800000009DF81C70037040F68C10C2F2000013
:1043900007709DF81D0040F68E11DDF81E20C2F258
:1043A0000001087010BA40F68811BDF82220C2F250
:1043B0000001086010BA40F29421BDF82420000CDE
:1043C000C2F20001088010BA40F25611BDF8262052
:1043D000000CC2F20001088010BA40F25811BDF87A
:1043E0002820000CC2F20001088010BA40F25E11D1
:1043F000BDF82A20000CC2F20001088010BA40F279
:104400005A11BDF82C20000CC2F20001088010BA2D
:1044100040F26021BDF82E20000CC2F2000108809D
:1044200010BA40F27421BDF83020000CC2F2000135
:10443000088010BA40F27621000CC2F20001088018
:1044400040F690113F20C2F2000100BF22185278BE
:104450000B18B2F1FF0700F1010018BF17464F28F3
:1044600003F83F7CF2D117B0F0BD000081B040F2FC
:104470000000C2F20000006844F6D351C1F26201AC
:10448000A0FB0101480A009000BF0098411E0028CF
:104490000091F9D101B07047B0B540F25415C2F2A5
:1044A00000052878B8B940F29824C2F200042046EA
:1044B000002100F0B5FB40F649612870C0F600010C
:1044C000204600F00DFA40F64942C0F600022046B0
:1044D000032100F053FA40F60000C4F201004FF44B
:1044E00080710122FDF7DAF940F2141040F28021C8
:1044F000C2F20000C2F200010122BDE8B040FEF7A6
:104500003DBE00007047000040F25410C2F20000AF
:104510000078002808BF704740F29820C2F20000DF
:1045200000F044BCB0B582B00B460092802100225E
:104530000446002500F00AF820B1606D032540F024
:1045400020006065284602B0B0BD00002DE9F043B0
:1045500081B08146006880680840401AB0FA80F057
:104560004009904244D0DDF8208015460E461F4693
:104570005C1C5CB9D9F8000080683040801BB0FA40
:1045800080F04009A84233D0002CF3D0FDF794F915
:10459000A0EB0800B842EDD3D9E900014268B1F5BB
:1045A000827F22F0E00242600BD1D9F80810B1F509
:1045B000004F02D0B1F5806F03D1016821F04001B6
:1045C0000160D9F82810B1F5005F07D1016821F426
:1045D00000510160016841F400510160012089F837
:1045E0005100002089F85000032001B0BDE8F0839D
:1045F000002001B0BDE8F08370470000B0B501387D
:104600000024B4EB106F02D001242046B0BD4EF25E
:104610001005CEF2000568604FF0FF300F2100F06A
:104620001DFE0720AC6028602046B0BD80B5FDF7B8
:104630002BFDFFF769FF40F22C00C2F20000016879
:1046400011B101680139016040F27C20C2F2000022
:104650000168002908BF80BD01680139016080BD83
:10466000B0B594B000240A200D94CDE90B440A9013
:10467000012010210E90CDE90F1002254FF460109B
:10468000CDE9115413900AA80994CDE90744CDE966
:104690000544CDE90344CDE90144FEF719F80028AB
:1046A00018BF00F049FD0F20CDE905054FF48060EB
:1046B0000794CDE9080405A80221FDF781FE002832
:1046C00018BF00F039FD022001904FF40040039024
:1046D00001A8FDF7EFFD002818BF00F02DFD14B074
:1046E000B0BD000041F20000C4F2020001680022E7
:1046F00041F0010101604168CFF6FF0211404160C5
:1047000001684FF6FF72CFF6F66211400160016852
:1047100021F480210160416821F4FE0141604FF4E1
:104720001F0181604EF60850CEF200004FF000618C
:1047300001607047B0B5044680890D460A2804D34D
:10474000A07A10B1204600F083FAA07A0021062852
:10475000A18100F2BF80DFE800F0040C224A5F77FD
:104760008000012D40F0B6802046BDE8B04000F04A
:1047700009BEB4F81404294600F024F9218AA4F8EB
:10478000140445EA0120B4F812142082481C81B2B6
:104790000229A4F8120440F09D80042037E0B4F808
:1047A000160445EA0025B4F81204A4F816540130A2
:1047B00081B20229A4F8120440F08C80B4F81404E9
:1047C00000F00CF9A9B28842A4F8140463D1208A3D
:1047D000002800F080800521A1720021B0F5806FD3
:1047E000C4F8121476D9012084F81904B0BDB4F8C5
:1047F0001404294600F0E6F8A4F81404B4F81204EE
:10480000A573411C0028A4F8121463D10120A072E2
:104810000020A4F81204B0BDB4F81404294600F036
:10482000D1F8A4F81404B4F8120484F81854411C04
:104830000028A4F812144DD10220A0720020A4F880
:104840001204A4F81604B0BD94F8190440B3B4F8E7
:1048500012040130A4F8120430E0B4F8160445EA5A
:104860000025B4F81204A4F81654013081B20229CC
:10487000A4F8120418BFB0BDB4F8140400F0AEF8E8
:10488000A9B28842A4F8140405D194F8190410B907
:10489000204600F027F92046BDE8B04000F0D8B926
:1048A000B4F81404294600F08DF8B4F81214A4F8F2
:1048B0001404481CA4F8120460188574B4F8120497
:1048C000218A884206D10620A0720020A4F8120492
:1048D000A4F81604B0BD204600F004F9DBE70000A0
:1048E00000F5DB6C002200BF5CF822302BB10132F6
:1048F000052A04BF00207047F6E790F8EEC6D3B251
:1049000000EB82029C45C2F8D81684BF0120704794
:10491000591C80F8EE16012070470000B0B54FF02A
:10492000000C4FF0000E00BF00EB0C04D4F8AC54A8
:1049300045B10CF1140CBCF5C87F0EF1010EF3D19A
:104940000020B0BDC4F8AC240D785FFA8EF284F874
:10495000A854D1E90351C4F8B454C4F8B81490F879
:10496000EC16A4F8B0349142A4F8B23484BF01200C
:10497000B0BD511C80F8EC160120B0BD80B500F52B
:10498000C76C4FF0000E00BFDCF8043043B1AEF14D
:10499000010E1EF114030CF1080CF5D1002080BDAE
:1049A000CEF1000390F8EDE6DBB29E45CCF8042092
:1049B0008CF8001084BF012080BD591C80F8ED16D2
:1049C000012080BDC2B2514045F6C842C0F6000287
:1049D00032F8111081EA1020704700007047000083
:1049E000014690F8A604002812BF0020012081F89B
:1049F000A60470470021C0E90011C0E9021101615D
:104A000070470000002A04BF002070472DE9F041E4
:104A10001C468846064655424FF0FF3708EB070014
:104A20004178F01941702088FFF7CCFF0137E91970
:104A300001312080F2D1781CBDE8F081F0B581B061
:104A4000154652780C460AB12F7809E0417A027A6D
:104A50004B1C61F07F074372002A08BF01F07F07FB
:104A600001202F70207000200121FFF7ABFF2646A8
:104A7000F9B206F8017FFFF7A5FF0827298980B260
:104A8000F94006F8011FC9B2FFF79CFF083F17F174
:104A90000801F3D1A97804F8041FFFF793FFFFF78B
:104AA0009DFF082120FA01F2083911F1080304F8EA
:104AB000012FF7D1072001B0F0BD000070B50D88BF
:104AC000064628460C46FFF789FF701E0821258000
:104AD0002288CA40083911F1080300F8012FF7D1E4
:104AE000022070BD2DE9F04186B0044601A8FFF711
:104AF00081FFA07B94F818148DF8040004F11200D3
:104B00008DF80610029094F8EC064FF0000800288B
:104B1000208A8DF80580ADF80C002BD004F5956542
:104B2000002701AE07E000BF94F8EC06013787428A
:104B300005F114051ED26A68002AF5D028789DF880
:104B400004108842F0D1D5E90301CDE904012046E3
:104B500031469047DDE904120028E9602A61E3D07C
:104B6000032852D002284DD1284600F01BFC06B085
:104B7000BDE8F08194F8ED06CDF81080CDF81480F2
:104B800010B304F5C765002701AE06E094F8ED0602
:104B90000137874205F1080516D26A68002AF5D068
:104BA00028789DF806108842F0D12046314690477B
:104BB0000028EBD0032825D1F9B220462A4600F080
:104BC000ADFB06B0BDE8F08194F8EE06D0B104F577
:104BD000DB65002701AE06E094F8EE060137874258
:104BE00005F104050ED22A68002AF5D02046314688
:104BF00090470028F0D0032804D1F9B220462A4675
:104C000000F060FB06B0BDE8F0810020C5E90300BC
:104C1000F9B220462A4600F061FB06B0BDE8F081FB
:104C2000002804BF00207047F0B581B00D46D0E9E0
:104C300000674FF4DE610446FBF77BFAC4E90067C6
:104C40002572012001B0F0BD002180F8A614704744
:104C5000002181727047000001224A70AFF300808A
:104C600000220023AFF30080B0B50D46044600F0EB
:104C700011F8002804BF0020B0BD2A890AB1686875
:104C800030B16968204600F02DF8204600F060F849
:104C90000120B0BDF0B581B01D4616460F46044652
:104CA000FFF79EFED8B104F21A4120463A46FFF7BC
:104CB000C5FEC4F89C043889C4F8A00436B1204667
:104CC000394632462B46FFF729FE28B10020A4F8CA
:104CD000A404012001B0F0BD2046FFF7B5FF00207D
:104CE00001B0F0BD2DE9F04F81B06AB314468A4699
:104CF000064600F2A44B00F21A484FF000090025C6
:104D000001E000BF04B3D6F89C040AEB0501C0F132
:104D100080073044A74228BF274600F21A40BAB2A3
:104D20005B46FFF76FFED6F89C14E41B084480280E
:104D30003D44C6F89C04E5D130464146802200F04F
:104D40005FF8C6F89C94DDE701B0BDE8F08F000085
:104D500010B50446D0F8A004D8B1D4F89C24C2F110
:104D60008000012807D804F21A41204600F048F8D4
:104D70000020C4F89C04D4F89C0404F2A44120440C
:104D800000F21A40FFF79AFED4F89C140844C4F8C5
:104D90009C04D4F89C2404F21A41204600F030F818
:104DA0002046BDE81040FFF74FBF000070B5044635
:104DB000808909289CBF0130A08194F8EC06002866
:104DC00008BF70BD04F59665002606E094F8EC0671
:104DD0000136864205F1140511D255F8040C00285D
:104DE000F4D028880028F1D0013801042880EDD1C2
:104DF000A5F10802F1B2204600F070FAE6E770BDB6
:104E0000F0B581B040F21417C2F2000740F600047A
:104E1000384615460E46C4F20104FDF7AFFF2046A2
:104E20004FF480710022FCF739FDAAB238463146B2
:104E30002D23FEF7E3F918B10BA0652100F07CF9F2
:104E400020464FF480710122FCF728FD40F2141037
:104E500040F28021C2F20000C2F20001012201B042
:104E6000BDE8F040FEF78AB92E2E2F5372632F72E1
:104E7000733438352E630000406A0021C185C18437
:104E8000FDF7CCBF406A0021C185202180F83A108F
:104E9000FDF772BF0168CA6822F49072CA604A695D
:104EA00022F001024A61202180F83A107047000088
:104EB0000168CA6822F04002CA60202180F83910D7
:104EC000FEF7FAB990F83A10222918BF70478168A6
:104ED000B1F5805F09D102680369816A526883B1C4
:104EE000836AD2B20A80591C10E0016802694968DD
:104EF000002A826A18BF01F07F01531C836211707F
:104F000005E0836A6FF35F220A80991C8162C18D7C
:104F100001390A04C18500D070470168CA6822F0CF
:104F20002002CA60CA6822F48072CA604A6922F00C
:104F300001024A61202180F83A10FEF749B90000C9
:104F400010B504460068D4E902C22369016921F45E
:104F5000405111430161616943EA0C021143C26887
:104F600041F20C639A431143C1604169A26921F483
:104F70004071114343F60002C4F2010290424161C4
:104F800002D0FDF751FB01E0FDF760FB62681921DB
:104F900048439100B0FBF1F048F21F51C5F2EB110C
:104FA000A0FB01235A096FF0630302FB03003223C5
:104FB00003EB0010A0FB0101F02303EA511320686A
:104FC00003EB0212C1F343111144816010BD0000D4
:104FD00090F83910212926D18268016AB2F5805FE4
:104FE0000DD10A880369D0F800C06FF35F22002B4F
:104FF000CCF8042014BF01310231016204E04A1CE4
:105000000262097802685160C18C01390A04C184C6
:1050100018BF70470068C16821F08001C160C16895
:1050200041F04001C16070472DE9F041044600683D
:1050300000680840884227D01D460E4690465F1CF7
:105040003FB900BF206800683040B0421CD0002F3C
:10505000F8D02DB1FCF730FCA0EB0800A842F1D944
:105060002068C16821F4D071C160416921F001015B
:105070004161202084F8390084F83A00002084F847
:1050800038000320BDE8F0810020BDE8F081000079
:1050900080B52520FCF7AAFF40F21410C2F20000F0
:1050A000BDE88040FDF7F6BEFEE700002DE9F041C7
:1050B00082B0044640F60000C4F201004FF4807153
:1050C0000122FCF7EBFB8CB340F2141540F68F186D
:1050D000C2F200050DF10706C2F2000803E000BFAE
:1050E000013C200620D02846314601220523FDF749
:1050F000E7FF0328F4D198F8007000BF2846314636
:1051000001220123FDF7DCFF0328E9D13806A7F1CE
:105110000107F3D128463146012205230127FDF777
:10512000CFFF0328DCD102E0002700E0002738464B
:1051300002B0BDE8F081000010B540F26000C2F29C
:105140000000FCF769F940F26800C2F20000FCF7C9
:10515000CBFB40F23000C2F20000FBF7FFFE40F252
:10516000BC00C2F20000FDF755FC40F21410C2F280
:105170000000FDF739FE40F60004C4F201042046A9
:1051800049F61801FCF7EEF904F5806041F63F712D
:10519000FCF7E8F904F500604FF40051FCF7E2F980
:1051A00004F540600321FCF7DDF941F21800C4F278
:1051B0000200016821F004010160016821F008018A
:1051C0000160016821F010010160016821F02001F7
:1051D0000160FDF7AFF9FCF7A1F9BDE81040FCF75D
:1051E0000DBF0000002848BF704700F01F010122DA
:1051F00002FA01F14EF280224009CEF2000242F89A
:1052000020107047002848BF704700F01F0101229E
:1052100002FA01F14EF280124009CEF2000242F889
:105220002010BFF34F8FBFF36F8F7047002848BF28
:10523000704700F01F01012202FA01F14EF2001244
:105240004009CEF2000242F8201070474EF60C5092
:10525000CEF200000068C0F3022070474EF61453EF
:1052600000F00F02CEF2000309011A4400F160437E
:10527000B0F1FF3FC8BF03F56442117070470000F2
:105280004EF60C51CEF200010A684FF6FF031A40A9
:1052900060F30A2242F0806040F0FD7008607047C1
:1052A0004EF60C50BFF34F8FCEF20000016804227F
:1052B00001F4E061C0F2FA5211430160BFF34F8F75
:1052C00000BFFDE790F8EE36013B8B424FF0000146
:1052D000116008BF80F8EE367047000070B586B0E8
:1052E00015465268BAB10446E8680E4608B92869FE
:1052F00040B1D5E90301CDE904010020029001A9E4
:10530000204690470020686094F8EC060138B042CF
:1053100008BF84F8EC0606B070BD000090F8ED36CA
:10532000013B8B424FF00001516008BF80F8ED3621
:1053300070470000FCF7B6FEFFF792F9FEF7D6F9CA
:10534000FEF7E0F9FEF7BCF9FEF79AFAFEF76CFA01
:10535000FEF790FEFEF7BAFAFEF73EFDFFF79CF867
:10536000FBF784FCFBF7E6FAFFF7CCF8FEF78CFCC2
:10537000F6E7000080B51346CAB21946FAF7D2FE26
:1053800080BD0000B0B50446002001210025FFF7D4
:1053900019FBA4F81404032084F81954A072A4F88B
:1053A0001254B0BD41890181704700000FB4084B11
:1053B00010B504A902AA039800F0DEF8044602A979
:1053C000002000F070FC204610BC5DF814FB0000CB
:1053D000A75C000802E008C8121F08C1002AFAD121
:1053E00070477047002001E001C1121F002AFBD165
:1053F000704700002DE9FF5F82B00021DDE9043035
:10540000020DDDF840B0034318D044F61050A2F26C
:10541000FF3242431514119801281FD0A5EB0B0051
:10542000401C5FEA000A4FF000064E4FDFF838914B
:10543000B046504615D5CAF1000413E01198012476
:105440004AA3012801D16FEA0B010298119AC0E921
:105450000031C0E9024206B0BDE8F09FCBF1000088
:10546000DFE704460021404A491842EB0450CDE9E9
:10547000001012E0E00707D032463B46404649465E
:10548000FBF745F88046894632463B4610461946AA
:10549000FBF73DF806460F466410002CEAD1DDE923
:1054A0000401DDE90023BAF1000F06DAFBF72FF85B
:1054B00042464B46FBF72BF805E0FBF79AF84246CD
:1054C0004B46FBF796F804460E460022284BFBF7A6
:1054D00017F903D84FF0FF30014607E00022254BB3
:1054E00020463146FAF76CFFFBF7F2F8102409E08A
:1054F000002C0ADB0A220023FAF7FAFE039B303263
:105500001A55641E50EA0102F2D1641C039AC4F1D8
:1055100011031444119A012A03D0012208430DD12A
:105520000AE0084304D000204FF0110B119072E7FD
:10553000A3EB0B056D1E0DE05B4504DD4FF0000293
:1055400005F1010504E003DA4FF00002A5F10105C1
:10555000002AECD002981199C0E90231C0E9004557
:1055600079E70000000014400000F03F3000000028
:105570000000F0430000E03F2DE9FF4F95B09B464F
:105580008946064600250FE2252877D100242746C4
:10559000F84A0121059400E0044316F8013F203B3E
:1055A00001FA03F01042F7D130782A2811D06FF0B9
:1055B0002F033078A0F13002092A16D8059A44F05A
:1055C000020402EB820203EB42021044761C0590B7
:1055D000EFE759F8042B0592002A03DA504244F40D
:1055E0000054059044F00204761C30782E2816D121
:1055F00016F8010F44F004042A280DD06FF02F0292
:105600003078A0F13003092B09D807EB870302EBB0
:105610004303C718761CF3E759F8047B761C3078EF
:105620006C280FD006DC4C2817D068280DD06A28CB
:1056300014D104E0742810D07A280FD10DE044F47E
:1056400000140AE044F4801401E044F44014727839
:10565000824202D104F58014761C761C30786628CC
:105660000BD013DC582877D009DC002875D04528EA
:10567000F6D04628F4D047281AD19DE118E06328D7
:1056800035D0642879D0652812D195E1702873D07F
:1056900008DC6728F1D069286FD06E280DD06F28FC
:1056A00006D1B5E073282CD0752875D0782874D031
:1056B0005A46179990476D1C75E1C4F302500228B1
:1056C00009D003280DD0D9F8001004280DD00D60A2
:1056D00009F1040967E1D9F80010EA17C1E900529D
:1056E000F6E7D9F800100D80F2E70D70F0E719F831
:1056F000041B8DF8001000208DF80100EA460120FF
:1057000003E059F804AB4FF0FF3061074FF00001A0
:1057100002D40DE008F101018846B9420FDA804554
:10572000F8DB1AF808100029F4D108E008F10101AB
:1057300088468142FADB1AF808100029F6D105984C
:105740005B46A0EB080721463846179A00F094FA0A
:10575000284400EB080507E04DE029E10DE01AF8C8
:10576000010B5A4617999047B8F10108F7D25B46EA
:1057700021463846179A13E142E00A220092C4F308
:1057800002524FF0000A022A08D059F804CB032A2B
:105790004FEAEC710AD00DE029E02AE009F1070197
:1057A00021F00702F2E802C1914609E00FFA8CFCF1
:1057B0004FEAEC71042A03D14FFA8CFC4FEAEC71EA
:1057C000002907DA0A460021DCF1000C61EB020136
:1057D0002D2202E0220504D52B228DF8042001227F
:1057E00003E0E20701D02022F7E7904659E00A21C2
:1057F00002E010220DE010214FF0000A00910BE0B2
:1058000010224FF0000A44F004040827009203E03D
:1058100008224FF0000A0092C4F30252022A05D077
:1058200059F804CB0021032A08D009E009F1070147
:1058300021F00702F2E802C1914605E01FFA8CFC54
:10584000042A01D10CF0FF0C4FF00008220728D5E4
:10585000702806D0009B83F0100353EA0A0305D09A
:105860000EE040228DF80420012208E05CEA0102EB
:1058700006D030228DF804208DF8050002229046D3
:10588000009B83F0080353EA0A030AD15CEA010291
:1058900001D1620705D530228DF804204FF00108B0
:1058A0007F1E582804D034A003900EA802900DE06B
:1058B00036A0F9E753466046009AFAF719FD844688
:1058C0000398825C0298401E029002705CEA01001C
:1058D000F0D1029806A9081A00F1200A600702D543
:1058E00024F4803400E00127574502DDA7EB0A00CD
:1058F00000E0002000EB0A01009005984144401AA6
:105900000590E00306D45B462146179A059800F0FF
:10591000B3F90544002706E001A85A46C05D17996F
:1059200090476D1C7F1C4745F6DBE0030CD55B46BA
:105930002146179A059800F09FF9054404E03020AD
:105940005A46179990476D1C0099481E00900029EF
:10595000F5DC08E0029802995A460078491C029149
:10596000179990476D1CBAF10001AAF1010AF1DC08
:1059700065E1000009280100303132333435363713
:10598000383961626364656600000000303132338B
:10599000343536373839414243444546000000002B
:1059A00000F058F90544761C307800287FF4ECADFF
:1059B00019B02846BDE8F08F620700D4062709F128
:1059C000070222F0070CFCE80223E14603F000483E
:1059D0005FEA080C02D00FF2702C0DE05FEA045C65
:1059E00002D50FF2682C07E05FEAC47C02D00FF208
:1059F000602C01E0AFF2700C4FF0FF3823F0004351
:105A0000CDF850C065280CD006DC452809D04628C2
:105A10001DD047283DD13DE0662818D067287ED1AB
:105A200038E00021112F01DB112000E0781CCDE9C6
:105A3000000106A90EA8FFF7DDFCDDE90F010E9AB3
:105A400003910021009207F1010A04914DE04FF00B
:105A500000400097CDE9011006A90EA8FFF7CAFC87
:105A6000DDE90F0203920E9B11990022DDF80CA0D4
:105A70000093049211B9791C00EB010AB7EB0A00FC
:105A800004D4C0F1FF3007F1010A0490AAEB07002B
:105A9000019044E0012F00DA01270021112F01DDE0
:105AA000112000E03846CDE9000106A90EA8FFF755
:105AB000A1FCDDE90F010E9A0391002104910092EF
:105AC000BA4621070CD40399514500DA8A46BAF147
:105AD000010F05DD009AAAF10101515C302908D0BF
