:020000040800F2
:20000000A0210020DD010008091F00083D1D0008051F000889020008971F0008000000000A
:20002000000000000000000000000000EF010008E903000800000000F3010008931F00081E
:20004000F7010008F7010008F7010008F7010008F7010008F7010008F7010008F7010008A0
:20006000F7010008F7010008F7010008F7010008F7010008F7010008F7010008F701000880
:20008000F7010008F7010008F7010008F7010008F7010008F7010008F7010008F701000860
:2000A000F7010008F7010008F7010008F7010008F7010008F7010008F7010008F701000840
:2000C000F7010008F7010008F7010008F7010008F7010008F7010008F7010008F701000820
:2000E000F7010008F7010008F7010008F7010008F7010008F7010008F7010008F701000800
:20010000F7010008F7010008F7010008F7010008F7010008F7010008F7010008F7010008DF
:20012000F7010008F7010008F7010008F7010008F7010008F7010008F7010008F7010008BF
:20014000F7010008F7010008F7010008F7010008F7010008F7010008F7010008F70100089F
:20016000F7010008F7010008F7010008F7010008F7010008F7010008F7010008000000007F
:20018000F7010008F7010008F7010008F7010008F7010008F7010008F7010008F70100085F
:2001A000F7010008F7010008F7010008F7010008811F0008F7010008F7010008F701000897
:2001C000F7010008F7010008DFF80CD000F04AF80048004719260008A0210020064880476E
:2001E00006480047FEE7FEE7FEE7FEE7FEE7FEE7FEE7FEE7FEE7FEE785250008C9010008F4
:2002000040EA01039B0703D009E008C9121F08C0042AFAD203E011F8013B00F8013B521EC2
:20022000F9D27047D2B201E000F8012B491EFBD270470022F6E710B513460A4604461946B2
:20024000FFF7F0FF204610BD30B504460020034600E05B1C934203D2E05CCD5C401BF8D065
:2002600030BD0000064C074D06E0E06840F0010394E8070098471034AC42F6D3FFF7A8FF8F
:20028000302700085027000801F0B2BEF0B521480168890312D4BFF34F8F0021BFF36F8FD5
:2002A000C0F83C12BFF34F8FBFF36F8F016841F400310160BFF34F8FBFF36F8F0168C90353
:2002C00026D4002143F6E07C0167BFF34F8FC26EC2F34E31C2F3C9039A0701330CEA411570
:2002E00016461F4646EA050406F14046013FC0F84C42F7D14C1E00292146EFD1BFF34F8FEF
:20030000016841F480310160BFF34F8FBFF36F8FF0BD00BF14ED00E070B58B1C54084CB17B
:2003200033F8025C1E880433013C46EA054506683560F4E7D30701D1006805E022F00102B4
:20034000006831F812100180006870BD70B54B1C94083CB153F8016C056836BA2E600433E5
:20036000013CF6E702F00303032B09D0022B14D0012B1BD122F00302895C0268117015E05F
:2003800022F00302541C8B5C0C5D023244EA032304682380895C217008E022F003028B5C93
:2003A0000132895C026841EA032111800068006870BD000010B501686FF00F0252FA81F281
:2003C0001823B2FBF3F306A45F2AE35C40F2FF3421EA040188BF0431C0E91613084610BDFF
:2003E000000610160006101670472DE9F04FC1B091468A468046541801F004FD5046214660
:2004000001F0CCFED0B90DF1040B4F4646465546B7B13C46B7F5807F28BF4FF4807458467E
:2004200031462246FFF7ECFE58462946224601F096FF18B93F1B26442544E9E701200BE028
:2004400001F0E0FC01F0F4FE404651464A46FFF7FBFE002818BF012041B0BDE8F08F00001B
:20046000524A0329136823F4407313604FF4407338BF0B02116819431160116821F0F80139
:200480001160116841EAC00040F002001060106840F480301060BFF34F8F704700F1784128
:2004A000B1F5003F02D2C1F3C73070470E4A02F5003100EA01030D498B4201D1042011E0A9
:2004C00002400B48824204D00A48824203D1062008E0052006E001F520214FF0FF308A427B
:2004E00008BF0720C0B270470000FCFF0000020800000408000008082C490A6822F4407215
:200500000A600A6842F004020A600A6842EA002040F480300860BFF34F8F7047234A136824
:2005200023F44073136013681360136843F0010313600170BFF34F8F704700BF10B51B49CB
:200540000C6824F440740C600C6844F440740C600C6844F001040C6002604360BFF34F8F75
:2005600010BD00BF114A136823F440731360136843F480731360136843F00103136001801E
:20058000BFF34F8F704700BF084A136823F440731360136843F400731360136843F0010301
:2005A00013600160BFF34F8F704700BF103C024029480168890704D526498A6942F02002DA
:2005C0008A610168C90604D522498A6942F010028A610168890604D51E498A6942F008022B
:2005E0008A610168490604D51A498A6942F004028A610168090604D516498A6942F002022D
:200600008A61F22101607047F8B5044611480021114E816100F0EEFB0546671C3068C00310
:2006200009D5002FFAD024B100F0E4FB401BA042F4D90320F8BD306810F0F20F03D0FFF7FB
:20064000B7FF0120F8BD3068C00701D0012030600020F8BD800100200C3C0240FEB5016910
:20066000044601F17840B0F1094F01D9012245E04FF4005042F20402085800272060461E33
:200680008D5842F20802656042F20C038A58B7EB165FA260CB58E36001D002222EE0013595
:2006A000022D01D2032229E00132022A01D2042224E00522B3F1006F20D300F10165AB423D
:2006C0001CD84FF0FF320E4DCDE9010228464FF4006200F065F801A92846022200F039F8E5
:2006E000206842F208022169801A11448208284600F02FF86168421A18BF0622D0B2FEBD4B
:200700001001002010B51F2321FA03F4E40704D1013B5C1CF8D14FF0FF330124B4EBF20F1C
:2007200009D04FEAF204022C10D0032C05D1062B03D9012010BD0F2BFBD8006841618168A3
:2007400021F0180111438160002010BD072BF0D8F3E710B5037F04460220012B1FD06077D4
:2007600001202077206A012809D002280BD003280DD172B101C923681860013AF9E72046B6
:20078000FFF7E4FD07E02046FFF7C6FD03E0002001E020680068002121770121617710BD28
:2007A000B0B5037F04460220012B22D06077012020772068236A8568012B45F001058560EB
:2007C00008D0022B0AD0032B0CD16AB108C9013A0360FAE72046FFF7B9FD06E02046FFF770
:2007E0009BFD02E0002000E000680021217701216177B0BDB0B598B10446407F02250228EF
:200800000FD0657700252068816841F00101816001790571204600F03FF82577657700E09E
:2008200001252846B0BD000010B588B10446407F20B900202077204600F02FF802206077AA
:20084000207938B1D4E902122046FFF75BFF40B1012010BD20680F494161816821F018011B
:200860008160607908B1206901E04FF0FF302168D4E905230861886820F0600010438860BB
:20088000886820F080001843886001206077002010BD00BFB71DC1047047704770B504467B
:2008A000866D00F0A7FA054694F8350002281ED12068216C026822F016020260426922F0C7
:2008C0008002426109B9A16C19B1016821F008010160016821F0010101600068C0070DD08D
:2008E00000F088FA401B052814D82068F5E7002084F8340080206065012070BDE06D3F217E
:2009000001FA00F00121B060002084F8340084F8351070BD20206065002084F83400032004
:2009200084F8350070BD90F83510022909D1052180F835100068016821F0010101600020BF
:2009400070478021416501207047B0B530B1054690F83500022803D102241BE0012419E036
:2009600028680024016821F0010101602121046044608460C460046141612846FFF71AFD12
:20098000E96D3F2202FA01F181606C6585F8344085F835402046B0BD80B509484FF0FF3155
:2009A0000022016102614161426101600260416042608160826000F07DFA002080BD00BFBF
:2009C00010380240F8B5204800F0F1FB01F0D0F900F0D0FFFFF7E0FFBFF34F8FBFF36F8F0E
:2009E0001A4843F6E07C016821F4003101600021C0F83C12BFF34F8FBFF36F8F0167BFF36F
:200A00004F8F016821F480310160BFF34F8FC26EC2F34E31C2F3C9039A0701330CEA4115D2
:200A200016461F4646EA050406F14046013FC0F86042F7D14C1E00292146EFD1BFF34F8F93
:200A4000BFF36F8FF8BD00BF3401002014ED00E02DE9F041DFF81481054698F81400012871
:200A600002D10220BDE8F08101200C4688F814004CF25030FFF7C8FD58BB4FF0FF303C4FDF
:200A80002060286801280BD1287BFFF735FD4CF25030FFF7B9FD396821F00401396018E0C4
:200AA00068680646A968084486420FD2297B3046FFF7D6FC4CF25030FFF7A6FD396821F029
:200AC0007A01396020B968680136EBE7002000E02660002188F81410BDE8F081244801681A
:200AE00041F0004101600020704700BF2DE9F041DFF87880074698F81400012802D1022068
:200B0000BDE8F08101201E4688F814004CF2503014460D46FFF778FD10BB032F17D8DFE81D
:200B200007F002070C11E1B22846FFF7F7FC0EE0A1B22846FFF716FD09E028462146FFF742
:200B400023FD04E0284622463346FFF7F7FC4CF25030FFF759FD06490A6822F001020A600F
:200B6000002188F81410BDE8F08100BF80010020103C02400648C168B1F1FF3FC4BF0120B1
:200B8000704704490160044901600020704700BF043C024023016745AB89EFCD2DE9F04F15
:200BA0008E4A4FF00A0A90428D4A024408BF4FF0090A4FEAB2234FF0000E092B38BF4FEA43
:200BC000B22A884A01264FF00F09A2F57E7B4FF000080025102D49D006FA05F20A423FD045
:200BE0000323076803FA0EF46FF00303A74303EA550C076008F01C0700EB0C0309FA07F747
:200C00001E6ABE431E628368A3438360436893434360C368A343AC08C36008F00C0309FA01
:200C200003F75BF824603E400AFA03F39E424FF0010615D15BF82430D243BB434BF824300E
:200C4000684B1C461B6813402360636813406360A3681340A360644B1C461B681A40226074
:200C60000EF1020E08F104080135B3E7BDE8F08F2DE9F84F594A4FF00A099042584A024460
:200C800008BF4FF009094FEAB2234FF0000E092B38BF4FEAB2294FF0010A4FF00F084FF0C3
:200CA000000B0022102A00F096800AFA02F60C68344200F08A804F6847F01004122C11D1C5
:200CC0006FF003030BF01C0403EA520508FA04F70544D5F820C00B692CEA0707A3403B4364
:200CE0002B624F68032407F0030304FA0EF4056803FA0EF3A5432B43E443122F036012D816
:200D00000AFA07F313F0061F0DD08368CD68234005FA0EF52B438360C7F3001345689340AD
:200D2000B5432B434360C36823408C6804FA0EF42343C360FB0048D52C4B22F003051C4694
:200D40001B6843F48043274F2360BC4623683D4403F4804300930BF00C03009F08FA03F420
:200D6000234F09FA03F3B846EF5927EA0404234345F808304FF00F08DCF800304D6843EA92
:200D80000604EF0358BF23EA0604CCF80040DCF80430AF0343EA060458BF23EA0604CCF842
:200DA0000440DCF80830EF0243EA060458BF23EA0604CCF808400C4BAD021F461B6843EA66
:200DC000060458BF23EA06043C600EF1020E0BF1040B013266E7BDE8F88F00BF0024024054
:200DE0000000FEBF003C01400C3C01404438024008FCFFFF1B480068704700BFB0B5C0B159
:200E000004460068D4E901124CF6CC43036045F25553036041608260FFF7ECFF0546206823
:200E2000C16841B1FFF7E6FF401B3028F7D90320B0BD0120B0BDE16802698A4203D14AF687
:200E4000AA21016000E001610020B0BD00684AF6AA210160002070470248016801310160A6
:200E6000704700BF9C01002080B50748016841F400710160032000F05BF80F2000F006F8C8
:200E800000F019F8002080BD003C024010B50446074800684FF47A71B0FBF1F000F03AFFCD
:200EA0004FF0FF302146002200F026F8002010BD000000207047704700280CD400F01F019A
:200EC000012202FA01F14009034A42F82010BFF34F8FBFF36F8F704780E100E0002808D4C5
:200EE00000F01F01012202FA01F14009014A42F82010704700E100E0B0B5134B4FF0FF3525
:200F00001B68C3F30223DC1E83F0070338BF0024042B28BF042305FA03F3994305FA04F3DD
:200F2000A1409A431143BDE8B04001F051BB00BF05494FF6FF030A681A4060F30A22034823
:200F400010430860704700BF0CED00E00000FA05BCB51848184D016841F08051016000681E
:200F600000F0805001900198286840F480302860FFF740FF04466868C00306D4FFF73AFF70
:200F8000001BB0F57A7FF6D90FE0286840F400302860FFF72FFF04466868800307D4FFF7CC
:200FA00029FF001BB0F57A7FF6D90320BCBD0020BCBD00BF40380240007000407CB50446A8
:200FC000FFF718FF054694F8410080074FF000002BD584F840002068016849070BD50168E0
:200FE00021F004010160E06BFFF758FC18B1606C40F0040060642068A16C02682B4642F0B6
:20100000020202260260204600910221012201F07DF950B92068A16CC660204600912021A2
:2010200000222B4601F072F900B17CBD012084F8410000207CBD704780B590F8411089074B
:2010400021D5002180F84010082180F8411001680A6822F4F8120A600A6852070AD402208F
:20106000C860086840F400300860086840F00200086008E0C06BD94A02650A6822F00402DB
:201080000A60FFF750FC002080BD00BF2DE9FC411D46174688460446FFF7ACFE064694F8E5
:2010A0004000012802D10220BDE8FC81012084F8400094F84100012832D1002020216064B5
:2010C000422084F84100204600223346009501F01DF930BB97E80E10206881624262C36298
:2010E000C8F828C03969026822F4400211434FF0006241F4800101602046414600F088FF74
:20110000204608210122334600950825012701F0FDF830B92068C560002084F8417000E011
:201120000220002184F84010BDE8FC817047F8B515460F460446FFF75DFE064694F84000B7
:20114000012801D10220F8BD012084F84000022094F84110012921D100210022616420217C
:2011600084F8410020463346009501F0CFF8A8B920463946002200F04BFF786A20B1012010
:2011800084F84100002009E0204602210122334600950225012701F0B9F818B1002184F878
:2011A0004010F8BD2068C56084F84170EAE710B50446006828B194F84010012903D1022033
:2011C00010BD012010BD012184F84010016821F00101016000F0A6F90020606484F8410059
:2011E00084F8400010BD70477047000010B5016804468A680868530718D510F4802315D04B
:2012000094F84100122838D108468268520763D5E26A002A5CD0606A421C6262007881F876
:2012200020002068E26A013AE262EEE7930739D510F4003336D00220C860086820F4E020B3
:20124000086094F8410012284BD10868400709D5086820F004000860E06B0068016821F055
:20126000010101602046FFF7E7FE012084F841002046BDE8104000F0EFBA94F841002228E1
:201280002AD108468268520726D5A26B02B391F82000226B531C236310702068A26B013A8A
:2012A000A263EFE7130725D510F4002322D00820C8600868400206D5086820F4102008602D
:2012C000012084F841002046BDE8104000F065BA016821F4802101602046BDE81040FFF7F5
:2012E00083BF94F84100222815D1086840072ED4084650E0D30718BF10F4803317D1D20650
:201300003ED510F480103BD01020C8602046BDE8104000F043BA94F84100022822D1012070
:2013200084F841002046BDE81040FFF7FFBE0120C8600A6822F470220A60626C42F0020211
:2013400062640A68520738D484F8410013E0086820F004000860E06B0068016821F0010125
:2013600001601FE094F84100082809D1012084F84100606C60B32046BDE81040FFF733BF36
:2013800010BD91F82000226B531C236310702068A26B013AA263806810F4F85F1CBFA06BD7
:2013A0000028EED12046FFF747FE012084F841002046BDE8104000F0EFB9E06B074A0265D1
:2013C0000A6822F004020A60BDE81040FFF7ABBA2046BDE81040FFF72EBE00BF6B21000839
:2013E0002DE9FC410446FFF705FD3CB1054694F84000012805D10220BDE8FC810120BDE84B
:20140000FC81012084F8400094F8410008B1A06C08E0002084F84000204600F0BDF841F2DE
:201420008830A0642168A2686FF0FF034FF0000803EB02220B6823F4F8531A432B460A6096
:20144000202100902046002200F060FF08BBD4E90012D4E903350F68104E3E40334343EA67
:201460000262E3691A43236A1A430D4B0A604A681A4063691A43A36942EA05421A434A60F8
:201480000A6842F001020A600121C4F8448084F8411084F84080BDE8FC8100BF2FFFFF0082
:2014A000FEF8E0FF7CB516460D460446FFF7A2FC034694F84000012801D102207CBD01200D
:2014C00084F8400094F84100012826D1002020216064822084F841000022A06C00902046BB
:2014E00000F014FFD0B9206871680268082922F0080242EA0102026007D1316801631021B1
:20150000C160016841F480110160204629464FF0406200F07DFD002000E00220002184F83B
:2015200040107CBD70B54620FFF7C6FC5C20FFF7C3FC154815490160FFF707FA644C144E89
:20154000A4F5805540212846B04728460421B04720464FF48071B04720464FF40071B0472B
:2015600020468021B04720464021B0470948016841F002010160016821F002010160016A17
:2015800021F00201016270BDAC000020B86402409D0B0008183802402DE9F04786B04B4825
:2015A0004FF00A0981684A4C41F00201A4F58056816001AD81684FF0400801F00201454F30
:2015C0000191019950F8181C41F0020140F8181C50F8181C21F0020140F8181C016841F02D
:2015E00002010160016801F0020101910199016841F002010160016801F002010191019977
:20160000016841F020010160016801F0200101910199016841F020010160016801F0200170
:2016200001910199016841F020010160016801F0200101910199016841F020010160294630
:20164000006800F0200001900198CDF814900320049001200390022002903046CDF80480A1
:20166000B8474FF0090A0020CDF814A029460390042001903046B8474FF48070CDF81490B8
:20168000019020462946B8474FF40070CDF81490019020462946B8478020CDF814A00190BA
:2016A00020462946B84720462946CDF814A0CDF80480B8475C200F210022FFF71DFC5C2067
:2016C000FFF70CFC06B0BDE8F08700BF3038024000140240710C00082DE9FC41154688467A
:2016E0000446FFF787FB27680646B86994F84010012902D10220BDE8FC81012184F8401021
:2017000094F84110012929D10021B8F1000F616426D02221012284F8411039690131A16329
:20172000396901316163796962F39B617961C4F83080B861A06BC8B12046062101223346D2
:20174000009500F0E3FDF8B997F82000216B4A1C22630870A06B0138A063EBE7022016E0A4
:20176000606C40F008006064012010E020460221012233460095022500F0C8FD20B9206899
:20178000C5602046FFF71AFC012184F84110002184F84010BDE8FC817047704770472DE979
:2017A000FC41154688460446FFF724FB0646276894F84000012802D10220BDE8FC8101205C
:2017C00084F8400094F84100012827D10020B8F1000F606424D0122084F84100386901300E
:2017E000E06238690130A062C4F82480786920F040607861E06AC8B120460421012233461F
:20180000009500F083FDF8B9606A411C6162007887F82000E06A0138E062EBE7022016E062
:20182000606C40F008006064012010E020460221012233460095022500F068FD20B9206838
:20184000C5602046FFF7BAFB012184F84110002184F84010BDE8FC81704700002DE9F04156
:20186000002800F08280544B0446D3F800040D4600F00F0088420CD2D3F8000420F00F00AE
:201880002843C3F80004D3F8000400F00F00A8426BD12068810705D5A1689A6822F0F00231
:2018A00011439960C0072AD06068012803D11968890308D459E01968022802D1890102D455
:2018C00053E0890751D59968984621F0030108439860FFF78FFA064641F288376068D8F893
:2018E000081001F00C014346B1EB800F07D0FFF781FA801BB842F1D90320BDE8F081D3F873
:20190000000400F00F00A8420CD9D3F8000420F00F002843C3F80004D3F8000400F00F000F
:20192000A84222D12068410705D5E1689A6822F4E05211439960000706D52069996821F4BF
:20194000604141EAC00098601C4600F03FF8A168074AC1F30311515CC8401B4908600F20A8
:20196000FFF794FA0020BDE8F0810120BDE8F08120270008E548114B016841F08101016021
:201980000021816002681A400D4B0260416042681A430C4B4260C0F88410D0F884201A4311
:2019A000C0F88420026822F480220260C160064818490160704700BF00380240FFFFF6FA38
:2019C0001030002400300020000000201049486800F00C020F48082A03D0042A17D10E4864
:2019E00070470A680B685B020B4B58BF034602F03F00B3FBF0F00A68C2F388120968C1F393
:201A000001415043022202EB4101B0FBF1F07047043802400024F40000127A002DE9FC41E6
:201A2000002800F0B18004460078B84EC0074AD0B06800F00C00042817D0B06800F00C0079
:201A4000082802D1706840020FD4606898B1B0F5803F06D03168B0F5A02F21D141F4802067
:201A60003060306840F4803020E0306880032AD5606840BB88E0306820F480303060306891
:201A800020F480203060FFF7B5F905463068800319D5FFF7AFF9411B03206429F6D92FE181
:201AA00021F480303060306820F480203060FFF7A1F905463068800305D4FFF79BF9401B41
:201AC0006428F7D9EFE0207880072DD5B06810F00C0F07D0B06800F00C00082809D17068BA
:201AE000400206D43068800717D5E068012814D04AE03068E168002900F0998040F00100FC
:201B00003060FFF777F905463068800705D4FFF771F9401B0228F7D9C5E02069316821F0FF
:201B2000F80141EAC00030602078000720D5706F616971B140F001007067FFF75BF9054635
:201B4000706F800714D4FFF755F9401B0228F7D9A9E020F001007067FFF74CF90546706FC8
:201B6000800705D5FFF746F9401B0228F7D99AE0207840070BD4A769002F00F0C380B068B8
:201B800000F00C00082835D10120BDE8FC81306CC0000BD4306C4FF0010840F0805030641D
:201BA000306C00F080500190019801E04FF00008574F3868C0050FD4386840F4807038602D
:201BC000FFF718F905463868C00505D4FFF712F9401B6428F7D966E0A068C8B3012805D0F6
:201BE000316F05284BD141F004003067306F40F001004AE0306820F080703060FFF7FAF826
:201C00000546022F09D13068800158D5FFF7F2F8411B03200229F6D972E03068800171D51E
:201C2000FFF7E8F8411B03200329F6D368E020F001003060FFF7DEF80546306880077FF5C7
:201C400073AFFFF7D7F8411B03200229F5D957E0306F20F001003067306F20F0040030675D
:201C6000FFF7C8F8054641F28837306F80071DD5FFF7C0F8411B0320B942F6D940E021F031
:201C800001003067306F20F004003067FFF7B2F8054641F28837306F800707D4FFF7AAF8EC
:201CA000401BB842F7D90320BDE8FC81B8F1000F3FF461AF306C20F0805030645BE71C341D
:201CC0001FCC0843D90340EA82104FF6FF72914340EA0460A1F58031084340F0005070603C
:201CE000306840F080703060FFF784F804463068800107D4FFF77EF8011B03200229F6D947
:201D0000BDE8FC810020BDE8FC8100BF0038024000700040411E0020B0EB116F01D00120EA
:201D20007047044AF023516003490B70072190601160704710E000E023ED00E000F058B912
:201D40008068896881EA00020023B3EB126F01D00120704721F07F4120F07F40884201D116
:201D6000022070474FF0000088BF03207047000010B5084C206A20F4805020621548FEF7CF
:201D800039FD206840F480502060206820F48050206010BD10380240E0B50D49032208683E
:201DA00040F4805008600B4802620022C0E905228280A1F503620260096801F480510191E6
:201DC0000199FEF731FD00B98CBD00F011F900BF303802401001002080B50848084940F8A2
:201DE000041F40F6FF710422C0E90121C160FFF705F800B980BD00F0FBF800BF5C00002001
:201E000000300040F8B5784F784C00263D46201D482105F81C6BFEF70CFA28463821FEF790
:201E200008FA381D1821FEF704FA354820602046FFF7BDF94FF48070172110220423022525
:201E4000C4E90153C4E90321C4E905062046C4E90766FFF7C5FA206881688906FCD442F2BF
:201E60006611416100218161C1610161BFF34F8F206881688906FCD442F2991141610021C1
:201E80008161C1610161BFF34F8F206881688906FCD442F26621416100218161C161016198
:201EA000BFF34F8F206881688906FCD442F29921416100218161C1610161BFF34F8F206893
:201EC00081688906FCD442F26631416100218161C1610161BFF34F8F206881688906FCD466
:201EE00042F29931416100218161C161016141F28830BFF34F8FBDE8F84000F04FB800BFAD
:201F0000001000A000F074B87047F0B585B00D460646002002210490144603910090284602
:201F2000FEF7BCFA074601906019FEF7B7FAC01B01300290FEF71EFE684604A9FEF788FD75
:201F400008B1049818E00027A7420AD2F259E91902200023FEF7CAFD04370028F4D00120B2
:201F60000AE0FEF7BBFD304629462246FEF76CF90490002818BF0120C0B205B0F0BD00009B
:201F8000E148FFF733B900BF80B51421FEF751F980BDFEF761BF00F02BB87047B0B5034644
:201FA000D84A00204FF0807142F8040F4FF480741025C2E91100D064C2E90B04C2E90D0094
:201FC000D16301214FF48004C2E90115C2E9031005201146546141F8180FCB48FFF756F87D
:201FE000002818BF0120B0BD0800002034010020FEF7E8FC8D480430FEF728FF00F0FAFAF5
:20200000582700003163BDC709082035000000082DE9F0414B6AB2F1406F18BF002B03D098
:202020008D6A0468013D25618C690D6A74B3002D48D0D0F800C08F68D1E904E8CE69CCF881
:202040001C702B43486BD1E90B57002E43EA050343EA070340EA030040EA884040EA0E03C3
:2020600049D044EA0200CC683043B2F1406F40EA03000B6840EA040040EA0300CCF814004B
:2020800071D04868CCF81800BDE8F081E5B300688E68D1E904CECC69C66101F12C072B43EC
:2020A000E0CF002C43EA050343EA060343EA070343EA8E4343EA0C0340D014432343CC6868
:2020C000234333E0D1E90B764D6BD1F814C03B43D1F81CE03343BEF1000F43EA050343EA1E
:2020E0008C432ED01443CD6844EA0E0423430C682B43234319E044EA020009681843084359
:20210000CCF81400BDE8F081CC69FCB113434D69D1E90B6723434C6B3343D1F80CC03B4311
:20212000234343EA854343EA0C030068B2F1406F436118D049688161BDE8F08143EA0201E9
:2021400010E0224309681A4311430AE05BB1D1E90B451A434B692243496B2A43114341EAF2
:20216000834100684161BDE8F081806B00218163C16290F8411008290BD100680221C160D6
:20218000016841F400310160016841F0020101607047012180F84110FFF725B82DE9F04F47
:2021A0008FB00C464FF6FF7120EA01074FF400594FF0000A1B4DDFF838B301AEDFF868804A
:2021C000A7422AD84FF480600890D82001904FF48070CDF81090CDE909AACDF838A0CDE97C
:2021E0000CAACDE906A007EA0500029000F00EF988B95846314641F28832FEF798FF50B976
:2022000040F6B830FFF7CAFE28B94046FEF71EFE07F58037D4E7012000E000200FB0BDE877
:20222000F08F00BF0000FF0F600000205C000020FEB5924C0020217800295DD185222146A7
:2022400041F81C2F4FF480724FF0807301254863C1E90502C1E90700C1E90935C1E90B00C3
:20226000A34841F28832FEF762FF002843D1A0480DF10B0141F28832FFF72EFAD8BB00F074
:20228000C5F8C0BB9DF80B100A2041F2883260F31F1181208DF80B10214641F81C0F9448D4
:2022A000FEF745FF38BB92480DF10B0141F28832FFF775FAF8B9EB20214641F81C0F002015
:2022C0004FF400524FF480734FF440654FF040760A270190C1E90B0048634860C1E90320BF
:2022E000C1E90573C1E90750C1E9096080486A46FFF7D8F808B10120FEBD01202070002004
:20230000FEBD00BF08000020340100202DE9F843DDF82090984616460F46044609F1010517
:2023200020688068384018BF0120B04214D0002DF6D0B9F1000F05D0FEF75CFDA0EB080085
:202340004845EDD9042084F84100606C40F0010060640120BDE8F8830020BDE8F8832DE9F1
:20236000F8430446C8B217460D465FFA82F8160AE0B1C0F5807946B328464946224600F02E
:202380007FF8E8BBA7EB09004C44C7B24D44060A7EB328464FF48071224600F071F878BB17
:2023A000013E04F5807405F58075F1E716B3D6B128464FF48071224600F062F800BB013E8C
:2023C00004F5807405F58075F1E7C84512D928464946224600F054F809EB0500A8EB09011A
:2023E00004EB090209E0B8F1000F0CD02846414602E047B128463946224600F041F810B158
:202400000120BDE8F8830020BDE8F883B0B51B4C06202146002541F81C0F4FF4807041F2F3
:202420008832C1E90B554D63C1E905503048C1E907554D62FEF77BFE0146012001B1B0BD07
:2024400005214FF0807244F81C1F02211023C4E909204FF4800244E9051344E9030544F807
:20246000042C224642F8181D2148214641F28833FEF70CFE002818BF0120B0BD08000020E3
:2024800010B58EB014464FF440620792122200924FF4807206924FF4005203924FF04072B3
:2024A0000992002220F070400892CDE90C22CDE90A1205920190FFF7A9FF68B90C48694665
:2024C00041F28832FEF733FE30B90948214641F28832FFF764F910B101200EB010BD41F268
:2024E0008830FFF75BFD002818BF0120F5E700BF340100201CB50446006809490840B0F108
:20250000005F0BD1FEF75EFA60680190054801990160216881F30888006880471CBD00BF3E
:202520000000FC2F0C01002080B592B00220C821CDE90B000A91042109914FF48001CDE92C
:2025400007014FF4803002900120019001A8FFF765FAA8B9FEF7FCFC90B94FF4805006216D
:2025600011904FF4A050109000200F9002200E900F200D900DA8FFF771F908B912B080BDC7
:20258000FFF736FD10B50E480F4CD0F8801041F47001C0F880100B490A6842F001020A60F1
:2025A00000228A600B6823400B60084B4B600B6823F480230B60CA604FF00061016010BD40
:2025C00008ED00E000380240FFFFF6FE1030002410B500F00F03064C2344044AB0F1FF3FA9
:2025E000C8BF83180801187010BD00BF00E400E014ED00E0BFF34F8F0548064A016801F46C
:20260000E06111430160BFF34F8F00BFFDE700BF0CED00E00400FA05FDF738FEFEF724FCB7
:20262000FFF782FFFFF7D8FBFFF7B6FBFFF7EAFBFFF7FEFD304C04F114063046FFF7A4FC50
:2026400004F128073846FFF79FFC2C4D05F56020A0632B48804660623046FDF7FFFF20705E
:202660003846FDF7FBFF607030463946FFF768FBE07090B1207898B304F13C063046FFF7B9
:2026800083FC3046E564FDF7E9FFA07008B3607820BBD4E90D10A26A1EE06269606A2946BA
:2026A000FDF7A3FE30BBFFF7ADFBFFF7C1FD251D2846FEF7CBFBD4E90D10A26AFFF725FCE0
:2026C000C0B9FFF79FFBFFF7B3FD2846FEF7BEFB04E0D4E91210E26BFFF717FC207810B9B5
:2026E000206AFFF707FF4046FFF704FF201DFEF7ADFBFEE7FFF77CFC5C0000200000E290BA
:202700000000010802E008C8121F08C1002AFAD17047002001E001C1121F002AFBD17047B7
:20272000000000000000000001020304060708095027000800000020080000000427000897
:18274000582700080800002098210000122700080024F40000000000C0
:020000040801F1
:2000000008770320DD010108C9740108A1690108C5740108A30C01088997010800000000DB
:20002000000000000000000000000000EF010108D91A010800000000F30101086D860108D2
:20004000F7010108F7010108F7010108F7010108F7010108F7010108F7010108F701010898
:20006000F7010108F7010108F7010108F7010108F7010108F7010108F7010108F701010878
:20008000F7010108F7010108F7010108F7010108F7010108F7010108F7010108F701010858
:2000A000F7010108F7010108F7010108F7010108F7010108F7010108F7010108F701010838
:2000C000F7010108F7010108F7010108F7010108F7010108719701087D970108F7010108EC
:2000E000F7010108F7010108F7010108F7010108F7010108F7010108F7010108F7010108F8
:20010000F7010108F7010108F7010108F7010108F7010108F7010108F7010108F7010108D7
:20012000F7010108F7010108F7010108F7010108F7010108F7010108F7010108F7010108B7
:20014000F7010108F7010108F7010108F7010108F7010108F7010108F7010108F701010897
:20016000F7010108F7010108F7010108F7010108F7010108F7010108F70101080000000078
:20018000F7010108F7010108F7010108F7010108F7010108F7010108F7010108F701010857
:2001A0008D720108F70101088D1A0108F701010809810108F7010108F7010108F7010108EF
:2001C000F7010108F7010108DFF80CD000F084FB00480047999F0108087703200648804774
:2001E00006480047FEE7FEE7FEE7FEE7FEE7FEE7FEE7FEE7FEE7FEE789860108C90101088D
:2002000010B5441A0346944209D28318114403E011F8014D03F8014D521EF9D210BD40EA1C
:200220000104A40703D009E010C9121F10C3042AFAD203E011F8014B03F8014B521EF9D2C1
:2002400010BDD2B201E000F8012B491EFBD270470022F6E710B513460A4604461946FFF751
:20026000F0FF204610BD421C10F8011B0029FBD1801A704730B504460020034600E05B1CA5
:20028000934203D2E05CCD5C401BF8D030BD034611F8012B00F8012B002AF9D11846704794
:2002A0002DE9FE4F804681EA0300C00F0C46009021F0004123F00045B8EB0200A94105D2E6
:2002C0004046214690461C460B46024623F00040104347D0270DC7F30A00C3F30A51029008
:2002E000401A019040286BDAC3F3130040F4801B0098924620B10023D2EB030A63EB0B0B3C
:2003000001985946C0F14002504600F0D8F906460D4650465946019A00F0F0F910EB080010
:200320006141002487EA115284EAE7731A4340D0009A62B3019A012A4FEA075215DC001BDB
:2003400061EB02014FF0004202EA0752CDE90042001C41F5801132462B4600F027FA03B000
:20036000BDE8F08F40462146F9E7001B61EB0201001C41F5801300185B412018A2F50017A3
:2003800047EB030140EAD570B6196D4111E06D084FEA360645EAC0754FEA0752001B61EB03
:2003A0000201001C41F5801149084FEA30000019514132462B4603B0BDE8F04F00F0E7B9E2
:2003C0000098012240000023D0EB020263EBE073009821464FEAE074B8EB000061EB04011F
:2003E000E9E783F000435BE781F0004158E72DE9FE4F81EA030404F0004421F00041009451
:200400004FF0000B23F0004350EA01045ED052EA03045BD0C3F30A54C1F30A552C44A4F234
:20042000F3340194A0FB0254C1F3130141F48011C3F3130343F4801301FB024400FB034E5D
:20044000840A970A44EA815447EA8357A4FB076802958D0A05FB07854FEA932C04FB0C5440
:200460002705029D4FEA065847EA1637B5EB08056EEB070C870E920E47EA811742EA8312C4
:20048000A7FB0201B6EB0B0164EB00042B0D43EA0C335E1844EB1C50DA465146E7FB020166
:2004A000C5F313044FEA0B3343EA14534FEA0432019C43EA0603A4F10C040294009CCDE993
:2004C00000B400F073F903B0BDE8F08F00200146F9E72DE9F04D81EA030404F0004B21F0D9
:2004E000004514464FF0000A23F0004150EA050220D054EA01021DD0C5F30A570246C5F348
:200500001303C1F31300C1F30A5640F4801543F48013A7EB0608101BD64608F2FD3873EBE3
:20052000050002D308F1010801E092185B41B8F1000F03DA00200146BDE8F08D00204FF437
:200540008011064684460EE0171B73EB050705D3121B63EB050306434CEA010C49084FEAF9
:20056000300092185B4150EA0107EDD152EA030012D082EA040083EA0501084305D0101BB6
:20058000AB4106D20122002306E000224FF0004302E06FF0010253101AEB06004CEB085185
:2005A00010EB0A0041EB0B01BDE8F04D00F0EFB80EB5C10F80EAE0700844CA07002140F2C8
:2005C00033438DE80E000A460B4600F0EFF803B000BD00F0004230F000400AD0C10D01F50A
:2005E0006071C0F3160042EA0151C20840071143704700200146704701F0004330B421F080
:20060000004150EA010206D00A0DA2F56072C1F31301002A02DC30BC00207047440F44EAF2
:20062000C104C100E01830BC00EBC25000F078B830B50B46014600202022012409E021FA2B
:2006400002F59D4205D303FA02F5491B04FA02F52844151EA2F10102F1DC30BD2DE9F05F4B
:200660000546002092469B4688460646814640241BE0284641464746224600F02FF853467C
:200680005A46C01A914110D311461846224600F016F82D1A67EB01084F462246012000212F
:2006A00000F00DF817EB00094E41201EA4F10104DFDC484631462A464346BDE8F09F202A9C
:2006C00004DB203A00FA02F1002070479140C2F1200320FA03F3194390407047202A04DB5A
:2006E000203A21FA02F00021704721FA02F3D040C2F120029140084319467047202A06DB69
:20070000CB17203A41FA02F043EAE07306E041FA02F3D040C2F120029140084319467047C3
:200720000029A8BF7047401C490008BF20F00100704710B4B0FA80FC00FA0CF050EA01041F
:2007400004BF10BC704749B1CCF1200421FA04F411FA0CF118BF012121430843A3EB0C011A
:20076000CB1D4FEA00614FEA102042BF002010BC704700EBC35010440029A4BF10BC704789
:20078000401C490008BF20F0010010BC704710B5141E73F1000408DA401C41F100019218DF
:2007A0005B411A4301D120F0010010BD2DE9F04D92469B4611B1B1FA81F202E0B0FA80F2A6
:2007C00020329046FFF77BFF04460F4640EA0A0041EA0B0153465A46084313D0114653EA7C
:2007E000010019D0C8F140025046FFF777FF05460E46504659464246FFF761FF084305D040
:20080000012004E020463946BDE8F08D0020054346EAE0762C4337430A986305E40AA0EB72
:2008200008000022FD0A44EA47540A3002D500200146E9E7010510196941DDE90845001971
:200840006941BDE8F04DA2E7C1F30A52C1F3130140F2FF3341F480119A4202DA0020014662
:20086000704740F233439A42A2F2334202DC5242FFF734BFFFF723BF30B5041E71F1000494
:2008800004DB4FF00044404264EB0101141E73F1000405DB1C464FF00043524263EB0403DC
:2008A0008B4208BF824230BD30B5041E71F1000404DB4FF00044404264EB0101141E73F1BB
:2008C000000405DB1C464FF00043524263EB0403994208BF904230BD064C074D06E0E06832
:2008E00040F0010394E8070098471034AC42F6D3FFF76EFC103A0408403A040870B58C1862
:2009000010F8015B15F0070301D110F8013B2A1106D110F8012B03E010F8016B01F8016B4C
:200920005B1EF9D12B0705D40023521E0DD401F8013BFAE710F8013BCB1A921C03E013F81A
:20094000015B01F8015B521EF9D5A142D8D3002070BD00002DE9FC47204D4FF0010945F881
:20096000049F804600244FF0100A1D4F4FF6FF7205F12C0629463046C5E901A9EC60019429
:20098000B847012003F0A6F902202946C5E9000A30464FF6FF72C5E90294B84708200321A1
:2009A000C5E9001AC5E90204304629464FF6FF72B8474FF40871042001914FF6FF7201995F
:2009C000C5E9000AC5E9029130462946B84730464146BDE8FC4705F054BD00BF400B012024
:2009E000A56401082DE9F04F85B080465F4881684FF00C0B41F001014FF0030A8160002728
:200A00008168022401F00101594D00916E460099DFF86091016841F480010160016801F4AA
:200A2000800100910099016841F001010160016801F0010100910099016841F00401016088
:200A4000016801F0040100910099016841F008010160016801F0080100910099016841F0E2
:200A600010010160016801F0100100910099016841F020010160016801F0200100910099AE
:200A8000016841F0400101603146006800F0400000900098CDF810B04FF63F00CDF80CA069
:200AA00002970194009005F5A050C84701A8314680E8900C802000902846C84701A831468E
:200AC00080E8900C3020009005F50060C84701A8314680E8900C48F23310009005F5C0508E
:200AE000C84701A8314680E8900C4FF68370009005F58050C84701A8314680E8900C4CF2C0
:200B00000370009005F54060C8471B4D4FF4003005F12001194C81E88104C5E90B774FF471
:200B200080404FF480514FF480624FF40073C5E900478024C5E90243C5E90421C5E90607EC
:200B40002846C8F83050C5F8388002F0F7FF284603F01CF838200F21002204F0B9F838206E
:200B600004F0A8F805B0BDE8F08F00BF3038024000000240C13D0108BC0D012010640240B6
:200B80002DE9F04F8BB0DFF80491824699F80000D9F808100969884700288AF8000070D0EC
:200BA00000260DF10E040DF1040B4FF00008C0B2804566D299F80000D9F80830A1190BEBF2
:200BC00006025B69984799F80100012808D1A15B0DF1220006AA81533BF8060090531FE01B
:200BE000810705D5A15B0DF12202C1F580519153410705D53BF8061006AAC1F58051915384
:200C0000000705D406A80DF12201805B895B07E0A05B06A90DF1220288533BF806109153AB
:200C200009EB4605EB682A6A5C1A38BFCC1A171A38BF871ABFB217FA84F4062C03D3024628
:200C40000B462862E96099F80040702C03D10AEB060251800AE0B9F802100AEB060059431D
:200C6000090B4180B9F804005043000B0AEB06010DF10E04888102369AF8000008F101086B
:200C800095E700200BB0BDE8F08F00BFB80A012000F00F01000900EB800001EB4000C0B225
:200CA000704707F0A9BB0000F0B589B0DFF8407397F86500000640F19981DFF83853DFF83C
:200CC000386328463146012205F05EFADFF82C4328462146012205F02BFA797DBA7D3078F7
:200CE00091420FD20021904238BF01210846FFF7CFFF28B13078FFF7CBFF797D884217D238
:200D0000796E0EE0FFF7C4FF797D884210D23078FFF7BEFFBA7D796E904202D241F400113E
:200D200009E0880208D5062021F40011387002E0786E40F40011796601F41810B0F5181F8A
:200D400040F08B80480203D52078FA7E82423ED041F48000786600200DF0BAFB00200DF0D2
:200D60006BFD0CF094FA00200DF024FC01200DF0AFFB01200DF060FD4FF07F400DF074FD95
:200D80000CF085FA9E483C2141702078F87609200DF0BEFD4FF47F400DF068FD9A4D4FF46F
:200DA000C87014214FF4E1721423A8474FF4C87028214FF4E1722823A8474FF4C8703C219E
:200DC0004FF4E1723C23A84701200DF0F3FB01AD31462846022205F0E5FDB078711C0222BC
:200DE000C0074FF03A0008BF20208DF80600E81C05F0D8FDF02088210CF0B0FF787C83492F
:200E000051F820000DF032FD81480DF033FD0E200DF086FD01200DF05BFB002050214FF451
:200E2000F072C0230CF042FA0020DC2164224FF487730CF03BFA28460CF0A6FB2078072852
:200E400058D8DFE800F0043B3F43474B4F06072020708248019081A047E0694970784A784D
:200E6000824200F0AC8001AD487028463146022205F098FD3A20711C8DF80600E81C0222FF
:200E800005F090FD5F480DF0F5FC6FF07F400DF0EDFC02200DF04EFD0C200DF041FD012045
:200EA0000DF016FB0520F5210CF058FF0020DC2164224FF487730CF0F9F97AE06448019031
:200EC00063A012E05F4801905EA00EE05A48019059A00AE05548019054A006E050480190B2
:200EE0004FA002E04B4801904AA0416800890291ADF80C0005F10A00A11C022205F052FD78
:200F00006078013811283AD8DFE800F0090B0D0F15191D2125393939393939292D316D486B
:200F200004E06B4802E0694800E06748016842680491059220E06148049060A01AE05C48DE
:200F400004905BA016E05748049056A012E05248049051A00EE04D4804904CA00AE0484855
:200F6000049047A006E04348049042A002E03E4804903DA0416805910089ADF81800302061
:200F8000E11C8DF81C0043F22020ADF81A0005F11900022205F006FD2E20ADF81F004E48AC
:200FA0000DF068FCF020CE210CF0D8FE0E200DF0B7FC01A80CF0E8FA01200DF0FBFA2078EF
:200FC000F97E814212D0A2780A4DF876434E28460221B047627828460321B0472278284692
:200FE0000421B047E27828460521B04709B0F0BDC80C0120840C01206C0C0120300C0120EE
:2010000038070120B86A030885D90108A834040890B203082053617475726461792000001A
:201020002020467269646179202000005468757273746461792000005765646E65736461BE
:201040007920000020547565737464617920000020204D6F6E646179202000002020537574
:201060006E646179202000002E20446563656D62657200002E204E6F76656D626572000093
:201080002E204F63746F6265722000002E53657074656D62657200002E2041756775737478
:2010A000202000002E2020204A756C79202000002E2020204A756E65202000002E20202090
:2010C0004D61792020200000B0390408A4390408C8390408BC390408884C03087F600108D6
:2010E000B0B50F4C0F4D606BA847A06BA847E06BA847206CA847606CA847A06CA847E06C69
:20110000A847206DA847606DA847A06DA847E06DA847206EA847606E20F400706066B0BD6E
:20112000C80C0120513402081CB50CF01FFE17480DF0DEFA012012F09BFE0DF043FD0020F4
:201140000DF07AFB0CF0A3F801200DF075FB4FF07F400DF089FB0CF09AF801A830210422CB
:2011600000F0ECFC9DF804109DF805209DF806309DF80740064880F8661080F86A2080F8D7
:201180006E3080F872400CF097FC1CBDCD740108440D01202DE9F04F85B0002000270DF095
:2011A0004BFB0CF074F8012001240DF045FB4FF07F400DF059FB0CF06AF801200DF088F9B2
:2011C000DFF85464DFF854143046012204F0DCFFDFF84C143046012204F0AAFF02214FF406
:2011E0000160CDE9007102A94FF05A0881E81101DFF830440A2014215A221E23A047A1466B
:20120000DFF82444DFF8245402216061A847DFF820A460699AF81210DFF81864B04740F6D5
:2012200011004FF0020B00973C21CDE901B001205A22CDE903080A201E23C8470221A061FA
:20124000A8479AF81310A069B04740F61201F020CDE9007B02910121CDE903100A20822115
:201260005A221E23B046C84702214E46E061A8479AF81410E069C047022140F613000191C1
:2012800002A94FF0170B009781E881080A20AA215A221E234FF00209B04702212062A84732
:2012A0009AF81510206AC04740F6140002A9CDE9007981E881080A20D2215A221E234FF0B7
:2012C0000209B04702216062A8479AF81610606AC04740F6160002A9CDE9007981E8810897
:2012E000BE2014215A221E23B0470221B046CAF87000A847C948A9460078CF4DDAF87060B7
:20130000A847AB4601463046CA4DA8473B2040F6170102220097CDE90121CDE90370BE20E7
:201320003C215A221E23C0470221CAF87400C847BA48DAF874604078D84701463046A847F9
:201340001F2040F6180102224FF0010900971E23CDE90121CDE90390BE2082215A22C04795
:201360000221DFF8C8B2CAF87800D847DFF8B082DAF8785098F80200DFF8BCA2D0470146D8
:201380002846AC4EB0470C2040F6190102220097CDE90121CDE90390BE20AA215A221E2330
:2013A000DFF88092C84702212060D84798F801002568D04701462846B04740F633004FF4E6
:2013C000FA6140F61A0202230097CDE90132CDE90310BE20D2215A221E23C8470221606072
:2013E000D84798F803006568D04700F5FA612846B0471C2040F6150102254FF0010A009712
:201400005A22CDE90151CDE903A04FF4AA7014211E23B046C8470221A060D847844EA068FB
:20142000717CC04740F61C004621CDE900704FF4AA706E2214230295022509F0C8FD4FF4F6
:201440007F41E06009F0F0FEE0687CA109F0C8FE716EE068C1F3804109F0A6FE40F61F00F3
:201460006421CDE90075CDE902A04FF4AA70822264230AF06DF874A52061072F06D055F88A
:20148000271009F078FF01372069F6E76449097801390AF034FA022540F60100CDE900055E
:2014A0004FF4AA70B42182221E2309F08DFB6D49E06209F00DFD4FF40060E621CDE9000534
:2014C0004FF4AA7082221E2309F07EFB6649A06209F0FEFC707C654951F820000DF0C6F9F5
:2014E0004FF4AA7033214FF4D7723B230CF00CFB6FF07F400DF0BAF95D480DF0BBF90C20FE
:201500000DF00EFA5B4F0F200521A022B8475A4D0A200521A84759A05D4EB0476E202321B3
:20152000A8475CA0B0476E204B21A8475BA0B0470F20B9214FF4A072B847BE200521A8479E
:2015400057A0B0474FF491702321A847574C2046B0474FF491704B21A84755A0B0470F206C
:2015600040F24F1140F2DB12B8474FF4AA700521A84751A0B0474FF4DC701A21A84751A0B7
:20158000B0474FF4DC702621A84750A0B0477D200521A022B8470A207321A8474DA0B04793
:2015A0006E209121A84750A0B0476E20B021A8474FA0B0476E20BC21A8472046B0476E209C
:2015C000D821A8474CA0B0476E20E421A8472046B0477D20B9214FF4A072B847BE20732124
:2015E000A84747A0B0474FF491709121A84747A0B0474FF49170B921A84745A0B0474FF42F
:201600009170E121A84744A0B047012005B0BDE8F04F0CF0CFBF00BF840C01206C0C0120B0
:20162000300C012097280208440D0120EB2A0208C80C01203F2B0208910C010853435245B7
:20164000454E53415645520015380408193804080B380408383804083C38040887370408AB
:20166000AA37040878380408ED370408A834040860F9020839D901085DDD010844495350B8
:201680004C4159204241434B4C4947485400000089D5010848494748000000004C4F570042
:2016A0005345542054494D45000000001D3804084D494E555445000053455420434F4C4F83
:2016C0005200000046554C4C00000000434C4F434B00000053435245454E534156455220B8
:2016E0004F5054494F4E000054494D454F555400454E41424C45000044495341424C45004F
:20170000534554204441544500000000444159004D4F4E544800000059454152000000000A
:201720002DE9F041764C064620461021012202F009FC012002F0CEFA20461021002202F01D
:2017400001FC6FF07F400DF091F86E480DF092F802200DF0EFF80E200DF0E2F84F2E18BF4C
:20176000422E2FD1642000214FF4B972322300250BF09CFD4F2E4ED0422E40F0B480634EB8
:20178000DFF88481B079002508EB0001002881F8605000F0A380013800273224B071C1B27D
:2017A0008F4280F09C80EB2014210CF0D7FA07FB04F00F22823001B22A200BF09FFEB07928
:2017C0000137ECE7A6F13000092822D84F4CA07930B9642000214FF4B97232230BF066FDA9
:2017E0000C200DF09DF8A079042808D88221322210FB02112A200F220BF080FEA079424959
:20180000014481F86060411CA171C9B2062928BFA071002567E03D4E3B48B17980F8655068
:20182000603006F0FBFE0546EB2014210CF096FA42F20F7085421ED14FF47F400DF016F89C
:2018400039A00BF0A1FE706E102140F4805001227066204602F076FB4FF4FA7002F03AFA6D
:2018600020461021002202F06DFB4FF47A7002F031FA022537E0EB2014210CF06FFAFF2009
:201880000CF0F4FF22A00BF07FFE254E204610210122B047234F3220B8472046102100227F
:2018A0000025B0476420B847204610210122B0473220B847204610210022B0476420B84754
:2018C000204610210122B0473220B847204610210022B0474FF47A70B84704E0002058FAD4
:2018E00080F080F8605000200DF024F802F038FB064947F23052C1E90B022846BDE8F081AD
:20190000000C0240884C0308440D0120C80C012057524F4E472050415353574F5244000013
:20192000453F0108D53C0108534552564943452050415353574F5244204F4B0070B5284C09
:20194000284E6069B047A069B047606AB047A068B047206AB047E069B047E068B047206908
:20196000B0472C4D686FB0472068B047E06AB047286FB0476068B047A86FB047A06A31468D
:20198000BDE87040084700BFB0B5154C154DE06AA847A06BA847E06BA847206CA847A06ACA
:2019A000A847606BA847206B2946BDE8B0400847B0B50B4C0B4DE06CA847206DA847E06A8B
:2019C000A847606CA847A06CA847A06DA847E06DA847A06AA847606D2946BDE8B040084711
:2019E000440D01205134020810B50A4C606E00F40811B1F5081F01D10621217020F4840001
:201A0000606602F0ADFA2062A07CBDE8104000F003B800BFC80C0120502828BF5020052879
:201A200098BF052000EB80000249400009684863704700BFE06E012080B501200CF048FD9C
:201A4000C32091214FF4A072EB230BF02FFC6FF07F400CF00BFF0B480CF00CFF00200CF0CE
:201A600069FF01200CF05CFFC82096210CF076F905480221807A0BF049FD0120BDE880404B
:201A80000CF098BD00790308D00B012080B5034801F070FF02480221016080BD146D0120E8
:201AA00008B0024010B501686FF00F0252FA81F21823B2FBF3F306A45F2AE35C40F2FF342A
:201AC00021EA040188BF0431C0E91613084610BD0006101600061016704781B0002100919B
:201AE000C1B20A2904D300990A3801310091F7E7009909010091009951FA80F0009000983D
:201B0000C0B201B0704705F0B9B880B5FFF7FBFFA02040F6B83100F009F828B1A82091213D
:201B2000BDE8804000F096B880BD00000A46014640484FF47A7302F099BA00BF80B51346E4
:201B40000246A02000F002F880BD00001CB50C4699B2CDE90021C1B236482246022305F09E
:201B600007F91CBD2DE9F8430C46054602F03F08960911F03F001DD01746C0F1400936B359
:201B8000284621464A4600F057F8E8BBA7EB09004D4400F03F0780B24C448609300435D012
:201BA000A1B22846402200F047F868BB013E40354034F3E7E6B130041DD0A1B228464022D3
:201BC00000F03AF800BB013E40354034F3E7B9450ED2284621464A4600F02EF8A0B909EB80
:201BE0000401A7EB090205EB090089B292B208E02846214604E0B8F1000F0CD0A1B22846D5
:201C0000424600F019F830B1BDE8F8831FB1A1B228463A46F5E70020BDE8F8831CB50C46EA
:201C200099B2CDE90021C1B202482246022305F0D1F81CBDA06D012080B513460246A020DD
:201C4000FFF7ECFF00B180BDA02040F6B831FFF76DFF80BD06F0D0BB2DE9F0410B68026892
:201C6000012B1ED1D1E9073422F4F84201F10C0C1A43D1E901E8496A224311439CE8E0101A
:201C80004268016047F6FF7122EA010141EA0E0141EA080129433143394341EA0C014160DB
:201CA00017E047F6FF730F1D22EA030CD1F82080F8CFD1E9062E43EA0C03496A23432B4356
:201CC00033433B431A4342EA0E0242EA0802114301600020BDE8F081426942EA410141619B
:201CE00000207047F8B5054600200090144691E80D006FF01F06C96806EB431310431843DB
:201D000040EA412000900098286102F029F90646671CA869800609D5002FFAD024B102F06F
:201D20001FF9801BA042F4D90320F8BD0020F8BDF0B58368012A27D1294A1A4091E8781013
:201D4000D1E9057E2349013B01EB06311143234A02EB07521143C26881606FF00F0102F0B4
:201D6000704201EB04111A4311436FF0FF0202EB05221143184A02EB0C421143AEF10102A4
:201D800041EA0261C16022E091E874006FF00F0703F07043013A07EB04141A436FF0FF0387
:201DA000224303EB05231A430A4B03EB06330A4C1A430B6904EB0343084C1A434B6904EB1F
:201DC000035389691A43013942EA016181600020F0BD00BF00F0FFFF0000FFFF0000F0FF4E
:201DE000FF0F0FFF70B5494E0546307A0C46C00713D005F0E3FA2289F168606806F0BBF8D3
:201E000018B10020C6E9030003E02089F1680844F06005F0D3FA06F017F82846214606F014
:201E20006FFE02F09DF87061012070BD70B5374E0546307AC00767D148680C46417A022909
:201E400015D1F278017A914212D1016809BAF160406800BA306105F0B1FAD6E903010144E9
:201E600005F0AAFFE0B30020C6E9030048E0F2784178914211D10278A13A1F2A0DD80123B8
:201E800003FA02F2224B1A4207D02846214606F037FE60680078B07036E0FF2934D1017895
:201EA000D52931D18178C27803794579194C21701949E570194DA2706370C2880A800122C6
:201EC000007A8870284604F035FA28462146012204F0DCF91248016841F40041016013E0B1
:201EE000B068114A40F001000221B0600D4806F002FD2846214606F003FE02F031F8706109
:201F000005F05CFA05F0A0FF012070BDE80B012001000083300C01206C0C0120840C012055
:201F20002C0D012008700120E51D010802484FF400110AF0E5BD00BF000060C006490A68C9
:201F400010440A689042FCDC704700BF7047000001480068704700BF7C0E01207047B8B1F2
:201F600010B504460068216C41F002012164816821F0010181608068C00705D1204600F0EC
:201F80000CF8002060642064002084F83C0010BD012070470068C06C704770477047B0B53A
:201FA00098B10446407F022502280FD0657700252068816841F001018160017905712046C3
:201FC00000F006F82577657700E001252846B0BD70477047704770477047704790F83510A3
:201FE000022909D1052180F835100068016821F001010160002070478021416501207047BE
:2020000004780900F9EDB7D217112031000001082DE9F04F89B001F0A3FFDFF8745FE9692D
:20202000401A642804D301F09BFFE8610BF044FDDFF8601FDFF8606F09783078C9071BD1F2
:20204000022840D0012802D100202862307028780138082800F28680DFE810F009008700A8
:2020600004014D029702A902CA02DD032B04686A002841F0328033E0002841F0768001208D
:20208000307001200CF024FA0BF001F9DFF80C0F0CF0F0FB4AF2FF500CF0E8FB02200CF00F
:2020A00049FC0E200CF03CFCF02087210BF056FE0FF6EC600BF068FA01200CF07BFAFFF73C
:2020C00093FC01F052B80BF0E2F80020DFF8F41E68620122307040F2011081F8682028801F
:2020E00001F03EFF686201200CF0F2F90BF0CFF809200CF00DFCDFF8CC7E697897F86800F7
:2021000071B168B9BE2050214FF49172B4230BF0CDF8012487F868404FF47F4000F065BCF1
:2021200069B160B1BE2050214FF49172B4230BF0BDF80024FF2087F8684000F056BC50EAB2
:20214000010200F04984002940F05D84002800F05A84BE2050214FF49172B4230BF0A6F88A
:202160000124D9E7002028711EE2A878002840F0B4870120A87001200CF0AAF90BF087F89B
:2021800009200CF0C5FBFF200CF070FBDFF8384E14208821DC228823A0474FF4827088212C
:2021A0004FF4E6728823A047F0201421F0227423A047F0209C21F022FC23A047DFF80C0E47
:2021C000DFF80C4E50211722A047DFF8080E4FF4A0711722A047DFF8000E50219F22A047DE
:2021E000DFF8F80D4FF4A0719F22A047DFF8AC0D0CF040FB4AF2FF500CF038FB02200CF068
:2022000099FBDFF8DC4D0E20A047DFF8D86D78207821B047DFF8D00DDFF8D07DB8470E20CC
:20222000A0474FF4B4707821B047DFF8C40DB8470E20A0477820FA21B047DFF8B80DB847BF
:202240000E20A0474FF4B470FA21B047DFF8A80DB84701200CF0AEF900206871A5F8030008
:2022600000F03BBF2879012800F05D86002840F03487012028710020A87100200CF0DCFADF
:202280000BF005F801200CF0D7FA4FF07F400CF0EBFA0AF0FCFF01200CF01AF9022440F6F8
:2022A0000200CDE90004DFF8546D642032213C223C23B047A86340F60300CDE90004AA2077
:2022C00032213C223C23B047E86340F60400CDE90004F02032213C223C23B047286440F6DF
:2022E0000500CDE900044FF49B7032213C223C23B047686440F60600CDE9000464207821EB
:202300003C223C23B047A86440F60700CDE90004AA2078213C223C23B047E86440F6080065
:20232000CDE90004F02078213C223C23B047286540F60900CDE900044FF49B7078213C22BB
:202340003C23B047686540F60A00CDE90004AA20BE213C223C23B047A86540F60B07F0209E
:20236000BE213C223C23CDE90074B04768636420BE213C223C23CDE90074B047286640F6D0
:202380000C00CDE900044FF49B70BE213C223C23B047E865DFF8044C686BDFF8646C214641
:2023A000B047A86B2146B047E86B2146B047286C2146B047686C2146B047A86C2146B0476E
:2023C000E86C2146B047286D2146B047686D2146B047A86D2146B047DFF8284CE86D2146AB
:2023E000B047286E2146B047686B0FF61C41DFF81C4CA047A86B0FF61841A047E86B0FF6E7
:202400001441A047286C0FF61041A047686C0FF60C41A047A86C0FF60841A047E86C0FF600
:202420000441A047286D0FF60041A047686D0FF6FC31A047A86D0FF6F831A047E86D0FF63C
:20244000F431A047286E0FF6F031A047EB2014210BF084FC6FF07F400CF008FADFF8DC0B38
:202460000CF008FA02200CF065FA0E200CF058FADFF8CC0B0BF088F801200CF09BF8686EB6
:2024800040F40070686601F06BFDE862DFF8340B60300021062208F01DFB09200CF038FAD1
:2024A0004FF47F400CF0E2F9DFF81C4B4FF4C87014214FF4E1721423A0474FF4C8702821DD
:2024C0004FF4E1722823A0474FF4C8703C214FF4E1723C23A04747F2305006AC2863204624
:2024E0000CF0D8F8002800F0F88506F01BFF14200AF0ECFFF3E76879012800F02E850028A3
:2025000040F0EB8501200024687100200CF094F900200CF0ABF90AF0BAFEDFF8DC0E002100
:2025200000220AF08DFD01200CF086F94FF07F400CF09AF90AF0ABFE09200CF0E9F94FF4DF
:202540007F400CF093F9DFF8806A4FF4C87014214FF4E1721423B0474FF4C87028214FF4F8
:20256000E1722823B0474FF4C8703C214FF4E1723C23B047FFF760FAFEF796FBAC60686E4A
:2025800040F48010686600F0A8BD287C012800F05985002840F0A185012028740AF077FE0F
:2025A00000201E212871A966688000F096BD002000240CF041F900200CF058F90AF067FEA3
:2025C000012001260CF038F94FF07F400CF04CF90AF05DFE95F86500800701D5FEF780FD31
:2025E000C5F802402C746C62AC602E7000F075BDDFF8D04E286F267810F066FAC0B2FFF7B0
:202600006CFA864210D0286F10F05EFAC0B2FFF764FA2070DFF8B00E2146012203F08AFECD
:20262000686E40F4004068666678686F10F04CFAC0B2FFF752FA864210D0686F10F044FA16
:20264000C0B2FFF74AFA6070DFF87C0E2146012203F070FE686E40F400406866DFF86C4E09
:20266000A86FA67810F030FAC0B2FFF736FA864210D0A86F10F028FAC0B2FFF72EFAA070E2
:20268000DFF8440E2146012203F000FE686E40F400406866DFF8646D6778306810F014FA51
:2026A000C0B2FFF71AFA874210D0306810F00CFAC0B2FFF712FA6070DFF80C0E2146012298
:2026C00003F0E4FD686E40F400406866E778706810F0FAF93030C0B2FFF7FFF9874211D07A
:2026E000706810F0F1F93030C0B2FFF7F6F9E070DFF8D40D2146012203F0C8FD686E40F40D
:20270000004068666F7CB06810F0DEF9B84212D0B06810F0D9F96874C0B2DFF8B41D51F8CC
:2027200020000CF0A3F84FF4AA7033214FF4D7723B230BF0E9F9F06808F028FD696E0128F5
:2027400021F4802208BF41F48022277830696A6609F0BDF80130C0B2FFF7BFF9874211D073
:20276000306909F0B4F80130C0B2FFF7B6F92070DFF8540D2146012203F088FD686E40F4FF
:20278000004068667069DFF8804CA047A874B069A047E874F069A0472875306AA047687515
:2027A000706AA047A875B068A0476874B06A08F069FB002800F04881E87D30B10020702112
:2027C000E875DFF83C0C05F0FDFE05F0E1FEA97CEA7C687C2B7D8DF8182007228DF819100E
:2027E000B5F815108DF81A30ADF81B100A218DF81D00686EC0F380408DF81E0006A8FFF70B
:20280000B1F9DFF8000C20210122FFF7ABF9FFF795F800F060BCDFF8E44BDFF8EC6B206BDF
:20282000B047DFF8E01B0870606BB04784F86600A06BB04784F86A00E06BB04784F86E009F
:20284000206CB04784F87200A06A08F01BFB002800F0F081E87D30B100207021E875DFF83B
:20286000A00B05F0AFFE05F093FEA97CEA7C687C2B7D8DF8182007228DF81910B5F8151008
:202880008DF81A30ADF81B100A218DF81D00686EC0F380408DF81E0006A8FFF763F9DFF809
:2028A000640B20210122FFF75DF9FFF76DF800F012BCDFF84C6BDFF8444B3778606C0FF072
:2028C000BFFBB84206D0606C0FF0BAFB3070E87D0130E875B77BA06C0FF0B2FBB84206D0A1
:2028E000A06C0FF0ADFBB073E87D0130E875377BE06C10F0E9F8B84206D0E06C10F0E4F838
:202900003073E87D0130E875777B206D10F0DCF8B84206D0206D10F0D7F87073E87D013029
:20292000E875377C606D10F0CFF8B84206D0606D10F0CAF83074E87D0130E875777CA06DFD
:2029400010F0C2F8B84206D0A06D10F0BDF87074E87D0130E875B77CE06D10F0B5F8B8422D
:2029600006D0E06D10F0B0F8B074E87D0130E875A06A08F087FA002800F0C982E87D30B149
:2029800000207021E875DFF8780A05F01BFE05F0FFFDA97CEA7C687C2B7D8DF818200722D4
:2029A0008DF81910B5F815108DF81A30ADF81B100A218DF81D00686EC0F380408DF81E003F
:2029C00006A8FFF7CFF8DFF83C0A20210122FFF7C9F8FEF7EDFF7EE3BE2050214FF491727D
:2029E000B4230AF063FC0024FF200BF03FFFF0208821322232230AF09FFE8D484FF4805149
:202A0000224601F09FFADFF8044B4FF4C87014214FF4E1721423A0474FF4C87028214FF433
:202A2000E1722823A0474FF4C8703C214FF4E1723C233C27A04701200BF0BCFD002077701E
:202A400028716880A86247E3F06A08F01BFA002800F04383FEF772FF002000270BF0ECFEEA
:202A60000AF015FC012001240BF0E6FE4FF07F400BF0FAFE0AF00BFC01200BF029FDFE20D4
:202A80004FF402614FF00208DFF89C99CDE90078CDE9021404900A200A215A221E23C8478C
:202AA000DFF888A902213063D047DFF85809DFF880B90178306BD84740F621001824CDE97D
:202AC0000078CDE902070A2032215A221E230494C84702217063D04796F86610706BD847D3
:202AE00040F623005A21CDE90078CDE902070A205A221E230494C8470221B063D04796F8AC
:202B00006A10B06BD84740F624008221CDE90078CDE902070A205A221E230494C847022166
:202B2000F063D04796F86E10F06BD84740F62500AA21CDE90078CDE902070A205A221E23AB
:202B40000494C84702213064D04796F87210306CD84740F601008C21CDE900084FF4AA7036
:202B60008222322308F030F8DFF8C818F06208F0AFF94FF40060C821CDE900084FF4AA70EC
:202B80008222322308F020F8DFF8AC18B06208F09FF96FF07F400BF069FEDFF8A0080BF0F5
:202BA00069FE0C200BF0BCFEDFF894686E200E21B047DFF82009DFF89078B8476E201A219F
:202BC000B0470FF61410B8476E203621B047DFF81009B8476E204221B047DFF80849204695
:202BE000B8476E205E21B047DFF8FC08B8476E206A21B0472046B8476E208621B047DFF880
:202C0000EC08B8476E209221B0472046B8476E20AE21B047DFF8D808B8476E20BA21B047BA
:202C20002046B84701200BF0C5FC082054E200BF00080240E06A08F025F9002800F04D82A4
:202C4000FEF7A2FE00204FF0000B0BF0F5FD0AF01EFB01200BF0F0FD4FF07F400BF004FE71
:202C60000AF015FB01200BF033FC4FF0140903204FF403610222CDE900B2CDE902B1CDE92E
:202C800004090A201421962250230FF0FCF84FF47F4160640FF009FA606C0FF27071DFF85C
:202CA00070670022B047606CDFF868170122B047606CDFF864170222B047DFF84407017814
:202CC0008046606C0FF008FA40F631000221CDF800B09622CDE9011BCDE903010A2096213D
:202CE00050230227CDF814900FF0CDF84FF47F41A0640FF0DAF9A06CDFF820170022B047FF
:202D0000A06C0FF21C710122B04798F80E10A06CC1460FF0E1F928214FF00F0A40F632005C
:202D20005A22CDE900B7CDE9020A0491DFF8F8766E2014211E23B847DFF8F0660221E06477
:202D4000B04798F80C10E06CDFF8E486C04740F633000221CDF800B05A22CDE901102820B0
:202D6000462104906E201E23CDF80CA0B84702212065B04799F80D10206DC04740F63400CE
:202D80000221CDF800B05A2201919621CDE9020B0A201E2304906E20C2464FF00208B84736
:202DA00002216065B04799F81010606DD047322040F63501CDE900B8CDE9021B04906E207E
:202DC000BE215A221E23B8470221A065B04799F81110A06DD047642040F63601CDE900B804
:202DE000CDE9021B04906E20E6215A221E23B8470221E065B04799F81210E06DD04740F66F
:202E000001008C21CDE900084FF4AA708222322307F0DAFEDFF81C16E06208F059F84FF44A
:202E20000060C821CDE900084FF4AA708222322307F0CAFEDFF80016A06208F049F86FF0EF
:202E40007F400BF013FDDFF8F4050BF013FD0C200BF066FDDFF8E865D2201821B047DFF826
:202E6000E405DFF8E475B847D2202421B047DFF8DC452046B847D2204A21B047DFF8D005AF
:202E8000B847D2205621B0472046B847D2209A21B047DFF8C005B847D220A621B0470FF27E
:202EA000B850B847D220C221B0470FF2BC50B847D220CE21B047DFF8C4452046B847D22024
:202EC000EA21B0470FF2B850B847D220F621B0472046B8470A200421B0470FF2B850B84735
:202EE0000A207821B0470FF2C450B8470C2005214FF4A0720AF020FD822005214FF4A07229
:202F00000AF01AFD01200BF055FB0920E4E0E06A07F0B8FF002800F0E080FEF749FDFEF7A7
:202F200039F90720D8E001F01BF8D5E90B12401A904280F0CE80686B07F0A4FF002800F032
:202F40006A81686B07F09EFF002800F0628106F0E9F914200AF0BAFAF3E7297B687B0029E0
:202F600000F00681002840F0038101206873DFF89004817A027B914201D201318172DFF87D
:202F80008004702105F01EFBFEF756FDF4E000BFC80C0120F00B012038070120884C0308E3
:202FA0004649524D57415245205550444154452052554E0A0D504C45415345205741495496
:202FC00000000000440D012085D901086C340408EDD6010894340408803404085834040874
:202FE00021E901085DDD0108E537040889D501082F380408403804080F380408C9AB010825
:20300000A3AE01085825030830000000D1AE0108310000003200000033000000340000004C
:2030200035000000360000003700000038000000390000004F4B000042434B00B86A0308E6
:20304000AE37040800F08CFFE96E401AB0F57A7F43D300F085FFE86601200BF039FA00206E
:2030600032214FF4F072C8230AF020F9A96EFF20052988BF4FF47F400BF0F8FBDFF8740470
:203080000BF0F8FB02200BF055FC0E200BF048FCF02050210AF062FEDFF85C040AF074FAED
:2030A000DFF858040BF0E6FB02200BF043FC0E200BF036FCF0209C210AF050FEA86E0AF025
:2030C00028FA01200BF076FAA86E20B10138A86603E0FEF705F80620287095F86600800707
:2030E00023D400F03DFF297D4FF47A7251432A6A801A884219D32878092806D0082807D0B2
:20310000072807D1FEF71AFC04E0FEF751FC01E0FEF73AFCE87CFEF77FFC06202870686E03
:2031200020F4840000F500306866686A40B100F017FF696A401AB0F5FA7F01D30020686232
:2031400000F00EFFA96A401AB0F57A7F0DD300F007FFA8622878012801D8FDF7A5FD686E79
:20316000810302D440F48010686609B0BDE8F08F11B908B100206873A97BE87B81B178B91E
:203180000120E8739E48817A427B914201D9013981729B48702105F015FAFEF74DFC03E0A2
:2031A00011B908B10020E873686EC1027FF595AF20F48010686601200BF08AF94FF4CD702F
:2031C000B9214FF4F072EB230AF070F84FF49B70E6214FF4F072FF23FF240AF067F84FF425
:2031E0009B70F2210AF0BAFDC5480BF043FB0C200BF096FBDFF8089299F80000022818D0EE
:20320000012828D14AF2FF58C526824F4FF47F0413E03020B6E0A86B07F034FE98B3A86B04
:2032200007F030FE68B306F07DF814200AF04EF9F5E76FF07F48DC26774F20460BF016FB32
:2032400038460AF0A1F940F29F1031460AF086FD40460BF00BFBAB480BF00CFB0C200BF0E4
:203260005FFBB9F902000A2190FBF1F0032100B20AF072F9A4A00AF087F901200BF09AF901
:203280002BE731207EE0E86B07F0FCFD58B1E86B07F0F8FD28B106F045F814200AF016F999
:2032A000F5E732206EE0286C07F0ECFD58B1286C07F0E8FD28B106F035F814200AF006F97C
:2032C000F5E733205EE0686C07F0DCFD90B9A86C07F0D8FDB8B1A86C07F0D4FD88B106F040
:2032E00021F814200AF0F2F8F5E706F01BF814200AF0ECF8686C07F0C5FD0028F5D13420D7
:2033000040E035203EE0E86C07F0BCFD58B1E86C07F0B8FD28B106F005F832200AF0D6F827
:20332000F5E736202EE0286D07F0ACFD58B1286D07F0A8FD28B105F0F5FF14200AF0C6F830
:20334000F5E737201EE0686D07F09CFD58B1686D07F098FD28B105F0E5FF14200AF0B6F8DF
:20336000F5E738200EE0A86D07F08CFD70B1A86D07F088FD28B105F0D5FF14200AF0A6F876
:20338000F5E73920FEF7CCF9E871A6E6E86D07F079FD48B9286E07F075FDE8B99DE605F07E
:2033A000C1FF14200AF092F8E86D07F06BFD0028F5D14F20FEF7B4F9E871FDF791FEE879A5
:2033C000022810D0012813D0A0B906200EE005F0A9FF14200AF07AF8286E07F053FD002828
:2033E000F5D14220CEE7FDF7D5FE0720287001E0022028710020C7E7403A0408440D012008
:20340000D00B0120EB0B0120C92A02084F46460063200208FB37040803380408F23704087A
:20342000332053504545440097280208EB2A02083F2B020878380408ED37040860F902081D
:203440005DDD01085938040889D501089F37040846380408C437040854454D502E20783086
:203460002E312A430000000046414E204C4F572053504545442042414E4400008B37040805
:2034800046414E2048492053504545442042414E44000000544845524D4F53544154204372
:2034A0004F4E54524F4C204D4F44450046414E20535045454420434F4E54524F4C204D4F86
:2034C000444500006C0C0120840C0120300C0120A8340408BD37040842555320494400003D
:2034E00060370408693704086C380408D937040822380408B86A030870370408C88E03080A
:20350000CC140308F0380308C2B0630085D90108F8B50022009290F83C20012A01D10221EC
:2035200056E0012280F83C200A681FFA82FC0A2A4FEA4C0414FA82F60FD31E3E072404FAAB
:2035400006F70468254655F80C3FBB432B60324B8F689A420ED13E060EE004680723254614
:20356000B34055F8107F27EA03032B608B6803FA06F601E007FA06F62B6833432B604D68C7
:20358000062D05D805EB850304F134015D1F0CE005EB85060C2D04D804F13001A6F123059C
:2035A00003E004F12C01A6F141051F230E68AB4026EA03030B600CFA05F30D682B430B60B9
:2035C0006249A1F541739C4204D0002180F83C100846F8BD112A09D00F4B9A4206D0122A00
:2035E000F3D10A6842F480020A60EEE70B6843F400030B6008498A42E7D1AB49AB4A096857
:20360000B1FBF2F101EB81014900009100990029DBD000990139F8E712000010002841D059
:2036200070B50446006C30B9002084F83C0060642046FEF7B3FC206CC00635D4206C41F206
:2036400002118843414902302064086820F44030086094E80D0025690E6832430A604168DB
:2036600021F480714160416841EA05214160416821F04071416041681943354B41608168ED
:2036800021F400618160E168826811438160816821F070618160A26A81689A4206D121F006
:2036A00040510CE00120704701204AE011438160816821F040518160E16A8268114381605F
:2036C000816821F002018160A169226A836843EA4101816041686AB141F400611D4A4160D9
:2036E000416821F460414160616A02EB41314268114301E021F400614160174DC16A21F406
:203700007001C162E2696169236B05EB0252C56A2A43C262826822F400728260826842EA04
:2037200043228260826822F480628260826842EA81210122816000206064216C62F30101FA
:203740002164002184F83C1070BD00BF042301400100000F00E0FFFF0000F0FFF8B50446D3
:2037600000680D468168490544BF80685FEAC05027D400F0F5FB06466F1C206801688907E0
:2037800010D4002FF9D025B100F0EAFB801BA842F3D9002084F83C00206C40F00400206435
:2037A0000320F8BD6FF012010160216C41F400712164816811F0405F01D1A16951B100201F
:2037C000F8BD002084F83C00206C40F0200020640120F8BDC16A11F4700F02D08068400578
:2037E000EDD4206C20F480702064206CC004E6D4206C40F001002064E1E7000081B000218F
:20380000009190F83C10012901D1022049E0012180F83C1001688A68D20710D18A68234BA1
:2038200042F001028A60204A1268B2FBF3F202EB42020092009A12B1009A013AF9E78A682C
:20384000D2072DD0026C40F201739A4302F5807202644A68520504D5026C012363F30D3249
:203860000264026C0023D20444BF436C23F00603002243646FF022030B6080F83C200C48CD
:20388000D0F80423D20603D0814209D1806800E0886810F0405F03D1886840F080408860FE
:2038A000002001B0704700BF3C07012040420F000020014010B51F2321FA03F4E40704D192
:2038C000013B5C1CF8D14FF0FF330124B4EBF20F09D04FEAF204022C10D0032C05D1062BE9
:2038E00003D9012010BD0F2BFBD800684161816821F0180111438160002010BD072BF0D8B8
:20390000F3E7000010B588B10446407F20B9002020772046FEF75DFB02206077207938B108
:20392000D4E902122046FFF7C5FF40B1012010BD20680F494161816821F018018160607968
:2039400008B1206901E04FF0FF302168D4E905230861886820F0600010438860886820F064
:2039600080001843886001206077002010BD00BFB71DC10470B50446006846680568F1075D
:2039800018BF15F480717DD1B0061AD515F4005017D020686169026822F4005202604FF05E
:2039A00020028260E06B40F00200E0634FF0000084F838004FF0040084F8390009B1204638
:2039C000884730071AD515F4006017D020686169026822F4006202604FF008028260E06B96
:2039E00040F00400E0634FF0000084F838004FF0040084F8390009B12046884770070CD51E
:203A000015F4806009D02068016821F480610160042181602046FEF7DEFAB00718D515F4B6
:203A2000007015D020682169026822F4007202604FF002028260E06BE0634FF0000084F85D
:203A400038004FF0010084F8390009B120468847F00616D515F4805013D02068016821F4A7
:203A60008051016010218160E06BE063002084F83800012084F839002046BDE87040FEF71A
:203A8000A9BA70BD016821F480710160E16B41F00101E16301218160002084F83800042008
:203AA00084F83900616900293FF46EAF204688476AE770B50446866D00F052FA054694F813
:203AC000350002281ED12068216C026822F016020260426922F08002426109B9A16C19B112
:203AE000016821F008010160016821F0010101600068C0070DD000F033FA401B052814D868
:203B00002068F5E7002084F8340080206065012070BDE06D3F2101FA00F00121B0600020D4
:203B200084F8340084F8351070BD20206065002084F83400032084F8350070BDB0B530B1CB
:203B4000054690F83500022803D102241BE0012419E028680024016821F00101016021214D
:203B6000046044608460C460046141612846FDF799FFE96D3F2202FA01F181606C6585F860
:203B8000344085F835402046B0BD00002DE9F041044600F0E5F9ACB10546022084F8350012
:203BA000002084F834002168086820F0010008600868C00709D000F0D3F9401B052839D85E
:203BC0002168F5E70120BDE8F081271D0868354AE8CF00EA020E43EA0E032B43D4E9050CEB
:203BE00033433B43D4E907281843636A40EA0C00042B40EA020040EA08021FD1D4E90A53EE
:203C0000206B1A4340EA0200086051F8140F20F0030040EA050040F00402B3B1BCF5005FD0
:203C200024D0BCF1000F31D1022D32D0012D27D07DB30AE003262027032012E00A6051F82A
:203C4000140F20F0070040EA030220460A60FDF729FFE16D3F2202FA01F100278160012643
:203C60000020676584F83560BDE8F081032DECD8012640270120DFE805F0020C0203F0E7E8
:203C8000A3F1C070B0FA80F0400904E0032D04D3DBD1C3F300600028D7D0012640270120D2
:203CA000DFE700BF3F8010F080B509484FF0FF31002201610261416142610160026041603B
:203CC00042608160826000F0E1FF002080BD00BF103802401CB5019000F042F9044600F042
:203CE0003FF9001B01998842F9D31CBD2DE9F04F8E4A4FF00A0A90428D4A024408BF4FF0F3
:203D0000090A4FEAB2234FF0000E092B38BF4FEAB22A884A01264FF00F09A2F57E7B4FF0D6
:203D200000080025102D49D006FA05F20A423FD00323076803FA0EF46FF00303A74303EADE
:203D4000550C076008F01C0700EB0C0309FA07F71E6ABE431E628368A34383604368934347
:203D60004360C368A343AC08C36008F00C0309FA03F75BF824603E400AFA03F39E424FF046
:203D8000010615D15BF82430D243BB434BF82430684B1C461B681340236063681340636096
:203DA000A3681340A360644B1C461B681A4022600EF1020E08F104080135B3E7BDE8F08F2A
:203DC0002DE9F84F594A4FF00A099042584A024408BF4FF009094FEAB2234FF0000E092B30
:203DE00038BF4FEAB2294FF0010A4FF00F084FF0000B0022102A00F096800AFA02F60C68FC
:203E0000344200F08A804F6847F01004122C11D16FF003030BF01C0403EA520508FA04F74F
:203E20000544D5F820C00B692CEA0707A3403B432B624F68032407F0030304FA0EF40568BE
:203E400003FA0EF3A5432B43E443122F036012D80AFA07F313F0061F0DD08368CD682340D3
:203E600005FA0EF52B438360C7F3001345689340B5432B434360C36823408C6804FA0EF417
:203E80002343C360FB0048D52C4B22F003051C461B6843F48043274F2360BC4623683D440A
:203EA00003F4804300930BF00C03009F08FA03F4234F09FA03F3B846EF5927EA04042343E3
:203EC00045F808304FF00F08DCF800304D6843EA0604EF0358BF23EA0604CCF80040DCF82F
:203EE0000430AF0343EA060458BF23EA0604CCF80440DCF80830EF0243EA060458BF23EA17
:203F00000604CCF808400C4BAD021F461B6843EA060458BF23EA06043C600EF1020E0BF191
:203F2000040B013266E7BDE8F88F00BF002402400000FEBF003C01400C3C01404438024020
:203F400008FCFFFF002A08BF0904816170470000024800686FF31F30704700BF002004E0EB
:203F600001480068704700BF0077012001480068704700BF20F4F01F01480068704700BF11
:203F800024F4F01F01480068704700BF28F4F01FB0B110B50446242084F841002068016846
:203FA00021F0010101602046FEF716F80020606484F84100206384F8400084F8420010BDB9
:203FC0000120704790F841007047000010B3B0B5044690F8410028B9002084F8400020462B
:203FE000FDF7FBFF242084F84100D4E90003D4E90212056823F0706325F00105012A056043
:204000000361836823F40043836005D141F40041816009E00120704741F40441022A81609F
:2040200002D14FF40061416041680F4A114304F110054160C16821F40041C1602ECD114378
:2040400041EA0321C160216A29430160016841F00101016000202021606484F84110206326
:2040600084F84200B0BD00BF008000022DE9FE4F04460020029094F84100202808D12068FF
:2040800089468169090403D494F84010012902D10220BDE8FE8F24211D4684F841100121BF
:2040A000904684F8401000216FF39F295F1C4FF0200A6164E16801294FF4205104BF42F24C
:2040C0000001C0F2002149444160FFF749FF06462068816989065CBF81695FEAC1610CD403
:2040E00094F84110A02908D0002FF1D075B3FFF737FF801BA842EBD928E0D0F818B02046B7
:20410000202100222B46009602F038FD5FEACB6123D518BB20681021C161C0F81CA00299E4
:204120004A1C414502920ED14168002241F480412B46416020462021009602F01FFD68B9E1
:204140002068C0F81CA002994145B3D3002084F84000202084F8410000E010B10320BDE87A
:20416000FE8F20682021C161002084F8400084F84110BDE8FE8F00002DE9FE4F044690F8B7
:20418000410020280ED10C9D0120002D00F0B580DDF834B0BBF1000F00F0AF8094F840003C
:2041A000012802D10220BDE8FE8F01201F4616468A4684F84000FFF7D3FE814600902046BD
