:020000040000FA
:20000000B8750320DD01010841720108196701083D720108730C01089D92010800000000EC
:20002000000000000000000000000000EF010108B916010800000000F30101083D83010829
:20004000F7010108F7010108F7010108F7010108F7010108F7010108F7010108F701010898
:20006000F7010108F7010108F7010108F7010108F7010108F7010108F7010108F701010878
:20008000F7010108F7010108F7010108F7010108F7010108F7010108F7010108F701010858
:2000A000F7010108F7010108F7010108F7010108F7010108F7010108F7010108F701010838
:2000C000F7010108F7010108F7010108F7010108F70101088592010891920108F7010108CE
:2000E000F7010108F7010108F7010108F7010108F7010108F7010108F7010108F7010108F8
:20010000F7010108F7010108F7010108F7010108F7010108F7010108F7010108F7010108D7
:20012000F7010108F7010108F7010108F7010108F7010108F7010108F7010108F7010108B7
:20014000F7010108F7010108F7010108F7010108F7010108F7010108F7010108F701010897
:20016000F7010108F7010108F7010108F7010108F7010108F7010108F70101080000000078
:20018000F7010108F7010108F7010108F7010108F7010108F7010108F7010108F701010857
:2001A00005700108F70101086D160108F7010108757E0108F7010108F7010108F701010834
:2001C000F7010108F7010108DFF80CD000F06CFB00480047A99A0108B875032006488047D3
:2001E00006480047FEE7FEE7FEE7FEE7FEE7FEE7FEE7FEE7FEE7FEE759830108C9010108C0
:2002000010B5441A0346944209D28318114403E011F8014D03F8014D521EF9D210BD40EA1C
:200220000104A40703D009E010C9121F10C3042AFAD203E011F8014B03F8014B521EF9D2C1
:2002400010BDD2B201E000F8012B491EFBD270470022F6E710B513460A4604461946FFF751
:20026000F0FF204610BD421C10F8011B0029FBD1801A704730B504460020034600E05B1CA5
:20028000934203D2E05CCD5C401BF8D030BD034611F8012B00F8012B002AF9D11846704794
:2002A0002DE9FE4F804681EA0300C00F0C46009021F0004123F00045B8EB0200A94105D2E6
:2002C0004046214690461C460B46024623F00040104347D0270DC7F30A00C3F30A51029008
:2002E000401A019040286BDAC3F3130040F4801B0098924620B10023D2EB030A63EB0B0B3C
:2003000001985946C0F14002504600F0D8F906460D4650465946019A00F0F0F910EB080010
:200320006141002487EA115284EAE7731A4340D0009A62B3019A012A4FEA075215DC001BDB
:2003400061EB02014FF0004202EA0752CDE90042001C41F5801132462B4600F027FA03B000
:20036000BDE8F08F40462146F9E7001B61EB0201001C41F5801300185B412018A2F50017A3
:2003800047EB030140EAD570B6196D4111E06D084FEA360645EAC0754FEA0752001B61EB03
:2003A0000201001C41F5801149084FEA30000019514132462B4603B0BDE8F04F00F0E7B9E2
:2003C0000098012240000023D0EB020263EBE073009821464FEAE074B8EB000061EB04011F
:2003E000E9E783F000435BE781F0004158E72DE9FE4F81EA030404F0004421F00041009451
:200400004FF0000B23F0004350EA01045ED052EA03045BD0C3F30A54C1F30A552C44A4F234
:20042000F3340194A0FB0254C1F3130141F48011C3F3130343F4801301FB024400FB034E5D
:20044000840A970A44EA815447EA8357A4FB076802958D0A05FB07854FEA932C04FB0C5440
:200460002705029D4FEA065847EA1637B5EB08056EEB070C870E920E47EA811742EA8312C4
:20048000A7FB0201B6EB0B0164EB00042B0D43EA0C335E1844EB1C50DA465146E7FB020166
:2004A000C5F313044FEA0B3343EA14534FEA0432019C43EA0603A4F10C040294009CCDE993
:2004C00000B400F073F903B0BDE8F08F00200146F9E72DE9F04D81EA030404F0004B21F0D9
:2004E000004514464FF0000A23F0004150EA050220D054EA01021DD0C5F30A570246C5F348
:200500001303C1F31300C1F30A5640F4801543F48013A7EB0608101BD64608F2FD3873EBE3
:20052000050002D308F1010801E092185B41B8F1000F03DA00200146BDE8F08D00204FF437
:200540008011064684460EE0171B73EB050705D3121B63EB050306434CEA010C49084FEAF9
:20056000300092185B4150EA0107EDD152EA030012D082EA040083EA0501084305D0101BB6
:20058000AB4106D20122002306E000224FF0004302E06FF0010253101AEB06004CEB085185
:2005A00010EB0A0041EB0B01BDE8F04D00F0EFB80EB5C10F80EAE0700844CA07002140F2C8
:2005C00033438DE80E000A460B4600F0EFF803B000BD00F0004230F000400AD0C10D01F50A
:2005E0006071C0F3160042EA0151C20840071143704700200146704701F0004330B421F080
:20060000004150EA010206D00A0DA2F56072C1F31301002A02DC30BC00207047440F44EAF2
:20062000C104C100E01830BC00EBC25000F078B830B50B46014600202022012409E021FA2B
:2006400002F59D4205D303FA02F5491B04FA02F52844151EA2F10102F1DC30BD2DE9F05F4B
:200660000546002092469B4688460646814640241BE0284641464746224600F02FF853467C
:200680005A46C01A914110D311461846224600F016F82D1A67EB01084F462246012000212F
:2006A00000F00DF817EB00094E41201EA4F10104DFDC484631462A464346BDE8F09F202A9C
:2006C00004DB203A00FA02F1002070479140C2F1200320FA03F3194390407047202A04DB5A
:2006E000203A21FA02F00021704721FA02F3D040C2F120029140084319467047202A06DB69
:20070000CB17203A41FA02F043EAE07306E041FA02F3D040C2F120029140084319467047C3
:200720000029A8BF7047401C490008BF20F00100704710B4B0FA80FC00FA0CF050EA01041F
:2007400004BF10BC704749B1CCF1200421FA04F411FA0CF118BF012121430843A3EB0C011A
:20076000CB1D4FEA00614FEA102042BF002010BC704700EBC35010440029A4BF10BC704789
:20078000401C490008BF20F0010010BC704710B5141E73F1000408DA401C41F100019218DF
:2007A0005B411A4301D120F0010010BD2DE9F04D92469B4611B1B1FA81F202E0B0FA80F2A6
:2007C00020329046FFF77BFF04460F4640EA0A0041EA0B0153465A46084313D0114653EA7C
:2007E000010019D0C8F140025046FFF777FF05460E46504659464246FFF761FF084305D040
:20080000012004E020463946BDE8F08D0020054346EAE0762C4337430A986305E40AA0EB72
:2008200008000022FD0A44EA47540A3002D500200146E9E7010510196941DDE90845001971
:200840006941BDE8F04DA2E7C1F30A52C1F3130140F2FF3341F480119A4202DA0020014662
:20086000704740F233439A42A2F2334202DC5242FFF734BFFFF723BF30B5041E71F1000494
:2008800004DB4FF00044404264EB0101141E73F1000405DB1C464FF00043524263EB0403DC
:2008A000994208BF904230BD064C074D06E0E06840F0010394E8070098471034AC42F6D372
:2008C000FFF786FC28BD030858BD030870B58C1810F8015B15F0070301D110F8013B2A1103
:2008E00006D110F8012B03E010F8016B01F8016B5B1EF9D12B0705D40023521E0DD401F876
:20090000013BFAE710F8013BCB1A921C03E013F8015B01F8015B521EF9D5A142D8D3002058
:2009200070BD00002DE9FC47204D4FF0010945F8049F804600244FF0100A1D4F4FF6FF7236
:2009400005F12C0629463046C5E901A9EC600194B847012003F076F802202946C5E9000A87
:2009600030464FF6FF72C5E90294B84708200321C5E9001AC5E90204304629464FF6FF72A5
:20098000B8474FF40871042001914FF6FF720199C5E9000AC5E9029130462946B847304643
:2009A0004146BDE8FC4705F028BC00BF3C0A01201D6201082DE9F04F85B080465F48816861
:2009C0004FF00C0B41F001014FF0030A816000278168022401F00101594D00916E460099B4
:2009E000DFF86091016841F480010160016801F4800100910099016841F001010160016840
:200A000001F0010100910099016841F004010160016801F0040100910099016841F008018D
:200A20000160016801F0080100910099016841F010010160016801F01001009100990168BE
:200A400041F020010160016801F0200100910099016841F0400101603146006800F04000F3
:200A600000900098CDF810B04FF63F00CDF80CA002970194009005F5A050C84701A83146FD
:200A800080E8900C802000902846C84701A8314680E8900C3020009005F50060C84701A88F
:200AA000314680E8900C48F23310009005F5C050C84701A8314680E8900C4FF683700090A9
:200AC00005F58050C84701A8314680E8900C4CF20370009005F54060C8471B4D4FF4003054
:200AE00005F12001194C81E88104C5E90B774FF480404FF480514FF480624FF40073C5E9BC
:200B000000478024C5E90243C5E90421C5E906072846C8F83050C5F8388002F0DDFE28460B
:200B200002F002FF38200F21002203F08DFF382003F07CFF05B0BDE8F08F00BF3038024091
:200B400000000240313B0108B40C0120106402402DE9F04F8BB0DFF80491824699F80000F2
:200B6000D9F808100969884700288AF8000070D000260DF10E040DF1040B4FF00008C0B265
:200B8000804566D299F80000D9F80830A1190BEB06025B69984799F80100012808D1A15BD3
:200BA0000DF1220006AA81533BF8060090531FE0810705D5A15B0DF12202C1F5805191538B
:200BC000410705D53BF8061006AAC1F580519153000705D406A80DF12201805B895B07E03A
:200BE000A05B06A90DF1220288533BF80610915309EB4605EB682A6A5C1A38BFCC1A171A77
:200C000038BF871ABFB217FA84F4062C03D302460B462862E96099F80040702C03D10AEB98
:200C2000060251800AE0B9F802100AEB06005943090B4180B9F804005043000B0AEB060173
:200C40000DF10E04888102369AF8000008F1010895E700200BB0BDE8F08F00BFB409012097
:200C600000F00F01000900EB800001EB4000C0B2704707F04BBA0000B0B50F4C0F4D206C07
:200C8000A847606CA847A06CA847E06CA847206DA847606DA847A06DA847E06DA847206E76
:200CA000A847606EA847A06EA847E06EA847E06A20F40070E062B0BDC40B01204120020876
:200CC0001CB50CF07DFB1C480DF03CF8012011F0B9FE0DF0ABFA00200DF0D8F80BF039FEA0
:200CE00001200DF0D3F84FF07F400DF0E7F80BF030FE0DF102003021062200F00FFD9DF8FE
:200D000002100E489DF803209DF804309DF8054080F85A109DF8061080F8602080F864307F
:200D200080F8664080F86A109DF8071080F86E100CF0FEF91CBD00BF45720108400C012049
:200D40002DE9F04F85B0002000270DF09FF80BF000FE012001240DF099F84FF07F400DF066
:200D6000ADF80BF0F6FD01200CF0DCFEDFF87464DFF874143046012205F0C2F8DFF86C143C
:200D80003046012205F090F802214FF40160CDE9007102A94FF05A0A81E81104DFF8504418
:200DA0000A2014215A221E23A047A346DFF84494DFF844440221C9F81C00A0472646DFF80F
:200DC0003C446178D9F81C00DFF83454A84740F611004FF0020800973C21CDE901800120A3
:200DE0005A22CDE9030A0A201E23D8470221C9F82000B047E17AD9F82000A84740F61201AB
:200E0000F020CDE9007802910121CDE903100A2082215A221E234FF0020AD8470221C9F83E
:200E20002400B047617BD9F82400A84740F6130002A94FF017085A22CDE9007A81E88101EE
:200E40000A20AA211E234FF0020AD8470221C9F82800B047A17BD9F82800A84740F61400A1
:200E600002A9CDE9007A81E881010A20D2215A221E234FF0020AD8470221C9F82C00B04761
:200E8000E17BD9F82C00A84740F6160002A9CDE9007A81E88101BE2014215A221E23D84709
:200EA0000221A067B047DFF840A3DFF858839AF80000A66FC04701463046A8473B2040F6BA
:200EC000170102220097CDE90121CDE90370BE203C215A221E23D8470221C74AC9F8000032
:200EE00090479AF80100D9F80060C04701463046DFF8F8A2D346A84740F6180102221F2068
:200F00000097CDE9012101215A22CDE90310BE2082211E23DFF8D882AA46C0470221B64EEA
:200F2000C9F80400B0479BF80200DFF8D8B2D9F80450D84701462846D04740F6190102227B
:200F40000C200097CDE9012101215A22CDE90310BE20AA211E23C0470221C9F80800B047BB
:200F6000A248D9F808504078D84701462846D04740F633004FF4FA6140F61A0202230097A6
:200F8000CDE90132CDE90310BE20D2215A221E23C0470221C9F80C00B0479448D9F80C501A
:200FA000C078D84700F5FA612846D346D0471C2040F6150102254FF0010A00975A22CDE92A
:200FC0000151CDE903A04FF4AA7014211E23C0470221C9F81000B047217BD9F81000D84705
:200FE00040F61C004621CDE900704FF4AA706E2214230295022509F068FC4FF47F41C9F80F
:20100000140009F08FFDD9F814007FA109F066FDE16AD9F81400C1F3804109F043FD40F6C2
:201020001F006421CDE90075CDE902A04FF4AA708222642309F00AFFA5A5C9F81800062FA7
:20104000A76208D855F8271009F013FEA16AD9F818004F1CF3E76549097801390AF0CDF8B8
:20106000022540F60100CDE900054FF4AA70B42182221E2309F026FA6649C9F8340009F08A
:20108000A5FB4FF40060E621CDE900054FF4AA7082221E2309F016FA5F49C9F8300009F06E
:2010A00095FB207B5D4951F820000CF009FF4FF4AA7033214FF4D7723B230CF061F86FF0A3
:2010C0007F400CF0FDFE56480CF008FF0C200CF05BFF544F0F200521A022B847524D0A20B5
:2010E0000521A84751A0564EB0476E202321A84754A0B0476E204B21A84754A0B0470F20A0
:20110000B9214FF4A072B847BE200521A84750A0B0474FF491702321A847504C2046B04757
:201120004FF491704B21A8474DA0B0470F2040F24F1140F2DB12B8474FF4AA700521A847DB
:2011400049A0B0474FF4DC701A21A84749A0B0474FF4DC702621A84748A0B0477D200521AF
:20116000A022B8470A207321A84746A0B0476E209121A84748A0B0476E20B021A84748A0E0
:20118000B0476E20BC21A8472046B0476E20D821A84745A0B0476E20E421A8472046B04770
:2011A0007D20B9214FF4A072B847BE207321A8473FA0B0474FF491709121A8473FA0B04772
:2011C0004FF49170B921A8473DA0B0474FF49170E121A8473CA0B047012005B0BDE8F04F6C
:2011E0000CF012BD400B0120280B0120080B012087140208400C0120DB160208C40B012033
:201200002F170208610C010853435245454E534156455200DCBA030896BA0308B4B7030855
:201220000CD20208B1CF0108B1D30108444953504C4159204241434B4C49474854000000F1
:2012400001CC010848494748000000004C4F57005345542054494D4500000000C1BA0308E5
:201260004D494E555445000053455420434F4C4F5200000046554C4C00000000434C4F43BD
:201280004B00000053435245454E5341564552204F5054494F4E000054494D454F555400A2
:2012A000454E41424C45000044495341424C4500534554204441544500000000444159008B
:2012C0004D4F4E54480000005945415200000000B9BA0308BDBA03089BBA0308CEBA030864
:2012E000D2BA030873BA030877BA03082DE9F041854C064620461021012202F0E0FC0120D6
:2013000002F0A0FB20461021002202F0D8FC6FF07F400CF0D5FD7D480CF0E0FD02200CF019
:201320003DFE0E200CF030FE4F2E18BF422E2DD1642000214FF4B972322300250BF018FBBD
:201340004F2E4CD0422E40F0D180724EDFF8C0817079002508EB0001002881F8545072D0A2
:201360000138002732247071C1B28F426CD2EB2014210CF01DF807FB04F00F22823001B277
:201380002A200BF01DFC70790137EDE7A6F13000092822D85F4C607930B9642000214FF4B3
:2013A000B97232230BF0E4FA0C200CF0EDFD6079042808D88221322210FB02112A200F224D
:2013C0000BF0FEFB60795249014481F85460411C6171C9B2062928BF6071002586E04D4E7C
:2013E0004B48717980F85950543006F07FFF0546EB2014210BF0DCFF40F62910854228D0C8
:2014000042F20F7085423FD14FF47F400CF058FD46A00BF0F5FBF06A102140F4805001226C
:20142000F062204602F04BFC4FF4FA7002F00AFB20461021002202F042FC4FF47A7002F00F
:2014400001FB022552E0002058FA80F080F854504CE04FF47F400CF033FD2FA00BF0D0FB4A
:20146000204610210122012502F029FC4FF4FA7002F0E8FA20461021002202F020FC4FF4EA
:201480007A7002F0DFFA31E0EB2014210BF090FFFF200CF015FD2AA00BF0B2FB2C4E20463D
:2014A00010210122B0472B4F3220B8472046102100220025B0476420B84720461021012204
:2014C000B0473220B847204610210022B0476420B847204610210122B0473220B847204629
:2014E00010210022B0474FF47A70B84700200CF055FD02F0F1FB074947F23052C1E90E0265
:201500002846BDE8F08100BF000C024010010308400C0120C40B012055534552205041537E
:2015200053574F5244204F4B00000000534552564943452050415353574F5244204F4B0004
:2015400057524F4E472050415353574F52440000BF3C0108453A0108B0B52E4C1C4DE0694E
:20156000A847206AA8476069A847206DA847606AA847A06AA847E06AA847A069A847324872
:20158000806FA8472068A8476068A847A068A847E068A8472069A847206BA847606B2946E5
:2015A000BDE8B040084700BFB0B51A4C084DA06BA847E06BA847206CA847606CA847A06CF2
:2015C000A847206BA847606B2946BDE8B04008474120020870B50F4890F86010C1B190F8AB
:2015E0005C00A8B900F01AF80B4C102120460122012502F064FB012002F024FA20461021DC
:201600000022002602F05BFB0F4846620570066370BD00BF400C0120000C024010B50A4C9B
:20162000E06A00F40811B1F5081F01D10621217020F48400E06202F04FFBA0616078BDE868
:20164000104000F003B800BFC40B0120502828BF5020052898BF052000EB80000249400072
:2016600009684863704700BF840B012080B5034802F04EF802480221016080BD0C6C0120CC
:2016800008B0024010B501686FF00F0252FA81F21823B2FBF3F306A45F2AE35C40F2FF344E
:2016A00021EA040188BF0431C0E91613084610BD0006101600061016704781B000210091BF
:2016C000C1B20A2904D300990A3801310091F7E7009909010091009951FA80F00090009861
:2016E000C0B201B0704705F085B980B5FFF7FBFFA02040F6B83100F009F828B1A820912195
:20170000BDE8804000F096B880BD00000A46014640484FF47A7302F065BB00BF80B513463B
:201720000246A02000F002F880BD00001CB50C4699B2CDE90021C1B236482246022305F0C2
:20174000D3F91CBD2DE9F8430C46054602F03F08960911F03F001DD01746C0F1400936B3B1
:20176000284621464A4600F057F8E8BBA7EB09004D4400F03F0780B24C448609300435D036
:20178000A1B22846402200F047F868BB013E40354034F3E7E6B130041DD0A1B228464022F7
:2017A00000F03AF800BB013E40354034F3E7B9450ED2284621464A4600F02EF8A0B909EBA4
:2017C0000401A7EB090205EB090089B292B208E02846214604E0B8F1000F0CD0A1B22846F9
:2017E000424600F019F830B1BDE8F8831FB1A1B228463A46F5E70020BDE8F8831CB50C460F
:2018000099B2CDE90021C1B202482246022305F09DF91CBD986C012080B513460246A0203D
:20182000FFF7ECFF00B180BDA02040F6B831FFF76DFF80BD06F06ABC2DE9F0410B6802681B
:20184000012B1ED1D1E9073422F4F84201F10C0C1A43D1E901E8496A224311439CE8E0103E
:201860004268016047F6FF7122EA010141EA0E0141EA080129433143394341EA0C014160FF
:2018800017E047F6FF730F1D22EA030CD1F82080F8CFD1E9062E43EA0C03496A23432B437A
:2018A00033433B431A4342EA0E0242EA0802114301600020BDE8F081426942EA41014161BF
:2018C00000207047F8B5054600200090144691E80D006FF01F06C96806EB431310431843FF
:2018E00040EA412000900098286102F0F5F90646671CA869800609D5002FFAD024B102F0C8
:20190000EBF9801BA042F4D90320F8BD0020F8BDF0B58368012A27D1294A1A4091E878106B
:20192000D1E9057E2349013B01EB06311143234A02EB07521143C26881606FF00F0102F0D8
:20194000704201EB04111A4311436FF0FF0202EB05221143184A02EB0C421143AEF10102C8
:2019600041EA0261C16022E091E874006FF00F0703F07043013A07EB04141A436FF0FF03AB
:20198000224303EB05231A430A4B03EB06330A4C1A430B6904EB0343084C1A434B6904EB43
:2019A000035389691A43013942EA016181600020F0BD00BF00F0FFFF0000FFFF0000F0FF72
:2019C000FF0F0FFF70B5494E0546307A0C46C00713D005F0AFFB2289F168606806F081F963
:2019E00018B10020C6E9030003E02089F1680844F06005F09FFB06F0DDF82846214606F0A6
:201A0000E7FE02F069F97061012070BD70B5374E0546307AC00767D148680C46417A0229E8
:201A200015D13279017A914212D1016809BAF160406800BA306105F07DFBD6E903010144FF
:201A400006F070F8E0B30020C6E9030048E032794178914211D10278A13A1F2A0DD80123DB
:201A600003FA02F2224B1A4207D02846214606F0AFFE60680078F07036E0FF2934D1017801
:201A8000D52931D18178C27803794579194C21701949E570194DA2706370C2880A800122EA
:201AA000007A8870284604F001FB28462146012204F0A8FA1248016841F40041016013E03B
:201AC000B068114A40F001000221B0600D4806F07AFD2846214606F07BFE02F0FDF8706171
:201AE00005F028FB06F066F8012070BDC00A012001000083080B0120280B0120400B0120C9
:201B0000F00B0120BC6E0120C519010802484FF400110AF073BC00BF000060C006490A6810
:201B200010440A689042FCDC704700BF7047000001480068704700BF740D01207047000088
:201B4000F8B50022009290F83C20012A01D1022156E0012280F83C200A681FFA82FC0A2AB6
:201B60004FEA4C0414FA82F60FD31E3E072404FA06F70468254655F80C3FBB432B60324B7D
:201B80008F689A420ED13E060EE0046807232546B34055F8107F27EA03032B608B6803FAFF
:201BA00006F601E007FA06F62B6833432B604D68062D05D805EB850304F134015D1F0CE0E8
:201BC00005EB85060C2D04D804F13001A6F1230503E004F12C01A6F141051F230E68AB400B
:201BE00026EA03030B600CFA05F30D682B430B607149A1F541739C4204D0002180F83C107D
:201C00000846F8BD112A09D00F4B9A4206D0122AF3D10A6842F480020A60EEE70B6843F48E
:201C200000030B6008498A42E7D1BB49BB4A0968B1FBF2F101EB810149000091009900294E
:201C4000DBD000990139F8E712000010B8B110B504460068216C41F002012164816821F0E5
:201C6000010181608068C00705D1204600F0ACF8002060642064002084F83C0010BD0120D4
:201C800070470068C06C7047002841D070B50446006C30B9002084F83C006064204600F053
:201CA00094F8206CC00635D4206C41F202118843414902302064086820F44030086094E888
:201CC0000D0025690E6832430A60416821F480714160416841EA05214160416821F04071BE
:201CE000416041681943354B4160816821F400618160E168826811438160816821F07061AA
:201D00008160A26A81689A4206D121F040510CE00120704701204AE011438160816821F05A
:201D200040518160E16A826811438160816821F002018160A169226A836843EA4101816018
:201D400041686AB141F400611D4A4160416821F460414160616A02EB41314268114301E018
:201D600021F400614160174DC16A21F47001C162E2696169236B05EB0252C56A2A43C2626D
:201D8000826822F400728260826842EA43228260826822F480628260826842EA81210122F3
:201DA000816000206064216C62F301012164002184F83C1070BD00BF042301400100000FA8
:201DC00000E0FFFF0000F0FF70477047F8B5044600680D468168490544BF80685FEAC0509B
:201DE00027D401F079FF06466F1C20680168890710D4002FF9D025B101F06EFF801BA84292
:201E0000F3D9002084F83C00206C40F0040020640320F8BD6FF012010160216C41F40071FC
:201E20002164816811F0405F01D1A16951B10020F8BD002084F83C00206C40F020002064A9
:201E40000120F8BDC16A11F4700F02D080684005EDD4206C20F480702064206CC004E6D41F
:201E6000206C40F001002064E1E7000081B00021009190F83C10012901D1022049E0012139
:201E800080F83C1001688A68D20710D18A68234B42F001028A60204A1268B2FBF3F202EB87
:201EA00042020092009A12B1009A013AF9E78A68D2072DD0026C40F201739A4302F5807298
:201EC00002644A68520504D5026C012363F30D320264026C0023D20444BF436C23F00603F8
:201EE000002243646FF022030B6080F83C200C48D0F80423D20603D0814209D1806800E003
:201F0000886810F0405F03D1886840F080408860002001B0704700BFB806012040420F00DF
:201F20000020014010B51F2321FA03F4E40704D1013B5C1CF8D14FF0FF330124B4EBF20FB4
:201F400009D04FEAF204022C10D0032C05D1062B03D9012010BD0F2BFBD80068416181686B
:201F600021F0180111438160002010BD072BF0D8F3E7B0B598B10446407F022502280FD05A
:201F8000657700252068816841F00101816001790571204600F006F82577657700E00125F9
:201FA0002846B0BD704770477047704790F83510022909D1052180F835100068016821F0D3
:201FC0000101016000207047802141650120704780B509484FF0FF3100220161026141612A
:201FE000426101600260416042608160826002F009FD002080BD00BF103802407047704769
:042000007400030065
:2020080017112031000001082DE9F04F91B001F05FFEDFF8447E7969401A592804D301F034
:2020280057FE78610BF080F8DFF8301EDFF8308E097898F80000C90708D102282ED0012832
:202048005AD10020B86188F8000055E0002841F0C681012088F8000001200BF05FFD0AF0AC
:2020680074FCDFF8000E0BF035FF4AF2FF500BF023FF02200BF08EFF0E200BF081FFF020C9
:2020880087210BF091F90FF6E0500AF0B5FD01200BF0B6FDFFF7BEFA01F0A1B9002088F8C2
:2020A800000001200BF03AFD0AF04FFC09200BF05FFFFF200BF000FFF02088213222322383
:2020C8000AF072FEDFF8C44D4FF4C87014214FF4E1721423A0474FF4C87028214FF4E172E8
:2020E8002823A0474FF4C8703C214FF4E1723C23A04701200BF084FDF869684C60B104F536
:2021080040604FF4005101F0D1FDA8B90020F861642001F093FC0FE004F540604FF40051CA
:2021280001F0C4FDF969012804D1481CF861FFF74DFA01E00029E2D138780138072827D8B7
:20214800DFE810F008002B00A100F00178028802AA02B103386A002840F0658601200BF086
:20216800DDFC0AF0F2FB09200BF002FF786A002800F0B985002078624848B96A002900F074
:202188001786012940F016860021B96200F0B6BD00203871788000F046BEB878002840F0C8
:2021A80042860120B87001200BF0B8FC0AF0CDFB09200BF0DDFEDFF8D84C4FF47F40A04791
:2021C800DFF8C85C4FF4C87014214FF4E1721423A8474FF4C87028214FF4E1722823A847FC
:2021E8004FF4C8703C214FF4E1723C23A847FF20A047A0202421A022EC23A8474FF4A070FD
:2022080024214FF4A072EC23A847DFF8880CDFF8885C23215022A847DFF8800CCD215A2286
:20222800A847DFF87C0C4FF4AF715A22A847DFF8340C0BF04FFE4AF2FF50A04702200BF08C
:20224800A9FE0C200BF09CFEDFF8584C2D20DC21A047DFF8540CDFF8545CA847C820DC21D0
:20226800A047DFF84C0CA8474FF4B470DC21A047DFF8400CA84701200BF0C2FC0020A7F85B
:20228800030000F0D0BDF878042800F2CC85DFE810F00700B104CB040D052005000C024000
:2022A8000120F8700020787100200BF0EBFD0AF04CFB01200BF0E6FD4FF07F400BF0FAFD51
:2022C8000AF043FB01200BF029FC022540F60200CDE90005DFF8E04B642032213C223C23CD
:1822E800A047786440F60300CDE90005AA2032213C223C23A047B8644A
:2023000040F60400CDE90005F02032213C223C23A047F86440F60500CDE900054FF49B7021
:2023200032213C223C23A047386540F60600CDE90005642078213C223C23A047786540F63E
:202340000700CDE90005AA2078213C223C23A047B86540F60800CDE90005F02078213C2297
:202360003C23A047F86540F60900CDE900054FF49B7078213C223C23A047386640F60A0057
:20238000CDE90005AA20BE213C223C23A047786640F60B06F020BE213C223C23CDE9006549
:2023A000A04738646420BE213C223C23CDE90065A047F86640F60C00CDE900054FF49B70CF
:2023C000BE213C223C23A047B866DFF8A05A386CDFF8F04A2946A047786C2946A047B86C22
:2023E0002946A047F86C2946A047386D2946A047786D2946A047B86D2946A047F86D294648
:20240000A047386E2946A047786E2946A047DFF8B85AB86E2946A047F86E2946A047386CD8
:202420000FF6A821DFF8A84AA047786C0FF6A421A047B86C0FF6A021A047F86C0FF69C2192
:20244000A047386D0FF69821A047786D0FF69421A047B86D0FF69021A047F86D0FF68C21EC
:20246000A047386E0FF68821A047786E0FF68421A047B86E0FF68021A047F86E0FF67C2108
:20248000A047EB2014210AF093FF6FF07F400BF017FDDFF86C0A0BF021FD02200BF07EFD5E
:2024A0000E200BF071FDDFF85C0A0AF0A9FB01200BF0AAFBF86A40F40070F86201F00CFC90
:2024C000B863DFF8440A54300021062207F080FF09200BF051FD4FF47F400BF0F1FCDFF846
:2024E000B4494FF4C87014214FF4E1721423A0474FF4C87028214FF4E1722823A0474FF4AC
:20250000C8703C214FF4E1723C23A04747F2305006ADF86328460BF0E7FB002800F0878415
:2025200006F088FC14200AF033FBF3E73879022800F05083012800F05483002840F077840A
:202540000120387101200BF0EDFA0AF002FA09200BF012FDDFF840A94FF47F404FF47F45BC
:20256000D047DFF830494FF4C87014214FF4E1721423A0474FF4C87028214FF4E1722823EB
:20258000A0474FF4C8703C214FF4E1723C23A04705200BF0F1FCDFF8709999F8600000289A
:2025A0004FF47F4008BFFF20D0478C2014214FF4AA7264230AF05EFDDFF8B0080BF08EFCEC
:2025C00002200BF0EBFCDFF844B90E20D847DFF8DC68F0203C21B0470FF63410DFF8D4481B
:2025E000A04799F86400002808BFFF252846D0478C208C214FF4AA72DC230AF03BFD0E2050
:20260000D847F020B421B0470FF60C10A047DFF85C080BF063FC4AF2FF50D04702200BF063
:20262000BDFC0C20D8470520FA21B0470FF6F800A04701200BF0E8FA0020AFE5B87A01286E
:2026400000F07E82002840F0F2830120B8720020387178800AF07DF91E20B9E20020002424
:202660000BF014FC00200BF02BFC0AF072F9012001250BF00BFC4FF07F400BF01FFC0AF051
:2026800068F997F82D00800701D5FEF7F5FAF87AFEF7DCFFBC723C717C807D623D70C6E38E
:2026A000DFF89458B86F2C780FF006F8C0B2FFF704F8844210D0B86F0EF0FEFFC0B2FEF7FC
:2026C000FCFF2870DFF874082946012203F0EEFCF86A40F40040F862DFF82C686C7830688E
:2026E0000EF0EAFFC0B2FEF7E8FF844210D030680EF0E2FFC0B2FEF7E0FF6870DFF83C084F
:202700002946012203F0D2FCF86A40F40040F862DFF82C587068AC780EF0CEFFC0B2FEF7AD
:20272000CCFF844210D070680EF0C6FFC0B2FEF7C4FFA870DFF804082946012203F062FC85
:20274000F86A40F40040F8626C78B0680EF0B4FFC0B2FEF7B2FF844210D0B0680EF0ACFF1D
:20276000C0B2FEF7AAFF6870DFF8D0072946012203F048FCF86A40F40040F862EC78F0680E
:202780000EF09AFF3030C0B2FEF797FF844211D0F0680EF091FF3030C0B2FEF78EFFE8700C
:2027A000DFF8F80D2946012203F02CFCF86A40F40040F8623C7B30690EF07EFFA04212D0D1
:2027C00030690EF079FF3873C0B2DFF8D81D51F820000BF075FB4FF4AA7033214FF4D772F0
:2027E0003B230AF0CDFC706908F04EF9F96A012821F4802208BF41F480222C78B069FA62A6
:2028000008F0E3FC0130C0B2FEF757FF844211D0B06908F0DAFC0130C0B2FEF74EFF2870E8
:20282000DFF8780D2946012203F0ECFBF86A40F40040F862F069DFF8584DA0477870306A62
:20284000A047F872706AA0477873B06AA047B873F06AA047F8733069A0473873306B07F0E6
:202860008FFF002867D005F01DFD7878F97A7B7B3A7B8DF818100A218DF81900F8898DF8D2
:202880001A30ADF81B00F86A8DF81D20C0F380408DF81E0006A80722FEF754FFDFF8F40CFE
:2028A00020210122FEF74EFFFEF756FE41E0DFF8DC4CDFF8DC5CA06BA847DFF8D81C0870BD
:2028C000E06BA84784F85A00206CA84784F86600606CA84784F86A00A06CA84784F86E0005
:2028E000206B07F04DFF002800F01E8105F0DAFC7878F97A7B7B3A7B8DF818100A218DF81D
:202900001900F8898DF81A30ADF81B00F86A8DF81D20C0F380408DF81E0006A80722FEF788
:2029200011FFDFF8700C20210122FEF70BFFFEF73BFE06207AE2706B07F022FF002800F016
:202940007682FEF709FE002000240BF09FFA0AF000F8012001250BF099FA4FF07F400BF0EB
:20296000ADFA09F0F6FF01200BF0DCF8FE204FF402610222DFF830ACCDE90042CDE9021572
:2029800004900A200A215A221E23D047DFF81CBC0221B063D847DFF8FC0BDFF8145C0178D8
:2029A000B06BA84740F6210002214FF018090094CDE901100A2032215A221E23CDE903499C
:2029C000D0470221F063D84796F85A10F06BA84740F62200022100945A22CDE901100A208D
:2029E0005A211E23CDE90349D04702213064D84796F86610306CA84740F62300022100948D
:202A00005A22CDE901100A2082211E23CDE90349D04702217064D84796F86A10706CA84763
:202A200040F62400022100945A22CDE901100A20AA211E23CDE90349D0470221B064D8479D
:202A400096F86E10B06CA84740F60100A0210090022001904FF4AA7082222823022407F0BB
:202A600031FDDFF8501B706307F0B0FE4FF40060DC21CDE900044FF4AA708222282307F0D1
:202A800021FDDFF8341B306307F0A0FE6FF07F400BF016FADFF8240B0BF020FA0C200BF05F
:202AA00073FADFF81C4B6E200E21A0470FF61430DFF8186BB0476E201A21A0470FF6103038
:202AC000B0476E203621A0470FF60C30B0476E204221A047DFF80C5B2846B0476E205E2173
:202AE000A0470FF60430B0476E206A21A0472846B0476E208621A0470FF6F820B0476E209C
:202B00009221A0472846B0476E20AE21A0470FF6F020B0476E20BA21A0472846B047012090
:202B20000BF072F8082081E1606B07F029FE002800F07D81FEF738FDFEF702F9072075E110
:202B400001F0CAF8796F401AB0F57A7FC0F06F8101F0C2F8786701200AF0E4FF0020322147
:202B60004FF4F072C82309F003FF396FFF20052988BF4FF47F400BF0A3F9DFF8940A0BF085
:202B8000ADF902200BF00AFA0E200BF0FDF9F02050210AF00DFC0FF67C200AF031F8DFF830
:202BA0008C0A0BF09BF902200BF0F8F90E200BF0EBF9F0209C210AF0FBFB386F0AF008F877
:202BC00001200BF021F8386F00283FF4B2AE013838672CE1F879397A084340F02881002011
:202BE000A9E3DFF8A849F97994F86000002900F0A280002800F09F8000209FE001F06CF8BD
:202C0000D7E90E12401A904280F0B680386C07F0B7FD002800F0EA83386C07F0B1FD0028BD
:202C200000F08B8306F006F9142009F0B1FFF3E70320F87001200AF075FF09F08AFE092026
:202C40000BF09AF94FF47F400BF03AF9DFF838494FF4C87014214FF4E1721423A0474FF4B7
:202C6000C87028214FF4E1722823A0474FF4C8703C214FF4E1723C23A04705200BF07CF9C2
:202C8000FF200BF01DF9A0202421A022D823A0474FF4A07024214FF4A072D823A047DFF8B5
:202CA000EC4894F86800002800F0AE82DFF884092821ACE2FB793A7A797A42EA03000843D4
:202CC0001CBF0420F870DFF8C408002B90F8684055D0002C53D0002354E0F879397A7A7AAC
:202CE0000843104340F0A3800220F8709FE0F86A20F40030F8627878FEF7A8FCB86A002807
:202D000090485BD1012404210122BC6200F0D7FFDFF8780880F85C4090F864104FF47F40F5
:202D2000002957D0396B002954D100F0D5FF38634FF47F404EE029B120B9012084F8600012
:202D400005F0B0FA397A94F8640021B118B1002084F8640006E041B138B9012084F86400CC
:202D600000F0BAFF386305F09DFAF879397A08435DD038790130DEE2FDF77EFFD9E51BB14A
:202D800014B9012380F8683090F86C3012B10BB1002202E01AB113B9012280F86C2090F845
:202DA000702011B10AB1002103E000293FD0F2BB012180F870103AE00121B9620024042163
:202DC0000022BC6200F07BFFDFF8C0073C6380F85C40FF200BF074F8DFF8AC574FF4C8701D
:202DE00014214FF4E1721423A8474FF4C87028214FF4E1722823A8474FF4C8703C214FF433
:202E0000E1723C233C24A847F02088213222322309F0CEFF01200AF0F7FE00F05DFF386293
:202E200000203871788088F801407863387097F82E00800700F1958000F04EFF797B4FF4CF
:202E40007A725143BA69801A8842C0F08A803878082879D0072879D1FEF77EFB76E000BF8C
:202E6000C40B0120C80A0120B4060120100103084649524D57415245205550444154452018
:202E800052554E0A0D504C45415345205741495400000000FDCF0108C1DE0108A0B7030838
:202EA00065CD01088CB7030864B70308B1D30108D6BA030801CC0108ADBA0308B3BA03087B
:202EC000C5A401089FA7010878ED020830000000CDA701083100000032000000330000007F
:202EE0003400000035000000360000003700000038000000390000004F4B000042434B0021
:202F0000401F03087BBA0308400C012089DF01084155544F204F4E004155544F204F4646FF
:202F20002035204D494E2E004C4947485420434F4E54524F4C000000280B0120400B012091
:202F4000080B0120000C0240FEF72EFBF87AFEF77DFB06203870F86A20F4840000F5003005
:202F6000F862386B60B300F0B7FE396B401ACD49884225D3002400203C630AF087FF002043
:202F80000AF09EFF09F0E5FC012001250AF07EFF4FF07F400AF092FF09F0DBFCFEF73EFB7B
:202FA000C14E10213046012200F089FE012000F049FD30461021002200F081FE7C623D70A7
:202FC000386A40B100F088FE396A401AB0F5FA7F01D30020386200F07FFE796B401AB0F5EF
:202FE0007A7FC0F0008200F077FE78633878012800F2F98197F82D00000640F1F481DFF8E2
:203000009C55DFF8946528463146012202F078FFDFF88C4528462146012202F045FFB97B74
:20302000FA7B307891420FD20021904238BF01210846FDF715FE28B13078FDF711FEB97BA6
:20304000884217D2F96A0EE0FDF70AFEB97B884210D23078FDF704FEFA7BF96A904202D274
:2030600041F4001109E0880208D5062021F40011387002E0F86A40F40011F96201F41810C5
:20308000B0F5181F40F08D80480203D52078BA7C82423FD041F48000F86200200AF042FDEC
:2030A00000200AF0F3FE09F054FC00200AF0ACFD01200AF037FD01200AF0E8FE4FF07F40AB
:2030C0000AF0FCFE09F045FC3C2088F801002078B87409200AF050FF4FF47F400AF0F0FEC5
:2030E000DFF8A4544FF4C87014214FF4E1721423A8474FF4C87028214FF4E1722823A84701
:203100004FF4C8703C214FF4E1723C23A84701200AF07AFD09AD31462846022203F0FEFAB7
:20312000B078711C0222C0074FF03A0008BF20208DF82600E81C03F0F1FAF02088210AF02F
:2031400037F9387BDFF85C1451F820000AF0B8FEDFF8F8040AF0C2FE0E200AF015FF012042
:203160000AF0E0FC002050214FF4F072C02309F0FFFB0020DC2164224FF4877309F0F8FBA1
:20318000284609F03DFD2078072863D8DFE800F0044A4D505356590607202070DFF8C80488
:2031A00051E0707898F80110814200F0058109AD88F8010028463146022203F0AFFA3A20E6
:2031C000711C8DF82600E81C022203F0A7FADFF840040AF083FE6FF07F400AF071FE0220BC
:2031E0000AF0DCFE0C200AF0CFFE01200AF09AFC0520F5210AF0DCF80020DC2164224FF468
:20320000877309F0B5FBD1E0DFF82C041E21502209F0A8FD94F86C00002834D0DFF81404F1
:20322000D22133E0DFF83C040DE0DFF834040AE0DFF8280407E0DFF8200404E0DFF81404D3
:2032400001E0DFF80C0401684268008909910A92ADF82C0005F10A00A11C022203F05EFAD7
:2032600060780138112800F28780DFE800F009686B6D6F71737577858585858585797B7D3D
:20328000DFF8140471E0DFF8B003C821502209F069FD94F8700048B1DFF898034FF4B971D6
:2032A00008E000BFE0930400000C0240DFF888034FF4B471502209F055FD6FF07F400AF003
:2032C000FFFDDFF8C09248460AF008FE02200AF065FEBB4C5020C821A047DFF854630E20B9
:2032E000B047DFF85803B94DA847F020C821A0470E20B047DFF84803A8474FF4C870C82136
:20330000A0470E20B047CF48A84748460AF0E6FD4AF2FF500AF0D4FD02200AF03FFE05205C
:20332000FA21A0470C20B047C748A84701200AF06BFC0020B870387179E53020E5E0DFF8AD
:20334000540312E0D24810E0D0480EE0CE480CE0CC480AE0CA4808E0C84806E0C64804E032
:20336000C44802E0C24800E0C0480168426800890C910D92ADF838003020E11C8DF83C00AA
:2033800043F22020ADF83A0005F11900022203F0C5F92E20ADF83F007A480AF09FFDF0205B
:2033A000CE210AF005F80E200AF0EEFD09A809F027FC01200AF028FC2078B97C814212D096
:2033C000A278764DB874B54E28460221B047627828460321B047227828460421B047E27878
:2033E00028460521B04711B0BDE8F08F786C07F0C7F958B1786C07F0C3F928B105F01AFD3D
:20340000142009F0C5FBF5E731207EE0B86C07F0B7F958B1B86C07F0B3F928B105F00AFDC4
:20342000142009F0B5FBF5E732206EE0F86C07F0A7F958B1F86C07F0A3F928B105F0FAFC74
:20344000142009F0A5FBF5E733205EE0386D07F097F990B9786D07F093F9B8B1786D07F010
:203460008FF988B105F0E6FC142009F091FBF5E705F0E0FC142009F08BFB386D07F080F986
:203480000028F5D1342040E035203EE0B86D07F077F958B1B86D07F073F928B105F0CAFCA6
:2034A000322009F075FBF5E736202EE0F86D07F067F958B1F86D07F063F928B105F0BAFC10
:2034C000142009F065FBF5E737201EE0386E07F057F958B1386E07F053F928B105F0AAFCDB
:2034E000142009F055FBF5E738200EE0786E07F047F978B1786E07F043F928B105F09AFC6A
:20350000142009F045FBF5E73920FDF7EFFEB871FFF78DBCB86E07F033F950B9F86E07F011
:203520002FF9F0B9FFF783BC05F084FC142009F02FFBB86E07F024F90028F5D14F20FDF72E
:20354000D5FEB871FDF798FBB879022810D0012813D0A0B906200EE005F06CFC142009F0AA
:2035600017FBF86E07F00CF90028F5D14220CCE7FDF7E6FB0720387001E00220F8700020A5
:20358000C5E700BF10010308FDCF0108400C0120B9160208C40A0120280B0120400B0120DA
:2035A000080B0120B4B7030887140208DB1602082F170208DCBA030896BA03080CD202088D
:2035C000B1D30108444556494345000001CC010842555320494400004D41494E2053572E24
:2035E000000000006CBA0308414C41524D20475545535400414C41524D20484F5553450074
:20360000414C41524D204649544E455300000000401F0308444953504C415920434C45419F
:203620004E2054494D454F55543A00000835030889DF010850B7030878B703088ABA030867
:2036400090BA0308C6BA03089FBA0308D058030880BC030838BC0308A4BC03088CBC0308EF
:2036600098BC030844BC030850BC0308BCBC0308D4BC030868BC0308C8BC030874BC0308B2
:203680005CBC030814BC030808BC03082CBC030820BC0308E0BC0308B0BC0308F75D010808
:2036A00010B588B10446407F20B9002020772046FEF779FC02206077207938B1D4E9021257
:2036C0002046FEF72FFC40B1012010BD20680F494161816821F018018160607908B12069F4
:2036E00001E04FF0FF302168D4E905230861886820F0600010438860886820F0800018432E
:20370000886001206077002010BD00BFB71DC10470B50446006846680568F10718BF15F4BA
:2037200080717DD1B0061AD515F4005017D020686169026822F4005202604FF0200282609C
:20374000E06B40F00200E0634FF0000084F838004FF0040084F8390009B120468847300798
:203760001AD515F4006017D020686169026822F4006202604FF008028260E06B40F00400CA
:20378000E0634FF0000084F838004FF0040084F8390009B12046884770070CD515F48060CB
:2037A00009D02068016821F480610160042181602046FEF7FAFBB00718D515F4007015D090
:2037C00020682169026822F4007202604FF002028260E06BE0634FF0000084F838004FF09E
:2037E000010084F8390009B120468847F00616D515F4805013D02068016821F4805101604F
:2038000010218160E06BE063002084F83800012084F839002046BDE87040FEF7C5BB70BD01
:20382000016821F480710160E16B41F00101E16301218160002084F83800042084F8390045
:20384000616900293FF46EAF204688476AE770B50446866D00F040FA054694F835000228DD
:203860001ED12068216C026822F016020260426922F08002426109B9A16C19B1016821F059
:2038800008010160016821F0010101600068C0070DD000F021FA401B052814D82068F5E7F2
:2038A000002084F8340080206065012070BDE06D3F2101FA00F00121B060002084F83400EB
:2038C00084F8351070BD20206065002084F83400032084F8350070BDB0B530B1054690F80B
:2038E0003500022803D102241BE0012419E028680024016821F0010101602121046044607B
:203900008460C460046141612846FDF7BBFEE96D3F2202FA01F181606C6585F8344085F8B8
:2039200035402046B0BD00002DE9F041044600F0D3F9ACB10546022084F83500002084F8DB
:2039400034002168086820F0010008600868C00709D000F0C1F9401B052839D82168F5E709
:203960000120BDE8F081271D0868354AE8CF00EA020E43EA0E032B43D4E9050C33433B43BE
:20398000D4E907281843636A40EA0C00042B40EA020040EA08021FD1D4E90A53206B1A435C
:2039A00040EA0200086051F8140F20F0030040EA050040F00402B3B1BCF5005F24D0BCF17A
:2039C000000F31D1022D32D0012D27D07DB30AE003262027032012E00A6051F8140F20F0FB
:2039E000070040EA030220460A60FDF74BFEE16D3F2202FA01F100278160012600206765CC
:203A000084F83560BDE8F081032DECD8012640270120DFE805F0020C0203F0E7A3F1C07072
:203A2000B0FA80F0400904E0032D04D3DBD1C3F300600028D7D0012640270120DFE700BF73
:203A40003F8010F01CB5019000F046F9044600F043F9001B01998842F9D31CBD2DE9F04F27
:203A60008E4A4FF00A0A90428D4A024408BF4FF0090A4FEAB2234FF0000E092B38BF4FEA54
:203A8000B22A884A01264FF00F09A2F57E7B4FF000080025102D49D006FA05F20A423FD056
:203AA0000323076803FA0EF46FF00303A74303EA550C076008F01C0700EB0C0309FA07F758
:203AC0001E6ABE431E628368A3438360436893434360C368A343AC08C36008F00C0309FA13
:203AE00003F75BF824603E400AFA03F39E424FF0010615D15BF82430D243BB434BF8243020
:203B0000684B1C461B6813402360636813406360A3681340A360644B1C461B681A40226085
:203B20000EF1020E08F104080135B3E7BDE8F08F2DE9F84F594A4FF00A099042584A024471
:203B400008BF4FF009094FEAB2234FF0000E092B38BF4FEAB2294FF0010A4FF00F084FF0D4
:203B6000000B0022102A00F096800AFA02F60C68344200F08A804F6847F01004122C11D1D6
:203B80006FF003030BF01C0403EA520508FA04F70544D5F820C00B692CEA0707A3403B4375
:203BA0002B624F68032407F0030304FA0EF4056803FA0EF3A5432B43E443122F036012D827
:203BC0000AFA07F313F0061F0DD08368CD68234005FA0EF52B438360C7F3001345689340BF
:203BE000B5432B434360C36823408C6804FA0EF42343C360FB0048D52C4B22F003051C46A6
:203C00001B6843F48043274F2360BC4623683D4403F4804300930BF00C03009F08FA03F431
:203C2000234F09FA03F3B846EF5927EA0404234345F808304FF00F08DCF800304D6843EAA3
:203C40000604EF0358BF23EA0604CCF80040DCF80430AF0343EA060458BF23EA0604CCF853
:203C60000440DCF80830EF0243EA060458BF23EA0604CCF808400C4BAD021F461B6843EA77
:203C8000060458BF23EA06043C600EF1020E0BF1040B013266E7BDE8F88F00BF0024024065
:203CA0000000FEBF003C01400C3C01404438024008FCFFFF0069084018BF01207047002AF7
:203CC00008BF090481617047024800686FF31F30704700BF002004E001480068704700BF73
:203CE000B475012001480068704700BF20F4F01F01480068704700BF24F4F01F0148006831
:203D0000704700BF28F4F01FB0B110B50446242084F841002068016821F0010101602046C6
:203D2000FEF76CF90020606484F84100206384F8400084F8420010BD0120704790F841001D
:203D40007047000010B3B0B5044690F8410028B9002084F840002046FEF751F9242084F84F
:203D60004100D4E90003D4E90212056823F0706325F00105012A05600361836823F40043CA
:203D8000836005D141F40041816009E00120704741F40441022A816002D14FF400614160B3
:203DA00041680F4A114304F110054160C16821F40041C1602ECD114341EA0321C160216A18
:203DC00029430160016841F00101016000202021606484F84110206384F84200B0BD00BFBA
:203DE000008000022DE9FE4F04460020029094F84100202808D1206889468169090403D4CF
:203E000094F84010012902D10220BDE8FE8F24211D4684F841100121904684F8401000211B
:203E20006FF39F295F1C4FF0200A6164E16801294FF4205104BF42F20001C0F20021494430
:203E40004160FFF749FF06462068816989065CBF81695FEAC1610CD494F84110A02908D068
:203E6000002FF1D075B3FFF737FF801BA842EBD928E0D0F818B02046202100222B4600964D
:203E800002F038FD5FEACB6123D518BB20681021C161C0F81CA002994A1C414502920ED172
:203EA0004168002241F480412B46416020462021009602F01FFD68B92068C0F81CA002992C
:203EC0004145B3D3002084F84000202084F8410000E010B10320BDE8FE8F20682021C1611C
:203EE000002084F8400084F84110BDE8FE8F00002DE9FE4F044690F8410020280ED10C9DA1
:203F00000120002D00F0B580DDF834B0BBF1000F00F0AF8094F84000012802D10220BDE80C
:203F2000FE8F01201F4616468A4684F84000FFF7D3FE8146009020464FF40041012219231F
:203F400002F0D8FC10B10320BDE8FE8F22200E9984F8410040204FF0000884F84200C4F8BE
:203F60004480204665620D46C4F834803246A4F82AB03B46CDE90019514602F039FC40B1A0
:203F800084F84080616C0320042908BF0120BDE8FE8F608DB0F5807F0AD3FF2051462085E5
:203FA0004FF4105000902046FF224FF0807309E0608D4FF410514FF000732085C2B200913F
:203FC0002046514602F084FC0026FF272046042100222B46CDF8009002F08CFC0028B2D18E
:203FE000616A20684A1C6262406A0870208D013820850004618DA1F10101618521D1608D4C
:20400000F8B12046802100222B46CDF8009002F071FC002897D1608DB0F5807F07D3278502
:20402000204600965146FF224FF0807307E0608D51464FF000732085C2B22046009602F076
:2040400047FC608D0028C1D1204629464A4602F07AFC002896D120682021C161654B4268D5
:204060001A404260002084F8411084F8400084F84200BDE8FE8F00BF2DE9FE4F044690F8B7
:20408000410020280ED10C9D0120002D00F0AF80DDF834B0BBF1000F00F0A98094F8400049
:2040A000012802D10220BDE8FE8F01201F4616468A4684F84000FFF70FFE81460090204682
:2040C0004FF400410122192302F014FC10B10320BDE8FE8F21200E9984F8410040204FF0A1
:2040E000000884F84200C4F84480204665620D46C4F834803246A4F82AB03B46CDE900194C
:20410000514602F0ACFB10B184F840805AE0608DB0F5807F09D3FF205146208500200090C0
:204120002046FF224FF0807308E0608D00214FF000732085C2B200912046514602F0C8FBC2
:204140000026FF27204629464A4602F022FCC8BB616A20684A1C626209788162208D013854
:2041600020850004618DA1F10101618521D1608DF8B12046802100222B46CDF8009002F0C5
:20418000B9FB0028A3D1608DB0F5807F07D32785204600965146FF224FF0807307E0608DFE
:2041A00051464FF000732085C2B22046009602F08FFB608D0028C5D1204629464A4602F023
:2041C000C2FB30B1616C0320042908BF0120BDE8FE8F20682021C161064B42681A40426028
:2041E000002084F8411084F8400084F84200BDE8FE8F00BF00E800FEB0B5C0B104460068F9
:20420000D4E901124CF6CC43036045F25553036041608260FFF760FD05462068C16841B114
:20422000FFF75AFD401B3028F7D90320B0BD0120B0BDE16802698A4203D14AF6AA210160D0
:2042400000E001610020B0BD00684AF6AA210160002070470248016801310160704700BF28
:20426000B475012080B50748016841F400710160032000F005FC0F2000F006F800F0C3FB21
:20428000002080BD003C024010B50446074800684FF47A71B0FBF1F001F0E2FF4FF0FF3083
:2042A0002146002200F0D0FB002010BDB8060120F0B590F8A0500224012D2DD080F8A14027
:2042C000012480F8A040342403FB0404842505EBC31E002604F1480C0025BAB1DCF8007046
:2042E000013A062F06F1807708BF2E4610C9E3B205F18855334304F47F46334304F47F04C0
:204300002343046874443E462364E6E70024012180F8A04080F8A1102046F0BD10B590F814
:20432000A0400223012C13D080F8A130036803EBC212D2F8904004F07F44C2F89040C2F85D
:20434000901001215962002380F8A03080F8A110184610BDF8B50E4690F8A010044602207C
:20436000012919D084F8A100342002FB00401546012731463830342284F8A070FBF740FF07
:20438000204631462A4602F043FE20684762002084F8A00084F8A170F8BD10B5044600F0EF
:2043A00087F90020C4F8A40084F8A00084F8A100002010BD90F8A0300222012B11D080F8D6
:2043C000A120026802EBC111D1F8843023F00203C1F8843001215162002280F8A02080F84A
:2043E000A1101046704790F8A0300222012B11D080F8A120026802EBC111D1F8843043F064
:204400001003C1F8843001215162002280F8A02080F8A1101046704790F8A0300222012B0F
:2044200011D080F8A120026802EBC111D1F8843043F00203C1F8843001215162002280F8A8
:20444000A02080F8A11010467047000090F8A0200221012A0CD080F8A11006490A6842F4D4
:2044600080320A600021012280F8A01080F8A1200846704718680140704710B50446006887
:20448000816B490744BF816B5FEA417126D4816B890744BF816B5FEA817135D4816BC90791
:2044A0001CBF816B5FEAC17145D1816B090744BF816B5FEA017100D410BD416B21F0080197
:2044C00041630821C163002084F8A000012084F8A1002046BDE8104000F0D0B9416B21F0E0
:2044E000040141630421C163D4F8A40040F00100C4F8A400002084F8A000204684F8A110FA
:20450000FFF7BAFF2068C2E7416B21F0020141630221C163D4F8A40040F00200C4F8A4000E
:20452000002084F8A000042084F8A1002046FFF7A3FF2068B2E7416B21F00101416301215A
:20454000C163002084F8A000204684F8A11000F071F82068A9E70000002867D0B0B50446E9
:2045600090F8A10028B9002084F8A000204600F0A1F8022084F8A10094E80F0011438569FA
:20458000194325F07045856122691143826911438161274982680A408260D4E9052343EA77
:2045A000024283681A438260C2680A40C260C268D4E9073545EA03431A43C26002690A402B
:2045C00002610269D4E9093545EA03431A4302614269114041614169D4E90B2343EA024239
:2045E00011434161C16A01F07F41C16294F8362094F83510120442EA012194F8342011447A
:20460000C26A1143C162416B41F004014163416B41F002014163816941F0010181610020CE
:204620000121C4F8A40084F8A110B0BD0120704700F800F02DE9F04780461A4800F108062A
:204640006FF00107184CDFF864904FF0FF3A1FB3206800281AD456F8081CB268484331682C
:20466000BD1C4843D9F8001000FB021140462A4600F005F9D8F80000416A41F001014162B2
:204680002846216809F0AAFAC4F800A0043609F1040904340137DAE740460021BDE8F04735
:2046A00000F0D4B8A00A0120BC06012064BA0308704700002DE9F04F85B062484FF00E0A65
:2046C0004169032541F080610027416102244169E94601F08061DFF85C8B0091009901680B
:2046E00041F400010160016801F4000100910099016841F001010160016801F001010091B0
:204700000099016841F002010160016801F0020100910099016841F004010160016801F021
:20472000040100910099016841F008010160016801F0080100910099016841F010010160AD
:20474000016801F0100100910099016841F020010160016801F0200100910099016841F069
:2047600040010160384900688B4600F0400000900098CDF810A04FF4806003950297019427
:20478000009001F5A0504946C047C1204946CDE9035ACDE9014700900BF50060C0477820FD
:2047A0004946CDE9035ACDE9014700905846C04709200BF58066049030464946CDE902754F
:2047C000CDE90054C0474FF470604946CDE9035ACDE9014700903046C0474FF40C600BF559
:2047E000C056CDE9035ACDE90147009030464946C04708204946CDE9035ACDE9014700909E
:204800000BF54060C04709204946CDE903504FF4A050CDE9014700903046C0470BF580551D
:204820000421284600220424FFF749FA01204946CDE90277CDE900402846C04705B0BDE8BE
:20484000F08F00BF303802400000024090F8A0300222012B0ED080F8A1200268536B43F014
:2048600001035363044A11600022012180F8A02080F8A11010467047406801407047B0B508
:2048800090F8A03004460220012B14D084F8A100342002FB0040012584F8A050C16500F1ED
:2048A0003801204602F0B4FB20684562002084F8A00084F8A150B0BDB0B590F8A03004466C
:2048C0000220012B14D084F8A100342002FB0040012584F8A050C16400F13801204602F0BF
:2048E00097FB20684562002084F8A00084F8A150B0BDF8B590F8A05004460220012D1CD036
:2049000084F8A100342003FB0045012684F8A06045F8381FD5E90A070844B918C5E901020F
:20492000E960204629461A4602F072FB20684662002084F8A00084F8A160F8BDF8B5044605
:2049400090F8A000022501281AD0342084F8A15003FB00460127002584F8A07046F8385F42
:204960002046C6E90A12C6E90115F26031461A4602F04EFB2068476284F8A05084F8A170B3
:204980002846F8BD0278437810490B60D2B143684B60037B42EA0372C37A42EA0362837A38
:2049A00042EAC342437B42EA8342837B42EA4342C37B42EA0342437A007A42EA032242EA05
:2049C000400001E0002048608860704798ED00E0BFF35F8F0A48016821F480310160002147
:2049E0000167704740F0010005490867086840F480300860BFF34F8FBFF36F8F704700BF38
:204A000024ED00E07047704700280CD400F01F01012202FA01F14009034A42F82010BFF35C
:204A20004F8FBFF36F8F704780E100E0002808D400F01F01012202FA01F14009014A42F8FD
:204A40002010704700E100E0B0B5134B4FF0FF351B68C3F30223DC1E83F0070338BF002488
:204A6000042B28BF042305FA03F3994305FA04F3A1409A431143BDE8B04004F0D5BE00BF45
:204A800005494FF6FF030A681A4060F30A22034810430860704700BF0CED00E00000FA05E2
:204AA00004F0D4FEBCB518481B4D016841F080510160006800F0805001900198286840F415
:204AC00080302860FFF708F904466868C00306D4FFF702F9001BB0F57A7FF6D90FE02868F8
:204AE00040F400302860FFF7F7F804466868800307D4FFF7F1F8001BB0F57A7FF6D90320E3
:204B0000BCBD0020BCBD00BF403802400248016841F4807101607047007000407CB50446EE
:204B2000FFF7DAF8054694F8410080074FF000002BD584F840002068016849070BD5016889
:204B400021F004010160E06BFEF781FE18B1606C40F0040060642068A16C02682B4642F0F0
:204B6000020202260260204600910221012203F08FF850B92068A16CC660204600912021F4
:204B800000222B4603F084F800B17CBD012084F8410000207CBD704780B590F8411089079D
:204BA00021D5002180F84010082180F8411001680A6822F4F8120A600A6852070AD40220F4
:204BC000C860086840F400300860086840F00200086008E0C06BD94A02650A6822F0040240
:204BE0000A60FDF7E3F9002080BD00BF2DE9FC411D46174688460446FFF76EF8064694F800
:204C00004000012802D10220BDE8FC81012084F8400094F84100012832D100202021606419
:204C2000422084F84100204600223346009503F02FF830BB97E80E10206881624262C362E9
:204C4000C8F828C03969026822F4400211434FF0006241F4800101602046414602F09CFEC3
:204C6000204608210122334600950825012703F00FF830B92068C560002084F8417000E062
:204C80000220002184F84010BDE8FC817047F8B515460F460446FFF71FF8064694F8400060
:204CA000012801D10220F8BD012084F84000022094F84110012921D10021002261642021E1
:204CC00084F8410020463346009502F0E1FFA8B920463946002202F05FFE786A20B1012046
:204CE00084F84100002009E0204602210122334600950225012702F0CBFF18B1002184F8C3
:204D00004010F8BD2068C56084F84170EAE710B50446006828B194F84010012903D1022097
:204D200010BD012010BD012184F84010016821F00101016000F0A6F90020606484F84100BD
:204D400084F8400010BD70477047000010B5016804468A680868530718D510F4802315D0AF
:204D600094F84100122838D108468268520763D5E26A002A5CD0606A421C6262007881F8DB
:204D800020002068E26A013AE262EEE7930739D510F4003336D00220C860086820F4E02018
:204DA000086094F8410012284BD10868400709D5086820F004000860E06B0068016821F0BA
:204DC000010101602046FFF7E7FE012084F841002046BDE8104000F0EFBA94F84100222846
:204DE0002AD108468268520726D5A26B02B391F82000226B531C236310702068A26B013AEF
:204E0000A263EFE7130725D510F4002322D00820C8600868400206D5086820F41020086091
:204E2000012084F841002046BDE8104000F065BA016821F4802101602046BDE81040FFF759
:204E400083BF94F84100222815D1086840072ED4084650E0D30718BF10F4803317D1D206B4
:204E60003ED510F480103BD01020C8602046BDE8104000F043BA94F84100022822D10120D5
:204E800084F841002046BDE81040FFF7FFBE0120C8600A6822F470220A60626C42F0020276
:204EA00062640A68520738D484F8410013E0086820F004000860E06B0068016821F001018A
:204EC00001601FE094F84100082809D1012084F84100606C60B32046BDE81040FFF733BF9B
:204EE00010BD91F82000226B531C236310702068A26B013AA263806810F4F85F1CBFA06B3C
:204F00000028EED12046FFF747FE012084F841002046BDE8104000F0EFB9E06B074A026535
:204F20000A6822F004020A60BDE81040FDF73EB82046BDE81040FFF72EBE00BFF37A01082C
:204F40002DE9FC410446FEF7C7FE3CB1054694F84000012805D10220BDE8FC810120BDE8ED
:204F6000FC81012084F8400094F8410008B1A06C08E0002084F84000204600F0BDF841F243
:204F80008830A0642168A2686FF0FF034FF0000803EB02220B6823F4F8531A432B460A60FB
:204FA000202100902046002202F072FE08BBD4E90012D4E903350F68104E3E40334343EAB9
:204FC0000262E3691A43236A1A430D4B0A604A681A4063691A43A36942EA05421A434A605D
:204FE0000A6842F001020A600121C4F8448084F8411084F84080BDE8FC8100BF2FFFFF00E7
:20500000FEF8E0FF7CB516460D460446FEF764FE034694F84000012801D102207CBD0120AE
:2050200084F8400094F84100012826D1002020216064822084F841000022A06C009020461F
:2050400002F026FED0B9206871680268082922F0080242EA0102026007D131680163102102
:20506000C160016841F480110160204629464FF0406202F091FC002000E00220002184F88B
:2050800040107CBD70B54620FFF7BEFC5C20FFF7BBFC154815490160FEF71EFC644C144EE6
:2050A000A4F5805540212846B04728460421B04720464FF48071B04720464FF40071B04790
:2050C00020468021B04720464021B0470948016841F002010160016821F002010160016A7C
:2050E00021F00201016270BD140D0120B86402405D3A0108183802402DE9F04786B04B4824
:205100004FF00A0981684A4C41F00201A4F58056816001AD81684FF0400801F00201454F94
:205120000191019950F8181C41F0020140F8181C50F8181C21F0020140F8181C016841F091
:2051400002010160016801F0020101910199016841F002010160016801F0020101910199DB
:20516000016841F020010160016801F0200101910199016841F020010160016801F02001D5
:2051800001910199016841F020010160016801F0200101910199016841F020010160294695
:2051A000006800F0200001900198CDF814900320049001200390022002903046CDF8048006
:2051C000B8474FF0090A0020CDF814A029460390042001903046B8474FF48070CDF814901D
:2051E000019020462946B8474FF40070CDF81490019020462946B8478020CDF814A001901F
:2052000020462946B84720462946CDF814A0CDF80480B8475C200F210022FFF715FC5C20D3
:20522000FFF704FC06B0BDE8F08700BF3038024000140240313B01082DE9FC4115468846F6
:205240000446FEF749FD27680646B86994F84010012902D10220BDE8FC81012184F84010C2
:2052600094F84110012929D10021B8F1000F616426D02221012284F8411039690131A1638E
:20528000396901316163796962F39B617961C4F83080B861A06BC8B1204606210122334637
:2052A000009502F0F5FCF8B997F82000216B4A1C22630870A06B0138A063EBE7022016E0F6
:2052C000606C40F008006064012010E020460221012233460095022502F0DAFC20B92068EB
:2052E000C5602046FFF71AFC012184F84110002184F84010BDE8FC817047704770472DE9DE
:20530000FC41154688460446FEF7E6FC0646276894F84000012802D10220BDE8FC810120FE
:2053200084F8400094F84100012827D10020B8F1000F606424D0122084F841003869013072
:20534000E06238690130A062C4F82480786920F040607861E06AC8B1204604210122334683
:20536000009502F095FCF8B9606A411C6162007887F82000E06A0138E062EBE7022016E0B4
:20538000606C40F008006064012010E020460221012233460095022502F07AFC20B920688A
:2053A000C5602046FFF7BAFB012184F84110002184F84010BDE8FC81704700002DE9FC47A9
:2053C000D0F800A004465FEACA70B24E02D14FF000090BE0B06820F40000B060606BB16872
:2053E0000143B0FA80F04FEA5019B1605FEA0A3002D44FF0000811E0E06BD6F88C1021F441
:205400004011B0F5801F41EA0001B0FA80F04FEA5018C6F88C1008BF4FF001095FEACA2073
:2054200011D5206CD6F88C1021F44001002841EA0001C6F88C1008BF4FF00108B0F5800F49
:2054400008BF4FF001095FEA8A60574653D5306C914F40F080503064306C00F08050019047
:205460000198386840F480703860FEF735FC05463868C00505D4FEF72FFC401B6428F7D9B1
:20548000F7E1306F10F4407022D0216B01F4407188421DD0306F316F41F4803120F440701D
:2054A0003167316F21F4803131673067306FC0070ED0FEF711FC054641F28837306F800716
:2054C00006D4FEF709FC411B0320B942F6D9D1E12768206BB268714922F4F81200F4407348
:2054E0000140B3F5407F08BF0A43B2606FF31F30316F08433067F8060BD5D6F88C0020F063
:205500008070C6F88C00A06BD6F88C100843C6F88C00780407D5606ED6F8901021F440312D
:205520000843C6F89000380407D5A06ED6F8901021F440210843C6F89000F80307D5E06E0A
:20554000D6F8901021F440110843C6F89000B80307D5206FD6F8901021F440010843C6F8EB
:205560009000780607D5606CD6F8901021F003010843C6F89000380607D5A06CD6F89010C5
:2055800021F00C010843C6F89000F80507D5E06CD6F8901021F030010843C6F89000B80529
:2055A00007D5206DD6F8901021F0C0010843C6F89000780507D5606DD6F8901021F440714F
:2055C0000843C6F89000380507D5A06DD6F8901021F440610843C6F89000F80407D5E06D2A
:2055E000D6F8901021F440510843C6F89000B80407D5206ED6F8901021F440410843C6F8CB
:205600009000780207D5A06FD6F8901021F080610843C6F89000B8020DD5E06FD6F8901043
:2056200021F00061B0F1006F41EA0001C6F8901008BF4FF00108780307D5606FD6F89010BB
:2056400021F040710843C6F890000AF08070390208D5D4F88010D6F8902022F080521143DB
:20566000C6F8901030B9B9F1000F03D1B7F1007F40F08280306820F080603060FEF72CFBC9
:205680000546306800010BD5FEF726FB401B6428F7D9EEE00038024000700040FFFCFF0F78
:2056A0002068C10712D0616B81B9D6F88410D6F8842001F4403102F070621144D4E901237E
:2056C00041EA821141EA0371C6F88410010303D5E16BB1F5801F05D0C1021DD5216CB1F5F1
:2056E000800F19D1D6F88410D6F8842001F4403102F0E04211446268E36841EA821141EA90
:205700000361656AC6F88410691ED6F88C2022F01F021143C6F88C10C10110D5D6F8841019
:20572000D6F8842001F0706102F0E04211446268236941EA821141EA0341C6F88410800176
:205740000AD5231D0FCB1B0443EA801040EA026040EA0170C6F88400306840F080603060D3
:20576000FEF7BAFA05463068000105D4FEF7B4FA401B6428F7D97CE017F0080008BFB8F18E
:20578000000F79D0306820F080503060FEF7A4FA05463068800005D5FEF79EFA401B642865
:2057A000F7D966E02068010301D5E16B19B1C1021ED5216CE1B9D6F88810D6F8882001F4AD
:2057C000403102F0E0421144A56AD4E9052341EA821141EA0361C6F888106FF0FF01D6F82B
:2057E0008C2001EB052122F4F8521143C6F88C10810214D5E16FB1F1006F10D1D6F88810C9
:20580000D6F8882001F0706102F0E04211446269236A41EA821141EA0341C6F88810000705
:2058200018D5D6F88800D6F8881000F0706001F4403108446169E26940EA811040EA0270E1
:20584000E36AC6F88800D6F88C0020F440301843C6F88C00306840F080503060FEF73CFADF
:2058600004463068800007D4FEF736FA001B6528F7D30320BDE8FC870020BDE8FC870000C1
:205880002DE9F041002800F08280544B0446D3F800040D4600F00F0088420CD2D3F8000426
:2058A00020F00F002843C3F80004D3F8000400F00F00A8426BD12068810705D5A1689A68B6
:2058C00022F0F00211439960C0072AD06068012803D11968890308D459E01968022802D151
:2058E000890102D453E0890751D59968984621F0030108439860FEF7EFF9064641F288370D
:205900006068D8F8081001F00C014346B1EB800F07D0FEF7E1F9801BB842F1D90320BDE858
:20592000F081D3F8000400F00F00A8420CD9D3F8000420F00F002843C3F80004D3F8000472
:2059400000F00F00A84222D12068410705D5E1689A6822F4E05211439960000706D5206976
:20596000996821F4604141EAC00098601C4600F05BF8A168074AC1F30311515CC8402749A1
:2059800008600F20FEF780FC0020BDE8F0810120BDE8F08138B70308F348114B016841F067
:2059A000810101600021816002681A400D4B0260416042681A430C4B4260C0F88410D0F8CF
:2059C00084201A43C0F88420026822F480220260C160124826490160704700BF00380240AB
:2059E000FFFFF6FA10300024003000200B480068704700BF09480A4900680968C1F3822100
:205A0000084A515CC84070470448054900680968C1F34231034A515CC8407047B806012096
:205A20000838024048B703081049486800F00C020F48082A03D0042A17D10E4870470A68E2
:205A40000B685B020B4B58BF034602F03F00B3FBF0F00A68C2F388120968C1F30141504346
:205A6000022202EB4101B0FBF1F07047043802400024F40000127A002DE9FC41002800F003
:205A8000B18004460078B84EC0074AD0B06800F00C00042817D0B06800F00C00082802D1EE
:205AA000706840020FD4606898B1B0F5803F06D03168B0F5A02F21D141F4802030603068A2
:205AC00040F4803020E0306880032AD5606840BB88E0306820F480303060306820F4802065
:205AE0003060FEF7F9F805463068800319D5FEF7F3F8411B03206429F6D92FE121F480304C
:205B00003060306820F480203060FEF7E5F805463068800305D4FEF7DFF8401B6428F7D985
:205B2000EFE0207880072DD5B06810F00C0F07D0B06800F00C00082809D17068400206D459
:205B40003068800717D5E068012814D04AE03068E168002900F0998040F001003060FEF7F2
:205B6000BBF805463068800705D4FEF7B5F8401B0228F7D9C5E02069316821F0F80141EA3C
:205B8000C00030602078000720D5706F616971B140F001007067FEF79FF80546706F800711
:205BA00014D4FEF799F8401B0228F7D9A9E020F001007067FEF790F80546706F800705D5A9
:205BC000FEF78AF8401B0228F7D99AE0207840070BD4A769002F00F0C380B06800F00C003B
:205BE000082835D10120BDE8FC81306CC0000BD4306C4FF0010840F080503064306C00F0ED
:205C000080500190019801E04FF00008574F3868C0050FD4386840F480703860FEF75CF8CF
:205C200005463868C00505D4FEF756F8401B6428F7D966E0A068C8B3012805D0316F05284D
:205C40004BD141F004003067306F40F001004AE0306820F080703060FEF73EF80546022F93
:205C600009D13068800158D5FEF736F8411B03200229F6D972E03068800171D5FEF72CF89E
:205C8000411B03200329F6D368E020F001003060FEF722F80546306880077FF573AFFEF7A3
:205CA0001BF8411B03200229F5D957E0306F20F001003067306F20F004003067FEF70CF898
:205CC000054641F28837306F80071DD5FEF704F8411B0320B942F6D940E021F0010030676C
:205CE000306F20F004003067FDF7F6FF054641F28837306F800707D4FDF7EEFF401BB842FD
:205D0000F7D90320BDE8FC81B8F1000F3FF461AF306C20F0805030645BE71C341FCC08439B
:205D2000D90340EA82104FF6FF72914340EA0460A1F58031084340F000507060306840F009
:205D400080703060FDF7C8FF04463068800107D4FDF7C2FF011B03200229F6D9BDE8FC81BA
:205D60000020BDE8FC8100BF0038024000700040F8B5C8B1044690F869001E4615460F4683
:205D800028B9002084F86800204600F018FC242084F869002068016821F0010101602046C0
:205DA00003F070F9012801D10120F8BD606A10B1204603F0A3F82068816841F480418160EF
:205DC000816821F40041394381603104026841EA45516FF3194211430160016841F00101B9
:205DE00001602046BDE8F84003F0DDB8006800EB8100006D7047006800EB8100026570478D
:205E0000B0B5044602206077CA212068416253214162204602F021F9216828B1FF20012594
:205E20004862042060773BE00020086042F201104860886800F007008860FDF74DFF0546D3
:205E40002168C86840070AD4FDF746FF401BB0F57A7FF5D92068FF21416203251FE0886802
:205E600000254FF6FF708D6048610E480861CD610D62CD62CD634D648D64CD600D64CD6487
:205E80008868800605D4204600F07EF921680028C4D1FF204862204600F0A6F8257765776B
:205EA0002846B0BDFF007F0070B5006840684FEA104300F03F05CB708D70C0F304244C70C5
:205EC000C0F342360E70CAB9020A2D09240900F00F0645EA850502F00F0244EA840406EBBF
:205EE000450502EB44028D704A70C0F3035003F00F0200EB800002EB4000C870002070BD47
:205F000070B50068836A4B6003696FF3DF338B6003684FF0400000EA134003F07F05087378
:205F20008D70C3F306244C70C3F305400870CAB92D091A0A1E0C03F00F0305EB850502F0DD
:205F40000F0203EB450300098B70230903EB830302EB43024A7006F00F0240EA800002EBCC
:205F600040000870002070BDB8B170B50446407F20B900202077204600F03CF80220CA215E
:205F800060772068416253214162204602F065F8216820B10120042220E0012070478868CA
:205FA000104A1040261D88606CCE6069324310438A68104388600D61086940EA034008615F
:205FC000C86820F08000C860C86C20F00800C864A069CA6C10430122C8640020FF234B6291
:205FE000627770BDBFFF8FFF0548016821F40041016070470248016841F4004101607047EA
:20600000703802402DE9F0410D46017F04460220012949D060770120207732B16878E9781A
:20602000AE78000240EA014714E06E78F00604D506F0EF0000F10A066E70E878DFF8408161
:20604000C04707463046C047000240EA0747A878C04706462068CA214162532141622046EF
:206060002D7801F0FAFF18B121680120042216E047EA0600216820F0C00040EA453048602B
:20608000C86820F08000C8608868800605D4204600F07AF821680028E7D100200122FF2333
:2060A0004B62002121776277BDE8F0812DE9F0470D46017F0446022001295FD060770120AE
:2060C00020772768B86800F0400022B140B1287B4FEA004808E070B1287B4FEA00480EE047
:2060E0004FF0000885F80C8069782878AE78090241EA004910E04FF0000885F80C8028784A
:20610000DFF87CA0D04706466878D047000240EA0649A878D0470646CA2078625320786223
:20612000204601F09AFF18B121680120042220E049EA0600134940EA0800084021680860D6
:20614000886820F480208860D5E9040210438A6810438860C86820F08000C8608868800611
:2061600005D4204600F010F821680028DDD100200122FF234B62002121776277BDE8F087C9
:20618000338001087F7F7F00B0B504460068C16821F0A001C160FDF79FFD05462068C06828
:2061A000800607D4FDF798FD401BB0F57A7FF5D90320B0BD0020B0BDE0B1B0B5044690F849
:2061C0002C000D4628B9002084F82D00204600F013F80220211D84F82C002068FBF72CFB8C
:2061E000D4E900022946FBF793FB012084F82C000020B0BD01207047704710B590F82C2073
:2062000004460220022A08D084F82C002068FBF753FB012084F82C00002010BDB0B50D4630
:2062200090F82C100446022002290ED084F82C0029462068FBF746FB2868012102284FF038
:20624000000008BF052184F82C10B0BD0C4904280A6822F0040308BF42F004030B607047FE
:20626000411E0020B0EB116F01D001207047044AF023516003490B700721906011607047C2
:2062800010E000E023ED00E070B50D4690F83C1004460220012955D084F83D004FEAB20093
:2062A0000126052884F83C6047D8DFE800F0030B131B23332068294602F01AFC206850F83B
:2062C000181F1EE02068294602F03AFC206850F8181F26E02068294602F060FC206850F848
:2062E0001C1F0EE02068294602F086FC206850F81C1F16E02068294602F0A2FC206850F8B2
:20630000541F41F008010160016821F00401016029690FE02068294602F0B6FC206850F8A3
:20632000541F41F400610160016821F48061016029690902026811430160002084F83C009F
:2063400084F83D6070BD10B50446022084F83D0041F211122068016A114208D1016A40F2FB
:206360004442114203D1016821F001010160204600F021F8002084F83C0084F83D00002073
:2063800010BDB0B110B5044690F83D0028B9002084F83C00204600F00FF80220211D84F809
:2063A0003D00206802F02CFB012084F83D00002010BD0120704770477047000010B50446E3
:2063C0000068012202F086FB2068074A40F48061914203D1416C41F400414164016841F0C8
:2063E00001010160002010BD00040140B0B5B8B10446242084F8690000252068016821F0A0
:2064000001010160056045608560204600F0D6F8E56684F8695084F8685084F86A5000E03C
:2064200001252846B0BD00000068BA49884218BF704701F025BD00BFF8B504460068C1697D
:20644000026801F02F0502F020038668202D05D123B12046BDE8F84002F0DABD5FEA017E1F
:2064600007D006F0010612F4907F86F0010727D137B311400A060ED4490640F180800168A7
:2064800021F040010160202084F869002046BDE8F84000F037B994F8691021296FD1B4F8C6
:2064A0005210002971D0A168B1F5805F02D12169002973D0E16C4A1CE2640978816274E008
:2064C000CD0718BF12F4807505D001250562E56E45F00105E56601F002054FF0010C8CEA21
:2064E00055053D4305D102250562E56E45F00405E56601F004058CEA95053D4305D10425F9
:206500000562E56E45F00205E566334318BF0123BEF1000F06D52BB108230362E06E40F046
:206520000800E066E06E50B302EA0100800602D5204602F06DFDE06E000709D4206880680E
:20654000400605D42046FFF76FFF0020E06616E0204602F050FD20688168490610D58168C3
:2065600021F040018160606E50B113490165FBF71DFD20B1606E016DBDE8F8400847F8BD5D
:206580002046BDE8F840FFF74FBF016821F080010160016841F040010160F8BDE16C31F8F1
:2065A000022B6FF35F22E1648262B4F852000138A4F85200F8BD00BFE78F0108704770471C
:2065C00090F86A30202B06D1012329B122B190F86830012B02D1022318467047A0F85A203B
:2065E000A0F858204165012180F86810816851B1B1F1805F0BD0B1F5805F0FD1016921B9E3
:2066000040F2FF1108E0016929B9FF2104E0016909B13F2100E07F21A0F85C100023222192
:20662000C36680F86A1001688A6842F001028A6080F86830086840F490700860CCE70000F6
:2066400000683449884218BF704701F04DBC00BF2DE9F843044690F86900202808D10E4643
:20666000012731B1154622B194F86800012803D102273846BDE8F88300209946E0660120C4
:2066800084F86800212084F86900FDF725FB8046A4F85250A4F85050B4F85200F8B1B4F849
:2066A00052008021002243460138A4F852002046CDF8009002F0B0FDD8B9A068B0F5805F9E
:2066C00001D1206920B116F8010B21688862E3E736F8021B20686FF35F218162DCE7204676
:2066E000402100224346CDF80090002702F094FD08B10327BDE7202084F8687084F869008F
:20670000B7E7000000680349884218BF704701F08FBC00BF0010014001F0F8BC78B500238E
:2067200001303724009315041FD0009E0D7866B105F00F05013105F13006092D88BF05F11E
:20674000370600F8016C00930BE02E099F2D06F1300688BF04EB151600F8016C009D013550
:20676000009500F8013B013ADDE778BD00688169890701D5002181628169C90703D18169E8
:2067800041F0010181617047F8B5044600680E468169C90601D40020F8BD1546771C81693F
:2067A000890609D4002FFAD0B6B1FDF795FA401BB04211D82068F2E71021C1612021C1613D
:2067C0002046FFF7D3FF2068084A41681140416004206064012000E00320202184F84110FC
:2067E000002184F8401084F84210F8BD00E800FE2DE9FC4104464FF400501E4615460090C4
:20680000DAB22046002300F063F8DDE90887204641463A4600F0BDF830B1616C03200429B3
:2068200008BF0120BDE8FC81012E09D02068290A8162204641463A4600F0ABF80028ECD1C3
:206840002068E9B281622046402100224346009700F050F8002818BF0320BDE8FC812DE997
:20686000FC4104464FF400501E4615460090DAB220464FF0807300F02BF8DDE908872046BD
:2068800041463A4600F085F830B1616C0320042908BF0120BDE8FC81012E09D02068290AB9
:2068A0008162204641463A4600F073F80028ECD12068E9B2816220468021002243460097F9
:2068C00000F018F8002818BF0320BDE8FC810000B0B56FF39F21006819434468044D41EA01
:2068E0000241049A2C40114321434160B0BD00BF009800FC2DE9F8431D4691460F46044608
:20690000DDF820805E1C206880693840C01BB0FA80F04009484513D1002EF4D02DB1FDF72C
