:020000040800F2
:20000000A0210020DD010008091F00083D1D0008051F000889020008971F0008000000000A
:20002000000000000000000000000000EF010008E903000800000000F3010008931F00081E
:20004000F7010008F7010008F7010008F7010008F7010008F7010008F7010008F7010008A0
:20006000F7010008F7010008F7010008F7010008F7010008F7010008F7010008F701000880
:20008000F7010008F7010008F7010008F7010008F7010008F7010008F7010008F701000860
:2000A000F7010008F7010008F7010008F7010008F7010008F7010008F7010008F701000840
:2000C000F7010008F7010008F7010008F7010008F7010008F7010008F7010008F701000820
:2000E000F7010008F7010008F7010008F7010008F7010008F7010008F7010008F701000800
:20010000F7010008F7010008F7010008F7010008F7010008F7010008F7010008F7010008DF
:20012000F7010008F7010008F7010008F7010008F7010008F7010008F7010008F7010008BF
:20014000F7010008F7010008F7010008F7010008F7010008F7010008F7010008F70100089F
:20016000F7010008F7010008F7010008F7010008F7010008F7010008F7010008000000007F
:20018000F7010008F7010008F7010008F7010008F7010008F7010008F7010008F70100085F
:2001A000F7010008F7010008F7010008F7010008811F0008F7010008F7010008F701000897
:2001C000F7010008F7010008DFF80CD000F04AF80048004719260008A0210020064880476E
:2001E00006480047FEE7FEE7FEE7FEE7FEE7FEE7FEE7FEE7FEE7FEE785250008C9010008F4
:2002000040EA01039B0703D009E008C9121F08C0042AFAD203E011F8013B00F8013B521EC2
:20022000F9D27047D2B201E000F8012B491EFBD270470022F6E710B513460A4604461946B2
:20024000FFF7F0FF204610BD30B504460020034600E05B1C934203D2E05CCD5C401BF8D065
:2002600030BD0000064C074D06E0E06840F0010394E8070098471034AC42F6D3FFF7A8FF8F
:20028000302700085027000801F0B2BEF0B521480168890312D4BFF34F8F0021BFF36F8FD5
:2002A000C0F83C12BFF34F8FBFF36F8F016841F400310160BFF34F8FBFF36F8F0168C90353
:2002C00026D4002143F6E07C0167BFF34F8FC26EC2F34E31C2F3C9039A0701330CEA411570
:2002E00016461F4646EA050406F14046013FC0F84C42F7D14C1E00292146EFD1BFF34F8FEF
:20030000016841F480310160BFF34F8FBFF36F8FF0BD00BF14ED00E070B58B1C54084CB17B
:2003200033F8025C1E880433013C46EA054506683560F4E7D30701D1006805E022F00102B4
:20034000006831F812100180006870BD70B54B1C94083CB153F8016C056836BA2E600433E5
:20036000013CF6E702F00303032B09D0022B14D0012B1BD122F00302895C0268117015E05F
:2003800022F00302541C8B5C0C5D023244EA032304682380895C217008E022F003028B5C93
:2003A0000132895C026841EA032111800068006870BD000010B501686FF00F0252FA81F281
:2003C0001823B2FBF3F306A45F2AE35C40F2FF3421EA040188BF0431C0E91613084610BDFF
:2003E000000610160006101670472DE9F04FC1B091468A468046541801F004FD5046214660
:2004000001F0CCFED0B90DF1040B4F4646465546B7B13C46B7F5807F28BF4FF4807458467E
:2004200031462246FFF7ECFE58462946224601F096FF18B93F1B26442544E9E701200BE028
:2004400001F0E0FC01F0F4FE404651464A46FFF7FBFE002818BF012041B0BDE8F08F00001B
:20046000524A0329136823F4407313604FF4407338BF0B02116819431160116821F0F80139
:200480001160116841EAC00040F002001060106840F480301060BFF34F8F704700F1784128
:2004A000B1F5003F02D2C1F3C73070470E4A02F5003100EA01030D498B4201D1042011E0A9
:2004C00002400B48824204D00A48824203D1062008E0052006E001F520214FF0FF308A427B
:2004E00008BF0720C0B270470000FCFF0000020800000408000008082C490A6822F4407215
:200500000A600A6842F004020A600A6842EA002040F480300860BFF34F8F7047234A136824
:2005200023F44073136013681360136843F0010313600170BFF34F8F704700BF10B51B49CB
:200540000C6824F440740C600C6844F440740C600C6844F001040C6002604360BFF34F8F75
:2005600010BD00BF114A136823F440731360136843F480731360136843F00103136001801E
:20058000BFF34F8F704700BF084A136823F440731360136843F400731360136843F0010301
:2005A00013600160BFF34F8F704700BF103C024029480168890704D526498A6942F02002DA
:2005C0008A610168C90604D522498A6942F010028A610168890604D51E498A6942F008022B
:2005E0008A610168490604D51A498A6942F004028A610168090604D516498A6942F002022D
:200600008A61F22101607047F8B5044611480021114E816100F0EEFB0546671C3068C00310
:2006200009D5002FFAD024B100F0E4FB401BA042F4D90320F8BD306810F0F20F03D0FFF7FB
:20064000B7FF0120F8BD3068C00701D0012030600020F8BD800100200C3C0240FEB5016910
:20066000044601F17840B0F1094F01D9012245E04FF4005042F20402085800272060461E33
:200680008D5842F20802656042F20C038A58B7EB165FA260CB58E36001D002222EE0013595
:2006A000022D01D2032229E00132022A01D2042224E00522B3F1006F20D300F10165AB423D
:2006C0001CD84FF0FF320E4DCDE9010228464FF4006200F065F801A92846022200F039F8E5
:2006E000206842F208022169801A11448208284600F02FF86168421A18BF0622D0B2FEBD4B
:200700001001002010B51F2321FA03F4E40704D1013B5C1CF8D14FF0FF330124B4EBF20F1C
:2007200009D04FEAF204022C10D0032C05D1062B03D9012010BD0F2BFBD8006841618168A3
:2007400021F0180111438160002010BD072BF0D8F3E710B5037F04460220012B1FD06077D4
:2007600001202077206A012809D002280BD003280DD172B101C923681860013AF9E72046B6
:20078000FFF7E4FD07E02046FFF7C6FD03E0002001E020680068002121770121617710BD28
:2007A000B0B5037F04460220012B22D06077012020772068236A8568012B45F001058560EB
:2007C00008D0022B0AD0032B0CD16AB108C9013A0360FAE72046FFF7B9FD06E02046FFF770
:2007E0009BFD02E0002000E000680021217701216177B0BDB0B598B10446407F02250228EF
:200800000FD0657700252068816841F00101816001790571204600F03FF82577657700E09E
:2008200001252846B0BD000010B588B10446407F20B900202077204600F02FF802206077AA
:20084000207938B1D4E902122046FFF75BFF40B1012010BD20680F494161816821F018011B
:200860008160607908B1206901E04FF0FF302168D4E905230861886820F0600010438860BB
:20088000886820F080001843886001206077002010BD00BFB71DC1047047704770B504467B
:2008A000866D00F0A7FA054694F8350002281ED12068216C026822F016020260426922F0C7
:2008C0008002426109B9A16C19B1016821F008010160016821F0010101600068C0070DD08D
:2008E00000F088FA401B052814D82068F5E7002084F8340080206065012070BDE06D3F217E
:2009000001FA00F00121B060002084F8340084F8351070BD20206065002084F83400032004
:2009200084F8350070BD90F83510022909D1052180F835100068016821F0010101600020BF
:2009400070478021416501207047B0B530B1054690F83500022803D102241BE0012419E036
:2009600028680024016821F0010101602121046044608460C460046141612846FFF71AFD12
:20098000E96D3F2202FA01F181606C6585F8344085F835402046B0BD80B509484FF0FF3155
:2009A0000022016102614161426101600260416042608160826000F07DFA002080BD00BFBF
:2009C00010380240F8B5204800F0F1FB01F0D0F900F0D0FFFFF7E0FFBFF34F8FBFF36F8F0E
:2009E0001A4843F6E07C016821F4003101600021C0F83C12BFF34F8FBFF36F8F0167BFF36F
:200A00004F8F016821F480310160BFF34F8FC26EC2F34E31C2F3C9039A0701330CEA4115D2
:200A200016461F4646EA050406F14046013FC0F86042F7D14C1E00292146EFD1BFF34F8F93
:200A4000BFF36F8FF8BD00BF3401002014ED00E02DE9F041DFF81481054698F81400012871
:200A600002D10220BDE8F08101200C4688F814004CF25030FFF7C8FD58BB4FF0FF303C4FDF
:200A80002060286801280BD1287BFFF735FD4CF25030FFF7B9FD396821F00401396018E0C4
:200AA00068680646A968084486420FD2297B3046FFF7D6FC4CF25030FFF7A6FD396821F029
:200AC0007A01396020B968680136EBE7002000E02660002188F81410BDE8F081244801681A
:200AE00041F0004101600020704700BF2DE9F041DFF87880074698F81400012802D1022068
:200B0000BDE8F08101201E4688F814004CF2503014460D46FFF778FD10BB032F17D8DFE81D
:200B200007F002070C11E1B22846FFF7F7FC0EE0A1B22846FFF716FD09E028462146FFF742
:200B400023FD04E0284622463346FFF7F7FC4CF25030FFF759FD06490A6822F001020A600F
:200B6000002188F81410BDE8F08100BF80010020103C02400648C168B1F1FF3FC4BF0120B1
:200B8000704704490160044901600020704700BF043C024023016745AB89EFCD2DE9F04F15
:200BA0008E4A4FF00A0A90428D4A024408BF4FF0090A4FEAB2234FF0000E092B38BF4FEA43
:200BC000B22A884A01264FF00F09A2F57E7B4FF000080025102D49D006FA05F20A423FD045
:200BE0000323076803FA0EF46FF00303A74303EA550C076008F01C0700EB0C0309FA07F747
:200C00001E6ABE431E628368A3438360436893434360C368A343AC08C36008F00C0309FA01
:200C200003F75BF824603E400AFA03F39E424FF0010615D15BF82430D243BB434BF824300E
:200C4000684B1C461B6813402360636813406360A3681340A360644B1C461B681A40226074
:200C60000EF1020E08F104080135B3E7BDE8F08F2DE9F84F594A4FF00A099042584A024460
:200C800008BF4FF009094FEAB2234FF0000E092B38BF4FEAB2294FF0010A4FF00F084FF0C3
:200CA000000B0022102A00F096800AFA02F60C68344200F08A804F6847F01004122C11D1C5
:200CC0006FF003030BF01C0403EA520508FA04F70544D5F820C00B692CEA0707A3403B4364
:200CE0002B624F68032407F0030304FA0EF4056803FA0EF3A5432B43E443122F036012D816
:200D00000AFA07F313F0061F0DD08368CD68234005FA0EF52B438360C7F3001345689340AD
:200D2000B5432B434360C36823408C6804FA0EF42343C360FB0048D52C4B22F003051C4694
:200D40001B6843F48043274F2360BC4623683D4403F4804300930BF00C03009F08FA03F420
:200D6000234F09FA03F3B846EF5927EA0404234345F808304FF00F08DCF800304D6843EA92
:200D80000604EF0358BF23EA0604CCF80040DCF80430AF0343EA060458BF23EA0604CCF842
:200DA0000440DCF80830EF0243EA060458BF23EA0604CCF808400C4BAD021F461B6843EA66
:200DC000060458BF23EA06043C600EF1020E0BF1040B013266E7BDE8F88F00BF0024024054
:200DE0000000FEBF003C01400C3C01404438024008FCFFFF1B480068704700BFB0B5C0B159
:200E000004460068D4E901124CF6CC43036045F25553036041608260FFF7ECFF0546206823
:200E2000C16841B1FFF7E6FF401B3028F7D90320B0BD0120B0BDE16802698A4203D14AF687
:200E4000AA21016000E001610020B0BD00684AF6AA210160002070470248016801310160A6
:200E6000704700BF9C01002080B50748016841F400710160032000F05BF80F2000F006F8C8
:200E800000F019F8002080BD003C024010B50446074800684FF47A71B0FBF1F000F03AFFCD
:200EA0004FF0FF302146002200F026F8002010BD000000207047704700280CD400F01F019A
:200EC000012202FA01F14009034A42F82010BFF34F8FBFF36F8F704780E100E0002808D4C5
:200EE00000F01F01012202FA01F14009014A42F82010704700E100E0B0B5134B4FF0FF3525
:200F00001B68C3F30223DC1E83F0070338BF0024042B28BF042305FA03F3994305FA04F3DD
:200F2000A1409A431143BDE8B04001F051BB00BF05494FF6FF030A681A4060F30A22034823
:200F400010430860704700BF0CED00E00000FA05BCB51848184D016841F08051016000681E
:200F600000F0805001900198286840F480302860FFF740FF04466868C00306D4FFF73AFF70
:200F8000001BB0F57A7FF6D90FE0286840F400302860FFF72FFF04466868800307D4FFF7CC
:200FA00029FF001BB0F57A7FF6D90320BCBD0020BCBD00BF40380240007000407CB50446A8
:200FC000FFF718FF054694F8410080074FF000002BD584F840002068016849070BD50168E0
:200FE00021F004010160E06BFFF758FC18B1606C40F0040060642068A16C02682B4642F0B6
:20100000020202260260204600910221012201F07DF950B92068A16CC660204600912021A2
:2010200000222B4601F072F900B17CBD012084F8410000207CBD704780B590F8411089074B
:2010400021D5002180F84010082180F8411001680A6822F4F8120A600A6852070AD402208F
:20106000C860086840F400300860086840F00200086008E0C06BD94A02650A6822F00402DB
:201080000A60FFF750FC002080BD00BF2DE9FC411D46174688460446FFF7ACFE064694F8E5
:2010A0004000012802D10220BDE8FC81012084F8400094F84100012832D1002020216064B5
:2010C000422084F84100204600223346009501F01DF930BB97E80E10206881624262C36298
:2010E000C8F828C03969026822F4400211434FF0006241F4800101602046414600F088FF74
:20110000204608210122334600950825012701F0FDF830B92068C560002084F8417000E011
:201120000220002184F84010BDE8FC817047F8B515460F460446FFF75DFE064694F84000B7
:20114000012801D10220F8BD012084F84000022094F84110012921D100210022616420217C
:2011600084F8410020463346009501F0CFF8A8B920463946002200F04BFF786A20B1012010
:2011800084F84100002009E0204602210122334600950225012701F0B9F818B1002184F878
:2011A0004010F8BD2068C56084F84170EAE710B50446006828B194F84010012903D1022033
:2011C00010BD012010BD012184F84010016821F00101016000F0A6F90020606484F8410059
:2011E00084F8400010BD70477047000010B5016804468A680868530718D510F4802315D04B
:2012000094F84100122838D108468268520763D5E26A002A5CD0606A421C6262007881F876
:2012200020002068E26A013AE262EEE7930739D510F4003336D00220C860086820F4E020B3
:20124000086094F8410012284BD10868400709D5086820F004000860E06B0068016821F055
:20126000010101602046FFF7E7FE012084F841002046BDE8104000F0EFBA94F841002228E1
:201280002AD108468268520726D5A26B02B391F82000226B531C236310702068A26B013A8A
:2012A000A263EFE7130725D510F4002322D00820C8600868400206D5086820F4102008602D
:2012C000012084F841002046BDE8104000F065BA016821F4802101602046BDE81040FFF7F5
:2012E00083BF94F84100222815D1086840072ED4084650E0D30718BF10F4803317D1D20650
:201300003ED510F480103BD01020C8602046BDE8104000F043BA94F84100022822D1012070
:2013200084F841002046BDE81040FFF7FFBE0120C8600A6822F470220A60626C42F0020211
:2013400062640A68520738D484F8410013E0086820F004000860E06B0068016821F0010125
:2013600001601FE094F84100082809D1012084F84100606C60B32046BDE81040FFF733BF36
:2013800010BD91F82000226B531C236310702068A26B013AA263806810F4F85F1CBFA06BD7
:2013A0000028EED12046FFF747FE012084F841002046BDE8104000F0EFB9E06B074A0265D1
:2013C0000A6822F004020A60BDE81040FFF7ABBA2046BDE81040FFF72EBE00BF6B21000839
:2013E0002DE9FC410446FFF705FD3CB1054694F84000012805D10220BDE8FC810120BDE84B
:20140000FC81012084F8400094F8410008B1A06C08E0002084F84000204600F0BDF841F2DE
:201420008830A0642168A2686FF0FF034FF0000803EB02220B6823F4F8531A432B460A6096
:20144000202100902046002200F060FF08BBD4E90012D4E903350F68104E3E40334343EA67
:201460000262E3691A43236A1A430D4B0A604A681A4063691A43A36942EA05421A434A60F8
:201480000A6842F001020A600121C4F8448084F8411084F84080BDE8FC8100BF2FFFFF0082
:2014A000FEF8E0FF7CB516460D460446FFF7A2FC034694F84000012801D102207CBD01200D
:2014C00084F8400094F84100012826D1002020216064822084F841000022A06C00902046BB
:2014E00000F014FFD0B9206871680268082922F0080242EA0102026007D1316801631021B1
:20150000C160016841F480110160204629464FF0406200F07DFD002000E00220002184F83B
:2015200040107CBD70B54620FFF7C6FC5C20FFF7C3FC154815490160FFF707FA644C144E89
:20154000A4F5805540212846B04728460421B04720464FF48071B04720464FF40071B0472B
:2015600020468021B04720464021B0470948016841F002010160016821F002010160016A17
:2015800021F00201016270BDAC000020B86402409D0B0008183802402DE9F04786B04B4825
:2015A0004FF00A0981684A4C41F00201A4F58056816001AD81684FF0400801F00201454F30
:2015C0000191019950F8181C41F0020140F8181C50F8181C21F0020140F8181C016841F02D
:2015E00002010160016801F0020101910199016841F002010160016801F002010191019977
:20160000016841F020010160016801F0200101910199016841F020010160016801F0200170
:2016200001910199016841F020010160016801F0200101910199016841F020010160294630
:20164000006800F0200001900198CDF814900320049001200390022002903046CDF80480A1
:20166000B8474FF0090A0020CDF814A029460390042001903046B8474FF48070CDF81490B8
:20168000019020462946B8474FF40070CDF81490019020462946B8478020CDF814A00190BA
:2016A00020462946B84720462946CDF814A0CDF80480B8475C200F210022FFF71DFC5C2067
:2016C000FFF70CFC06B0BDE8F08700BF3038024000140240710C00082DE9FC41154688467A
:2016E0000446FFF787FB27680646B86994F84010012902D10220BDE8FC81012184F8401021
:2017000094F84110012929D10021B8F1000F616426D02221012284F8411039690131A16329
:20172000396901316163796962F39B617961C4F83080B861A06BC8B12046062101223346D2
:20174000009500F0E3FDF8B997F82000216B4A1C22630870A06B0138A063EBE7022016E0A4
:20176000606C40F008006064012010E020460221012233460095022500F0C8FD20B9206899
:20178000C5602046FFF71AFC012184F84110002184F84010BDE8FC817047704770472DE979
:2017A000FC41154688460446FFF724FB0646276894F84000012802D10220BDE8FC8101205C
:2017C00084F8400094F84100012827D10020B8F1000F606424D0122084F84100386901300E
:2017E000E06238690130A062C4F82480786920F040607861E06AC8B120460421012233461F
:20180000009500F083FDF8B9606A411C6162007887F82000E06A0138E062EBE7022016E062
:20182000606C40F008006064012010E020460221012233460095022500F068FD20B9206838
:20184000C5602046FFF7BAFB012184F84110002184F84010BDE8FC81704700002DE9F04156
:20186000002800F08280544B0446D3F800040D4600F00F0088420CD2D3F8000420F00F00AE
:201880002843C3F80004D3F8000400F00F00A8426BD12068810705D5A1689A6822F0F00231
:2018A00011439960C0072AD06068012803D11968890308D459E01968022802D1890102D455
:2018C00053E0890751D59968984621F0030108439860FFF78FFA064641F288376068D8F893
:2018E000081001F00C014346B1EB800F07D0FFF781FA801BB842F1D90320BDE8F081D3F873
:20190000000400F00F00A8420CD9D3F8000420F00F002843C3F80004D3F8000400F00F000F
:20192000A84222D12068410705D5E1689A6822F4E05211439960000706D52069996821F4BF
:20194000604141EAC00098601C4600F03FF8A168074AC1F30311515CC8401B4908600F20A8
:20196000FFF794FA0020BDE8F0810120BDE8F08120270008E548114B016841F08101016021
:201980000021816002681A400D4B0260416042681A430C4B4260C0F88410D0F884201A4311
:2019A000C0F88420026822F480220260C160064818490160704700BF00380240FFFFF6FA38
:2019C0001030002400300020000000201049486800F00C020F48082A03D0042A17D10E4864
:2019E00070470A680B685B020B4B58BF034602F03F00B3FBF0F00A68C2F388120968C1F393
:201A000001415043022202EB4101B0FBF1F07047043802400024F40000127A002DE9FC41E6
:201A2000002800F0B18004460078B84EC0074AD0B06800F00C00042817D0B06800F00C0079
:201A4000082802D1706840020FD4606898B1B0F5803F06D03168B0F5A02F21D141F4802067
:201A60003060306840F4803020E0306880032AD5606840BB88E0306820F480303060306891
:201A800020F480203060FFF7B5F905463068800319D5FFF7AFF9411B03206429F6D92FE181
:201AA00021F480303060306820F480203060FFF7A1F905463068800305D4FFF79BF9401B41
:201AC0006428F7D9EFE0207880072DD5B06810F00C0F07D0B06800F00C00082809D17068BA
:201AE000400206D43068800717D5E068012814D04AE03068E168002900F0998040F00100FC
:201B00003060FFF777F905463068800705D4FFF771F9401B0228F7D9C5E02069316821F0FF
:201B2000F80141EAC00030602078000720D5706F616971B140F001007067FFF75BF9054635
:201B4000706F800714D4FFF755F9401B0228F7D9A9E020F001007067FFF74CF90546706FC8
:201B6000800705D5FFF746F9401B0228F7D99AE0207840070BD4A769002F00F0C380B068B8
:201B800000F00C00082835D10120BDE8FC81306CC0000BD4306C4FF0010840F0805030641D
:201BA000306C00F080500190019801E04FF00008574F3868C0050FD4386840F4807038602D
:201BC000FFF718F905463868C00505D4FFF712F9401B6428F7D966E0A068C8B3012805D0F6
:201BE000316F05284BD141F004003067306F40F001004AE0306820F080703060FFF7FAF826
:201C00000546022F09D13068800158D5FFF7F2F8411B03200229F6D972E03068800171D51E
:201C2000FFF7E8F8411B03200329F6D368E020F001003060FFF7DEF80546306880077FF5C7
:201C400073AFFFF7D7F8411B03200229F5D957E0306F20F001003067306F20F0040030675D
:201C6000FFF7C8F8054641F28837306F80071DD5FFF7C0F8411B0320B942F6D940E021F031
:201C800001003067306F20F004003067FFF7B2F8054641F28837306F800707D4FFF7AAF8EC
:201CA000401BB842F7D90320BDE8FC81B8F1000F3FF461AF306C20F0805030645BE71C341D
:201CC0001FCC0843D90340EA82104FF6FF72914340EA0460A1F58031084340F0005070603C
:201CE000306840F080703060FFF784F804463068800107D4FFF77EF8011B03200229F6D947
:201D0000BDE8FC810020BDE8FC8100BF0038024000700040411E0020B0EB116F01D00120EA
:201D20007047044AF023516003490B70072190601160704710E000E023ED00E000F058B912
:201D40008068896881EA00020023B3EB126F01D00120704721F07F4120F07F40884201D116
:201D6000022070474FF0000088BF03207047000010B5084C206A20F4805020621548FEF7CF
:201D800039FD206840F480502060206820F48050206010BD10380240E0B50D49032208683E
:201DA00040F4805008600B4802620022C0E905228280A1F503620260096801F480510191E6
:201DC0000199FEF731FD00B98CBD00F011F900BF303802401001002080B50848084940F8A2
:201DE000041F40F6FF710422C0E90121C160FFF705F800B980BD00F0FBF800BF5C00002001
:201E000000300040F8B5784F784C00263D46201D482105F81C6BFEF70CFA28463821FEF790
:201E200008FA381D1821FEF704FA354820602046FFF7BDF94FF48070172110220423022525
:201E4000C4E90153C4E90321C4E905062046C4E90766FFF7C5FA206881688906FCD442F2BF
:201E60006611416100218161C1610161BFF34F8F206881688906FCD442F2991141610021C1
:201E80008161C1610161BFF34F8F206881688906FCD442F26621416100218161C161016198
:201EA000BFF34F8F206881688906FCD442F29921416100218161C1610161BFF34F8F206893
:201EC00081688906FCD442F26631416100218161C1610161BFF34F8F206881688906FCD466
:201EE00042F29931416100218161C161016141F28830BFF34F8FBDE8F84000F04FB800BFAD
:201F0000001000A000F074B87047F0B585B00D460646002002210490144603910090284602
:201F2000FEF7BCFA074601906019FEF7B7FAC01B01300290FEF71EFE684604A9FEF788FD75
:201F400008B1049818E00027A7420AD2F259E91902200023FEF7CAFD04370028F4D00120B2
:201F60000AE0FEF7BBFD304629462246FEF76CF90490002818BF0120C0B205B0F0BD00009B
:201F8000E148FFF733B900BF80B51421FEF751F980BDFEF761BF00F02BB87047B0B5034644
:201FA000D84A00204FF0807142F8040F4FF480741025C2E91100D064C2E90B04C2E90D0094
:201FC000D16301214FF48004C2E90115C2E9031005201146546141F8180FCB48FFF756F87D
:201FE000002818BF0120B0BD0800002034010020FEF7E8FC8D480430FEF728FF00F0FAFAF5
:20200000582700003163BDC709082035000000082DE9F0414B6AB2F1406F18BF002B03D098
:202020008D6A0468013D25618C690D6A74B3002D48D0D0F800C08F68D1E904E8CE69CCF881
:202040001C702B43486BD1E90B57002E43EA050343EA070340EA030040EA884040EA0E03C3
:2020600049D044EA0200CC683043B2F1406F40EA03000B6840EA040040EA0300CCF814004B
:2020800071D04868CCF81800BDE8F081E5B300688E68D1E904CECC69C66101F12C072B43EC
:2020A000E0CF002C43EA050343EA060343EA070343EA8E4343EA0C0340D014432343CC6868
:2020C000234333E0D1E90B764D6BD1F814C03B43D1F81CE03343BEF1000F43EA050343EA1E
:2020E0008C432ED01443CD6844EA0E0423430C682B43234319E044EA020009681843084359
:20210000CCF81400BDE8F081CC69FCB113434D69D1E90B6723434C6B3343D1F80CC03B4311
:20212000234343EA854343EA0C030068B2F1406F436118D049688161BDE8F08143EA0201E9
:2021400010E0224309681A4311430AE05BB1D1E90B451A434B692243496B2A43114341EAF2
:20216000834100684161BDE8F081806B00218163C16290F8411008290BD100680221C160D6
:20218000016841F400310160016841F0020101607047012180F84110FFF725B82DE9F04F47
:2021A0008FB00C464FF6FF7120EA01074FF400594FF0000A1B4DDFF838B301AEDFF868804A
:2021C000A7422AD84FF480600890D82001904FF48070CDF81090CDE909AACDF838A0CDE97C
:2021E0000CAACDE906A007EA0500029000F00EF988B95846314641F28832FEF798FF50B976
:2022000040F6B830FFF7CAFE28B94046FEF71EFE07F58037D4E7012000E000200FB0BDE877
:20222000F08F00BF0000FF0F600000205C000020FEB5924C0020217800295DD185222146A7
:2022400041F81C2F4FF480724FF0807301254863C1E90502C1E90700C1E90935C1E90B00C3
:20226000A34841F28832FEF762FF002843D1A0480DF10B0141F28832FFF72EFAD8BB00F074
:20228000C5F8C0BB9DF80B100A2041F2883260F31F1181208DF80B10214641F81C0F9448D4
:2022A000FEF745FF38BB92480DF10B0141F28832FFF775FAF8B9EB20214641F81C0F002015
:2022C0004FF400524FF480734FF440654FF040760A270190C1E90B0048634860C1E90320BF
:2022E000C1E90573C1E90750C1E9096080486A46FFF7D8F808B10120FEBD01202070002004
:20230000FEBD00BF08000020340100202DE9F843DDF82090984616460F46044609F1010517
:2023200020688068384018BF0120B04214D0002DF6D0B9F1000F05D0FEF75CFDA0EB080085
:202340004845EDD9042084F84100606C40F0010060640120BDE8F8830020BDE8F8832DE9F1
:20236000F8430446C8B217460D465FFA82F8160AE0B1C0F5807946B328464946224600F02E
:202380007FF8E8BBA7EB09004C44C7B24D44060A7EB328464FF48071224600F071F878BB17
:2023A000013E04F5807405F58075F1E716B3D6B128464FF48071224600F062F800BB013E8C
:2023C00004F5807405F58075F1E7C84512D928464946224600F054F809EB0500A8EB09011A
:2023E00004EB090209E0B8F1000F0CD02846414602E047B128463946224600F041F810B158
:202400000120BDE8F8830020BDE8F883B0B51B4C06202146002541F81C0F4FF4807041F2F3
:202420008832C1E90B554D63C1E905503048C1E907554D62FEF77BFE0146012001B1B0BD07
:2024400005214FF0807244F81C1F02211023C4E909204FF4800244E9051344E9030544F807
:20246000042C224642F8181D2148214641F28833FEF70CFE002818BF0120B0BD08000020E3
:2024800010B58EB014464FF440620792122200924FF4807206924FF4005203924FF04072B3
:2024A0000992002220F070400892CDE90C22CDE90A1205920190FFF7A9FF68B90C48694665
:2024C00041F28832FEF733FE30B90948214641F28832FFF764F910B101200EB010BD41F268
:2024E0008830FFF75BFD002818BF0120F5E700BF340100201CB50446006809490840B0F108
:20250000005F0BD1FEF75EFA60680190054801990160216881F30888006880471CBD00BF3E
:202520000000FC2F0C01002080B592B00220C821CDE90B000A91042109914FF48001CDE92C
:2025400007014FF4803002900120019001A8FFF765FAA8B9FEF7FCFC90B94FF4805006216D
:2025600011904FF4A050109000200F9002200E900F200D900DA8FFF771F908B912B080BDC7
:20258000FFF736FD10B50E480F4CD0F8801041F47001C0F880100B490A6842F001020A60F1
:2025A00000228A600B6823400B60084B4B600B6823F480230B60CA604FF00061016010BD40
:2025C00008ED00E000380240FFFFF6FE1030002410B500F00F03064C2344044AB0F1FF3FA9
:2025E000C8BF83180801187010BD00BF00E400E014ED00E0BFF34F8F0548064A016801F46C
:20260000E06111430160BFF34F8F00BFFDE700BF0CED00E00400FA05FDF738FEFEF724FCB7
:20262000FFF782FFFFF7D8FBFFF7B6FBFFF7EAFBFFF7FEFD304C04F114063046FFF7A4FC50
:2026400004F128073846FFF79FFC2C4D05F56020A0632B48804660623046FDF7FFFF20705E
:202660003846FDF7FBFF607030463946FFF768FBE07090B1207898B304F13C063046FFF7B9
:2026800083FC3046E564FDF7E9FFA07008B3607820BBD4E90D10A26A1EE06269606A2946BA
:2026A000FDF7A3FE30BBFFF7ADFBFFF7C1FD251D2846FEF7CBFBD4E90D10A26AFFF725FCE0
:2026C000C0B9FFF79FFBFFF7B3FD2846FEF7BEFB04E0D4E91210E26BFFF717FC207810B9B5
:2026E000206AFFF707FF4046FFF704FF201DFEF7ADFBFEE7FFF77CFC5C0000200000E290BA
:202700000000010802E008C8121F08C1002AFAD17047002001E001C1121F002AFBD17047B7
:20272000000000000000000001020304060708095027000800000020080000000427000897
:18274000582700080800002098210000122700080024F40000000000C0
:04000005080001C925
:00000001FF
