:020000040000FA
:2000000048770320DD0101086D7A0108156F0108697A0108A30C0108259E0108000000002A
:20002000000000000000000000000000EF0101088D16010800000000F3010108CD8D0108BB
:20004000F7010108F7010108F7010108F7010108F7010108F7010108F7010108F701010898
:20006000F7010108F7010108F7010108F7010108F7010108F7010108F7010108F701010878
:20008000F7010108F7010108F7010108F7010108F7010108F7010108F7010108F701010858
:2000A000F7010108F7010108F7010108F7010108F7010108F7010108F7010108F701010838
:2000C000F7010108F7010108F7010108F7010108F70101080D9E0108199E0108F7010108A6
:2000E000F7010108F7010108F7010108F7010108F7010108F7010108F7010108F7010108F8
:20010000F7010108F7010108F7010108F7010108F7010108F7010108F7010108F7010108D7
:20012000F7010108F7010108F7010108F7010108F7010108F7010108F7010108F7010108B7
:20014000F7010108F7010108F7010108F7010108F7010108F7010108F7010108F701010897
:20016000F7010108F7010108F7010108F7010108F7010108F7010108F70101080000000078
:20018000F7010108F7010108F7010108F7010108F7010108F7010108F7010108F701010857
:2001A00001780108F7010108F1110108F701010895870108F7010108F7010108F701010888
:2001C000F7010108F7010108DFF80CD000F084FB0048004731A60108487703200648804795
:2001E00006480047FEE7FEE7FEE7FEE7FEE7FEE7FEE7FEE7FEE7FEE7E98D0108C901010826
:2002000010B5441A0346944209D28318114403E011F8014D03F8014D521EF9D210BD40EA1C
:200220000104A40703D009E010C9121F10C3042AFAD203E011F8014B03F8014B521EF9D2C1
:2002400010BDD2B201E000F8012B491EFBD270470022F6E710B513460A4604461946FFF751
:20026000F0FF204610BD421C10F8011B0029FBD1801A704730B504460020034600E05B1CA5
:20028000934203D2E05CCD5C401BF8D030BD034611F8012B00F8012B002AF9D11846704794
:2002A0002DE9FE4F804681EA0300C00F0C46009021F0004123F00045B8EB0200A94105D2E6
:2002C0004046214690461C460B46024623F00040104347D0270DC7F30A00C3F30A51029008
:2002E000401A019040286BDAC3F3130040F4801B0098924620B10023D2EB030A63EB0B0B3C
:2003000001985946C0F14002504600F0D8F906460D4650465946019A00F0F0F910EB080010
:200320006141002487EA115284EAE7731A4340D0009A62B3019A012A4FEA075215DC001BDB
:2003400061EB02014FF0004202EA0752CDE90042001C41F5801132462B4600F027FA03B000
:20036000BDE8F08F40462146F9E7001B61EB0201001C41F5801300185B412018A2F50017A3
:2003800047EB030140EAD570B6196D4111E06D084FEA360645EAC0754FEA0752001B61EB03
:2003A0000201001C41F5801149084FEA30000019514132462B4603B0BDE8F04F00F0E7B9E2
:2003C0000098012240000023D0EB020263EBE073009821464FEAE074B8EB000061EB04011F
:2003E000E9E783F000435BE781F0004158E72DE9FE4F81EA030404F0004421F00041009451
:200400004FF0000B23F0004350EA01045ED052EA03045BD0C3F30A54C1F30A552C44A4F234
:20042000F3340194A0FB0254C1F3130141F48011C3F3130343F4801301FB024400FB034E5D
:20044000840A970A44EA815447EA8357A4FB076802958D0A05FB07854FEA932C04FB0C5440
:200460002705029D4FEA065847EA1637B5EB08056EEB070C870E920E47EA811742EA8312C4
:20048000A7FB0201B6EB0B0164EB00042B0D43EA0C335E1844EB1C50DA465146E7FB020166
:2004A000C5F313044FEA0B3343EA14534FEA0432019C43EA0603A4F10C040294009CCDE993
:2004C00000B400F073F903B0BDE8F08F00200146F9E72DE9F04D81EA030404F0004B21F0D9
:2004E000004514464FF0000A23F0004150EA050220D054EA01021DD0C5F30A570246C5F348
:200500001303C1F31300C1F30A5640F4801543F48013A7EB0608101BD64608F2FD3873EBE3
:20052000050002D308F1010801E092185B41B8F1000F03DA00200146BDE8F08D00204FF437
:200540008011064684460EE0171B73EB050705D3121B63EB050306434CEA010C49084FEAF9
:20056000300092185B4150EA0107EDD152EA030012D082EA040083EA0501084305D0101BB6
:20058000AB4106D20122002306E000224FF0004302E06FF0010253101AEB06004CEB085185
:2005A00010EB0A0041EB0B01BDE8F04D00F0EFB80EB5C10F80EAE0700844CA07002140F2C8
:2005C00033438DE80E000A460B4600F0EFF803B000BD00F0004230F000400AD0C10D01F50A
:2005E0006071C0F3160042EA0151C20840071143704700200146704701F0004330B421F080
:20060000004150EA010206D00A0DA2F56072C1F31301002A02DC30BC00207047440F44EAF2
:20062000C104C100E01830BC00EBC25000F078B830B50B46014600202022012409E021FA2B
:2006400002F59D4205D303FA02F5491B04FA02F52844151EA2F10102F1DC30BD2DE9F05F4B
:200660000546002092469B4688460646814640241BE0284641464746224600F02FF853467C
:200680005A46C01A914110D311461846224600F016F82D1A67EB01084F462246012000212F
:2006A00000F00DF817EB00094E41201EA4F10104DFDC484631462A464346BDE8F09F202A9C
:2006C00004DB203A00FA02F1002070479140C2F1200320FA03F3194390407047202A04DB5A
:2006E000203A21FA02F00021704721FA02F3D040C2F120029140084319467047202A06DB69
:20070000CB17203A41FA02F043EAE07306E041FA02F3D040C2F120029140084319467047C3
:200720000029A8BF7047401C490008BF20F00100704710B4B0FA80FC00FA0CF050EA01041F
:2007400004BF10BC704749B1CCF1200421FA04F411FA0CF118BF012121430843A3EB0C011A
:20076000CB1D4FEA00614FEA102042BF002010BC704700EBC35010440029A4BF10BC704789
:20078000401C490008BF20F0010010BC704710B5141E73F1000408DA401C41F100019218DF
:2007A0005B411A4301D120F0010010BD2DE9F04D92469B4611B1B1FA81F202E0B0FA80F2A6
:2007C00020329046FFF77BFF04460F4640EA0A0041EA0B0153465A46084313D0114653EA7C
:2007E000010019D0C8F140025046FFF777FF05460E46504659464246FFF761FF084305D040
:20080000012004E020463946BDE8F08D0020054346EAE0762C4337430A986305E40AA0EB72
:2008200008000022FD0A44EA47540A3002D500200146E9E7010510196941DDE90845001971
:200840006941BDE8F04DA2E7C1F30A52C1F3130140F2FF3341F480119A4202DA0020014662
:20086000704740F233439A42A2F2334202DC5242FFF734BFFFF723BF30B5041E71F1000494
:2008800004DB4FF00044404264EB0101141E73F1000405DB1C464FF00043524263EB0403DC
:2008A0008B4208BF824230BD30B5041E71F1000404DB4FF00044404264EB0101141E73F1BB
:2008C000000405DB1C464FF00043524263EB0403994208BF904230BD064C074D06E0E06832
:2008E00040F0010394E8070098471034AC42F6D3FFF76EFC140604084406040870B58C18C2
:2009000010F8015B15F0070301D110F8013B2A1106D110F8012B03E010F8016B01F8016B4C
:200920005B1EF9D12B0705D40023521E0DD401F8013BFAE710F8013BCB1A921C03E013F81A
:20094000015B01F8015B521EF9D5A142D8D3002070BD00002DE9FC47204D4FF0010945F881
:20096000049F804600244FF0100A1D4F4FF6FF7205F12C0629463046C5E901A9EC60019429
:20098000B847012001F012FB02202946C5E9000A30464FF6FF72C5E90294B8470820032135
:2009A000C5E9001AC5E90204304629464FF6FF72B8474FF40871042001914FF6FF7201995F
:2009C000C5E9000AC5E9029130462946B84730464146BDE8FC4706F00EB800BF100B01209E
:2009E000196A01082DE9F04F85B080465F4881684FF00C0B41F001014FF0030A81600027AE
:200A00008168022401F00101594D00916E460099DFF86091016841F480010160016801F4AA
:200A2000800100910099016841F001010160016801F0010100910099016841F00401016088
:200A4000016801F0040100910099016841F008010160016801F0080100910099016841F0E2
:200A600010010160016801F0100100910099016841F020010160016801F0200100910099AE
:200A8000016841F0400101603146006800F0400000900098CDF810B04FF63F00CDF80CA069
:200AA00002970194009005F5A050C84701A8314680E8900C802000902846C84701A831468E
:200AC00080E8900C3020009005F50060C84701A8314680E8900C48F23310009005F5C0508E
:200AE000C84701A8314680E8900C4FF68370009005F58050C84701A8314680E8900C4CF2C0
:200B00000370009005F54060C8471B4D4FF4003005F12001194C81E88104C5E90B774FF471
:200B200080404FF480514FF480624FF40073C5E900478024C5E90243C5E90421C5E90607EC
:200B40002846C8F83050C5F8388003F0DBFA284603F000FB38200F21002204F073FB3820EA
:200B600004F062FB05B0BDE8F08F00BF303802400000024045430108FC0D0120106402402F
:200B80002DE9F04F8BB0DFF80491824699F80000D9F808100969884700288AF8000070D0EC
:200BA00000260DF10E040DF1040B4FF00008C0B2804566D299F80000D9F80830A1190BEBF2
:200BC00006025B69984799F80100012808D1A15B0DF1220006AA81533BF8060090531FE01B
:200BE000810705D5A15B0DF12202C1F580519153410705D53BF8061006AAC1F58051915384
:200C0000000705D406A80DF12201805B895B07E0A05B06A90DF1220288533BF806109153AB
:200C200009EB4605EB682A6A5C1A38BFCC1A171A38BF871ABFB217FA84F4062C03D3024628
:200C40000B462862E96099F80040702C03D10AEB060251800AE0B9F802100AEB060059431D
:200C6000090B4180B9F804005043000B0AEB06010DF10E04888102369AF8000008F101086B
:200C800095E700200BB0BDE8F08F00BF880A012000F00F01000900EB800001EB4000C0B255
:200CA000704707F073BF0000F0B589B0DFF8547397F84900000640F1A381DFF84C53DFF858
:200CC0004C6328463146012205F018FDDFF8404328462146012205F0E5FC97F8221097F8DB
:200CE00023203078914210D20021904238BF01210846FFF7CDFF30B13078FFF7C9FF97F862
:200D00002210884219D2B96C10E0FFF7C1FF97F82210884211D23078FFF7BAFF97F823208A
:200D2000B96C904202D241F4001109E0880208D5072021F40011B87402E0B86C40F400118E
:200D4000B96401F41810B0F5181F40F08E80480204D5207897F8262082423FD041F4800027
:200D6000B86400200DF060FE00200EF011F80CF06AFD00200DF0CAFE01200DF055FE0120DB
:200D80000EF006F84FF07F400EF01AF80CF05BFDA0483C210170207887F8260009200EF0DB
:200DA0006DF84FF47F400EF00DF89C4D4FF4C87014214FF4E1721423A8474FF4C8702821B0
:200DC0004FF4E1722823A8474FF4C8703C214FF4E1723C23A84701200DF098FE01AD3146AE
:200DE0002846022206F098F8B078711C0222C0074FF03A0008BF20208DF80600E81C06F036
:200E00008BF8F02088210DF055FA97F82400844951F820000DF0D6FF82480DF0E1FF0E20BA
:200E20000EF034F801200DF0FFFD002050214FF4F072C0230CF016FD0020DC2164224FF460
:200E400087730CF00FFD28460CF04CFE2078072858D8DFE800F0043B3F43474B4F0607205F
:200E600020708348019082A047E06A4970780A78824200F0AC8001AD087028463146022211
:200E800006F04AF83A20711C8DF80600E81C022206F042F860480DF0A3FF6FF07F400DF0EE
:200EA00091FF02200DF0FCFF0C200DF0EFFF01200DF0BAFD0520F5210DF0FCF90020DC2152
:200EC00064224FF487730CF0CDFC7AE06548019064A012E0604801905FA00EE05B480190A2
:200EE0005AA00AE05648019055A006E05148019050A002E04C4801904BA041680089029133
:200F0000ADF80C0005F10A00A11C022206F004F86078013811283AD8DFE800F0090B0D0F0A
:200F200015191D2125393939393939292D316E4804E06C4802E06A4800E0684801684268BE
:200F40000491059220E06248049061A01AE05D4804905CA016E05848049057A012E0534849
:200F6000049052A00EE04E4804904DA00AE04948049048A006E04448049043A002E03F489D
:200F800004903EA0416805910089ADF818003020E11C8DF81C0043F22020ADF81A0005F142
:200FA0001900022205F0B8FF2E20ADF81F004F480DF016FFF020CE210DF07CF90E200DF0F1
:200FC00065FF01A80CF08EFD01200DF09FFD207897F82610814213D0A2780B4D87F82600A9
:200FE000434E28460221B047627828460321B047227828460421B047E27828460521B0476C
:2010000009B0F0BDD80C0120940C0120000C0120C00B0120300701208C5C0308E1DE010878
:20102000B40004089C8E03082053617475726461792000002020467269646179202000004F
:201040005468757273746461792000005765646E65736461792000002054756573746461EA
:201060007920000020204D6F6E64617920200000202053756E646179202000002E20446504
:2010800063656D62657200002E204E6F76656D62657200002E204F63746F6265722000001A
:2010A0002E53657074656D62657200002E20417567757374202000002E2020204A756C7922
:2010C000202000002E2020204A756E65202000002E2020204D61792020200000B405040896
:2010E000A8050408CC050408C00504085C3E0308F365010810B5F64CA06C00F40811B1F5BD
:20110000081F01D10721A17420F48400A06403F0E9F960641E2084F8210094F82000BDE838
:20112000104000F001B800BF502828BF5020052898BF052000EB800002494000096848636D
:20114000704700BF206F012080B501200DF06CFCC32091214FF4A072EB230CF083FB6FF0DD
:201160007F400DF02FFE0B480DF03AFE00200DF097FE01200DF08AFEC82096210DF09AF878
:20118000D8480221807A0CF07DFC0120BDE880400DF0BCBCD46A030810B50DF093F81248B2
:2011A0000DF052FD012012F01BFE0DF0C1FF00200DF0EEFD0CF047FB01200DF0E9FD4FF061
:2011C0007F400DF0FDFD0CF03EFB084C3021204607F051FC04F12000502107F04CFCBDE86B
:2011E00010400CF017BF00BF717A0108BC0D012080B5034802F0A2FE02480221016080BD13
:20120000546D012008B0024010B501686FF00F0252FA81F21823B2FBF3F306A45F2AE35C55
:2012200040F2FF3421EA040188BF0431C0E91613084610BD00061016000610162DE9F04F23
:2012400087B0002000260DF0A3FD0CF0FCFA01200DF09EFD4FF07F400DF0B2FD0CF0F3FA36
:2012600001200DF0E1FB4FF0140803204FF406610222CDE90062CDE90261CDE904080A200B
:2012800014219622502310F0B6FD914D4FF47F41286510F0C2FE286D8EA18F4F0022B8474A
:2012A000286D8E490122B847286D8D490222B8478C4801780446286D10F0C6FE40F661008B
:2012C000022100969622CDE90116CDE903010A20962150234FF0020ACDF8148010F08BFD96
:2012E0004FF47F41686510F098FE686D7E490022B847686D7DA10122B847A17B686D274658
:2013000010F0A2FE4FF00F0940F662004FF02808DFF8E0B1CDE9006ACDE902096E201421C3
:201320005A221E23CDF81080D847734C0221A865A047397BA86DDFF8C4A1D04740F66300F1
:20134000022100965A22CDE901106E2046211E23CDE90398D8470221E865A047797BE86D4B
:20136000D04740F66400022100965A2201919621CDE902060A201E2304906E204FF00208AA
:20138000D84702212866A047397C286ED047322040F66501CDE90068CDE9021604906E2038
:2013A000BE215A221E23D84702216866A047797C686ED047642040F66601CDE90068CDE9C3
:2013C000021604906E20E6215A221E23D8470221A866A047B97CA86ED04740F60500B42166
:2013E000CDE900084FF4AA7082221E2309F03CFF434928670AF0ADF840F60300E621CDE909
:2014000000084FF4AA7082221E2309F02DFF3D49E8660AF09EF86FF07F400DF0D3FC3A488D
:201420000DF0DEFC0C200DF031FD384DD2201821A8473748374EB047D2202421A847364C3C
:201440002046B047D2204A21A84734A0B047D2205621A8472046B047D2209A21A84734A0F3
:20146000B047D220A621A84737A0B047D220C221A84739A0B047D220CE21A8473B4C2046AE
:20148000B047D220EA21A84739A0B047D220F621A8472046B0470A200421A84739A0B04736
:2014A0000A207821A8473DA0B0470C2005214FF4A0720CF0EFFC822005214FF4A0720CF0FF
:2014C000E9FC012007B0BDE8F04F0DF01FBB00BFD80C01204F464600D31F02081B040408CE
:2014E00023040408A00B0120120404083320535045454400072802085B2A0208AF2A02085C
:20150000790404080D040408C0FB0208B5E2010862040408E5DA0108D40304084D494E2E91
:20152000205553455220534554504F494E54000046414E2053504545442044494646455280
:20154000454E43450000000054454D502E2078302E312A430000000046414E204C4F572071
:2015600053504545442042414E440000C003040846414E2048492053504545442042414EEE
:2015800044000000544845524D4F5354415420434F4E54524F4C204D4F44450046414E2081
:2015A000535045454420434F4E54524F4C204D4F44450000B0B5344C324D206DA847606D87
:2015C000A847A06DA847E06DA847206EA847606EA847A06EA847E06EA847206F2946BDE8CD
:2015E000B040084770B5284C264E606FB047A06FB047234D6868B047E868B0476869B0478D
:20160000E869B047686AB047A86AB047E86AB0472868B047A868B0472869B047A869B04749
:20162000286AB047E06EB047206F3146BDE87040084700BF70B5124C124E206DB047606D3F
:20164000B047206EB047A06CB047E06DB047A06DB047E06CB047606BB047E06BB0470A4D25
:20166000286FB047206BB047206CB047606CB047A06BB047E86E3146BDE87040084700BFE2
:20168000540D0120C1330208D80C0120704781B000210091C1B20A2904D300990A380131A1
:2016A0000091F7E7009909010091009951FA80F000900098C0B201B0704705F099BD80B5B1
:2016C000FFF7FBFFA02040F6B83100F009F828B1A8209121BDE8804000F096B880BD000017
:2016E0000A46014640484FF47A7302F07DBF00BF80B513460246A02000F002F880BD0000F1
:201700001CB50C4699B2CDE90021C1B236482246022305F0E7FD1CBD2DE9F8430C46054666
:2017200002F03F08960911F03F001DD01746C0F1400936B3284621464A4600F057F8E8BB1D
:20174000A7EB09004D4400F03F0780B24C448609300435D0A1B22846402200F047F868BB28
:20176000013E40354034F3E7E6B130041DD0A1B22846402200F03AF800BB013E4035403487
:20178000F3E7B9450ED2284621464A4600F02EF8A0B909EB0401A7EB090205EB090089B2F3
:2017A00092B208E02846214604E0B8F1000F0CD0A1B22846424600F019F830B1BDE8F88365
:2017C0001FB1A1B228463A46F5E70020BDE8F8831CB50C4699B2CDE90021C1B20248224672
:2017E000022305F0B1FD1CBDE06D012080B513460246A020FFF7ECFF00B180BDA02040F67F
:20180000B831FFF76DFF80BD07F0C0B92DE9F0410B680268012B1ED1D1E9073422F4F8424C
:2018200001F10C0C1A43D1E901E8496A224311439CE8E0104268016047F6FF7122EA0101F8
:2018400041EA0E0141EA080129433143394341EA0C01416017E047F6FF730F1D22EA030CF8
:20186000D1F82080F8CFD1E9062E43EA0C03496A23432B4333433B431A4342EA0E0242EACE
:201880000802114301600020BDE8F081426942EA4101416100207047F8B505460020009019
:2018A000144691E80D006FF01F06C96806EB43131043184340EA412000900098286102F070
:2018C00011FE0646671CA869800609D5002FFAD024B102F007FE801BA042F4D90320F8BDCE
:2018E0000020F8BDF0B58368012A27D1294A1A4091E87810D1E9057E2349013B01EB06318A
:201900001143234A02EB07521143C26881606FF00F0102F0704201EB04111A4311436FF03D
:20192000FF0202EB05221143184A02EB0C421143AEF1010241EA0261C16022E091E874000D
:201940006FF00F0703F07043013A07EB04141A436FF0FF03224303EB05231A430A4B03EB4E
:2019600006330A4C1A430B6904EB0343084C1A434B6904EB035389691A43013942EA016111
:2019800081600020F0BD00BF00F0FFFF0000FFFF0000F0FFFF0F0FFF70B54E4E0546307A2D
:2019A0000C46C00713D005F0DBFF2289F168606806F027FE18B10020C6E9030003E020894E
:2019C000F1680844F06005F0CBFF06F083FD2846214607F045FC02F085FD7061012070BD3D
:2019E000F8B53C4E0546307AC00771D148680C46417A022916D17279017A914213D101685D
:201A000009BAF160406800BA306105F0A9FFD6E90301014406F016FD002845D00020C6E905
:201A2000030051E072794178914219D10278A2F1A1031F2B12D8012707FA03F3264F3B421B
:201A40000CD02846214607F00BFC60680178D62931713DD140782149887239E0D62AF0D0F2
:201A6000B279914234D10178D52931D18178C278037945791A4C21701A49E5701A4DA27055
:201A80006370C2880A800122007A8870284604F00BFF28462146012204F0B2FE134801683E
:201AA00041F40041016013E0B068124A40F001000221B0600E4807F0CEFA2846214607F0A3
:201AC000CFFB02F00FFD706105F04AFF06F002FD0120F8BD180C012001080083A00B0120C7
:201AE000C00B0120000C0120940C0120200D0120487001209919010802484FF400110BF091
:201B0000DBBA00BF000060C07047000001480068704700BFBC0E012070470000F8B5002202
:201B2000009290F83C20012A01D1022156E0012280F83C200A681FFA82FC0A2A4FEA4C041C
:201B400014FA82F60FD31E3E072404FA06F70468254655F80C3FBB432B60324B8F689A4253
:201B60000ED13E060EE0046807232546B34055F8107F27EA03032B608B6803FA06F601E015
:201B800007FA06F62B6833432B604D68062D05D805EB850304F134015D1F0CE005EB85066A
:201BA0000C2D04D804F13001A6F1230503E004F12C01A6F141051F230E68AB4026EA030390
:201BC0000B600CFA05F30D682B430B607149A1F541739C4204D0002180F83C100846F8BDB0
:201BE000112A09D00F4B9A4206D0122AF3D10A6842F480020A60EEE70B6843F400030B6044
:201C000008498A42E7D1BB49BB4A0968B1FBF2F101EB81014900009100990029DBD0009998
:201C20000139F8E712000010B8B110B504460068216C41F002012164816821F00101816066
:201C40008068C00705D1204600F0ACF8002060642064002084F83C0010BD012070470068B8
:201C6000C06C7047002841D070B50446006C30B9002084F83C006064204600F094F8206C7A
:201C8000C00635D4206C41F202118843414902302064086820F44030086094E80D00256925
:201CA0000E6832430A60416821F480714160416841EA05214160416821F04071416041682F
:201CC0001943354B4160816821F400618160E168826811438160816821F070618160A26A27
:201CE00081689A4206D121F040510CE00120704701204AE011438160816821F040518160F6
:201D0000E16A826811438160816821F002018160A169226A836843EA4101816041686AB1E6
:201D200041F400611D4A4160416821F460414160616A02EB41314268114301E021F4006186
:201D40004160174DC16A21F47001C162E2696169236B05EB0252C56A2A43C262826822F403
:201D600000728260826842EA43228260826822F480628260826842EA812101228160002012
:201D80006064216C62F301012164002184F83C1070BD00BF042301400100000F00E0FFFFEB
:201DA0000000F0FF70477047F8B5044600680D468168490544BF80685FEAC05027D402F0AC
:201DC00091FB06466F1C20680168890710D4002FF9D025B102F086FB801BA842F3D9002089
:201DE00084F83C00206C40F0040020640320F8BD6FF012010160216C41F40071216481689B
:201E000011F0405F01D1A16951B10020F8BD002084F83C00206C40F0200020640120F8BD61
:201E2000C16A11F4700F02D080684005EDD4206C20F480702064206CC004E6D4206C40F059
:201E400001002064E1E7000081B00021009190F83C10012901D1022049E0012180F83C1051
:201E600001688A68D20710D18A68234B42F001028A60204A1268B2FBF3F202EB4202009295
:201E8000009A12B1009A013AF9E78A68D2072DD0026C40F201739A4302F5807202644A6876
:201EA000520504D5026C012363F30D320264026C0023D20444BF436C23F006030022436467
:201EC0006FF022030B6080F83C200C48D0F80423D20603D0814209D1806800E0886810F0FC
:201EE000405F03D1886840F080408860002001B0704700BF3C07012040420F00002001400A
:201F000010B51F2321FA03F4E40704D1013B5C1CF8D14FF0FF330124B4EBF20F09D04FEA23
:201F2000F204022C10D0032C05D1062B03D9012010BD0F2BFBD800684161816821F0180173
:201F400011438160002010BD072BF0D8F3E7B0B598B10446407F022502280FD065770025A3
:201F60002068816841F00101816001790571204600F006F82577657700E001252846B0BD3F
:201F8000704770477047704790F83510022909D1052180F835100068016821F0010101606B
:201FA0000020704780214165012070471CB5019002F098FA044602F095FA001B01998842FB
:201FC000F9D31CBD90F841007047704780B509484FF0FF31002201610261416142610160A3
:201FE0000260416042608160826003F009F9002080BD00BF10380240704770477047704702
:04200000C4490300CC
:2020080006032131000001082DE9F04F87B002F065FADFF8307C396C401A642804D302F0A0
:202028005DFA38640BF0F2FFDFF81C1CDFF81C5C09786878C90707D102282CD0012857D1DB
:2020480000207864687053E0002841F0EF850120687001200CF0E4FC0BF0F1FBDFF8F00BF5
:202068000CF0BAFE4AF2FF500CF0A8FE02200CF013FF0E200CF006FFF02087210CF016F955
:202088000FF6D0300BF02AFD01200CF03BFDFFF72DF801F0CBBD0020687001200CF0C0FC57
:2020A8000BF0CDFB09200CF0E5FEFF200CF086FEF0208821322232230BF0E8FDDFF8B84B92
:2020C8004FF4C87014214FF4E1721423A0474FF4C87028214FF4E1722823A0474FF4C8708D
:2020E8003C214FF4E1723C23A04701200CF00AFDB87C0138092863D8DFE810F00A0066006B
:20210800AF007301060282029E02BF0253036F04B86A022801F0E681012801F0FA8100287D
:2021280041F006853E7901204FF48051002E18BF042086F00104B862F24822463C7102F0F0
:20214800BFF9DFF8388B012088F802400CF068FC0BF075FB09200CF08DFE4FF47F40002E97
:2021680018BFFF200CF02AFEF0208821322232230BF08CFDDFF8004B4FF4C87014214FF442
:20218800E1721423A0474FF4C87028214FF4E1722823A0474FF4C8703C214FF4E1723C236D
:2021A800A04701200CF0AEFC02F098F9F862387A012841F0388300203872B87401F0B8BC6A
:2021C8000020B862786118E2F87D002841F0B9840120F87501200CF023FC0BF030FB0920C6
:2021E8000CF048FEFF200CF0E9FDF0202421F022EC230BF071FEDFF8880A782150220BF045
:202208001FFDDFF8800A4FF4967164220BF018FDDFF83C0A0CF0E0FD4AF2FF500CF0CEFD11
:2022280002200CF039FE0C200CF02CFE7820DC210CF03CF8DFF8500A0BF050FC4FF4967069
:20224800DC210CF033F8DFF8440A0BF047FC01200CF058FC0020B875CEE1387D032801F2AF
:202268007084DFE810F00400BA0AC40AD50A0120387501200CF0D4FB0BF0E1FA05200CF075
:20228800F9FDFF204FF0FF080CF098FDDFF8E8497820DC2178224FF48873A047F020DC21E1
:2022A800F0224FF48873A0474FF4B470DC214FF4B4724FF48873A047DFF8D409DFF8D45935
:2022C8004121D722A847DFF8D049B9212046D722A847204640F23111D722A847DFF8BC0936
:1822E8004FF4C871BE22A847DFF89099DFF8B04999F816003C213C2261
:20230000DFF8A8690028204608BF3046A84799F81A00C8213C220028204608BF3046A8476F
:2023200099F81E004FF4AA713C22002808BF34462046A847DFF820090CF052FD4AF2FF509E
:202340000CF040FD02200CF0ABFD0C200CF09EFDDFF85C490520FA21A047DFF83409DFF82D
:202360005459A8478720FA21A047DFF84C09A847FF20FA21A047DFF84409A8470F200CF09E
:2023800085FD642028216425A04799F8160020B16843B0FBF8F00BF078FBF02028210BF006
:2023A00089FF99F81A0030B164214843FF21B0FBF1F00BF06AFB4FF4BE7028210BF07AFFBF
:2023C00099F81E0030B164214843FF21B0FBF1F00BF05BFB01200CF099FB0020F875A7F883
:2023E0001500F874787301F0B0BB787D022801F0A380012801F0AE80002841F0A6830120F7
:20240000787501200CF010FB0BF01DFA05200CF035FDFF200CF0D6FCDFF864487820DC213D
:2024200078224FF48873A047F020DC21F0224FF48873A0474FF4B470DC214FF4B4724FF489
:202440008873A047DFF85848DFF8508820464121D722C047DFF84008B921D722C04720464D
:2024600040F23111D722C047DFF838084FF4C871BE22C047DFF8E0070CF0B2FC4AF2FF507B
:202480000CF0A0FC02200CF00BFD0C200CF0FEFCDFF81C480520FA21A047DFF8F407DFF851
:2024A0001468B0478720FA21A047DFF80C08B047FF20FA21A047DFF80408B047DFF8C46721
:2024C000DFF8E447B0793C213C22DFF8E0570028204608BF2846C047B07AC8213C220028A5
:2024E000204608BF2846C047B07B4FF4AA713C22002808BF2C462046C04701200CF006FB67
:202500000020F882A7F8130001F01FBB00080240B87D012800F0D287002840F0DD870120D6
:20252000B87501200CF080FA0BF08DF905200CF0A5FCFF200CF046FCDFF844477820DC2140
:2025400078224FF48873A047F020DC21F0224FF48873A0474FF4B470DC214FF4B4724FF468
:202560008873A047DFF81C07DFF84027817CDFF83807DFF82857002908BF1046C8213C224B
:20258000A847DFF81C4741212046D722A8472046B921D722A847DFF8000740F23111D722EF
:2025A000A847DFF800074FF4C871BE22A847DFF8A8060CF015FC4AF2FF500CF003FC0220C9
:2025C0000CF06EFC0C200CF061FCDFF8E4460520FA21A047DFF8B806DFF8D856A8478720B8
:2025E000FA21A047DFF8D006A847FF20FA21A047DFF8C806A84701200CF088FA0020F8755C
:20260000B882F87401F0A1BAF87C002800F0FA82397FF87E002940F0AB87002800F0A887C0
:2026200001203877DFF89806817A027B914201D20131817206F09AFBFEF786FD00F09EBFC2
:20264000002000240CF0A4FB0BF0FDF8012001250CF09EFB4FF07F400CF0B2FB0BF0F3F842
:202660004FF48030BC623D723221C7E90404DFF8540600684163387925EA0000387101F0F8
:2026800064BADFF83C46386D25780FF091FCA84206D0386D0FF08CFC2070387C01303874E8
:2026A000A57B786D0FF084FCA84206D0786D0FF07FFCA073387C01303874257BB86D10F00E
:2026C000BBF9A84206D0B86D10F0B6F92073387C01303874657BF86D10F0AEF9A84206D0E2
:2026E000F86D10F0A9F96073387C01303874257C386E10F0A1F9A84206D0386E10F09CF993
:202700002074387C01303874657C786E10F094F9A84206D0786E10F08FF96074387C013059
:202720003874A57CB86E10F087F9A84206D0B86E10F082F9A074387C01303874F86E08F0C2
:20274000F1FE002800F0D682387C18B10020387406F00CFB787C60B10020DFF8284578747F
:202760002046302106F0E4FA04F12000502106F0DFFAB7F81F00B96C07220724ADF8140079
:20278000D7F82100CDF81600C1F380408DF81A0005A80A21FEF7C0FFDFF82C052021012263
:2027A000FEF7BAFFFEF706FF29E2DFF81C45786F257810F041F9A84208D0786F10F03CF992
:2027C0002070204620210122FEF7A6FFDFF8B444B86F257810F030F9A8420ED0B86F10F05A
:2027E0002BF92070000605D1DFF8E0040021006810F05DF9787C01307874DFF8D054267904
:20280000686810F019F9B0420CD0686810F014F92071000603D1A868002110F048F9787C5A
:2028200001307874267AE86810F006F9B0420CD0E86810F001F92072000603D12869002156
:2028400010F035F9787C01307874267B686910F0F3F8B0420CD0686910F0EEF820730006BE
:2028600003D1A869002110F022F9787C01307874267CE86910F0E0F8B0420CD0E86910F03C
:20288000DBF82074000603D1286A002110F00FF9787C01307874267D686A10F0CDF8B042FF
:2028A00006D0686A10F0C8F82075787C01307874267EA86A10F0C0F8B04206D0A86A10F0C2
:2028C000BBF82076787C01307874267FE86A10F0B3F8B04206D0E86A10F0AEF82077787CB1
:2028E0000130787494F82060286810F0A5F8B04207D0286810F0A0F884F82000787C0130D0
:20290000787494F82460A86810F096F8B04207D0A86810F091F884F82400787C013078740A
:2029200094F82860286910F087F8B04207D0286910F082F884F82800787C0130787494F85E
:202940002C60A86910F078F8B04207D0A86910F073F884F82C00787C0130787494F8306050
:20296000286A10F069F8B04207D0286A10F064F884F83000787C01307874F86E08F0D2FDC3
:20298000002800F01084387C18B10020387406F0EDF9787C50B1002030217874204606F0B8
:2029A000C7F904F12000502106F0C2F9B7F81F00B96C07220724ADF81400D7F82100CDF86B
:2029C0001600C1F380408DF81A0005A80A21FEF7A3FEBD4820210122FEF79EFEFEF702FE71
:2029E0000DE1BB4CB94D2678286B10F025F8C0B2FEF74DFE86420FD0286B10F01DF8C0B21B
:202A0000FEF745FE2070B3482146012203F04CFFB86C40F40040B8646678686B10F00CF8C2
:202A2000C0B2FEF734FE86420FD0686B10F004F8C0B2FEF72CFE6070A6482146012203F0BB
:202A400033FFB86C40F40040B864A34CA86BA6780FF0F2FFC0B2FEF71AFE86420FD0A86B47
:202A60000FF0EAFFC0B2FEF712FEA07099482146012203F0C5FEB86C40F40040B864667834
:202A8000E86B0FF0D9FFC0B2FEF701FE86420FD0E86B0FF0D1FFC0B2FEF7F9FD60708D48DB
:202AA0002146012203F0ACFEB86C40F40040B864E678286C0FF0C0FF3030C0B2FEF7E7FDE0
:202AC000864210D0286C0FF0B7FF3030C0B2FEF7DEFDE0707F482146012203F091FEB86C1C
:202AE00040F40040B8642678686C09F0EAF90130C0B2FEF7CCFD864210D0686C09F0E1F948
:202B00000130C0B2FEF7C3FD207072482146012203F076FEB86C40F40040B86497F824407B
:202B2000A86C0FF089FFA04212D0A86C0FF084FF87F82400C0B2694951F820000CF042F939
:202B40004FF4AA7033214FF4D7723B230BF08AFAE86C08F05DFEB96C012821F48022604C03
:202B600008BF41F48022286DBA64A04787F82000686DA047F877A86DA04787F82100E86D62
:202B8000A04787F82200286EA04787F82300A86CA04787F82400F86E08F0C4FC002800F0BA
:202BA0008084387C18B10020387406F0DFF8787C58B10020334C78742046302106F0B8F816
:202BC00004F12000502106F0B3F8B7F81F00B96C07220724ADF81400D7F82100CDF8160003
:202BE000C1F380408DF81A0005A80A21FEF794FD354820210122FEF78FFDFEF71BFDBC74C5
:202C000000F0A3BF01200024F87400200CF0C0F800200CF0D7F80AF016FE32480021002227
:202C20000AF0EAFC01200CF0B3F84FF07F400CF0C7F80AF008FEFEF787FAFEF735F87C61BE
:202C4000B86C40F48010B86400F07FBFD80C0120200C0120300701205C3E03084649524DC5
:202C600057415245205550444154452052554E0A0D504C4541534520574149540000000007
:202C8000E1DE0108BC0D01203C000408A00004085C040408FE0304088C00040849DC01084F
:202CA00078000408280004086400040850000408B5E20108E5DA0108DF03040875040408B5
:202CC000A00B0120206F01201D0C0120540D0120000C0120940C0120C00B0120B400040812
:202CE000392A020814720290072802085B2A0208AF2A0208386F08F015FC002800F0258730
:202D0000FEF758FC00204FF0000B0CF041F80AF09AFD012001240CF03BF84FF07F400CF0CB
:202D20004FF80AF090FD01200BF07EFEFE204FF4076102221E23CDE900B2CDE90214049037
:202D40005FF85C400A200A215A224FF00208A0475FF8686002217867B0475FF894005FF825
:202D600070500178786FA847182140F67400CDE900B8CDE9020B04910A2032215A221E2361
:202D80004FF0020AA0470221B867B0475FF80C91B86F99F80010A84740F675005A21CDE941
:202DA00000BACDE9020B18205A2204900A201E234FF00208A0475FF8ECA00221CAF80400E7
:202DC000B04799F80410DAF80400A84740F676008221CDE900B8CDE9020B18205A220490CA
:202DE0000A201E234FF00208A0470221CAF80C00B04799F80810DAF80C00A84740F677002D
:202E0000AA21CDE900B8CDE9020B18205A2204900A201E234FF00208A0470221CAF81400DA
:202E2000B04799F80C10DAF81400A84740F67800D221CDE900B8CDE9020B18205A220490FF
:202E40000A201E23A0470221CAF81C00B04799F81010DAF81C00A84740F6710002214FF091
:202E60002008CDF800B0CDE901104FF4AA7032215A221E23CDE903B8A0470221CAF8240020
:202E8000B04799F81410DAF82400A84740F672000221CDF800B05A22CDE901104FF4AA70C1
:202EA0005A211E23CDE903B8A0470221CAF82800B04799F81810DAF82800A84740F67300AF
:202EC0000221CDF800B05A22CDE901104FF4AA7082211E23CDE903B8A0470221CAF82C006D
:202EE000B04799F81C10DAF82C00A84740F683000221CDF800B04FF01808CDE90110AA20F0
:202F000032215A221E23CDF80CB0CDF81080A0470221CAF80000B04799F82010DAF8000075
:202F2000A84740F684000221CDF800B05A22CDE90110AA205A211E23CDE903B8A04702210C
:202F4000CAF80800B04799F82410DAF80800A84740F685000221CDF800B05A22019182211E
:202F6000CDE9020B18201E230490AA204FF00208A0470221CAF81000B04799F82810DAF800
:202F80001000A84740F68600AA21CDE900B8CDE9020B18205A220490AA201E23A04702211D
:202FA000CAF81800B04799F82C10DAF81800A84740F68700D221CDE900B8CDE9020B182081
:202FC0005A220490AA201E23A0470221CAF82000B04799F83010DAF82000A84740F6050006
:202FE000B421CDE900084FF4AA7082221E2308F03BF9DFF8E01D386708F0ABFA40F6030087
:20300000E621CDE900084FF4AA7082221E2308F02BF9DFF8C41DF86608F09BFA6FF07F40CC
:203020000BF0D0FEDFF8B40D0BF0DAFE0C200BF02DFFDFF8B06D6E200E21B047DFF8300E4C
:20304000DFF8A88DC0476E201A21B047DFF8240EC0476E203621B047DFF81C0EC0476E201B
:203060004221B047DFF8145E2846C0476E205E21B047DFF80C9E4846C0476E206A21B0470E
:203080002846C0476E208621B047DFF8F8AD5046C0476E209221B0472846C0476E20AE216C
:2030A000B047DFF8E4BD5846C0476E20BA21B0472846C0476E20D621B047DFF8D04D204651
:2030C000C0476E20E221B0472846C0474FF487703621B047DFF8A00DC0474FF4877042213C
:2030E000B047DFF8AC5D2846C0474FF487705E21B0474846C0474FF487706A21B047284615
:20310000C0474FF487708621B0475046C0474FF487709221B0472846C0474FF48770AE21D1
:20312000B0475846C0474FF48770BA21B0472846C0474FF48770D621B0472046C0474FF49A
:203140008770E221B0472846C0474FF4DC703621B047DFF8400DC0474FF4DC704221B04718
:20316000DFF8344D2046C0474FF4DC705E21B047DFF8280DC0474FF4DC706A21B0472046FB
:20318000C0474FF4DC708621B047DFF8140DC0474FF4DC709221B0472046C04701200BF03A
:2031A000B5FC092088E1386F08F0BCF9002800F0CC84FEF717FA002000240BF0E9FD0AF0EB
:2031C00042FB01204FF001090BF0E2FD4FF07F400BF0F6FD0AF037FB01200BF025FCDFF842
:2031E000AC6BDFF8A01B3046012203F087FADFF8A01B3046012203F055FA40F63301022020
:203200004FF05A08DFF8946BCDE90040CDE902190A2014215A221E23CDF81080B047DFF831
:20322000809B02212865C84797F82010286DDFF874ABD04740F634004FF0020B00943C21AC
:20324000CDE901B001205A22CDE903080A201E23B04702216865C847F97F686DD04740F6AE
:203260003501F020CDE9004B02910121CDE903100A2082215A221E234FF0020BB047022199
:20328000A865C84797F82110A86DD04740F6360002A94FF017085A22CDE9004B81E81101B9
:2032A0000A20AA211E234FF0020BB0470221E865C84797F82210E86DD04740F6370002A9D1
:2032C000CDE9004B81E811010A20D2215A221E234FF0020BB04702212866C84797F82310D3
:2032E000286ED04740F63A0002A9CDE9004B81E81101BE2014215A221E234FF0020BB04777
:203300000221B2462863C847DFF8780ADFF8988A00782E6BC04701463046DFF8889AC847C9
:203320003B2040F63B01CDE9004BCDE902140490BE203C215A221E23D0470221DFF860BA3C
:203340006863D847DFF83C0A6E6B4078C04701463046C84740F63C0102221F200094CDE9E2
:20336000012101215A22CDE90310BE2082211E23D0470221A863D847DFF8149AAE6B99F86F
:203380000200C346C04701463046DFF8188AC04740F63D0102220C200094CDE9012101218C
:2033A0005A22CDE90310BE20AA211E23D0470221DFF8EC29E863904799F80100EE6BD8478C
:2033C00001463046C0474FF4FA6040F63E0102220094CDE90121039040F633000490BE2019
:2033E000D2215A221E23D0470221DFF8B4292864904799F803002E6CD84700F5FA613046B9
:20340000C0471C2040F6380102264FF0010900945A22CDE90161CDE903904FF4AA70142186
:203420001E23D0470221DFF87829A864904797F82410A86CC04740F651004621CDE90040F4
:203440004FF4AA706E2214230296022608F000F94FF47F41E86408F029FAE86C0FF64C1177
:2034600008F000FAB96CE86CC1F3804108F0DEF940F63F0064218DE8500203904FF4AA70EC
:203480008222642308F05EFB0FF62C166864072C00F0C68056F8241008F067FA0134686C50
:2034A000F5E7386F08F03EF8002800F04E83FEF7C1F8FDF7C3FE0820B87446E3787E012873
:2034C00040F04383DFF8D018887C002800F0A082002088740221A1E2022840F03683787E2E
:2034E000002840F032830020B8752EE300F0FAFF796B401A0F28C0F01F8300F0F3FF7863F4
:20350000DFF894083A78817D002A00F08A82002900F0E38201398175E0E200F0E3FFF96ABD
:20352000401AB0F5FA7FC0F00783B86A0130B86200F0D8FF7863FFE2387E002840F0058353
:20354000787E002840F00183B87E002840F0FD8200209FE1DFF84008397E827981F00103A6
:20356000002A00F06B81002B40F0688100226BE181F00101084301D100203877B97F787F05
:2035800079B970B10120B877DFF8E008817A427B914201D90139817205F0E8FBFDF7D4FD9A
:2035A00005E081F00101084301D10020B877B86CC10240F1D08120F48010B86401200BF002
:2035C00033FA4FF4CD70B9214FF4F072EB230AF049F94FF49B70E6214FF4F072FF23FF2436
:2035E0000AF040F94FF49B70F2210AF063FEDFF8B8080BF0F5FB0C200BF048FCDFF86C9814
:2036000099F80000022800F07C81012840F08C814AF2FF58C526DFF898584FF47F0475E13B
:20362000DFF86C170978013908F063FC022440F60500CDE900044FF4AA70B42182221E23EC
:2036400007F012FEDFF88C17386707F082FF40F60300E621CDE900044FF4AA7082221E2396
:2036600007F002FEDFF87017F86607F072FF97F82400DFF8201751F820000BF0A3FB4FF429
:20368000AA7033214FF4D7723B230AF0EBFC6FF07F400BF097FBDFF844070BF0A1FB0C2061
:2036A0000BF0F4FBDFF838970F200521A022C847DFF830670A2005214FF00A08B047DFF877
:2036C0002807DFF82857A8476E202321B047DFF82007A8476E204B21B0470FF21870A84757
:2036E0000F20B9214FF4A072C847BE200521B047DFF80407A8474FF491702321B047DFF83B
:20370000FC462046A8474FF491704B21B047DFF8F006A8470F2040F24F1140F2DB12C847C0
:203720004FF4AA700521B0470FF2D860A8474FF4DC701A21B0470FF2D860A8474FF4DC706F
:203740002621B0470FF2D060A8477D200521A022C8470A207321B0470FF2C460A8476E2020
:203760009121B0470FF2CC60A8476E20B021B0470FF2C860A8476E20BC21B0472046A8475F
:203780006E20D821B0470FF2BC60A8476E20E421B0472046A8477D20B9214FF4A072C847E5
:2037A000BE207321B0470FF2A460A8474FF491709121B0470FF2A060A8474FF49170B921B1
:2037C000B0470FF29860A8474FF49170E121B0470FF29060A84701200BF098F987F812802F
:2037E000B3E1387E797E012800F03D81002900F03681012137E100F075FE396B401AB0F5A1
:203800007A7F49D300F06EFE78630020F873A7F80D00387D01305EE1387E002854D1787E07
:20382000002851D1B87E00284ED1002053E13879002800F0FB805521FF20FFE0002A18BFB4
:2038400001221A4301D101228271837A7A7E82F0010413B10CB9002305E0002B18BF0123DD
:20386000234301D101238372847BBB7E83F0010514B10DB9002405E0002C18BF01242C431B
:2038800001D10124847341EA02001843012840F05C810220787558E1387E002840F0558150
:2038A000787E002840F05181B87E002840F04D81DFF8E4047A7B817D002A00F0DE80002939
:2038C00000F0DB800021DBE000F00CFE796B401A0F28C0F03A8100F005FE7863387E01283A
:2038E00040F0D58001200BF09FF8DFF8AC44397BA07D002900F0A181002800F0C581013826
:20390000A5E16FF07F48DC26DFF8A05520460BF059FA28460AF0E6F840F29F1031460AF0E1
:20392000C9FC40460BF04EFADFF888050BF058FA0C200BF0ABFAB9F902000A2190FBF1F031
:20394000032100B20AF0B5F80FF26C500AF0CAF801200BF0DBF800F0C5FDF96C401AB0F56C
:203960007A7FC0F0F28000F0BDFDF864F86B01300A28F86308D90020F863B86C810304D429
:2039800040F48010B86400E0B86C000440F1DD80DFF8F843DFF8EC5320462946012202F09F
:2039A000ADFEDFF8EC132046012202F07BFE05AC29462046022203F0AFFA3A20691C8DF8E8
:2039C0001600E01C022203F0A7FA00208DF81900DFF8E8040BF004FA6FF07F400BF0F2F99F
:2039E00002200BF05DFA0C200BF050FA0520F5210AF060FC01200BF017F80020DC21642283
:203A00004FF4877309F02EFF20460AF06BF8B5E10120887400F066FDB97D0131B975B863C9
:203A200093E0FF295FD0013181755DE00020002188F80E0088F80A0088F80600BA6C88F8D2
:203A40001E1088F81A0022F4003288F81600DFF8540400684FF44871BA6441636CE0B97EE8
:203A6000012972D10021B973787302203875B87EF87300F037FD386367E012B109B9FF2186
:203A80008175BA7B817EA2B199B1002114E0787E012840F0DE8001200AF0C6FFBE4C397BFF
:203AA000A07E002900F0E480002800F01E810138E8E012B109B9FF218176FA7B817F12B1DF
:203AC00009B1002102E012B109B9FF2181770020F873A7F80D00387537E00021827E4AB175
:203AE000013A827607E0FF21827EFF2A08D00132827606E00022837FB3B1013B837714E0C8
:203B0000FF22837FFF2B01D1012006E05C1C8477A3F1FE00B0FA80F040091140C9B2FF2923
:203B20000AD148B1012006E0002342EA01001843000601D10020387000F0D4FC78640020A3
:203B40003C217861F8742970F86497F84A00800724D400F0C7FC97F821104FF47A72514340
:203B60007A6C801A884219D3B87C0A2806D0092807D0082807D1FDF71DFD04E0FDF75AFD86
:203B800001E0FDF72FFDF87FFDF7CEFA0720B874B86C20F4840000F50030B864B86B50B17D
:203BA00000F0A0FCB96B401AC749884203D300207949B863887497F82500B8B1012824D117
:203BC00097F82700D0B100F08DFC6F49496E401AC0091A2819D9002087F82700B87C072846
:203BE00013D8FDF72BFB0820B8740EE097F8270001280AD1002087F8270006E0012087F878
:203C0000270000F06FFC6049486600F06BFCF96C401AB0F57A7F0DD300F064FCF864B87C57
:203C2000012801D8FDF740F8B86C810302D440F48010B86407B0BDE8F08F28B9A1483C21F6
:203C40003C220AF001F8A07DFF282BD00130A0752AE0B87E01287FF478AF01200AF0E4FE8E
:203C60004D4C397BA07F81B300285CD0013837E028B99448C8213C2209F0E6FFA07EFF28D9
:203C800030D00130A0763EE000203C2138733C20A022A02309F0E6FD89483C213C2209F055
:203CA000D3FF01E00120387364201E21C8223223642509F0D7FD642028210AF0FBFA0F2042
:203CC0000BF0E4F8A07D684353E030B97D484FF4AA713C2209F0B8FFA07FFF2834D001307D
:203CE000A07733E0012038730DE000203C213873C8204FF49672A02309F0B4FD7048C82178
:203D00003C2209F0A1FFDC201E214FF4A072322309F0A8FDF02028210AF0CCFA0F200BF0E6
:203D2000B5F8A07E23E000203C2138734FF4AA704FF4DC72A02309F095FD61484FF4AA714A
:203D40003C2209F081FF01E0012038734FF4AA701E214FF4DC72322309F084FD4FF4BE7072
:203D600028210AF0A7FA0F200BF090F8A07F64214843FF21B0FBF1F009F087FE01200AF039
:203D8000C5FEE2E6000C0120540D0120940C0120C00B0120B4000408BC0D01200728020859
:203DA0005B2A0208AF2A0208910C010853435245454E53415645520034040408380404081E
:203DC00030040408480404084C040408BC030408E3030408790404080D040408C0FB0208C7
:203DE00095DE0108B5E2010850040408E5DA01082B0404084C4F5700F503040843040408FB
:203E00000604040853455420434F4C4F5200000046554C4C00000000434C4F434B00000062
:203E200053435245454E5341564552204F5054494F4E000054494D454F555400454E41420B
:203E40004C45000044495341424C4500534554204441544500000000444159004D4F4E5497
:203E6000480000005945415200000000A00B0120EE030408E703040890030408A0030408BC
:203E80006C0304087E0304088703040875030408AE030408990304083C040408A703040899
:203EA000B5030408206F01202C170308230404081B040408C42A0308C2B063008C5C030821
:203EC000500004086400040800BADB0010B588B10446407F20B9002020772046FEF751F846
:203EE00002206077207938B1D4E902122046FEF707F840B1012010BD20680F4941618168D2
:203F000021F018018160607908B1206901E04FF0FF302168D4E905230861886820F06000F5
:203F200010438860886820F080001843886001206077002010BD00BFB71DC10470B50446D7
:203F4000006846680568F10718BF15F480717DD1B0061AD515F4005017D020686169026826
:203F600022F4005202604FF020028260E06B40F00200E0634FF0000084F838004FF004003E
:203F800084F8390009B12046884730071AD515F4006017D020686169026822F40062026071
:203FA0004FF008028260E06B40F00400E0634FF0000084F838004FF0040084F8390009B16F
:203FC0002046884770070CD515F4806009D02068016821F480610160042181602046FDF7EA
:203FE000D2FFB00718D515F4007015D020682169026822F4007202604FF002028260E06B18
:20400000E0634FF0000084F838004FF0010084F8390009B120468847F00616D515F48050CC
:2040200013D02068016821F48051016010218160E06BE063002084F83800012084F839001B
:204040002046BDE87040FDF79DBF70BD016821F480710160E16B41F00101E1630121816092
:20406000002084F83800042084F83900616900293FF46EAF204688476AE770B50446866D68
:2040800000F030FA054694F8350002281ED12068216C026822F016020260426922F0800297
:2040A000426109B9A16C19B1016821F008010160016821F0010101600068C0070DD000F007
:2040C00011FA401B052814D82068F5E7002084F8340080206065012070BDE06D3F2101FAD2
:2040E00000F00121B060002084F8340084F8351070BD20206065002084F83400032084F86C
:20410000350070BDB0B530B1054690F83500022803D102241BE0012419E028680024016895
:2041200021F0010101602121046044608460C460046141612846FDF767F8E96D3F2202FA3E
:2041400001F181606C6585F8344085F835402046B0BD00002DE9F041044600F0C3F9ACB16B
:204160000546022084F83500002084F834002168086820F0010008600868C00709D000F0DF
:20418000B1F9401B052839D82168F5E70120BDE8F081271D0868354AE8CF00EA020E43EA2F
:2041A0000E032B43D4E9050C33433B43D4E907281843636A40EA0C00042B40EA020040EAEF
:2041C00008021FD1D4E90A53206B1A4340EA0200086051F8140F20F0030040EA050040F071
:2041E0000402B3B1BCF5005F24D0BCF1000F31D1022D32D0012D27D07DB30AE003262027B3
:20420000032012E00A6051F8140F20F0070040EA030220460A60FCF7F7FFE16D3F2202FA09
:2042200001F10027816001260020676584F83560BDE8F081032DECD8012640270120DFE8E0
:2042400005F0020C0203F0E7A3F1C070B0FA80F0400904E0032D04D3DBD1C3F30060002883
:20426000D7D0012640270120DFE700BF3F8010F02DE9F04F8E4A4FF00A0A90428D4A024435
:2042800008BF4FF0090A4FEAB2234FF0000E092B38BF4FEAB22A884A01264FF00F09A2F583
:2042A0007E7B4FF000080025102D49D006FA05F20A423FD00323076803FA0EF46FF00303F8
:2042C000A74303EA550C076008F01C0700EB0C0309FA07F71E6ABE431E628368A34383606C
:2042E000436893434360C368A343AC08C36008F00C0309FA03F75BF824603E400AFA03F35F
:204300009E424FF0010615D15BF82430D243BB434BF82430684B1C461B6813402360636807
:2043200013406360A3681340A360644B1C461B681A4022600EF1020E08F104080135B3E7B2
:20434000BDE8F08F2DE9F84F594A4FF00A099042584A024408BF4FF009094FEAB2234FF0C8
:20436000000E092B38BF4FEAB2294FF0010A4FF00F084FF0000B0022102A00F096800AFAA0
:2043800002F60C68344200F08A804F6847F01004122C11D16FF003030BF01C0403EA52055B
:2043A00008FA04F70544D5F820C00B692CEA0707A3403B432B624F68032407F0030304FAAB
:2043C0000EF4056803FA0EF3A5432B43E443122F036012D80AFA07F313F0061F0DD0836877
:2043E000CD68234005FA0EF52B438360C7F3001345689340B5432B434360C36823408C68FA
:2044000004FA0EF42343C360FB0048D52C4B22F003051C461B6843F48043274F2360BC4690
:2044200023683D4403F4804300930BF00C03009F08FA03F4234F09FA03F3B846EF5927EABF
:204440000404234345F808304FF00F08DCF800304D6843EA0604EF0358BF23EA0604CCF84F
:204460000040DCF80430AF0343EA060458BF23EA0604CCF80440DCF80830EF0243EA0604A1
:2044800058BF23EA0604CCF808400C4BAD021F461B6843EA060458BF23EA06043C600EF1F4
:2044A000020E0BF1040B013266E7BDE8F88F00BF002402400000FEBF003C01400C3C01404D
:2044C0004438024008FCFFFF002A08BF0904816170470000024800686FF31F30704700BFAC
:2044E000002004E001480068704700BF4077012001480068704700BF20F4F01F01480068BE
:20450000704700BF24F4F01F01480068704700BF28F4F01FB0B110B50446242084F841003B
:204520002068016821F0010101602046FDF74DFD0020606484F84100206384F8400084F816
:20454000420010BD0120704710B3B0B5044690F8410028B9002084F840002046FDF74CFDD9
:20456000242084F84100D4E90003D4E90212056823F0706325F00105012A0560036183685C
:2045800023F40043836005D141F40041816009E00120704741F40441022A816002D14FF453
:2045A0000061416041680F4A114304F110054160C16821F40041C1602ECD114341EA0321BA
:2045C000C160216A29430160016841F00101016000202021606484F84110206384F8420032
:2045E000B0BD00BF008000022DE9FE4F04460020029094F84100202808D12068894681697F
:20460000090403D494F84010012902D10220BDE8FE8F24211D4684F841100121904684F8A0
:20462000401000216FF39F295F1C4FF0200A6164E16801294FF4205104BF42F20001C0F265
:20464000002149444160FFF74DFF06462068816989065CBF81695FEAC1610CD494F841104F
:20466000A02908D0002FF1D075B3FFF73BFF801BA842EBD928E0D0F818B0204620210022A7
:204680002B46009602F034FD5FEACB6123D518BB20681021C161C0F81CA002994A1C4145DA
:2046A00002920ED14168002241F480412B46416020462021009602F01BFD68B92068C0F80C
:2046C0001CA002994145B3D3002084F84000202084F8410000E010B10320BDE8FE8F206820
:2046E0002021C161002084F8400084F84110BDE8FE8F00002DE9FE4F044690F841002028BE
:204700000ED10C9D0120002D00F0B580DDF834B0BBF1000F00F0AF8094F84000012802D143
:204720000220BDE8FE8F01201F4616468A4684F84000FFF7D7FE8146009020464FF40041AB
:204740000122192302F0D4FC10B10320BDE8FE8F22200E9984F8410040204FF0000884F859
:204760004200C4F84480204665620D46C4F834803246A4F82AB03B46CDE90019514602F0C0
:2047800035FC40B184F84080616C0320042908BF0120BDE8FE8F608DB0F5807F0AD3FF20F7
:2047A000514620854FF4105000902046FF224FF0807309E0608D4FF410514FF00073208500
:2047C000C2B200912046514602F080FC0026FF272046042100222B46CDF8009002F088FC34
:2047E0000028B2D1616A20684A1C6262406A0870208D013820850004618DA1F10101618578
:2048000021D1608DF8B12046802100222B46CDF8009002F06DFC002897D1608DB0F5807FA5
:2048200007D32785204600965146FF224FF0807307E0608D51464FF000732085C2B2204670
:20484000009602F043FC608D0028C1D1204629464A4602F076FC002896D120682021C161A7
:20486000654B42681A404260002084F8411084F8400084F84200BDE8FE8F00BF2DE9FE4F27
:20488000044690F8410020280ED10C9D0120002D00F0AF80DDF834B0BBF1000F00F0A9803B
:2048A00094F84000012802D10220BDE8FE8F01201F4616468A4684F84000FFF713FE8146A0
:2048C000009020464FF400410122192302F010FC10B10320BDE8FE8F21200E9984F8410046
:2048E00040204FF0000884F84200C4F84480204665620D46C4F834803246A4F82AB03B4674
:20490000CDE90019514602F0A8FB10B184F840805AE0608DB0F5807F09D3FF20514620859D
:20492000002000902046FF224FF0807308E0608D00214FF000732085C2B2009120465146BF
:2049400002F0C4FB0026FF27204629464A4602F01EFCC8BB616A20684A1C62620978816285
:20496000208D013820850004618DA1F10101618521D1608DF8B12046802100222B46CDF859
:20498000009002F0B5FB0028A3D1608DB0F5807F07D32785204600965146FF224FF080734C
:2049A00007E0608D51464FF000732085C2B22046009602F08BFB608D0028C5D120462946CD
:2049C0004A4602F0BEFB30B1616C0320042908BF0120BDE8FE8F20682021C161064B42689E
:2049E0001A404260002084F8411084F8400084F84200BDE8FE8F00BF00E800FEB0B5C0B1A7
:204A000004460068D4E901124CF6CC43036045F25553036041608260FFF764FD0546206871
:204A2000C16841B1FFF75EFD401B3028F7D90320B0BD0120B0BDE16802698A4203D14AF6D5
:204A4000AA21016000E001610020B0BD00684AF6AA2101600020704702480168013101606A
:204A6000704700BF4077012080B50748016841F400710160032000F001FC0F2000F006F8C7
:204A800000F0BFFB002080BD003C024010B50446074800684FF47A71B0FBF1F001F0DEFF43
:204AA0004FF0FF302146002200F0CCFB002010BD3C070120F0B590F8A0500224012D2DD089
:204AC00080F8A140012480F8A040342403FB0404842505EBC31E002604F1480C0025BAB129
:204AE000DCF80070013A062F06F1807708BF2E4610C9E3B205F18855334304F47F463343EF
:204B000004F47F042343046874443E462364E6E70024012180F8A04080F8A1102046F0BDDE
:204B200010B590F8A0400223012C13D080F8A130036803EBC212D2F8904004F07F44C2F892
:204B40009040C2F8901001215962002380F8A03080F8A110184610BDF8B50E4690F8A01056
:204B600004460220012919D084F8A100342002FB00401546012731463830342284F8A070C4
:204B8000FBF73EFB204631462A4602F03FFE20684762002084F8A00084F8A170F8BD10B5FA
:204BA0000446FDF72BFA0020C4F8A40084F8A00084F8A100002010BD90F8A0300222012B44
:204BC00011D080F8A120026802EBC111D1F8843023F00203C1F8843001215162002280F821
:204BE000A02080F8A1101046704790F8A0300222012B11D080F8A120026802EBC111D1F80B
:204C0000843043F01003C1F8843001215162002280F8A02080F8A1101046704790F8A03070
:204C20000222012B11D080F8A120026802EBC111D1F8843043F00203C1F8843001215162EA
:204C4000002280F8A02080F8A11010467047000090F8A0200221012A0CD080F8A1100649DA
:204C60000A6842F480320A600021012280F8A01080F8A120084670471868014010B50446F6
:204C80000068816B490744BF816B5FEA417126D4816B890744BF816B5FEA817135D4816BF1
:204CA000C9071CBF816B5FEAC17145D1816B090744BF816B5FEA017100D410BD416B21F0C8
:204CC000080141630821C163002084F8A000012084F8A1002046BDE81040FDF790B9416B1C
:204CE00021F0040141630421C163D4F8A40040F00100C4F8A400002084F8A000204684F892
:204D0000A110FDF77AF92068C2E7416B21F0020141630221C163D4F8A40040F00200C4F841
:204D2000A400002084F8A000042084F8A1002046FDF763F92068B2E7416B21F00101416318
:204D40000121C163002084F8A000204684F8A11000F070F82068A9E7002867D0B0B50446C0
:204D600090F8A10028B9002084F8A000204600F09FF8022084F8A10094E80F0011438569F4
:204D8000194325F07045856122691143826911438161274982680A408260D4E9052343EA6F
:204DA000024283681A438260C2680A40C260C268D4E9073545EA03431A43C26002690A4023
:204DC00002610269D4E9093545EA03431A4302614269114041614169D4E90B2343EA024231
:204DE00011434161C16A01F07F41C16294F8362094F83510120442EA012194F83420114472
:204E0000C26A1143C162416B41F004014163416B41F002014163816941F0010181610020C6
:204E20000121C4F8A40084F8A110B0BD0120704700F800F02DE9F04780461A4800F1080622
:204E40006FF00107184CDFF864904FF0FF3A1FB3206800281AD456F8081CB2684843316824
:204E6000BD1C4843D9F8001000FB021140462A4600F002F9D8F80000416A41F001014162AD
:204E80002846216809F02CFEC4F800A0043609F1040904340137DAE740460021BDE8F047A7
:204EA00000F0D2B8740B012040070120640304082DE9F04F85B062484FF00E0A41690325A0
:204EC00041F080610027416102244169E94601F08061DFF85C8B00910099016841F400019F
:204EE0000160016801F4000100910099016841F001010160016801F00101009100990168DC
:204F000041F002010160016801F0020100910099016841F004010160016801F00401009185
:204F20000099016841F008010160016801F0080100910099016841F010010160016801F0E1
:204F4000100100910099016841F020010160016801F0200100910099016841F04001016019
:204F6000384900688B4600F0400000900098CDF810A04FF48060039502970194009001F53B
:204F8000A0504946C047C1204946CDE9035ACDE9014700900BF50060C04778204946CDE936
:204FA000035ACDE9014700905846C04709200BF58066049030464946CDE90275CDE9005482
:204FC000C0474FF470604946CDE9035ACDE9014700903046C0474FF40C600BF5C056CDE98F
:204FE000035ACDE90147009030464946C04708204946CDE9035ACDE9014700900BF54060C2
:20500000C04709204946CDE903504FF4A050CDE9014700903046C0470BF580550421284622
:2050200000220424FFF750FA01204946CDE90277CDE900402846C04705B0BDE8F08F00BF04
:20504000303802400000024090F8A0300222012B0ED080F8A1200268536B43F00103536390
:20506000044A11600022012180F8A02080F8A1101046704740680140B0B590F8A0300446CF
:205080000220012B14D084F8A100342002FB0040012584F8A050C16500F13801204602F0F6
:2050A000B5FB20684562002084F8A00084F8A150B0BDB0B590F8A03004460220012B14D0C2
:2050C00084F8A100342002FB0040012584F8A050C16400F13801204602F098FB2068456227
:2050E000002084F8A00084F8A150B0BDF8B590F8A05004460220012D1CD084F8A10034207E
:2051000003FB0045012684F8A06045F8381FD5E90A070844B918C5E90102E960204629465A
:205120001A4602F073FB20684662002084F8A00084F8A160F8BDF8B5044690F8A0000225CB
:2051400001281AD0342084F8A15003FB00460127002584F8A07046F8385F2046C6E90A1258
:20516000C6E90115F26031461A4602F04FFB2068476284F8A05084F8A1702846F8BD0000B8
:205180000278437810490B60D2B143684B60037B42EA0372C37A42EA0362837A42EAC34222
:2051A000437B42EA8342837B42EA4342C37B42EA0342437A007A42EA032242EA400001E00D
:2051C000002048608860704798ED00E0BFF35F8F0A48016821F48031016000210167704741
:2051E00040F0010005490867086840F480300860BFF34F8FBFF36F8F704700BF24ED00E05E
:205200007047704700280CD400F01F01012202FA01F14009034A42F82010BFF34F8FBFF3B5
:205220006F8F704780E100E0002808D400F01F01012202FA01F14009014A42F8201070479E
:2052400000E100E0B0B5134B4FF0FF351B68C3F30223DC1E83F0070338BF0024042B28BF51
:20526000042305FA03F3994305FA04F3A1409A431143BDE8B04005F09BB800BF05494FF6FF
:20528000FF030A681A4060F30A22034810430860704700BF0CED00E00000FA0505F09AF8E6
:2052A000BCB518481B4D016841F080510160006800F0805001900198286840F4803028609B
:2052C000FFF710F904466868C00306D4FFF70AF9001BB0F57A7FF6D90FE0286840F40030B4
:2052E0002860FFF7FFF804466868800307D4FFF7F9F8001BB0F57A7FF6D90320BCBD002096
:20530000BCBD00BF403802400248016841F4807101607047007000407CB50446FFF7E2F8AF
:20532000054694F8410080074FF000002BD584F840002068016849070BD5016821F0040133
:205340000160E06BFEF799FE18B1606C40F0040060642068A16C02682B4642F002020226BA
:205360000260204600910221012203F021F950B92068A16CC66020460091202100222B46F2
:2053800003F016F900B17CBD012084F8410000207CBD704780B590F84110890721D500217E
:2053A00080F84010082180F8411001680A6822F4F8120A600A6852070AD40220C86008686B
:2053C00040F400300860086840F00200086008E0C06BD94A02650A6822F004020A60FCF773
:2053E000D3FD002080BD00BF2DE9FC411D46174688460446FFF776F8064694F840000128F1
:2054000002D10220BDE8FC81012084F8400094F84100012832D1002020216064422084F89C
:205420004100204600223346009503F0C1F830BB97E80E10206881624262C362C8F828C085
:205440003969026822F4400211434FF0006241F4800101602046414602F02EFF2046082141
:205460000122334600950825012703F0A1F830B92068C560002084F8417000E00220002114
:2054800084F84010BDE8FC817047F8B515460F460446FFF727F8064694F84000012801D198
:2054A0000220F8BD012084F84000022094F84110012921D1002100226164202184F8410017
:2054C00020463346009503F073F8A8B920463946002202F0F1FE786A20B1012084F8410020
:2054E000002009E0204602210122334600950225012703F05DF818B1002184F84010F8BDE7
:205500002068C56084F84170EAE710B50446006828B194F84010012903D1022010BD0120A6
:2055200010BD012184F84010016821F00101016000F0A6F90020606484F8410084F84000E7
:2055400010BD70477047000010B5016804468A680868530718D510F4802315D094F8410096
:20556000122838D108468268520763D5E26A002A5CD0606A421C6262007881F820002068F8
:20558000E26A013AE262EEE7930739D510F4003336D00220C860086820F4E020086094F8C4
:2055A000410012284BD10868400709D5086820F004000860E06B0068016821F00101016043
:2055C0002046FFF7E7FE012084F841002046BDE8104000F0EFBA94F8410022282AD1084658
:2055E0008268520726D5A26B02B391F82000226B531C236310702068A26B013AA263EFE755
:20560000130725D510F4002322D00820C8600868400206D5086820F410200860012084F8C7
:2056200041002046BDE8104000F065BA016821F4802101602046BDE81040FFF783BF94F820
:205640004100222815D1086840072ED4084650E0D30718BF10F4803317D1D2063ED510F463
:2056600080103BD01020C8602046BDE8104000F043BA94F84100022822D1012084F8410027
:205680002046BDE81040FFF7FFBE0120C8600A6822F470220A60626C42F0020262640A68F3
:2056A000520738D484F8410013E0086820F004000860E06B0068016821F0010101601FE05A
:2056C00094F84100082809D1012084F84100606C60B32046BDE81040FFF733BF10BD91F89D
:2056E0002000226B531C236310702068A26B013AA263806810F4F85F1CBFA06B0028EED1A3
:205700002046FFF747FE012084F841002046BDE8104000F0EFB9E06B074A02650A6822F090
:2057200004020A60BDE81040FCF72EBC2046BDE81040FFF72EBE00BF138401082DE9FC4138
:205740000446FEF7CFFE3CB1054694F84000012805D10220BDE8FC810120BDE8FC81012092
:2057600084F8400094F8410008B1A06C08E0002084F84000204600F0BDF841F28830A0641D
:205780002168A2686FF0FF034FF0000803EB02220B6823F4F8531A432B460A6020210090DE
:2057A0002046002202F004FF08BBD4E90012D4E903350F68104E3E40334343EA0262E3693F
:2057C0001A43236A1A430D4B0A604A681A4063691A43A36942EA05421A434A600A6842F061
:2057E00001020A600121C4F8448084F8411084F84080BDE8FC8100BF2FFFFF00FEF8E0FFAE
:205800007CB516460D460446FEF76CFE034694F84000012801D102207CBD012084F84000B7
:2058200094F84100012826D1002020216064822084F841000022A06C0090204602F0B8FE2B
:20584000D0B9206871680268082922F0080242EA0102026007D1316801631021C160016886
:2058600041F480110160204629464FF0406202F023FD002000E00220002184F840107CBDF1
:2058800070B54620FFF7BEFC5C20FFF7BBFC154815490160FEF736FC644C144EA4F58055E1
:2058A00040212846B04728460421B04720464FF48071B04720464FF40071B04720468021EF
:2058C000B04720464021B0470948016841F002010160016821F002010160016A21F0020167
:2058E000016270BD5C0E0120B864024071420108183802402DE9F04786B04B484FF00A0979
:2059000081684A4C41F00201A4F58056816001AD81684FF0400801F00201454F01910199B2
:2059200050F8181C41F0020140F8181C50F8181C21F0020140F8181C016841F00201016051
:20594000016801F0020101910199016841F002010160016801F0020101910199016841F09D
:2059600020010160016801F0200101910199016841F020010160016801F02001019101993B
:20598000016841F020010160016801F0200101910199016841F0200101602946006800F061
:2059A000200001900198CDF814900320049001200390022002903046CDF80480B8474FF018
:2059C000090A0020CDF814A029460390042001903046B8474FF48070CDF81490019020465C
:2059E0002946B8474FF40070CDF81490019020462946B8478020CDF814A001902046294639
:205A0000B84720462946CDF814A0CDF80480B8475C200F210022FFF715FC5C20FFF704FCAA
:205A200006B0BDE8F08700BF3038024000140240454301082DE9FC41154688460446FEF789
:205A400051FD27680646B86994F84010012902D10220BDE8FC81012184F8401094F8411014
:205A6000012929D10021B8F1000F616426D02221012284F8411039690131A163396901318F
:205A80006163796962F39B617961C4F83080B861A06BC8B12046062101223346009502F07C
:205AA00087FDF8B997F82000216B4A1C22630870A06B0138A063EBE7022016E0606C40F0E6
:205AC00008006064012010E020460221012233460095022502F06CFD20B92068C5602046C1
:205AE000FFF71AFC012184F84110002184F84010BDE8FC817047704770472DE9FC411546C9
:205B000088460446FEF7EEFC0646276894F84000012802D10220BDE8FC81012084F84000CA
:205B200094F84100012827D10020B8F1000F606424D0122084F8410038690130E062386943
:205B40000130A062C4F82480786920F040607861E06AC8B12046042101223346009502F0D7
:205B600027FDF8B9606A411C6162007887F82000E06A0138E062EBE7022016E0606C40F0A4
:205B800008006064012010E020460221012233460095022502F00CFD20B92068C560204660
:205BA000FFF7BAFB012184F84110002184F84010BDE8FC81704700002DE9FC47D0F800A0C4
:205BC00004465FEACA70B24E02D14FF000090BE0B06820F40000B060606BB1680143B0FAE4
:205BE00080F04FEA5019B1605FEA0A3002D44FF0000811E0E06BD6F88C1021F44011B0F531
:205C0000801F41EA0001B0FA80F04FEA5018C6F88C1008BF4FF001095FEACA2011D5206CEF
:205C2000D6F88C1021F44001002841EA0001C6F88C1008BF4FF00108B0F5800F08BF4FF0AD
:205C400001095FEA8A60574653D5306C914F40F080503064306C00F080500190019838680C
:205C600040F480703860FEF73DFC05463868C00505D4FEF737FC401B6428F7D9F7E1306F5B
:205C800010F4407022D0216B01F4407188421DD0306F316F41F4803120F440703167316F54
:205CA00021F4803131673067306FC0070ED0FEF719FC054641F28837306F800706D4FEF76F
:205CC00011FC411B0320B942F6D9D1E12768206BB268714922F4F81200F440730140B3F51E
:205CE000407F08BF0A43B2606FF31F30316F08433067F8060BD5D6F88C0020F08070C6F896
:205D00008C00A06BD6F88C100843C6F88C00780407D5606ED6F8901021F440310843C6F8CA
:205D20009000380407D5A06ED6F8901021F440210843C6F89000F80307D5E06ED6F890109D
:205D400021F440110843C6F89000B80307D5206FD6F8901021F440010843C6F89000780643
:205D600007D5606CD6F8901021F003010843C6F89000380607D5A06CD6F8901021F00C01AD
:205D80000843C6F89000F80507D5E06CD6F8901021F030010843C6F89000B80507D5206DD6
:205DA000D6F8901021F0C0010843C6F89000780507D5606DD6F8901021F440710843C6F8A7
:205DC0009000380507D5A06DD6F8901021F440610843C6F89000F80407D5E06DD6F89010BD
:205DE00021F440510843C6F89000B80407D5206ED6F8901021F440410843C6F89000780227
:205E000007D5A06FD6F8901021F080610843C6F89000B8020DD5E06FD6F8901021F00061D3
:205E2000B0F1006F41EA0001C6F8901008BF4FF00108780307D5606FD6F8901021F0407163
:205E40000843C6F890000AF08070390208D5D4F88010D6F8902022F080521143C6F8901037
:205E600030B9B9F1000F03D1B7F1007F40F08280306820F080603060FEF734FB0546306834
:205E800000010BD5FEF72EFB401B6428F7D9EEE00038024000700040FFFCFF0F2068C107FB
:205EA00012D0616B81B9D6F88410D6F8842001F4403102F070621144D4E9012341EA821108
:205EC00041EA0371C6F88410010303D5E16BB1F5801F05D0C1021DD5216CB1F5800F19D12E
:205EE000D6F88410D6F8842001F4403102F0E04211446268E36841EA821141EA0361656ACE
:205F0000C6F88410691ED6F88C2022F01F021143C6F88C10C10110D5D6F88410D6F88420D2
:205F200001F0706102F0E04211446268236941EA821141EA0341C6F8841080010AD5231DC1
:205F40000FCB1B0443EA801040EA026040EA0170C6F88400306840F080603060FEF7C2FA39
:205F600005463068000105D4FEF7BCFA401B6428F7D97CE017F0080008BFB8F1000F79D0CF
:205F8000306820F080503060FEF7ACFA05463068800005D5FEF7A6FA401B6428F7D966E08F
:205FA0002068010301D5E16B19B1C1021ED5216CE1B9D6F88810D6F8882001F4403102F058
:205FC000E0421144A56AD4E9052341EA821141EA0361C6F888106FF0FF01D6F88C2001EBEE
:205FE000052122F4F8521143C6F88C10810214D5E16FB1F1006F10D1D6F88810D6F88820E3
:2060000001F0706102F0E04211446269236A41EA821141EA0341C6F88810000718D5D6F8B8
:206020008800D6F8881000F0706001F4403108446169E26940EA811040EA0270E36AC6F889
:206040008800D6F88C0020F440301843C6F88C00306840F080503060FEF744FA04463068F8
:20606000800007D4FEF73EFA001B6528F7D30320BDE8FC870020BDE8FC8700002DE9F0414C
:20608000002800F08280544B0446D3F800040D4600F00F0088420CD2D3F8000420F00F0046
:2060A0002843C3F80004D3F8000400F00F00A8426BD12068810705D5A1689A6822F0F002C9
:2060C00011439960C0072AD06068012803D11968890308D459E01968022802D1890102D4ED
:2060E00053E0890751D59968984621F0030108439860FEF7F7F9064641F288376068D8F8C5
:20610000081001F00C014346B1EB800F07D0FEF7E9F9801BB842F1D90320BDE8F081D3F8A4
:20612000000400F00F00A8420CD9D3F8000420F00F002843C3F80004D3F8000400F00F00A7
:20614000A84222D12068410705D5E1689A6822F4E05211439960000706D52069996821F457
:20616000604141EAC00098601C4600F05BF8A168074AC1F30311515CC840274908600F2018
:20618000FEF784FC0020BDE8F0810120BDE8F08110000408F348114B016841F081010160ED
:2061A0000021816002681A400D4B0260416042681A430C4B4260C0F88410D0F884201A43A9
:2061C000C0F88420026822F480220260C160124826490160704700BF00380240FFFFF6FAB6
:2061E00010300024003000200B480068704700BF09480A4900680968C1F38221084A515CE7
:20620000C84070470448054900680968C1F34231034A515CC84070473C0701200838024086
:20622000200004081049486800F00C020F48082A03D0042A17D10E4870470A680B685B026A
:206240000B4B58BF034602F03F00B3FBF0F00A68C2F388120968C1F301415043022202EBFD
:206260004101B0FBF1F07047043802400024F40000127A002DE9FC41002800F0B180044691
:206280000078B84EC0074AD0B06800F00C00042817D0B06800F00C00082802D17068400247
:2062A0000FD4606898B1B0F5803F06D03168B0F5A02F21D141F480203060306840F48030D0
:2062C00020E0306880032AD5606840BB88E0306820F480303060306820F480203060FEF7BC
:2062E00001F905463068800319D5FEF7FBF8411B03206429F6D92FE121F480303060306890
:2063000020F480203060FEF7EDF805463068800305D4FEF7E7F8401B6428F7D9EFE020782E
:2063200080072DD5B06810F00C0F07D0B06800F00C00082809D17068400206D43068800799
:2063400017D5E068012814D04AE03068E168002900F0998040F001003060FEF7C3F8054603
:206360003068800705D4FEF7BDF8401B0228F7D9C5E02069316821F0F80141EAC0003060DA
:206380002078000720D5706F616971B140F001007067FEF7A7F80546706F800714D4FEF774
:2063A000A1F8401B0228F7D9A9E020F001007067FEF798F80546706F800705D5FEF792F8EF
:2063C000401B0228F7D99AE0207840070BD4A769002F00F0C380B06800F00C00082835D174
:2063E0000120BDE8FC81306CC0000BD4306C4FF0010840F080503064306C00F080500190BA
:20640000019801E04FF00008574F3868C0050FD4386840F480703860FEF764F80546386835
:20642000C00505D4FEF75EF8401B6428F7D966E0A068C8B3012805D0316F05284BD141F0DB
:2064400004003067306F40F001004AE0306820F080703060FEF746F80546022F09D130685E
:20646000800158D5FEF73EF8411B03200229F6D972E03068800171D5FEF734F8411B032079
:206480000329F6D368E020F001003060FEF72AF80546306880077FF573AFFEF723F8411B9B
:2064A00003200229F5D957E0306F20F001003067306F20F004003067FEF714F8054641F279
:2064C0008837306F80071DD5FEF70CF8411B0320B942F6D940E021F001003067306F20F02B
:2064E00004003067FDF7FEFF054641F28837306F800707D4FDF7F6FF401BB842F7D90320A1
:20650000BDE8FC81B8F1000F3FF461AF306C20F0805030645BE71C341FCC0843D90340EA80
:2065200082104FF6FF72914340EA0460A1F58031084340F000507060306840F08070306087
:20654000FDF7D0FF04463068800107D4FDF7CAFF011B03200229F6D9BDE8FC810020BDE85D
:20656000FC8100BF0038024000700040F8B5C8B1044690F869001E4615460F4628B900203F
:2065800084F86800204600F018FC242084F869002068016821F001010160204603F036FB95
:2065A000012801D10120F8BD606A10B1204603F069FA2068816841F480418160816821F47D
:2065C0000041394381603104026841EA45516FF3194211430160016841F0010101602046E8
:2065E000BDE8F84003F0A3BA006800EB8100006D7047006800EB810002657047B0B50446D5
:2066000002206077CA212068416253214162204602F017FA216828B1FF2001254862042076
:2066200060773BE00020086042F201104860886800F007008860FDF755FF05462168C868D8
:2066400040070AD4FDF74EFF401BB0F57A7FF5D92068FF21416203251FE0886800254FF641
:20666000FF708D6048610E480861CD610D62CD62CD634D648D64CD600D64CD648868800673
:2066800005D4204600F07EF921680028C4D1FF204862204600F0A6F8257765772846B0BDFE
:2066A000FF007F0070B5006840684FEA104300F03F05CB708D70C0F304244C70C0F342366D
:2066C0000E70CAB9020A2D09240900F00F0645EA850502F00F0244EA840406EB450502EBAB
:2066E00044028D704A70C0F3035003F00F0200EB800002EB4000C870002070BD70B50068E9
:20670000836A4B6003696FF3DF338B6003684FF0400000EA134003F07F0508738D70C3F34A
:2067200006244C70C3F305400870CAB92D091A0A1E0C03F00F0305EB850502F00F0203EB89
:20674000450300098B70230903EB830302EB43024A7006F00F0240EA800002EB400008700B
:20676000002070BDB8B170B50446407F20B900202077204600F03CF80220CA2160772068AF
:20678000416253214162204602F05BF9216820B10120042220E0012070478868104A104080
:2067A000261D88606CCE6069324310438A68104388600D61086940EA03400861C86820F0C1
:2067C0008000C860C86C20F00800C864A069CA6C10430122C8640020FF234B62627770BDC3
:2067E000BFFF8FFF0548016821F40041016070470248016841F400410160704770380240FE
:206800002DE9F0410D46017F04460220012949D060770120207732B16878E978AE780002D4
:2068200040EA014714E06E78F00604D506F0EF0000F10A066E70E878DFF84081C04707462D
:206840003046C047000240EA0747A878C04706462068CA2141625321416220462D7802F0A4
:20686000F0F818B121680120042216E047EA0600216820F0C00040EA45304860C86820F08A
:206880008000C8608868800605D4204600F07AF821680028E7D100200122FF234B6200219D
:2068A00021776277BDE8F0812DE9F0470D46017F0446022001295FD060770120207727684E
:2068C000B86800F0400022B140B1287B4FEA004808E070B1287B4FEA00480EE04FF000081E
:2068E00085F80C8069782878AE78090241EA004910E04FF0000885F80C802878DFF87CA096
:20690000D04706466878D047000240EA0649A878D0470646CA20786253207862204602F0B6
