:020000040801F1
:1000000088D40220C1010108217D0108F5600108A2
:10001000E17C01086308010809AA0108000000004A
:10002000000000000000000000000000DF9D01084B
:100030000914010800000000ED820108CD9F0108AD
:10004000DB010108DB010108DB010108DB0101081C
:10005000DB010108DB010108C91C0108DB01010803
:10006000DB010108DB010108DB010108DB010108FC
:10007000DB010108DB010108DB010108DB010108EC
:10008000DB010108DB010108DB010108DB010108DC
:10009000DB010108DB010108DB010108FD1C01088F
:1000A000DB010108DB010108DB010108DB010108BC
:1000B000DB010108DB010108DB010108DB010108AC
:1000C000DB010108DB010108DB010108DB0101089C
:1000D000DB010108DB01010879A80108DB01010847
:1000E000E11C01089D860108DB010108DB01010814
:1000F000DB010108DB010108DB010108DB0101086C
:10010000DB010108518C0108DB010108DB0101085A
:10011000DB010108DB010108DB010108DB0101084B
:10012000DB010108FD100108251101084D1101082E
:1001300051110108DB010108DB010108DB010108A5
:10014000DB010108DB010108DB010108DB0101081B
:10015000DB010108DB010108DB010108DB0101080B
:10016000DB010108DB010108DB010108DB010108FB
:10017000DB010108DB010108DB010108DB010108EB
:10018000DB010108DB010108DB010108DB010108DB
:10019000DB010108DB010108DB010108DB010108CB
:1001A00091790108DB010108D1100108DFF80CD0BA
:1001B00000F07EFA004800474366020888D4022017
:1001C0000648804706480047FEE7FEE7FEE7FEE7F1
:1001D000FEE7FEE7FEE7FEE7FEE7FEE70DA001080B
:1001E000AD01010810B5431A934209D2831888184B
:1001F00003E010F8011D03F8011D521EF9D210BDD5
:1002000040EA01039B0703D009E008C9121F08C098
:10021000042AFAD203E011F8013B00F8013B521E18
:10022000F9D210BDD2B201E000F8012B491EFBD279
:1002300070470022F6E710B513460A4604461946F1
:10024000FFF7F0FF204610BD30B505462A460B46A5
:1002500012F8010B13F8014B08B1A042F8D01CB101
:10026000002802D06D1CF1E7284630BDCAB2401EFE
:1002700010F8011F8A4202D00029F9D100207047EE
:10028000421C10F8011B0029FBD1801A704710B5E1
:10029000002200E0521C835C8C5CA34201D1002B45
:1002A000F8D1D8B2E1B2401A10BD30B504460020F2
:1002B000034600E05B1C934203D2E05CCD5C401B34
:1002C000F8D030BD034611F8012B00F8012B002AAD
:1002D000F9D11846704730B505460020034600E0C6
:1002E0005B1C934205D2EC5CC85C201A01D1002C47
:1002F000F6D130BD70B5064612F0E8FD046805463B
:100300000A220021304600F03DF92C6070BD2DE935
:10031000FE4F804681EA0300C00F0C46009021F09A
:10032000004123F00045B8EB0200A94105D2404648
:10033000214690461C460B46024623F000401043DF
:1003400047D0270DC7F30A00C3F30A510290401AA1
:10035000019040286BDAC3F3130040F4801B00982F
:10036000924620B10023D2EB030A63EB0B0B0198FA
:100370005946C0F14002504600F0D3F806460D46FB
:1003800050465946019A00F0EBF810EB0800614125
:10039000002487EA115284EAE7731A4340D0009A96
:1003A00062B3019A012A4FEA075215DC001B61EB88
:1003B00002014FF0004202EA0752CDE90042001C60
:1003C00041F5801132462B4600F023F903B0BDE819
:1003D000F08F40462146F9E7001B61EB0201001C4B
:1003E00041F5801300185B412018A2F5001747EB78
:1003F000030140EAD570B6196D4111E06D084FEA6E
:10040000360645EAC0754FEA0752001B61EB020150
:10041000001C41F5801149084FEA30000019514194
:1004200032462B4603B0BDE8F04F00F0E3B8009829
:10043000012240000023D0EB020263EBE07300983E
:1004400021464FEAE074B8EB000061EB0401E9E7F4
:1004500083F000435BE781F0004158E770B5C1F3DA
:100460000A5201F000450024C1F3130140F2FF33AA
:1004700041F480119A4201DA002070BD40F233430A
:100480009A42A2F2334203DC524200F059F800E0F3
:1004900090402C43F1D0404270BD00F0004230F05B
:1004A00000400AD0C10D01F56071C0F3160042EAA8
:1004B0000151C208400711437047002001467047B0
:1004C0002DE9F05F0546002092469B468846064689
:1004D000814640241BE0284641464746224600F01C
:1004E0002FF853465A46C01A914110D31146184668
:1004F000224600F016F82D1A67EB01084F462246F7
:100500000120002100F00DF817EB00094E41201EDC
:10051000A4F10104DFDC484631462A464346BDE8E3
:10052000F09F202A04DB203A00FA02F100207047F5
:100530009140C2F1200320FA03F319439040704721
:10054000202A04DB203A21FA02F00021704721FA28
:1005500002F3D040C2F1200291400843194670478F
:10056000202A06DBCB17203A41FA02F043EAE07377
:1005700006E041FA02F3D040C2F120029140084364
:10058000194670472DE9F04791460F4680460446CC
:10059000002614F8015B2DB100F09CF80068405D66
:1005A000C007F6D12B2D02D02D2D18D0641E4A463F
:1005B0003946204600F092F827B13968A14201D1AE
:1005C000C7F8008071054FF002040BD540420028A7
:1005D00003DD12F07BFC0460A007BDE8F08746F461
:1005E0008066E4E70028F8DA12F070FC04606FF02F
:1005F0000040F2E710B5141E73F1000408DA401C45
:1006000041F1000192185B411A4301D120F0010031
:1006100010BD2DE9F04D92469B4611B1B1FA81F221
:1006200002E0B0FA80F220329046FFF77AFF0446EB
:100630000F4640EA0A0041EA0B0153465A46084376
:1006400013D0114653EA010019D0C8F140025046B8
:10065000FFF776FF05460E46504659464246FFF7DD
:1006600060FF084305D0012004E020463946BDE87C
:10067000F08D0020054346EAE0762C4337430A9884
:100680006305E40AA0EB08000022FD0A44EA47548F
:100690000A3002D500200146E9E701051019694139
:1006A000DDE9084500196941BDE8F04DA2E7000009
:1006B000064C074D06E0E06840F0010394E80700AF
:1006C00098471034AC42F6D3FFF774FDC8C803084E
:1006D000F8C803080048704768C603082DE9F05FB2
:1006E00082460078002715468B460AF10104B94678
:1006F000302801D09DB113E014F8010B01277828B0
:1007000003D0582801D045B10AE00DB1102D07D112
:100710000027102514F8010B02E0082500E00A2547
:100720000026B0460EE005FB080005FB06F1012798
:1007300001EB10461FFA80F8B6F5803F00D3B946AA
:1007400014F8010B294600F018F80028EBDABBF189
:10075000000F05D00FB1641E00E05446CBF80040F6
:10076000B9F1000F06D012F0B1FB02210160C81EE2
:10077000BDE8F09F48EA0640FAE73A2800D2303850
:1007800020F02002412A01D3A2F13700884201D390
:100790004FF0FF30704770B58C1810F8015B15F002
:1007A000070301D110F8013B2A1106D110F8012BE3
:1007B00003E010F8016B01F8016B5B1EF9D12B0708
:1007C00005D40023521E0DD401F8013BFAE710F8BE
:1007D000013BCB1A921C03E013F8015B01F8015BAB
:1007E000521EF9D5A142D8D3002070BDF8B50D46F0
:1007F000044616461946204613F00BFD6B4632465A
:100800000349204613F0F0FE014828600098F8BD27
:10081000A43701201CB50121082007F0B9FD0120F3
:100820008DF8040000218DF806108DF807000220D5
:100830008DF8050008200090044C6946204601F020
:10084000E9FE0821204601F0D7FB1CBD000C024048
:1008500000F00F01000900EB800001EB4000C0B286
:1008600070479921AE2001F0C7BA70B500254FF44A
:10087000803400E0641E24B1802008F0C3F9002811
:10088000F8D02CB140F2FF5008F07AF9284670BD3C
:10089000032070BD70B5054600243B49086800E0A0
:1008A000086810F0450FFBD0410705D5032404204C
:1008B00008F066F9204670BDC00705D0012401206C
:1008C00008F05EF9204670BD08F096F9A84201D004
:1008D000102070BD40F2FF5008F052F9002008F0DF
:1008E000ADF92A49084201D1204670BD002801DA3D
:1008F0001C2070BD410001D5092070BD810001D5CB
:100900000A2070BDC10001D50B2070BD010101D5C9
:100910000C2070BD410101D50D2070BDC10101D574
:100920000E2070BD010201D50F2070BD410201D51E
:10093000102070BD810201D5112070BDC10201D50A
:10094000122070BD010301D5132070BD410301D5F4
:10095000142070BD810301D5152070BDC10301D5E0
:10096000162070BD010401D5172070BD410401D5CA
:10097000182070BD810401D5192070BD000701D574
:100980001A2070BD204670BD342C014008E0FFFDE8
:1009900010B500240E4A116800E0116811F0450FEF
:1009A000FBD0480705D50324042008F0E9F82046C9
:1009B00010BDC80705D00124012008F0E1F8204649
:1009C00010BD40F2FF5008F0DBF8204610BD0000DB
:1009D000342C014010B500240A4A116800E0116867
:1009E00011F0450FFBD0480705D50324042008F07B
:1009F000C7F8204610BD40F2FF5008F0C1F820466D
:100A000010BD0000342C014070B506460C46002590
:100A10001C4A106800E0106810F0450FFBD0410739
:100A200005D50324042008F0ABF8204670BDC007AC
:100A300005D00124012008F0A3F8204670BD08F07D
:100A4000DBF8B04201D0102070BD40F2FF5008F03A
:100A500097F8002008F0F2F810F4604F03D08104FA
:100A600005D5132070BD000C2080284670BD4104C0
:100A700001D5102070BD000401D50F2070BD28469F
:100A800070BD0000342C014010B500204FF48031BF
:100A90000D4B1A6801E0491E1A6812F0450F01D18A
:100AA0000029F8D109B1510705D50324042008F025
:100AB00067F8204610BD5106FCD50024402008F000
:100AC0005FF8204610BD0000342C014010B50446EC
:100AD00032234FF4F0720021782002F01BFA00203C
:100AE00003F032FB022003F039FB224803F0DCFA6A
:100AF0006FF07F4003F0D4FA14217D2002F074FDE2
:100B0000B12C10D0B22C12D0B32C14D0132C16D080
:100B1000142C18D0D12C1AD0472C1CD0482C1ED005
:100B2000152C20D022E014A002F0D0FA1EE01AA06A
:100B300002F0CCFA1AE020A002F0C8FA16E025A0D4
:100B400002F0C4FA12E029A002F0C0FA0EE02EA0D2
:100B500002F0BCFA0AE033A002F0B8FA06E037A0CF
:100B600002F0B4FA02E03EA002F0B0FABDE8104094
:100B700002F020BC244D0308205550444154452028
:100B80004641494C202D2046494C45205359532E6F
:100B9000204552524F5200002055504441544520A8
:100BA0004641494C202D2046494C45204449522E6F
:100BB000204552524F520000205550444154452088
:100BC0004641494C202D2046494C45204552524F24
:100BD00052000000204649524D5741524520555081
:100BE000444154452052554E0000000020464952D1
:100BF0004D5741524520555044415445205355438B
:100C0000434553530000000020424F4F544C4F4186
:100C10004445522055504441544520535543434583
:100C2000535300002046494C4520555044415445FB
:100C30002053554343455353000000002046494C80
:100C40004520555044415445204641494C202D20D3
:100C50005452414E5346455220204552524F520065
:100C600020465720555044415445204641494C2088
:100C70002D205452414E5346455220204552524F4A
:100C8000520000007FB502F0B9FC002003F0EEF93D
:100C900002F032F900223CA13C4813F06BFB3C4CC3
:100CA000002850D0606920F010006061002236A159
:100CB000104613F05FFB012003F0D8F94FF07F409E
:100CC00003F0ECF902F018F9324803F0EDF96FF097
:100CD0007F45284603F0E4F9022003F03FFA0020A4
:100CE0000222CDE900024FF40471CDE9020119237B
:100CF0004FF4AA723221782007F07DF82061642237
:100D0000002107F042F92A460121206907F0CAF9BB
:100D1000214A0121206907F015F90221206907F015
:100D2000B1F91E49206907F021F91DA1206907F0DA
:100D300057F91C49206907F041F9206904B0BDE862
:100D400070400AF0FDBA18A1184813F017FC20B142
:100D5000606920F010006061A8E7012214A1174823
:100D600013F02EFB20B1606920F0100060619DE758
:100D700000231A461149124801F0C0FF606940F093
:100D80001000606192E70000303A0000A44A0120A0
:100D9000E40100208C390308D3D3D30020160308C4
:100DA00030250000C17E01082F00000028510120DD
:100DB00042434B5F474E442E424D5000D84C0120D9
:100DC000ED07010810B501460E4C0029206907D037
:100DD00001290FD007F07AF9BDE8104002F0EABA15
:100DE0000AF0AEFA50234FF4F0723221782002F06C
:100DF00091F8F1E7002107F069F920690AF00AFD8E
:100E0000EAE70000E401002010B504F041FD144CB5
:100E1000E168401A0A2804D304F03AFDE06003F0C8
:100E2000E9FC04F035FDA168401A642816D304F0EB
:100E30002FFDA060A08AC00502D500F013F809E0DC
:100E4000606810B1401E606004E04FF4167060608E
:100E500000F008F8BDE8104002F0ACBA10BD000088
:100E6000E4010020F0B587B06749012007F004FDD8
:100E70006649012007F0CEFC65494878002871D109
:100E8000614D0A786878904202D18A8AD20569D584
:100E90004A6922F480724A610870C8237322412192
:100EA000052002F037F84FF0C44003F0F9F8C823EA
:100EB00073224121052002F09FFA002003F04EF931
:100EC0000222514903A805F019F93A208DF80E00C5
:100ED00003AF0222691CF81C05F010F964213C20C4
:100EE00002F082FBFF2003F0DBF84A4803F0DCF855
:100EF0000E2003F029F903A802F0E8F8434C20780B
:100F000008B90120207082213C2002F06DFB6FF0B7
:100F10007F46304603F0C4F83F4803F0C5F80E2082
:100F200003F012F920783D4951F8200002F0CEF884
:100F30000222A11C03A805F0E1F82E208DF80E0076
:100F40006078FFF785FC364951F82010F81CFFF750
:100F5000B9F903A8FFF794F90A2804D9314803F036
:100F6000A3F803E04DE0304803F09EF8FF2003F0C3
:100F700097F8A0213C2002F037FB0E2003F0E4F8A4
:100F800003A802F0A3F829A00068039000208DF8C0
:100F900010000222E11CB81C05F0B0F8224803F052
:100FA00083F8304603F07CF8BE213C2002F01CFBA5
:100FB0000E2003F0C9F803A802F088F802F0FAF94D
:100FC000D5208DF80000FF208DF8010020788DF8E5
:100FD0000200A0788DF8030060788DF80400E078B6
:100FE0008DF8050028788DF8060068788DF80700E0
:100FF000A8788DF8080009236A4617210D4809F0E2
:1010000082FB07B0F0BD0000140100201801002091
:10101000E4010020D46C0308244D030810020020D2
:1010200030020020002903088C39030832302020C8
:1010300000000000E0F300202DE9F0418046052487
:10104000F0235A005021782001F064FF002003F0C3
:101050007BF84FF07F4003F021F81B4803F024F8A1
:101060006FF07F4003F01CF8184EC82706EBC4153C
:1010700080220021284615F0BDFB601E06EBC01142
:101080002846FFF71FF9604200EB800007EB800263
:1010900028467D2102F09AF8641EE7D14FF6FF70D2
:1010A00002F0FEFF80220021084815F0A3FB414614
:1010B0000648FFF707F9C8227D21044802F086F8A8
:1010C000BDE8F04102F076B900290308A4470120E9
:1010D000AFF30080014902208860704700B00240F1
:1010E000054A002903D01168014311607047116857
:1010F000814311607047000000B0024070B5074C9A
:10110000074D2146284600F011F9002805D0214658
:101110002846BDE8704000F045B870BD008800105A
:101120002864024070B5074C074D2146284600F060
:10113000FDF8002805D021462846BDE8704000F0A3
:1011400031B870BD008020104064024008F060BBE0
:1011500070B5074C074D2146284600F0E7F80028F7
:1011600005D021462846BDE8704000F01BB870BD90
:101170002080002070640240074A904201D2074854
:1011800001E005481038064A8B0001EA020101D54A
:10119000C160704781607047106402400060024087
:1011A0007D0F7D0F074A904201D2074801E00548B4
:1011B0001038064A8B0001EA020101D5C160704770
:1011C0008160704710640240006002407D0F7D0F17
:1011D000002904D0016841F00101016070470168F5
:1011E00021F00101016070472DE9F043016821F011
:1011F000010101600021016041608160C160016105
:10120000212141613E493E4A10394FF03D0890424C
:1012100003D1C1F80880BDE8F083394A4FF4746502
:101220001832904201D18D60F5E7354A4FF47416BB
:101230003032904201D18E60EDE7314A4FF0746751
:101240004832904201D18F60E5E72D4B2D4A603343
:10125000984201D1CA60DEE7294C2B4B7834A0427A
:1012600001D1CB60D7E7DFF898C0284C0CF1900C87
:10127000604501D1CC60CEE7DFF884904FF03D5C53
:1012800009F1A809484502D1C1F80CC0C3E72049BB
:10129000DFF87C900839484502D1C1F80080BAE7F0
:1012A000DFF86C8008F11808404501D10D60B2E705
:1012B000174D3035A84201D10E60ACE7144D4835CA
:1012C000A84201D10F60A6E7114D11496035091FF1
:1012D000A84201D10A609EE70D4A7832904201D1BE
:1012E0000B6098E70A4A9032904201D10C6092E775
:1012F000074AA83290428ED1C1F800C08BE70000A7
:10130000106002403D000020400F002000003D2002
:1013100010640240002904D0016841F020010160FE
:101320007047016821F020010160704730B500244A
:101330000F4A904201D20F4A01E00D4A103A0E4B7B
:10134000194205D01E2303EAD12503682B4002E091
:10135000406900F08003880001D5506800E0106803
:10136000064A1040084201D003B10124204630BD96
:1013700010640240006002403C0F3C0F7D0F7D0F67
:101380000B0609D522B1436943F08003436103E0B2
:10139000436923F080034361802905D001F01E01D9
:1013A0001AB102680A430260704702688A43026009
:1013B0007047000030B50368124A1340CC680A68D1
:1013C0002243D1E905452C432243CC6922430C6AD0
:1013D00022434C6A22438C6A22434C6B22438C6B1F
:1013E00022431A430260426922F00703D1E90B2429
:1013F00022431A4342610A6942604A6882608968EE
:10140000C16030BD3F801CF0704711B581B004F061
:101410003FFA0090002407E004F03AFA0099401ADD
:101420000199884200D3019401980028F4D11CBD91
:1014300010B500F0CBF8BDE8104000F0F1BA0000A4
:10144000184A506803681146002B896808DB036856
:10145000DB0505D548608868401C8860012070471E
:101460000368002B0EDB03689B050BD50368DB05C7
:1014700008D4086000204860012088605068C06877
:1014800050600DE00368002B0ADB03689B0507D45E
:101490000368DB0504D48B685B1C8B60C0685060FC
:1014A00000207047D80100200649002804D0886930
:1014B00040F0020088617047886920F0020088616E
:1014C00070470000009002402DE9F0410023124FC8
:1014D00078604FF0004C44F2F458561E14E000EBD4
:1014E0004314C4F800C0C4F80480C3EBC31505EB73
:1014F000450501EB8505A560B34203D204F1200543
:10150000E56000E0E0605B1C9342E8D30349C860FB
:101510000348B860BDE8F081D80100200090024087
:10152000983701200649002804D0886940F400500B
:1015300088617047886920F4005088617047000016
:1015400000900240F0B500230E4C20604FF480174D
:10155000561E11E000EB43142760C3EBC31505EBE7
:10156000450501EB8505A560B34203D204F12005D2
:10157000E56000E0E0605B1C9342EBD30249086148
:10158000F0BD0000D80100200090024010B50121FC
:101590004C06204606F00AFF2046BDE81040002118
:1015A00006F004BF01B581B00198009002E00098F8
:1015B000401E009000980028F9D10CBD02488169B6
:1015C00041F480118161704700900240FEB5012115
:1015D000D72006F0DDFE0121880306F01FFF012061
:1015E00008F0FEFB8620009003208DF80500022401
:1015F0008DF8044000258DF806508DF80750394EBF
:101600006946304601F006F80B220121304601F010
:101610003FF80B220221304601F03AF80B22072155
:10162000304601F035F8A00200902F4E6946304652
:1016300000F0F0FF0B221146304601F029F84FF47C
:10164000C0400090294E6946304600F0E3FF0B226F
:101650000D21304601F01CF80B220E21304601F01E
:1016600017F832200090224E6946304600F0D2FF33
:101670000B220121304601F00BF80B2204213046E9
:1016800001F006F80B220521304601F001F8082090
:10169000009001208DF804008DF806508DF80700A9
:1016A0008DF80540134E6946304600F0B3FF08211F
:1016B000304600F0A1FC02950F4C02E00299491C53
:1016C00002910299A142F9D30821304600F096FC1C
:1016D000029502E00298401C02900298A042F9D3C1
:1016E000FEBD00000000024000040240001802405D
:1016F00000080240001C0240400D03000020034986
:101700000968C90700D0012070470000009002401E
:101710001EB50021019102910B4B59680A68C2F372
:101720000D42121F00929A689468012C03D9126826
:101730009268019201E08A6801920291C968596039
:101740009DE80E000EC01EBDD80100202DE9F0411D
:1017500086B004468846002705970097874E306973
:1017600020F01C0501A806F083FE02988449854AF2
:101770000144914202D245F0080516E08249834AAD
:101780000144914202D245F00C050EE08049814AA5
:101790000144914209D3804908448049884202D2D9
:1017A00045F0040501E045F0100535614FF40042B5
:1017B0000021404600F05CFAC0B17948FFF7F2FE24
:1017C000206880B3774D0098401C0090012140466E
:1017D00000F0BCF9400702D40098A842F3D3009867
:1017E000A84205D1002006B0BDE8F0810020FAE74C
:1017F00000974FF480520021404600F039FA08B9B2
:101800000020F0E70098401C00900121404600F0C5
:101810009DF9800602D40098A842F3D30098A8420C
:1018200002D10020DFE71DE000971F21404600F0B5
:101830008DF900F01C00042811D04FF480420828D4
:1018400007D0D1100E2807D012281CD12162626166
:1018500019E02762626116E02162676113E0276286
:10186000676110E0206A0021C0F3CF026069C0F315
:101870004F000243404600F0FBF900287CD06FF097
:101880007F40FFF78FFE306847490840D4E90112D6
:101890001143E26854F8103F1A4311436268114340
:1018A000A2681143E268114322691143626911433E
:1018B000A2691143E2691143226A1143626A143436
:1018C00011430143316054F8140F61680843D4E9AF
:1018D0000212114308432169084361690843A16961
:1018E0000843E16908437060206AB060606AF06094
:1018F000B0694FF641710840D4E90B121143238DB2
:10190000626B42EA03421143A26B1143E26B114343
:101910000143B161D4E910010843F06123488169B2
:10192000234A1140D4E912231A43D4E914352B4336
:101930001A43A36D1A43E36D1A43236E1A43636E71
:101940001A43A36E1A430A438261D4E91B1211435E
:10195000626F54F8783F1A431143626841EA82018A
:10196000A268114341F400010160016841F0800167
:101970000160012037E7FFE7002034E700800240E4
:1019800000D3CEFEC0E1E40040F1E9FD40787D01E6
:1019900000796CFC005A6202001F0AFA80F0FA0219
:1019A000FFFF0F00FFFF04000F8120FF00900240A7
:1019B000233FDEF80A794B7942EA0322074B1844A9
:1019C00002640A78CB7842EA03628B7849781B0478
:1019D00043EA01210A43426470470000008002404C
:1019E0000649002804D0086840F0040008607047E9
:1019F000086820F004000860704700000080024082
:101A00000649002804D0086840F0080008607047C4
:101A1000086820F00800086070470000008002405D
:101A200000B5AFB001214FF0606006F0B1FCFFF7E8
:101A3000ADFD00F0B7F8FFF761FE0128FBD0684666
:101A400000F0C9F801200090002007904FF40071C9
:101A50000A910B900E901190139014901590209075
:101A6000090421910A1123922590269004202890A0
:101A7000299180032A9080012B9040122C904000E5
:101A80002E9001216846FFF761FE002803D19521C1
:101A9000A42000F0B1F92FB000BD0000F0B5002384
:101AA000284D29680A68002A01DA0020F0BD40F2BA
:101AB000F456B04208D9B0FBF6F2B0FBF6F406FBE0
:101AC000140414B1521C00E00122012A2CD10A682E
:101AD00042F040520A60C0F30C004860086840F0D1
:101AE00000400860C868286021E023B92C68276896
:101AF00047F0805727604E60541EA3420ED10C68F9
:101B000044F000540C60C2F10104C4EBC41404EBB3
:101B1000440400EB8404C4F30C044C600C6844F0EF
:101B200000440C60C9685B1C9342DED32960064800
:101B30004169490703D50421416100214160012029
:101B4000F0BD0000D80100200090024018B500222E
:101B50000092124A136903F01C044FF6FF7303EA64
:101B6000C02323434FF4F86000EA8110184320F0AB
:101B7000020040F00100106109490098401C0090EB
:101B80001069C00702D000988842F6D300988842B6
:101B900001D1002018BD506980B218BD00800240FC
:101BA000FFFF04000248016841F001010160704735
:101BB0000090024000B50120FFF722FFFFF7FEFC76
:101BC0000120FFF70DFF0120FFF7ACFC01205DF8BD
:101BD00004EBFFF769BC01210160002141608160D5
:101BE000C16001614FF4804242618161C161D210E4
:101BF000026241628162C162016341638163C163C8
:101C000040220264202242648164C164016541650E
:101C10008165C1650166802242668166C166016791
:101C200041678167C167D204C0F880205210C0F8B4
:101C30008420C0F888101311C0F88C30C0F89010C0
:101C4000C0F89410C0F89810C0F89C10C0F8A0100C
:101C5000C0F8A4205212C0F8A8209201C0F8AC200D
:101C60005212C0F8B020C0F8B410C0F8B8107047D5
:101C700038B500230093124B1C6904F01C054FF685
:101C8000FF7404EAC0242C434FF4F86000EA81108A
:101C9000204340F0020040F001005A6118610949F8
:101CA0000098401C00901869C00702D00098884234
:101CB000F6D30098884201D1002038BD012038BDFC
:101CC00000800240FFFF040010B5012000F050F832
:101CD000002804D0BDE81040012000F043B810BD3A
:101CE00010B54FF40064204600F042F8002804D0FC
:101CF0002046BDE8104000F035B810BD10B52020DA
:101D000000F036F820B1BDE81040202000F02AB8DD
:101D1000402000F02DF820B1BDE81040402000F038
:101D200021B8802000F024F820B1BDE810408020C8
:101D300000F018B84FF48074204600F019F820B174
:101D40002046BDE8104000F00DB84FF40074204666
:101D500000F00EF8002804D02046BDE8104000F046
:101D600001B810BD0149086070470000143C0140F3
:101D700001460020024A12680A4200D00120704742
:101D8000143C014030B51B4A83790168002B2AD0EE
:101D900013688B431360111D0B680468A3430B6029
:101DA000017911440B68046823430B60114C08341B
:101DB0002168036899432160231D19680568A943B8
:101DC00019604179102905D011440A68006802435E
:101DD0000A6030BD216802681143216019680068FB
:101DE0000143196030BD0079104402688A430260E3
:101DF00030BD0000003C0140BFF34F8F0548016833
:101E0000054A01F4E06111430160BFF34F8F00BF49
:101E1000FDE700000CED00E00400FA0500224FF0A1
:101E2000204310280AD0B0F5807F09D0B0F5805F3C
:101E300009D0D3F85801814309D107E0586EFAE779
:101E4000D3F88400F7E7D3F8A400F4E701221046A2
:101E500070470000D0E9001211438268C068521E2A
:101E6000520142EA402001430148016070470000EE
:101E7000500100A070B50468A100A1F1C041D1F8E3
:101E80004011CE0BF603D0E901121143D0E9032330
:101E90001A4311434269C36911438269056A1143B8
:101EA0001943426A2943114331434FF02046002C25
:101EB0003CD0D6F840416FF30E042B43224313432A
:101EC000C6F8403102689200A2F1C042C2F8401147
:101ED000016871B38900A1F1C041D1F8481101F046
:101EE0007043816A0A684C68521E641E42EA0414F8
:101EF0008A68521E44EA02240A8A521E44EA0242B6
:101F00001A43D6F8483103F07043CC68898A641EBE
:101F10002403491E44EA01511943C6F848110068D8
:101F20008000A0F1C040C0F8482170BDC6F8401143
:101F3000CEE7FFE7D6F8481101F07041806A0268E9
:101F40004368521E5B1E42EA03138268521E43EA34
:101F50000223C268521E43EA0233028A521E43EA37
:101F60000243828A007E521E43EA0252401E42EA27
:101F700000600843C6F8480170BD000002490A68C5
:101F800042EA400008607047540100A000B5A3B0C9
:101F9000487801280FD009A00A89CDE900200B78E4
:101FA0008A7807A103A810F05FFF03A8FFF744F8A1
:101FB00023B0012000BD0DA0EEE7000000000000EE
:101FC0005245434549564544204652414D453A54B1
:101FD0005950453D25643A49443D25643A4C454EA7
:101FE0004754483D25642573000000003A5245538C
:101FF000504F4E53450000004183704701837047A6
:10200000000000000000000006032111000001088C
:1020100030B587B00121480506F0E4F9012102201E
:1020200006F0B6F9C020059002208DF818008DF852
:10203000190001208DF81A0000248DF81B40214D55
:1020400005A9284600F0E6FA04220621284600F0F9
:102050001FFB04220721284600F01AFB1A480190B2
:10206000ADF808404BF6FF70ADF80A00ADF80C4033
:10207000ADF80E404FF48040ADF81000134C01A9AC
:10208000204604F061FA0121204604F0D5F94FF40E
:102090007A70FFF7BAF900221146702000F060F95B
:1020A00060B1BFF34F8F0A4801680A4A01F4E0614A
:1020B00011430160BFF34F8F00BFFDE700F0D6F87A
:1020C00007B030BD00040240A0860100005400406B
:1020D0000CED00E00400FA052DE9FF5F91461E4675
:1020E000002E0AD0DFF87CA10121504604F0FAF955
:1020F0004FF44057BB465C4C08E0012004B0BDE8FB
:10210000F09FBBF1000F18D0ABF1010B21465046F8
:1021100004F000FA0028F4D0012E10D0012150461E
:1021200004F07EF900225046009904F06EFA3D4614
:10213000DFF8348108F1010808E00120DEE7002122
:10214000504604F06DF9EDE75DB16D1E4146504615
:1021500004F0E0F90028F7D0424D18352888BB4636
:1021600006E00120CAE7BBF1000F10D0ABF1010B74
:102170003D493C487F3104F0CDF90028F3D039487F
:10218000019904F04BFABB46DFF8D8A006E0012025
:10219000B4E7BBF1000F15D0ABF1010B324950464B
:1021A0007F3104F0B7F90028F3D02F495046C91CFD
:1021B00004F0B0F90028ECD00121504604F092F967
:1021C000BB4606E0012099E7BBF1000F10D0ABF150
:1021D000010B2146504604F09DF90028F4D001225D
:1021E0005046009904F011FA3C46C346D04603E03D
:1021F000012083E774B1641E5946404604F08AF911
:102200000028F7D028880025DFF85CA0BB460AF13B
:102210003F0A1CE0012071E76F1CB74207D3002181
:10222000404604F0FDF80121404604F067F95C46A1
:1022300001E0A4B1641E5146404604F06BF9002849
:10224000F7D0404604F0DEF909F80500FDB2B542CA
:10225000E2D30121404604F0E3F800204EE70120DC
:102260004CE70000005400400100001000B589B0A8
:10227000202101A8FDF7DDFF1F2301AA0021712005
:10228000FFF72AFF9DF80600344900F00F0008759B
:10229000062860D2DFE800F05F4B392715039DF870
:1022A00017309DF8182003F00F0342EA03220A8238
:1022B0009DF819309DF81A2003F00F0342EA03221B
:1022C0004A829DF813309DF8142003F00F0342EA70
:1022D00003228A819DF815309DF8162003F00F0324
:1022E00042EA0322CA819DF80F309DF8102003F0C6
:1022F0000F0342EA03220A819DF811309DF8122053
:1023000003F00F0342EA03224A819DF80B309DF847
:102310000C2003F00F0342EA03228A809DF80D305F
:102320009DF80E2003F00F0342EA0322CA809DF8B5
:1023300007209DF8083002F00F0243EA02220A80CB
:102340009DF809309DF80A2003F00F0342EA0322AA
:102350004A8009B000BD0020FBE70000A4EC00208B
:102360002DE9F0478246884617464FF440563546D9
:10237000384C4FF400394946204604F0CBF8002889
:10238000F9D10121204604F0ADF8DFF8CC9001E04E
:102390008DB16D1E4946204604F0BCF80028F7D0E8
:1023A00000225146204604F030F93546DFF8A89067
:1023B00009F1010904E00120BDE8F08785B16D1E37
:1023C000A2464946504604F0A5F80028F6D0214818
:1023D000183000883546DFF8809009F17F0903E066
:1023E0000120E9E765B16D1E4946504604F092F8B8
:1023F0000028F7D04146504604F010F9344603E077
:102400000120D9E774B1641E4946504604F082F8B1
:102410000028F7D03946504604F000F935460E4CF6
:10242000E41C03E00120C7E795B16D1E4946504604
:1024300004F070F80028F7D02146504604F06AF8FE
:102440000028F1D00121504604F058F80020B3E7ED
:102450000120B1E700540040010000102DE9FC47C5
:102460000E460024002700970197574D4FF0080AA9
:10247000C5F800A0102068604FF04009C5F808902A
:10248000EF604FF48068C5F81080284606F00CFC19
:102490001020FEF7FFF9002832D14C4800890004D3
:1024A000286037206860C5F80890EF60C5F8108094
:1024B000284606F0F9FB3720FEF7ECF900281FD17B
:1024C000411E05F114000160C0F804A030218160B4
:1024D0000221C16007610121416106F069FB2F60A3
:1024E00033206860C5F80890EF60C5F81080284672
:1024F00006F0DAFB3320FEF7CDF90546280001D0BF
:10250000BDE8FC874FF4001A6F46DFF8C48040F244
:102510002A6908E0504606F075FB20B106F0BEFBC4
:1025200047F82400641CD8F8000010EA090FF1D025
:10253000082006F067FB20B1082006F021FB0420EC
:10254000DEE7022006F05EFB20B1022006F018FB59
:102550000220D5E7202006F055FB20B1202006F010
:102560000FFB0620CCE74FF40074204606F04AFB30
:1025700020B1204606F004FB0720C1E740F2FF50DF
:1025800006F0FEFA00980099000601F47F4140EA47
:102590000120009901F47F0140EA1120009940EAEE
:1025A0001160706001980199000601F47F4140EAD2
:1025B0000120019901F47F0140EA1120019940EACC
:1025C0001160306028469BE778EC00202001002055
:1025D000342C014010B5002001F060FD6FF07F4009
:1025E00001F05EFD012001F0A7FD002001F0ACFD2F
:1025F000002001F0B3FD002001F054FD0448006804
:1026000001F052FDBDE81040002001F071BD000056
:10261000D80200202DE9F041002201274FF0030CE1
:1026200007FA02F50B682B40AB422CD10668530029
:102630000CFA03F4A64306600E79D0F800809E40A1
:1026400046EA080606600E79012E01D0022E12D14C
:102650008668A64386604E79D0F808809E4046EA98
:10266000080686604668AE43466045688E799640A7
:10267000B6B235434560C568A543C560CC799C407A
:10268000C3681C43C460521C102AC9D3BDE8F08142
:1026900010B54B07DB0E9A40C90800EB8100016AB8
:1026A0000F249C40A1430162016A1143016210BDE5
:1026B000002A01D00183704741837047014AC2E973
:1026C0000001704774020020014AC2E9000170470E
:1026D0007C020020014AC2E9000170478803002003
:1026E000014AC2E90001704784020020014AC2E9A0
:1026F00000017047900300202DE9F04FDFF828B16A
:1027000091B04FF0FF35DBF80030B3F9221006919D
:10271000DE69B3F92490F469A189814206D8E2897F
:10272000824203D3471AD4F8008012E0D4E9018131
:1027300000296FD00A8882426CD84D88854269D3BF
:10274000801A82B2486800EB8200B0F90070B0F9DC
:102750000250781C5ED0307EA17C10FB01FA217CF7
:10276000CDE90701B3F92A60304604F0EDFDC0B2AF
:102770000E90DBF8000007FB0A81A37C826B012727
:10278000CDE90412CDE90273C069089AC17E807E4A
:10279000CDE90001DDE90603494604F0DDF8681CD7
:1027A00018D046F0020004F0CFFDDBF80000A37C57
:1027B00005FB0A81826BCDE90273CDE90412C06981
:1027C000089AC17E807ECDE90001DDE90603494615
:1027D00004F0C2F8DBF800005D46C069417E007E6F
:1027E000814214D9022E12D086F0040004F0ACFD10
:1027F0002868C069027EC37E12FB0391437E857EFA
:10280000089A06984B4412FB050204F031FA0E9820
:1028100004F09AFDDBF80000627C418C1144418495
:1028200011B0BDE8F08F0000DC0200200448006811
:10283000C069C06909B1027C0A60407C7047000031
:10284000DC020020022008807047C06982898A4229
:1028500002D8C2898A4210D2806880B102888A4236
:102860000DD843888B420AD3406800EB8100A0EB6F
:102870008200B0F90000002801DB01207047002031
:10288000704700002DE9F043304C034687B02068C4
:102890001946B0F92A60C069C06900F086F80028BE
:1028A00050D041680088181A01EBC0053046AF7857
:1028B00004F04AFD814620686A680123816BCDE9F6
:1028C0000237CDE90421C169CB7E8A7ECDE90023A0
:1028D0000B7EB0F924102A78B0F9220004F03CF8FD
:1028E0002068C069417E027E91421FD9C07E11FBE3
:1028F00000F812FB00F7022E18D000F013FE064677
:1029000000F0F8FD01F0CCFB21682A78CB69B1F921
:102910002200DB7E12FB0302B1F9241001EB080355
:10292000394404F0A5F9304601F0BAFB484604F0FA
:102930000BFD20686A78C369B0F922109B7E12FBF8
:102940000311418407B0BDE8F0830000DC020020E1
:1029500030B50F4C05460B4620682946C069C06952
:1029600000F023F8002812D04168008824682A1A51
:102970000120E46900EBC200085CA47E10FB04F0B7
:10298000002B04D011F8321011FB04F1196030BD96
:10299000DC02002001200880704700B5C06900F00B
:1029A00004F8002800D0012000BD06E002888A4219
:1029B00002D842888A4202D280680028F6D1704745
:1029C000002801D009F0CABC704738B50546FFF7AA
:1029D000F7FF040009D000F0C9F82A460021009052
:1029E00002F0E4FE684600F00BF9204638BD000016
:1029F000024A106021F003005060704748520120E5
:102A000010B5002814D004460A48406B10F8341062
:102A100000290DD002290BD2042101EBC401415839
:102A2000486809F053FC2046BDE810400EF0D6BDC2
:102A300010BD000088510120002805D0034AD16B49
:102A4000016001B14860D0637047000088510120E7
:102A500010B504460068FFF7D3FF0020206010BDCA
:102A60002DE9F04104460DF0C3FE2848E41C24F093
:102A70000305016C2D1DA94200D90D46C46B13E05E
:102A800054F8042CAA420ED184B1216809B16268BD
:102A90004A60616809B122680A60C26BA24231D102
:102AA0002168C1632EE02468002CE9D18046816B47
:102AB000C0680F1857F8040C3E1A306838B100206F
:102AC0000EF026FE57F8040C3E1A3068D0B9706834
:102AD000A84217DB3044441B3046241D0EF0D0FDC5
:102AE000D8F80C10491BC8F80C10D8F81410294459
:102AF000C8F814107068401B02D0314609F0E6FB9C
:102B000044F8045C2046BDE8F081000088510120B3
:102B100010B500240DF06CFE0C490F2001EBC00233
:102B2000526C1AB101EBC000406C08E0401EF5D5B4
:102B300008E04168A14200D90C46806810B1806865
:102B40000028F6D1A4F10C0010BD0000885101202E
:102B5000002138B10449042202EBC000496B085837
:102B600041680C3908467047885101200549CA69F7
:102B7000521CCA61496B01EBC0010A78521C0A70F1
:102B800000F056B8885101207CB506460C46084630
:102B9000FFF716FF05001CD0DEB13046FFF7D8FF67
:102BA000A04200DA04462846FFF7E0FF00903046D6
:102BB000FFF7DCFF0146019022460098FDF712FB6B
:102BC000684600F01DF801A800F01AF83046FFF73B
:102BD00017FF28467CBD000010B5FFF799FF64225F
:102BE0000649B0F5800F04D990FBF2F0096A48431A
:102BF00010BD096A4143B1FBF2F010BD88510120BC
:102C00000A4902684B6B52F8082C03EBC202137896
:102C1000022B03D3CB690BB15B1ECB611178491E2C
:102C200011700021016008467047000088510120A2
:102C3000002806D00349042202EBC000496B085863
:102C4000083070478851012070B50C46054600F0E9
:102C500017FDC1B223462846BDE87040002200F0AF
:102C600001B80000F0B52D271C68B0F1004F08D066
:102C7000002600280DDA651C1D60277040420124E3
:102C800008E0651C01261D606FF000402770491E9A
:102C900001E00024091BC9B22AB3491EC9B222E0CF
:102CA0000C46491EC9B2944205D1124C27781C68C3
:102CB000651C1D602770104C54F8215090FBF5F4F2
:102CC000E4B20A2C11D804FB150011B90EB1641C32
:102CD000E4B20A2C02D10124491CC9B21D686F1C40
:102CE00030341F602C700029DAD119680020087078
:102CF000F0BD0000D0020020847003083EB51446E9
:102D0000029100906A46194620460AF00BF93EBD32
:102D10002DE9F8431D46DDE908461746884601239C
:102D20006A46362100F056F898BB684602F0D6FC99
:102D30008146009810300090684602F0D9FCC8F82F
:102D40000000684602F0D4FC38600098801C0090B7
:102D5000684602F0C3FC2880684602F0C9FC306077
:102D600000980C300090684602F0C2FC2A884FF4AC
:102D70008071082A13D005DC5AB1012A0AD0042A2E
:102D80001ED109E0102A1ED0182A1CD0202A17D1E3
:102D900019E015E0022200E01022226000E021602C
:102DA000A0B1206088420BDCA9F59A41423907D1D5
:102DB000306868B101280BD0022809D0032807D059
:102DC0000120BDE8F88300202060EDE72068E9E7F6
:102DD0000020F6E72DE9F04117460D4604460BB1F9
:102DE00000206060D4E901300A4626683946B047C1
:102DF000A84202D00120BDE8F081606828446060EC
:102E00000020F8E7F8B50D46074600240E4E16E000
:102E100000236A4604213846FFF7DCFF08B1012091
:102E2000F8BD0098027841788378100440EA0120C8
:102E3000184303F049FD316841F82400641CAC429A
:102E4000E6DB0020F8BD0000A003002070B50646B8
:102E50000D461446104600F06DFB0300164804EBC7
:102E600084010AD050F8210041688068711A2A1A3A
:102E7000BDE87040184601F039B900EB8104A26842
:102E8000B24201D0012200E00022E368AB4201D04F
:102E9000012300E000231A430CD0236943B150F80A
:102EA0002100816840686A1A311A184601F0C6F894
:102EB000C4E9026570BD00004854012010B5C2B2DB
:102EC000CBB2D21A00D5524293B25B43C0F3072271
:102ED000C1F30724121B00D55242000C92B2A0EBA2
:102EE000114002FB023200B2002801DA404200B277
:102EF00080B200FB002010BD10B50021084600F094
:102F000073FB43F6FF725042BDE810401346014682
:102F1000AFF300802DE9FC4107461C4615460E46DE
:102F2000042004F011FA80461148C068C16C006D9D
:102F30000F4406440D440444ADF80070ADF804504D
:102F4000ADF80260ADF80640684608F085FD07E080
:102F500023462A463146384603F08AFE08F03EFDF5
:102F60000028F5D1404604F0EFF9BDE8FC810000EF
:102F7000D00200202DE9F0411C4616460D460746BA
:102F8000022B02DB0020BDE8F0811C20FFF768FD6A
:102F90000028F8D00DB105610AE0094A52F8241062
:102FA00009B905E011460A68002AFBD109690161E7
:102FB00084618682002101604160C0E90217E2E776
:102FC000F402002070B51D46FFF7D4FF040009D0BD
:102FD00000F00EF8E068006820B90348006800EBD4
:102FE00085008465204670BDDC020020FFF724BD0B
:102FF00070B590B38269022A30DA1E4C54F8221060
:1030000019B944F8220032E019464B68002BFBD175
:1030100006E0CB68C5681B682D68AB4203DD096814
:103020000029F6D11AE0C1B1CB68C6681B683668C2
:10303000B3420CD1838A012B05D008E01946DB6826
:103040001B68AB4203DB0B68002BF7D129B14B683F
:1030500033B118604A68426004E0FFE7012070BDA8
:1030600044F822004860884200D10021016000201D
:1030700070BD0000F40200200A4A816952F8213034
:10308000834202D1036842F82130416809B10268E5
:103090000A60016809B142684A600021016041602C
:1030A00070470000F4020020022801DB0020704776
:1030B000054951F8200004E0C16809680029F6D0EC
:1030C00000680028F8D17047F40200202DE9FC4781
:1030D00006005BD000F03EFA3B4C81462068B0F918
:1030E000228000F059FA216807468A8CD01B888418
:1030F00041E000BF47F6FF71304602F099F9824681
:103100000146304602F06AF92168054691F82C0024
:1031100000F0030001283FD0022839D000204A8C5B
:10312000101A4884ADF800006A1E1044ADF804007F
:10313000888CADF80200A9F101010844ADF8060041
:103140006A465146304601F00FFF2168BDF8020083
:1031500088845146304601F06FFC064430780A28D6
:103160001CD00D281AD0BDF80000216828444884DE
:10317000307818B1761C30780028BBD12068818C5B
:1031800039448184818D21F003018185BDE8FC876C
:1031900005EBD5704010C2E72846C0E7206890F8DC
:1031A0002C1001F0030101290BD0022909D0018C58
:1031B000418431780A29DBD1828C02EB09018184B8
:1031C000D6E7A0F82280F4E7DC020020024B1B685F
:1031D00059849A84FFF77ABFDC0200202DE9F04F72
:1031E0000C46164987B00D68DDE91098E96C0F1898
:1031F000286D8D180619C418ADF81070ADF814506C
:10320000ADF81260ADF8164004A808F025FC0028BF
:1032100011D0DFF82CB04FF0000ACDE90098CDE9CD
:1032200002BA2B462246394630460BF01DFE08F006
:10323000D5FB0028F1D107B0BDE8F08FDC020020FB
:103240001D6C01082DE9F04F164C87B02568DDE9AB
:103250001098EC6C2718286DA5184618C418ADF8FE
:103260001070ADF81450ADF81260ADF8164004A817
:1032700008F0F2FB002811D0DFF82CB04FF0010A63
:10328000CDE90098CDE902BA23462A4631463846B0
:103290000BF0EAFD08F0A2FB0028F1D107B0BDE871
:1032A000F08F0000DC0200205D6B01082DE9FC417D
:1032B000104F04463B68D86C4518196DADF80050A6
:1032C0000E198418ADF80440ADF80260ADF8066040
:1032D000684608F0C1FB08E0386822463146406E77
:1032E00003682846984708F079FB0028F4D1BDE828
:1032F000FC810000DC0200202DE9FC411C4C24680C
:10330000E66C94F818C03718206DACF1010C451824
:10331000C418A7EB0C001644ADF8000006EB0C0037
:10332000ADF80400A5EB0C00ADF8020004EB0C00B6
:10333000ADF80600684608F08FFB15E032462946D6
:10334000384603F00BFC32462146384603F006FCB3
:10335000621E691C384603F061FC621E691C30461F
:1033600003F05CFC08F03AFB0028E7D1BDE8FC81E3
:10337000DC0200207CB50E4B1B68DC6C2618186D37
:10338000ADF8006045188418ADF80460ADF802503F
:10339000ADF80640684608F05FFB06E02246294685
:1033A000304603F03BFC08F019FB0028F6D17CBD49
:1033B000DC02002010B5002400E0012400F004F835
:1033C0000028FAD1204610BD094810B50068002435
:1033D00010B1804700B1012407F07CFD00B1012449
:1033E0000448006810B1804700B10124204610BD98
:1033F00000030020FC0200202DE9FC410F4C256851
:10340000EC6C2718286DA5184618C418ADF8007084
:10341000ADF80450ADF80260ADF80640684608F01B
:103420001BFB07E023462A463146384603F020FCC2
:1034300008F0D4FA0028F5D1BDE8FC81DC020020B8
:1034400008B50B46002805D0009281888268C088A4
:1034500000F001F808BD10B50828029C30D008DC47
:1034600004FB01F401280AD0022813D0042804D157
:103470001CE0102828D020282CD0002010BD04EB00
:10348000D30003F00701105CC1F10701C84000F050
:10349000010010BD04EB93000621105C01EA43011A
:1034A000C1F10601C84000F0030010BD04EB530059
:1034B000D907105C02D000F00F0010BD000910BD4C
:1034C00004FB0130105C10BD481004FB003032F8E2
:1034D000100010BD881004FB003052F8200010BD11
:1034E000034951F82000C1688A6A0821104700008A
:1034F000F402002010B503F0EBFBBDE8104003F030
:10350000AFBC000002490968C9694A680021104738
:10351000DC020020024A1268D2695268104700009B
:10352000DC02002010B503F0DBFBBDE8104003F027
:1035300097BC00000021022802D2024951F8201055
:10354000084670474403002001480068007C70472B
:10355000DC02002002480068C069407E704700001D
:10356000DC02002001F030BF70B514460D4603F0B8
:10357000FDFB002802D000202860206070BD01F013
:1035800081BF10B5044601F06FFF01462046BDE83B
:10359000104001F023BF00000A490020096891F89B
:1035A0002C2002F00C02042A07D0082A01D00C2A91
:1035B00002D1C869007E40087047C869007E401E7D
:1035C00070470000DC020020024951F82000006929
:1035D00000687047F4020020024951F82000006999
:1035E00040687047F402002070B50D460CF08CFE68
:1035F000044628460CF090FE204370BD2DE9F041B2
:103600001948016821F00101016018480125856011
:103610001749016000681749884200D0FEE701F0B1
:10362000D5FB154E2E20307001F019FB13480DF01C
:10363000A7F810F0EDF9074603F0C2FB10B103F054
:10364000D3FB38B903F0D9FB044603F0C2FB214693
:1036500003F074FE0021084600F052FD07F084FEDE
:1036600075703846BDE8F081002000E0003002406F
:10367000C2A507F4CDB5E8B5D0020020A8520120BC
:1036800010B5011E01DD024600E04A42064B012052
:1036900053F82040944202D8401C0A28F8DB002945
:1036A00000DA401C10BD0000847003081CB520B96E
:1036B0000C480068006E002812D0FFF757FA0090FF
:1036C00044696846FFF79CFA002C09D02046FFF7B2
:1036D0004DFA019081688968884701A8FFF790FA40
:1036E0001CBD0000DC02002001490A4600F002B8BF
:1036F00001F0FFFF2DE9F04387B015460C465FEA65
:10370000000842D0002000F0CDFC8146204800682F
:10371000066E4046FFF72AFA00900068806900F0C4
:10372000A5FC074640F6FF70C44204D10098B0F9EA
:103730000440B0F906500098611E0289ADF80440BB
:103740001144ADF808104189681E0844ADF80650D0
:10375000ADF80A0007F01EFA6846FFF751FA01A813
:1037600008F07AF906E02A462146404600F04EFB72
:1037700008F034F90028F6D1384600F077FC3046DE
:1037800000F066F9484600F08DFC07B0BDE8F08314
:10379000DC0200202DE9FE4F83461A488A461A496A
:1037A00000680C9E9846407C9146002751F82040C6
:1037B000E1680968042903D02468002CF8D100E0EE
:1037C0001CB9FFF771FC041E19D0E0680121C26A20
:1037D00020469047050011D02469A0688047401C0E
:1037E00002D10A4C46F001060096CDE90154434649
:1037F0004A465146584600F0AFF907463846BDE8FC
:10380000FE8F0000DC020020F4020020B4C5030893
:1038100038B5040018D00D480068006EA04201D1F0
:1038200000F01AFC2046FFF7A1F90090406908B1AA
:1038300001F0F9F900980068FFF7D8FB6846FFF738
:10384000DFF92046FFF7DCF838BD0000DC0200207D
:103850002DE9FF4FDFF83891074683B0D9F8000013
:103860009A468B46447C4B4800570128204606DD8B
:1038700003F0ACFA0546204603F0BCFA05E003F07D
:103880008EFA0546204603F090FA04461FB302A9BB
:1038900001A8FFF774FEB7F90000002800DA002045
:1038A000B7F902608046002E00DA0026019841191F
:1038B000B7F90400491E0DF089FB0546029801196D
:1038C000B7F90600491E0DF081FBA5EB0802841B29
:1038D000521C641C03E04FF0000846462A46BAF129
:1038E000000F01D1C4F1000A002A4FDD002C4DDD8C
:1038F00010980090534631464046FFF74BFF5FEA71
:10390000000A10D000F06AF80746A04206D0D9F8A5
:103910000000806C10B1322108F016FC504600F017
:1039200097F8002521E0594605988847012007B0FF
:10393000BDE8F08F611BB94202DA504600F072F820
:103940003DB172194146504600F0A4F85046FFF7C9
:10395000ADFE5946059888470F48016809B1002017
:1039600088475046FFF7C0FE3D44A542E2DB504683
:10397000FFF74EFF002000F06BF8A74206D0D9F801
:103980000000806C10B1332108F0DEFB0020CEE790
:10399000DC02002014030020D404002038B50024E9
:1039A00060B1FFF7E3F80090006800698068804725
:1039B00003F09EFF04466846FFF722F9204638BD13
:1039C00038B5002808D0FFF7D1F800F118040090AE
:1039D0006846FFF715F9204638BD000038B50024C9
:1039E00018B907480068006E38B1FFF7BFF80090BB
:1039F000B0F90A406846FFF703F9204638BD0000D9
:103A0000DC02002070B505460024284609F03EF887
:103A1000641C18B1BDE8704000F068B8052CF4DBF8
:103A200070BD000038B50C4620B908480068006E2B
:103A300000280AD0FFF79AF80090B0F90A10A142C6
:103A400000DD44816846FFF7DBF838BDDC0200206A
:103A5000F8B50F4E05003068046E16D00CB100F0BA
:103A6000FBFA07F085F92846FFF780F800903168E7
:103A70000D660068FFF7BCFA6846FFF7C1F803F06F
:103A8000D5FC03F025FC2046F8BD00F0E5FAFAE786
:103A9000DC0200207CB515460C4620B912480068AF
:103AA000006E00281FD0FFF761F82DB20090C5808E
:103AB00024B2848003F00CFC0098406980B1FFF7C9
:103AC00055F8009A0190B2F908108180B2F90A20E5
:103AD000C28011B10AB10480458001A8FFF790F8B7
:103AE0006846FFF78DF87CBDDC02002001490A46DC
:103AF00000F002B801F0FFFF7FB515460C46060046
:103B000028D0FFF733F840F6FF710190CC4203D183
:103B1000B0F90440B0F906500289611E1144ADF8B5
:103B20000840ADF80C104189681E0844ADF80E003D
:103B3000ADF80A5001A8FFF763F802A807F08CFF60
:103B400006E02A462146304600F048F907F046FFD5
:103B50000028F6D17FBD00002DE9FF4FDFF8E8B067
:103B600083B01C46DBF80010DDE9106092464FF090
:103B700000084B7C42461299FFF7FCF9050060D023
:103B800028698068804703F0B3FE81460AFB09F18B
:103B9000C91DCF08FFF720F8F10705D1C11700EBC9
:103BA0009170801000EB4000002C09DC1FB1183828
:103BB000B0FBF7F000E000206442A04200DC0446C5
:103BC000F00707D10090DDE903012346524600F0DB
:103BD000B3FF8046002C03DC2846FFF707FA30E0ED
:103BE00004FB07F01830F10702D0FEF7E9FE01E010
:103BF000FEF7EBFE06001CD0FEF7B8FF0190056053
:103C0000039981800499C180A0F808A04481C0F87C
:103C10001480C0E9037901A8FEF7F2FF1298AE60A4
:103C20002861DBF80000407CA861304607B0BDE8A1
:103C3000F08F2846FFF7DAF9B8F1000001D0FEF75F
:103C4000DFFE0020F2E70000DC0200202DE9F74F44
:103C50008EB0144689460E98FEF788FF0990B0F999
:103C600008B0B0F90A600068006940680C9009A8C3
:103C7000FEF7C6FF564D574F2868407C57F8200086
:103C8000C1688A6A082190470790182801D320202C
:103C900007902868407C57F820000069069003C808
:103CA0000B904D48814201D0012000E000200A9095
:103CB000002000F0D5FF00287DD1286809EB0B011A
:103CC000B0F90C20891A491E002902DDABEB010571
:103CD00000E05D46B0F90810494505DDA1EB09019A
:103CE00089446D1A089101E000210891002D6BDDD7
:103CF000B0F90E20A119891A491E002902DDA6EB90
:103D0000010800E0B046B0F90A00A04204DD061B3D
:103D10003444A8EB060800E00026B8F1000F53DD9C
:103D2000089801900DA95F46DDF830A00E9800912B
:103D3000FFF746FE774300EB870101982B4601EB26
:103D4000800200994846CDE900A1214601F064F9BE
:103D50000090002838D00A98E8B1DDE906322946FB
:103D6000009801F02DF8B0B90698009FDA46D0F817
:103D700010C0BCF1000F05D004235A46394638461E
:103D8000E04708E00B993868884701C7AAF10100AD
:103D90005FEA000AF6D100990020079ACDE90301F5
:103DA000059001200090CDE9010221460346641CE4
:103DB0002A46484600E007E002F0CEFDA8F10100E7
:103DC000761C5FEA0008ABD111B0BDE8F08F0000AF
:103DD000DC020020F4020020E36E0108F8B515466D
:103DE0000E460746FEF7C2FE009000681621C06826
:103DF000426A0020904704466846FEF701FF002C07
:103E000003D02A4631463846A047F8BDF8B51646D5
:103E10000F46050012D0FEF7A9FE009044696846DF
:103E2000FEF7EEFE2846FFF7B9FD0346082800DD41
:103E30002CB13246394628460EF00AFCF8BD32460F
:103E4000394628460EF0A4FDF8BD0000094A126864
:103E500002B10020074A1C3252F82030002B07DB49
:103E6000A2F1180343F820104FF0FF3142F8201060
:103E7000704700002003002010B5002821D009B3AE
:103E80000AB3B1F90040B2F900309C4200DA23468F
:103E90000380B1F90240B2F902309C4200DA2346B5
:103EA0004380B1F90440B2F904309C4200DD23465E
:103EB0008380B1F90610B2F90620914200DC114668
:103EC000C18010BD11460A6802604968416010BD9A
:103ED00000280BD003880B44038083881944818019
:103EE000418811444180C1881144C180704700005D
:103EF00070B50E4D0446D5E90001884209D10C4940
:103F0000884201D13C3000E00C3807C884E8070043
:103F100006E090E80E0084E80E000CF005FA286038
:103F2000207A002800D0012070BD00000804002085
:103F3000245301200448D0E90010814201D101201E
:103F4000704700207047000008040020054A10B5A3
:103F5000034911600EF0A2FABDE8104000F008B964
:103F6000D1AF01080403002070B5094C0020D4E94A
:103F700000218A420AD0D2E9005610460CF0ECF932
:103F800020603146284607F0E7FA012070BD0000A6
:103F9000B80400202DE9FC41154DDDE908742D68B9
:103FA000B5F90860864200DD3046B5F90C609642EE
:103FB00000DA3246824219DBB5F90A608E4200DD32
:103FC0003146B5F90E509D4200DA2B468B420DDB8F
:103FD00000E02C46E5682D6825B1042D02D0256847
:103FE000002DF6D1CDE9007403F05CF8BDE8FC814A
:103FF000DC020020B0F90220B1F906309A4213DC4D
:10400000B1F90220B0F906309A420DDCB0F9002077
:10401000B1F904309A4207DCB1F90010B0F904009C
:10402000814201DC012070470020704701460248B0
:1040300070220068FCF7D6B8DC020020002801D00E
:104040000DF008BF70470000024970220968FCF7B4
:10405000C9B80000DC02002010B503F0EFF803F04F
:10406000E5F9BDE8104006F095BD000070B5094DBA
:104070000446022C2868467C09D22046FFF714F833
:1040800028B128684474FFF7E7FF0348046030460E
:1040900070BD0000DC0200204404002003F0EEB8F4
:1040A00003F024B903F050B903490968CA6900B1A3
:1040B000C861104670470000DC0200200149C86159
:1040C000704700008C0200200149486070470000E2
:1040D000D002002001490860704700008C020020D7
:1040E00001494860704700008C02002003F048B985
:1040F000024909688A7E887610467047DC020020F3
:10410000094A30B41080094A1180094A1268537C68
:10411000084A52F82330DA68146A0A46A44601466F
:1041200030BC1846604700001C0300201E0300201E
:10413000DC020020F4020020024909680A7E0876A9
:1041400010467047DC02002003490968B1F92C20B1
:104150008885104670470000DC020020034909688A
:10416000B1F92A204885104670470000DC02002083
:1041700002480068002800D000477047C8040020AB
:1041800002498A6802B98860FFF7F2BFB8040020CC
:1041900010B5040009D00DF08DFA20460EF028FA73
:1041A0002046BDE81040FEF72BBC10BD38B50C46CC
:1041B00060B1FEF7DBFC00908089204201D0012431
:1041C00000E000246846FEF71BFD00E001242046C5
:1041D00038BD000038B50546002028600648046850
:1041E00044B12046FEF7C2FC009000692860684692
:1041F000FEF706FD204638BDF004002038B5040067
:104200004FF000000D46086011D02046FEF7AEFCCE
:104210000090846844B16846FEF7F2FC2046FEF741
:10422000A5FC0090006928606846FEF7E9FC20467E
:1042300038BD00002DE9F04F00242DED028B9BB01E
:10424000DFF800B4DDE9266ADDF8A090A6469FED10
:10425000FE0ACBF80040022835D00DAD6F460DF1B7
:104260000C0C03287EDB68D153F8248000EE108A02
:104270000DF1200808EB8408B8EEC00A88ED000AAA
:1042800056F8248000EE108A05EB8408B8EEC00AC8
:1042900088ED000A51F8248000EE108A07EB8408AC
:1042A000B8EEC00A88ED000A52F8248000EE108AA9
:1042B0000CEB840804F10104B8EEC00A844288EDD6
:1042C000000AD1DB42E148680968401A00EE900A12
:1042D000D3E90010F8EEE01A401A00EE900ADB482D
:1042E000F8EEE00A81EEA01A00EE901AF8EEE00A6D
:1042F00080ED001A61EE600A80ED010AC0ED020A4D
:1043000080ED030A51681268891A00EE101AD6E986
:104310000012B8EEC01A521A00EE102AB8EEC00A07
:10432000C1EE000A00EE101AB8EEC00AC0ED040A91
:1043300020EEC00A80ED050A8EE10CEB840888EDC2
:10434000000A07EB840888ED000A05EB840888ED75
:10435000000A0DF1200808EB8408641C88ED000AAF
:10436000032C00E0ADE1E8DB002794E053F8275090
:10437000DDED0A0A00EE105AB8EEC00A30EE800AEF
:104380008DED0A0A56F82740DDED0F0A00EE104ABF
:10439000B8EEC00A30EE800A8DED0F0A51F8278082
:1043A000DDED020A00EE108AB8EEC00A30EE800A97
:1043B0008DED020A52F827C0DDED050A00EE10CAA5
:1043C0007F1CB8EEC00A30EE800A8DED050A00EEC3
:1043D000105ADDED080AB8EEC01A00EE105AB8EE19
:1043E000C00A41EE000A00EE105AB8EEC01A00EE04
:1043F000104ACDED080ADDED090AB8EEC00A41EE1B
:10440000000A00EE104AB8EEC01A00EE104ACDEDD8
:10441000090ACDED0D0AB8EEC00ADDED0E0A41EE37
:10442000000A00EE105AB8EEC01A00EE108ACDED68
:104430000E0ADDED000AB8EEC00A41EE000A00EEF9
:10444000104AB8EEC01A00EE108ACDED000ADDED7C
:10445000010AB8EEC00A41EE000A00EE105AB8EEAA
:10446000C01A00EE10CACDED010ADDED030AB8EE68
:10447000C00A41EE000A00EE104AB8EEC01A00EE83
:1044800010CACDED030ADDED040AB8EEC00A41EE14
:10449000000ACDED040A8742FFF668AFDDED080A99
:1044A0009DED0A0A80EE801A8DED081A9DED091A1D
:1044B000DDED0F0AC1EE201ACDED091A9DED0D1AA2
:1044C000C1EE001ACDED0D1A9DED0E1AC1EE201AA7
:1044D000CDED0E1A9DED001AC1EE001ACDED001AB9
:1044E0009DED011AC1EE201ACDED011A9DED031AC2
:1044F000C1EE001ACDED031A9DED041AC1EE201A8B
:1045000001EE100AB8EEC11ACDED041AC0EE011A80
:1045100000EE100AB8EEC00A80EE801A00EE100A13
:10452000CDED0A1AB8EEC00A8DED0F1ADDED020AC4
:1045300080EE801A00EE100AB8EEC00A8DED021A65
:10454000DDED050A80EE801A8DED051ADDED081A05
:10455000DDED0A0ADDED0E4A9DED0F2A71EEE05AFF
:104560009DED091A34EEC25ADDED0D3A31EE604A86
:1045700025EE850A33EEC23A04EE430AB5EEC00AD0
:10458000F1EE10FA6CD09DED006ADDED022ADDED52
:10459000016A2E4836EE627A76EEE27A27EE058AD6
:1045A00007EEC38A67EEA57A47EE447AC8EE008A22
:1045B00087EE807AC0ED008A80ED017A20EEA67A3F
:1045C00001EE627A61EEA22A40EEC62A27EE237A35
:1045D00004EEA27A61EE062A41EEE62A02EE227A83
:1045E000C7EE002AC0ED022A9DED036ADDED052A23
:1045F00076EE626A66EE857A9DED045A35EE627A51
:1046000047EE437A87EE803A80ED033A27EE253A6B
:1046100006EEC43A83EE004A20EE853A01EE623A95
:1046200061EEA22A40EEC62A23EE233A61EE060A84
:1046300004EEA23A41EEC50A80ED044A02EE203AA9
:1046400006E00DE014040020000000006C5301207F
:10465000C3EE000AC0ED050A0120CBF8000002E01D
:10466000BEF1000F2DD05C460021C4E901A9084627
:104670000CF026FC0021E06008460CF049FC2061AB
:10468000A9F10101AAF101000CF01AFC6061A9F185
:104690000101AAF101000CF03BFCA0616269E16834
:1046A000914201DDE26061612169814201DDA16128
:1046B0002061206828B100201BB0BDEC028BBDE852
:1046C000F08F0120F8E700002DE9FE43DFF8B890F5
:1046D00005000A9ED9F814C04FF00000CCF3410742
:1046E00009F1300439D0012D02D00120BDE8FE834C
:1046F000DFF8948008F12008C8E90012052131EAAA
:104700000C013ED0012F3CD0C4E90036012199F8BC
:104710000030A9404A46194201D000231370137893
:104720001943C9B289F800100329DFD1174E306848
:10473000407C02F04BFB05463068407C02F05AFB9F
:10474000114B0094CDE901502833A3F10802A2F1E6
:1047500008010220FFF76EFDC8E7DFF82C80032F69
:1047600008F11808C8E9001208F1100106D00CF091
:104770000502012A02D0C1E90036C7E7C1E900639A
:10478000C4E7C4E90063C1E750030020DC02002055
:1047900070B5174C06460D463268E16801208A4222
:1047A0001EDB2968236999421ADB63699A4217DC88
:1047B000A269914214DC2946304600F093F80028A3
:1047C0000ED133680022002B01DA326004E0616808
:1047D0008B4201DB491E31602B68002B01DA2A6015
:1047E00070BDA1688B42FBDB491E296070BD0000D3
:1047F0001404002070B5254C86B06078F8B100F044
:10480000C9F8E06000F0C4F8E06803902069049003
:1048100000F03EF88DF8090004A903A8FFF7B8FFDF
:104820000025B0B1A07870B360680090A0680190D6
:104830008DF80850684600F031F8A57023E000F0CC
:10484000C7F8206100F0A5F86078401C607006B0E1
:1048500070BD039A6068111A00D54942049BA06894
:10486000181A00D54042A67816B1084402280ADD7D
:1048700062600092A360012601938DF8086068468B
:1048800000F00CF8A6706570E1E70000500300200E
:104890000148407A70470000845301203EB5044629
:1048A0000C220E49FBF701FD002813D00B4894E8B9
:1048B0000E0080E80E000A48026862B194E80B001E
:1048C0008DE80B00684601A99047002802D1684690
:1048D000FFF73CFB3EBD2046FAE7000018530120DD
:1048E0004C03002070B5064625480D462DED048B7F
:1048F0000068E8B396ED008A224CD5ED008AF8EE08
:10490000C80A94ED000AB8EEE81A20EE200AD4EDA9
:10491000010A00EE810AD4ED020A30EE200A10EE00
:10492000100AFBF7BAFD9FED189B53EC192BFBF710
:10493000EEFCFBF793FD3060F8EEC80A94ED030A35
:10494000B8EEE81A20EE200AD4ED040A00EE810A3F
:10495000D4ED050A30EE200A10EE100AFBF79DFD9B
:1049600053EC192BFBF7D3FCFBF778FD286000E034
:1049700003E00020BDEC048B70BD0120FAE70000CD
:10498000140400206C530120000000000000E03FF0
:104990007047704710B5FDF769FC0B4C012158B109
:1049A0000A48428822600088606061722172204655
:1049B000FFF774FF206810BD61720020207202486A
:1049C000FFF76CFF002010BDBCEC0020A4EC002021
:1049D00010B5FDF74BFC0B4C012158B10A48428839
:1049E000226000886060617221722046FFF756FFE6
:1049F000606810BD6172002020720248FFF74EFF10
:104A0000002010BDBCEC0020A4EC00202DE9F041FA
:104A1000084E0446056830680168284688470746FE
:104A20003068416828468847284420603846BDE8F9
:104A3000F0810000E00200202DE9F0410C4606461E
:104A40000025064F05E0386841683046884706442F
:104A50000544641EF7D22846BDE8F081E00200203C
:104A60002DE9F0411E46069C1746884605463A4603
:104A7000A8687F1C3346D0F804C041462846E0476A
:104A8000641EF4D1BDE8F08170B5B0F90040091B97
:104A9000B0F904408C422CDD00F11404B0F902504E
:104AA0000069521B02FB0040CA1800EBE104521ED1
:104AB000D010B0EBE10501F007034FF0FF0102F069
:104AC000070221FA03F0C2F1070201FA02F1CEB2A5
:104AD00021780FD001436D1E04F8011B002D05DD68
:104AE000FF2229462046FBF79DFB2C4420783043CB
:104AF000207070BD30400143217070BD10B5B0F919
:104B00000030B0F90240C91A00F114030069121B09
:104B100002FB003000EBE10001F007030278802186
:104B2000D9400A43027010BDB0F906100269514322
:104B30001430FBF77EBB00002DE9F843804602F1FC
:104B40000F000011470003FB07F01C46154689467D
:104B50001430FDF73AFF060013D0FEF707F8009077
:104B6000A0F80080A0F802908580C480064981608A
:104B70000121818107616846FEF742F83046BDE8B1
:104B8000F8830020FBE70000CCC5030870B5B0F93E
:104B90000660B0F904400B6800F1140596421BDD75
:104BA0000069A34202FB005000EBE30214DA641E2A
:104BB000E010A0EBE30512F8010B03F00704A0409E
:104BC000C4B206E045B1083312F8014B23F00703E5
:104BD0006D1E002CF6D004E0002070BD6006040EAF
:104BE0005B1C2006FAD5FF2C07D0184602E06406AD
:104BF000240E401C6606FAD400E0D81DC4436407A6
:104C000005D006E012F8014BFF2C09D108306D1ECB
:104C1000F8D5C01A401C0B6070BD6206140E401C13
:104C20002206FAD4F5E738B50546FDF79FFF009058
:104C30008189491E0CB284816846FDF7E1FF002C92
:104C400002D12846FDF7DCFE38BD00004FF400110C
:104C50000148FDF7CDBE0000000060D070477047EE
:104C60000EB508B102AA00E00022002301A968469F
:104C700000F05CFB0EBD0000074910B50C7818B1C0
:104C800001200870801E03E0002008706FF07F4054
:104C900001F048FD204610BD1603002010B5082A7B
:104CA0000EDC0346012A18D0022A56D0042A76D0F8
:104CB00010F8042B03F8012B491EF9D1012010BD77
:104CC000102A08DC4FEA000230F8043B22F8023BCD
:104CD000491EF9D1F2E7002010BD10F8042BD207CD
:104CE000120E491E34D010F8044B491E04F0010482
:104CF00042EA84122CD010F8044B491E04F001043F
:104D000042EA441224D010F8044B491E04F0010476
:104D100042EA04121CD010F8044B491E04F00104AE
:104D200042EAC40214D010F8044B491E04F00104F6
:104D300042EA84020CD010F8044B491E04F001042E
:104D400042EA440204D010F8044B04F00104224368
:104D500003F8012B0029C0D1B0E710F8042B92070B
:104D6000120E491E15D010F8044B491E04F003041E
:104D700042EA04120DD010F8044B491E04F003045B
:104D800042EA840205D010F8044B04F003042243E5
:104D9000491E03F8012B0029DFD18FE7FFE710F848
:104DA000042B1207120E491E05D010F8044B04F014
:104DB0000F042243491E03F8012B0029EFD17DE7A0
:104DC00038B50024009400F01BF838BD0A4810B52F
:104DD000816900290ED101218161FFF737FF02F0BF
:104DE00037FB054905481C310860BDE810400846FE
:104DF00000F09EBC10BD0000D00200209D120208F1
:104E00002DE9F0410D460699044601B901461F6897
:104E1000082A09DC0E46012A1AD0022A5BD0042A8D
:104E20007DD0082A13D18DE0102A07DCD3F810C0FA
:104E30000E46BCF1000F04D0022389E00020BDE83B
:104E4000F08101CCB84726F8020B6D1EF9D189E03C
:104E500001CCB847C0074FEA10686D1E36D001CCB0
:104E6000B84748EA801000F0FF086D1E2ED001CC34
:104E7000B84748EA401000F0FF086D1E26D001CC6C
:104E8000B84748EA001000F0FF086D1E1ED001CCA4
:104E9000B84748EAC00000F0FF086D1E16D001CCEC
:104EA000B84748EA800000F0FF086D1E0ED001CC24
:104EB000B84748EA400000F0FF086D1E06D001CC5C
:104EC000B84740EA080000F0FF086D1E06F8018BA5
:104ED000002DBDD146E001CCB84780074FEA1068ED
:104EE0006D1E16D001CCB84748EA001000F0FF084C
:104EF0006D1E0ED001CCB84748EA800000F0FF08D4
:104F00006D1E06D001CCB84740EA080000F0FF084B
:104F10006D1E06F8018B002DDDD123E0FFE701CCEB
:104F2000B84700074FEA10686D1E06D001CCB8479D
:104F300040EA080000F0FF086D1E06F8018B002D06
:104F4000EDD10FE0D3F810C0BCF1000F04D0012365
:104F50002A462046E04705E001CCB84706F8010B99
:104F60006D1EF9D101206AE77CB5064628480D463A
:104F7000006868B1002006F06FFD06E06A46294629
:104F8000304607F095FF06F029FD0028F6D17CBDDC
:104F9000106800901F4C506801902268BDF8000016
:104FA00032F84C1F0844ADF80000BDF802009188AB
:104FB0000844ADF80200BDF8040011880844ADF8BB
:104FC0000400BDF8060091880844ADF80600684664
:104FD00006F042FD0EE000BF2068BDF800106A46F2
:104FE0004184BDF8021081842946304607F060FFF5
:104FF00006F0F4FC0028EFD1206830F8221F428D23
:10500000891A01804188C28D891A41807CBD0000C7
:1050100018030020DC0200202DE9FF4F8DB0002096
:10502000DDF86CA0164600901D4604460246CAF8FC
:10503000000008AB03A902A800F078F918B100201D
:1050400011B0BDE8F08F0898854200DD0546614F3C
:105050000B9561493868407C51F82010049109692A
:105060000691FEF73DFA05903868407CFEF7B4FAE9
:105070005A498146884204D05949894501D00120C6
:1050800000E000200A9001CE1A9988478346000E5E
:10509000079077D0009870BB0D9800EB04084D483E
:1050A0000068B0F90800404503DDA0EB0807804622
:1050B00000E000270298049900EB840000EB8700D1
:1050C000CDE900010B990D98421809920E9B4046BC
:1050D0001946521EFEF75EFF012000900598182821
:1050E0000ADA0298DDE9052300EB840000EB870073
:1050F000E91B00F079F812E00A9880B1029800EB01
:10510000840000EB87070998A0EB08084946386837
:10511000884701C7A8F101005FEA0008F6D13148CD
:10512000C06980B3DDE9020700EB840007EB84026D
:10513000CDE902022B4C361F3046E4692B4602991A
:10514000A047FF213068B1EB106F02D102980068D0
:1051500004E0029A1268B1EB126F01D1039A106059
:10516000029806F10406001D02900398001D0390AA
:105170006D1EE7D10397DAF8000040F00101CAF88C
:10518000001020E021E0FFE70798FF2811D0C0F1D0
:10519000FF02029850F82410584600F045FA03998F
:1051A00041F82400DAF8000040F00101CAF80010CC
:1051B00005E00298039950F8240041F82400641C8B
:1051C0006D1E7FF460AF03983AE7039941F824B06D
:1051D000E8E70000DC020020F4020020E36E010892
:1051E000E16E01088C0200202DE9F05F0C1E16DD37
:1051F0005E68014600EB8405082A12DC611E012A64
:1052000026D0022A47D0042A6AD0082A07D10719D3
:1052100017F8010DB04745F8040D641EF8D1BDE83C
:10522000F09F102AFBDC5F693FB12246BC46BDE817
:10523000F04F02235DF804EB604701EB440700BF29
:1052400037F8020DB04745F8040D641EF8D1E6E7C3
:1052500000EBE10001F0070710F801A9814680206A
:1052600020FA07F8B5F104050AEA0800C7F10701BA
:10527000C840B04745F804093FB14FEA48604FEADB
:1052800010687F1E641EEFD1C9E719F801A907272E
:105290004FF00108F6E700EBA10001F0030710F85A
:1052A00001A981467900C02020FA01F84FF0060BD1
:1052B000B5F104050AEA0800ABEB4701C840B04766
:1052C00045F804093FB14FEA88604FEA10687F1E35
:1052D000641EEFD1A3E7032719F801A9B846F7E741
:1052E00000EB6100012710F801A9A7438146B9002E
:1052F000F02020FA01F84FF0040B2D1F0AEA0800F5
:10530000ABEB8701C840B04745F804093FB14FEA0D
:1053100008704FEA10687F1E641EEFD17FE719F80E
:1053200001A901274FF00F08F6E700002DE9F0472B
:10533000224C06461F46A06990468946002540B982
:105340000120A06104F120011D480860084600F01A
:10535000EFF9606930B91B480068606110B901F06D
:1053600021FD606107B138604EB1A06830B9606955
:105370008000FDF775FBA06000B901253060B9F130
:10538000000F0AD0E06830B960698000FDF768FB63
:10539000E06000B90125C9F80000B8F1000F0AD09B
:1053A000206930B960698000FDF75AFB206100B9BF
:1053B0000125C8F800002846BDE8F0878C020020CF
:1053C000411202080C03002003480068C069017EF6
:1053D000C07E11FB00F07047DC02002073B5124A5A
:1053E00001A900981268904700240090C8B10F49A5
:1053F00000250968C969496959B10A684AB1019922
:1054000090477CBD6846FFF701FB0546FEF77AF83A
:1054100004440198401E0190F4D5284600F040F85D
:10542000044420467CBD000004040020DC0200206F
:1054300073B50D460098002490B10A490968C969FE
:10544000496959B14A684AB1294690477CBD6846C6
:10545000FFF7DCFA20B10A2802D0641CAC42F6DB6C
:1054600020467CBDDC02002031B50024009808B93C
:1054700005E0641C6846FFF7C9FA0028F9D1204608
:1054800038BD0000044AB2F9002002600348B0F9B8
:1054900000000860704700001C0300201E0300206D
:1054A00038B5002469460094FEF734F8009981422B
:1054B00000DD0C1A204638BDB0F90030B1F90020EB
:1054C000934200DA0280B0F90230B1F9022093422F
:1054D00000DA4280B0F90430B1F90420934200DDD3
:1054E0008280B0F90620B1F906108A4200DDC18041
:1054F000704770B5B1F90040B2F900309C4200DD50
:1055000023460380B1F90250B2F90240A54200DD02
:105510002C464480B1F90460B2F90450AE4200DA7E
:1055200035468580B1F90610B2F90620914200DBBC
:105530001146C1809D4201DBA14201DA002070BD0D
:10554000012070BD014602480068407C00F002B8AE
:10555000DC0200202DE9F843012689460446022892
:105560005DDA304F7A6802B190472E4D5FEA09004C
:1055700005F1100532D0012803D0B9F1020F4ED148
:1055800018E055F8240088B92046FDF78DFD0090FD
:1055900018B3C0680D21426A6846904702003ED0A9
:1055A00049460098904755F824000026401C45F8CD
:1055B000240034E02046FDF777FD009068B1C06814
:1055C0000D21426A68469047040028D0386800B12F
:1055D000804749460098A047002620E055F824005F
:1055E000A846012812D12046FDF75EFD009068B163
:1055F000C0680D21426A68469047050006D03868A9
:1056000000B1804749460098A847002658F8241062
:1056100009B1012200E00022891A48F8241030461E
:10562000BDE8F883A004002070B5FF23B3EB116F31
:105630002CD0C3B213FB02F500F47F4400F47F03C7
:1056400054435343000E10FB02F6C2F1FF00CAB2EE
:1056500012FB005201F47F4505FB004401F47F0575
:1056600005FB0033090E11FB0065C2F307204FF460
:105670007F024FF47F4102EA132201EA14214FF026
:105680007F43084303EA05431043184370BD2DE9E7
:10569000F04F0646DDE90CB915460C460020804661
:1056A000584519D20B9F4FF0FF0A01CE08CCAAEB48
:1056B000106202FB09F2B2FBFAF1CAB21946FFF717
:1056C000B3FF20F07F4001C57F1EEED1099804EBA7
:1056D000800408F10100E2E7BDE8F08F016811F8ED
:1056E000012B11F8013B016042EA0322104670478A
:1056F000016811F8012B11F8013B42EA032211F86D
:10570000023B42EA034211F8013C016042EA0362B3
:10571000104670470B88134403808B889B1A838044
:105720004B8813444380C988891AC18070470000A0
:1057300002494A694260486170470000D002002077
:105740002DE9F8430768064688460025384600F0EC
:1057500083F840B3404600F08FF8441C3846FDF70C
:10576000F7F984420CD1F4B13846FDF7FFF922462F
:1057700041460090FAF736FD6846FDF741FA11E020
:105780002046FDF71DF904000DD0FDF7EFF9414665
:105790000090FAF797FD6846FDF732FA3046FDF7BC
:1057A00057F9346001252846BDE8F88310B502E0BA
:1057B00000F8011B521E0AB18307F9D1930818D0D3
:1057C00001EB014402F0030204EB042406E010C0E4
:1057D0001B1F10C040F8084B40F8044C042BF6DAAD
:1057E00001E010C05B1E002BFBD102E000F8011BA2
:1057F000521E002AFAD110BD10B5830702D520F839
:10580000021B521E530811D001EB0144042B09DB8B
:1058100010C01B1F10C0042B40F8084B40F8044C6C
:10582000F6DA01E010C05B1E002BFBD1D20700D0DE
:10583000018010BD00B907A021B906A102E03AB16C
:10584000401C491C02780B789A42F8D0012070471E
:10585000002070470000000038B50D46012448B113
:10586000FDF784F929460090FFF7E4FF04466846F7
:10587000FDF7C6F9204638BD4FF0FF3128B100BF13
:1058800010F8012B491C002AFAD108467047000085
:1058900001480068704700000C02002010B50FF0AE
:1058A000EFFF0FF0E1FFBDE81040014800F002B843
:1058B000BCA5020870B5044612F0EEFB05460121B6
:1058C000284613F0E7FD50222146284611F01AFF22
:1058D000FF21284612F094FB04462146204611F091
:1058E0000FFF2046BDE87040014911F0B2BE000034
:1058F000494F02082DE9F04FADF5037D16461C46D1
:105900004FF00009002102910027F84D696100283D
:1059100028D1F7A13068FAF7BAFC4FF0B00B4FF07E
:10592000C00A4FF0BF08F0B1F3A13068FAF7AFFC3E
:10593000002859D0F2A13068FAF7A9FC00287DD0E0
:10594000F1A13068FAF7A3FC002878D0EFA1306805
:10595000FAF79DFC002873D0EFA13068FAF797FCA6
:1059600000286ED096E1206800783038092838D8B1
:10597000EBA17068FAF78BFC10B1C5F814A089E1AF
:10598000606800783038092828D82068FAF7B2FC17
:105990008DF80C006068FAF7ADFC8DF80D00C8209A
:1059A000E149CDE90010022303AA0321DF4804F0F6
:1059B000BFFD642068606868401E68600120FBF7D6
:1059C00024FD00F05BFE68680028F4DC686810B114
:1059D000C5F814B05EE1C52068615BE1C5F81480CC
:1059E00058E1C5F8148055E120680078303809285E
:1059F0003DD8CBA17068FAF74AFC10B1C5F814A0E5
:105A000048E160680078303809282DD82068FAF716
:105A100071FC8DF80C006068FAF76CFC8DF80D00D5
:105A2000C820C149CDE90010022303AA0421BF48C0
:105A300004F07EFD64206860686803E01AE083E09B
:105A4000E8E02FE1401E68600120FBF7DEFC00F07B
:105A500015FE68680028EFDC686810B1C5F814B05E
:105A600018E1C520686115E1C5F8148012E1C5F898
:105A700014800FE1206800783038092861D8ACA183
:105A80007068FAF704FC10B1C5F814A002E1606870
:105A900000783038092851D82068007830388DF8DF
:105AA0000000A548007810B907208DF80000206894
:105AB0006E46401C0222B11C04F018FA2068022233
:105AC000C01C711C04F012FA20680222401DF11C57
:105AD00004F00CFA022201A9606804F007FA606879
