:020000040801F1
:1000000008770320DD010108C9740108A16901080E
:10001000C5740108A30C01088997010800000000BD
:10002000000000000000000000000000EF010108D7
:10003000D91A010800000000F30101086D860108CB
:10004000F7010108F7010108F7010108F7010108AC
:10005000F7010108F7010108F7010108F70101089C
:10006000F7010108F7010108F7010108F70101088C
:10007000F7010108F7010108F7010108F70101087C
:10008000F7010108F7010108F7010108F70101086C
:10009000F7010108F7010108F7010108F70101085C
:1000A000F7010108F7010108F7010108F70101084C
:1000B000F7010108F7010108F7010108F70101083C
:1000C000F7010108F7010108F7010108F70101082C
:1000D000F7010108719701087D970108F7010108F0
:1000E000F7010108F7010108F7010108F70101080C
:1000F000F7010108F7010108F7010108F7010108FC
:10010000F7010108F7010108F7010108F7010108EB
:10011000F7010108F7010108F7010108F7010108DB
:10012000F7010108F7010108F7010108F7010108CB
:10013000F7010108F7010108F7010108F7010108BB
:10014000F7010108F7010108F7010108F7010108AB
:10015000F7010108F7010108F7010108F70101089B
:10016000F7010108F7010108F7010108F70101088B
:10017000F7010108F7010108F7010108000000007C
:10018000F7010108F7010108F7010108F70101086B
:10019000F7010108F7010108F7010108F70101085B
:1001A0008D720108F70101088D1A0108F701010895
:1001B00009810108F7010108F7010108F7010108A9
:1001C000F7010108F7010108DFF80CD000F084FB0B
:1001D00000480047999F0108087703200648804798
:1001E00006480047FEE7FEE7FEE7FEE7FEE7FEE71C
:1001F000FEE7FEE7FEE7FEE789860108C901010880
:1002000010B5441A0346944209D28318114403E0FE
:1002100011F8014D03F8014D521EF9D210BD40EA0C
:100220000104A40703D009E010C9121F10C3042A57
:10023000FAD203E011F8014B03F8014B521EF9D238
:1002400010BDD2B201E000F8012B491EFBD270476D
:100250000022F6E710B513460A4604461946FFF792
:10026000F0FF204610BD421C10F8011B0029FBD1F5
:10027000801A704730B504460020034600E05B1C3E
:10028000934203D2E05CCD5C401BF8D030BD034606
:1002900011F8012B00F8012B002AF9D118467047FC
:1002A0002DE9FE4F804681EA0300C00F0C46009006
:1002B00021F0004123F00045B8EB0200A94105D22E
:1002C0004046214690461C460B46024623F000401D
:1002D000104347D0270DC7F30A00C3F30A51029019
:1002E000401A019040286BDAC3F3130040F4801BDE
:1002F0000098924620B10023D2EB030A63EB0B0B6C
:1003000001985946C0F14002504600F0D8F906461F
:100310000D4650465946019A00F0F0F910EB0800DE
:100320006141002487EA115284EAE7731A4340D0FE
:10033000009A62B3019A012A4FEA075215DC001BAA
:1003400061EB02014FF0004202EA0752CDE90042A0
:10035000001C41F5801132462B4600F027FA03B00D
:10036000BDE8F08F40462146F9E7001B61EB020132
:10037000001C41F5801300185B412018A2F50017FE
:1003800047EB030140EAD570B6196D4111E06D08E5
:100390004FEA360645EAC0754FEA0752001B61EB8B
:1003A0000201001C41F5801149084FEA3000001994
:1003B000514132462B4603B0BDE8F04F00F0E7B99B
:1003C0000098012240000023D0EB020263EBE073AF
:1003D000009821464FEAE074B8EB000061EB04019D
:1003E000E9E783F000435BE781F0004158E72DE93E
:1003F000FE4F81EA030404F0004421F00041009420
:100400004FF0000B23F0004350EA01045ED052EAA3
:1004100003045BD0C3F30A54C1F30A552C44A4F27D
:10042000F3340194A0FB0254C1F3130141F4801191
:10043000C3F3130343F4801301FB024400FB034E98
:10044000840A970A44EA815447EA8357A4FB076861
:1004500002958D0A05FB07854FEA932C04FB0C548B
:100460002705029D4FEA065847EA1637B5EB0805FF
:100470006EEB070C870E920E47EA811742EA831251
:10048000A7FB0201B6EB0B0164EB00042B0D43EA62
:100490000C335E1844EB1C50DA465146E7FB020170
:1004A000C5F313044FEA0B3343EA14534FEA043203
:1004B000019C43EA0603A4F10C040294009CCDE9DC
:1004C00000B400F073F903B0BDE8F08F00200146DE
:1004D000F9E72DE9F04D81EA030404F0004B21F027
:1004E000004514464FF0000A23F0004150EA05028F
:1004F00020D054EA01021DD0C5F30A570246C5F3C5
:100500001303C1F31300C1F30A5640F4801543F4FA
:100510008013A7EB0608101BD64608F2FD3873EBD4
:10052000050002D308F1010801E092185B41B8F11F
:10053000000F03DA00200146BDE8F08D00204FF4E3
:100540008011064684460EE0171B73EB050705D3A2
:10055000121B63EB050306434CEA010C49084FEA02
:10056000300092185B4150EA0107EDD152EA0300D6
:1005700012D082EA040083EA0501084305D0101B6B
:10058000AB4106D20122002306E000224FF00043D7
:1005900002E06FF0010253101AEB06004CEB085119
:1005A00010EB0A0041EB0B01BDE8F04D00F0EFB895
:1005B0000EB5C10F80EAE0700844CA07002140F27E
:1005C00033438DE80E000A460B4600F0EFF803B007
:1005D00000BD00F0004230F000400AD0C10D01F52E
:1005E0006071C0F3160042EA0151C208400711438E
:1005F000704700200146704701F0004330B421F0FD
:10060000004150EA010206D00A0DA2F56072C1F362
:100610001301002A02DC30BC00207047440F44EA7A
:10062000C104C100E01830BC00EBC25000F078B843
:1006300030B50B46014600202022012409E021FAB2
:1006400002F59D4205D303FA02F5491B04FA02F5AF
:100650002844151EA2F10102F1DC30BD2DE9F05F46
:100660000546002092469B46884606468146402421
:100670001BE0284641464746224600F02FF85346E5
:100680005A46C01A914110D311461846224600F02E
:1006900016F82D1A67EB01084F462246012000216B
:1006A00000F00DF817EB00094E41201EA4F10104E3
:1006B000DFDC484631462A464346BDE8F09F202A03
:1006C00004DB203A00FA02F1002070479140C2F1A9
:1006D000200320FA03F3194390407047202A04DBDB
:1006E000203A21FA02F00021704721FA02F3D040AB
:1006F000C2F120029140084319467047202A06DBC8
:10070000CB17203A41FA02F043EAE07306E041FADF
:1007100002F3D040C2F120029140084319467047CD
:100720000029A8BF7047401C490008BF20F0010005
:10073000704710B4B0FA80FC00FA0CF050EA0104E3
:1007400004BF10BC704749B1CCF1200421FA04F475
:1007500011FA0CF118BF012121430843A3EB0C014E
:10076000CB1D4FEA00614FEA102042BF002010BCB1
:10077000704700EBC35010440029A4BF10BC704761
:10078000401C490008BF20F0010010BC704710B5A4
:10079000141E73F1000408DA401C41F100019218A4
:1007A0005B411A4301D120F0010010BD2DE9F04D4D
:1007B00092469B4611B1B1FA81F202E0B0FA80F2A2
:1007C00020329046FFF77BFF04460F4640EA0A00BE
:1007D00041EA0B0153465A46084313D0114653EAE7
:1007E000010019D0C8F140025046FFF777FF0546D7
:1007F0000E46504659464246FFF761FF084305D072
:10080000012004E020463946BDE8F08D0020054374
:1008100046EAE0762C4337430A986305E40AA0EBE6
:1008200008000022FD0A44EA47540A3002D500209D
:100830000146E9E7010510196941DDE9084500199C
:100840006941BDE8F04DA2E7C1F30A52C1F31301BB
:1008500040F2FF3341F480119A4202DA002001464F
:10086000704740F233439A42A2F2334202DC5242D2
:10087000FFF734BFFFF723BF30B5041E71F100044A
:1008800004DB4FF00044404264EB0101141E73F19D
:10089000000405DB1C464FF00043524263EB0403A7
:1008A0008B4208BF824230BD30B5041E71F1000496
:1008B00004DB4FF00044404264EB0101141E73F16D
:1008C000000405DB1C464FF00043524263EB040377
:1008D000994208BF904230BD064C074D06E0E068E3
:1008E00040F0010394E8070098471034AC42F6D377
:1008F000FFF76EFC103A0408403A040870B58C18F3
:1009000010F8015B15F0070301D110F8013B2A1123
:1009100006D110F8012B03E010F8016B01F8016B10
:100920005B1EF9D12B0705D40023521E0DD401F80C
:10093000013BFAE710F8013BCB1A921C03E013F8D5
:10094000015B01F8015B521EF9D5A142D8D300200A
:1009500070BD00002DE9FC47204D4FF0010945F81E
:10096000049F804600244FF0100A1D4F4FF6FF727F
:1009700005F12C0629463046C5E901A9EC60019431
:10098000B847012003F0A6F902202946C5E9000A6C
:1009900030464FF6FF72C5E90294B847082003219C
:1009A000C5E9001AC5E90204304629464FF6FF7230
:1009B000B8474FF40871042001914FF6FF72019976
:1009C000C5E9000AC5E9029130462946B8473046D4
:1009D0004146BDE8FC4705F054BD00BF400B012077
:1009E000A56401082DE9F04F85B080465F48816815
:1009F0004FF00C0B41F001014FF0030A816000271A
:100A00008168022401F00101594D00916E46009960
:100A1000DFF86091016841F480010160016801F430
:100A2000800100910099016841F0010101600168B5
:100A300001F0010100910099016841F00401016099
:100A4000016801F0040100910099016841F008017A
:100A50000160016801F0080100910099016841F00E
:100A600010010160016801F0100100910099016816
:100A700041F020010160016801F02001009100991E
:100A8000016841F0400101603146006800F040001B
:100A900000900098CDF810B04FF63F00CDF80CA0B4
:100AA00002970194009005F5A050C84701A831466F
:100AB00080E8900C802000902846C84701A8314665
:100AC00080E8900C3020009005F50060C84701A830
:100AD000314680E8900C48F23310009005F5C05084
:100AE000C84701A8314680E8900C4FF6837000900B
:100AF00005F58050C84701A8314680E8900C4CF2BB
:100B00000370009005F54060C8471B4D4FF400305E
:100B100005F12001194C81E88104C5E90B774FF4F8
:100B200080404FF480514FF480624FF40073C5E968
:100B300000478024C5E90243C5E90421C5E9060749
:100B40002846C8F83050C5F8388002F0F7FF28462C
:100B500003F01CF838200F21002204F0B9F83820E7
:100B600004F0A8F805B0BDE8F08F00BF30380240AF
:100B700000000240C13D0108BC0D0120106402408C
:100B80002DE9F04F8BB0DFF80491824699F8000010
:100B9000D9F808100969884700288AF8000070D041
:100BA00000260DF10E040DF1040B4FF00008C0B249
:100BB000804566D299F80000D9F80830A1190BEBEE
:100BC00006025B69984799F80100012808D1A15BEA
:100BD0000DF1220006AA81533BF8060090531FE056
:100BE000810705D5A15B0DF12202C1F5805191531A
:100BF000410705D53BF8061006AAC1F5805191536F
:100C0000000705D406A80DF12201805B895B07E08F
:100C1000A05B06A90DF1220288533BF80610915300
:100C200009EB4605EB682A6A5C1A38BFCC1A171A1A
:100C300038BF871ABFB217FA84F4062C03D30246D2
:100C40000B462862E96099F80040702C03D10AEB4A
:100C5000060251800AE0B9F802100AEB0600594377
:100C6000090B4180B9F804005043000B0AEB060160
:100C70000DF10E04888102369AF8000008F101088F
:100C800095E700200BB0BDE8F08F00BFB80A012047
:100C900000F00F01000900EB800001EB4000C0B242
:100CA000704707F0A9BB0000F0B589B0DFF84073CA
:100CB00097F86500000640F19981DFF83853DFF8B6
:100CC000386328463146012205F05EFADFF82C43EE
:100CD00028462146012205F02BFA797DBA7D30782D
:100CE00091420FD20021904238BF01210846FFF700
:100CF000CFFF28B13078FFF7CBFF797D884217D23C
:100D0000796E0EE0FFF7C4FF797D884210D230780B
:100D1000FFF7BEFFBA7D796E904202D241F4001116
:100D200009E0880208D5062021F40011387002E09D
:100D3000786E40F40011796601F41810B0F5181FB0
:100D400040F08B80480203D52078FA7E82423ED064
:100D500041F48000786600200DF0BAFB00200DF011
:100D60006BFD0CF094FA00200DF024FC01200DF036
:100D7000AFFB01200DF060FD4FF07F400DF074FDE2
:100D80000CF085FA9E483C2141702078F8760920C5
:100D90000DF0BEFD4FF47F400DF068FD9A4D4FF40D
:100DA000C87014214FF4E1721423A8474FF4C8709F
:100DB00028214FF4E1722823A8474FF4C8703C2142
:100DC0004FF4E1723C23A84701200DF0F3FB01AD85
:100DD00031462846022205F0E5FDB078711C02225A
:100DE000C0074FF03A0008BF20208DF80600E81C2D
:100DF00005F0D8FDF02088210CF0B0FF787C834905
:100E000051F820000DF032FD81480DF033FD0E2029
:100E10000DF086FD01200DF05BFB002050214FF40A
:100E2000F072C0230CF042FA0020DC2164224FF45F
:100E300087730CF03BFA28460CF0A6FB20780728B5
:100E400058D8DFE800F0043B3F43474B4F060720EC
:100E500020708248019081A047E0694970784A7803
:100E6000824200F0AC8001AD487028463146022233
:100E700005F098FD3A20711C8DF80600E81C02224E
:100E800005F090FD5F480DF0F5FC6FF07F400DF030
:100E9000EDFC02200DF04EFD0C200DF041FD012077
:100EA0000DF016FB0520F5210CF058FF0020DC2189
:100EB00064224FF487730CF0F9F97AE064480190EA
:100EC00063A012E05F4801905EA00EE05A480190D6
:100ED00059A00AE05548019054A006E050480190FE
:100EE0004FA002E04B4801904AA04168008902915E
:100EF000ADF80C0005F10A00A11C022205F052FD1C
:100F00006078013811283AD8DFE800F0090B0D0F9E
:100F100015191D2125393939393939292D316D48AE
:100F200004E06B4802E0694800E0674801684268F5
:100F30000491059220E06148049060A01AE05C48AA
:100F400004905BA016E05748049056A012E0524867
:100F5000049051A00EE04D4804904CA00AE048488F
:100F6000049047A006E04348049042A002E03E48B7
:100F700004903DA0416805910089ADF8180030202B
:100F8000E11C8DF81C0043F22020ADF81A0005F199
:100F90001900022205F006FD2E20ADF81F004E4874
:100FA0000DF068FCF020CE210CF0D8FE0E200DF0E4
:100FB000B7FC01A80CF0E8FA01200DF0FBFA20784C
:100FC000F97E814212D0A2780A4DF876434E284627
:100FD0000221B047627828460321B047227828468C
:100FE0000421B047E27828460521B04709B0F0BD9A
:100FF000C80C0120840C01206C0C0120300C012055
:1010000038070120B86A030885D90108A834040804
:1010100090B20308205361747572646179200000F6
:10102000202046726964617920200000546875723E
:1010300073746461792000005765646E6573646140
:101040007920000020547565737464617920000074
:1010500020204D6F6E6461792020000020205375A0
:101060006E646179202000002E20446563656D6206
:10107000657200002E204E6F76656D62657200000D
:101080002E204F63746F6265722000002E536570CE
:1010900074656D62657200002E204175677573740A
:1010A000202000002E2020204A756C79202000008E
:1010B0002E2020204A756E65202000002E20202042
:1010C0004D61792020200000B0390408A4390408BB
:1010D000C8390408BC390408884C03087F6001083B
:1010E000B0B50F4C0F4D606BA847A06BA847E06BE5
:1010F000A847206CA847606CA847A06CA847E06C84
:10110000A847206DA847606DA847A06DA847E06D6F
:10111000A847206EA847606E20F400706066B0BDDE
:10112000C80C0120513402081CB50CF01FFE1748F2
:101130000DF0DEFA012012F09BFE0DF043FD0020C1
:101140000DF07AFB0CF0A3F801200DF075FB4FF0C9
:101150007F400DF089FB0CF09AF801A830210422A1
:1011600000F0ECFC9DF804109DF805209DF8063079
:101170009DF80740064880F8661080F86A2080F8DD
:101180006E3080F872400CF097FC1CBDCD740108E5
:10119000440D01202DE9F04F85B0002000270DF00F
:1011A0004BFB0CF074F8012001240DF045FB4FF0CF
:1011B0007F400DF059FB0CF06AF801200DF088F922
:1011C000DFF85464DFF854143046012204F0DCFFE9
:1011D000DFF84C143046012204F0AAFF02214FF43C
:1011E0000160CDE9007102A94FF05A0881E81101B0
:1011F000DFF830440A2014215A221E23A047A146BA
:10120000DFF82444DFF8245402216061A847DFF8A6
:1012100020A460699AF81210DFF81864B04740F60D
:1012200011004FF0020B00973C21CDE901B00120E5
:101230005A22CDE903080A201E23C8470221A061D3
:10124000A8479AF81310A069B04740F61201F020A1
:10125000CDE9007B02910121CDE903100A20822112
:101260005A221E23B046C84702214E46E061A847D5
:101270009AF81410E069C047022140F6130001916A
:1012800002A94FF0170B009781E881080A20AA21D4
:101290005A221E234FF00209B04702212062A847BC
:1012A0009AF81510206AC04740F6140002A9CDE94B
:1012B000007981E881080A20D2215A221E234FF0AA
:1012C0000209B04702216062A8479AF81610606AC6
:1012D000C04740F6160002A9CDE9007981E88108EF
:1012E000BE2014215A221E23B0470221B046CAF85C
:1012F0007000A847C948A9460078CF4DDAF8706059
:10130000A847AB4601463046CA4DA8473B2040F6A9
:10131000170102220097CDE90121CDE90370BE201B
:101320003C215A221E23C0470221CAF87400C84734
:10133000BA48DAF874604078D84701463046A84782
:101340001F2040F6180102224FF0010900971E23CA
:10135000CDE90121CDE90390BE2082215A22C04768
:101360000221DFF8C8B2CAF87800D847DFF8B082A7
:10137000DAF8785098F80200DFF8BCA2D0470146AE
:101380002846AC4EB0470C2040F6190102220097C7
:10139000CDE90121CDE90390BE20AA215A221E23C6
:1013A000DFF88092C84702212060D84798F80100F2
:1013B0002568D04701462846B04740F633004FF431
:1013C000FA6140F61A0202230097CDE90132CDE915
:1013D0000310BE20D2215A221E23C847022160607A
:1013E000D84798F803006568D04700F5FA612846A9
:1013F000B0471C2040F6150102254FF0010A009766
:101400005A22CDE90151CDE903A04FF4AA7014216D
:101410001E23B046C8470221A060D847844EA0686A
:10142000717CC04740F61C004621CDE900704FF4A6
:10143000AA706E2214230295022509F0C8FD4FF40C
:101440007F41E06009F0F0FEE0687CA109F0C8FE91
:10145000716EE068C1F3804109F0A6FE40F61F00FE
:101460006421CDE90075CDE902A04FF4AA70822273
:1014700064230AF06DF874A52061072F06D055F893
:10148000271009F078FF01372069F6E764490978E9
:1014900001390AF034FA022540F60100CDE90005D1
:1014A0004FF4AA70B42182221E2309F08DFB6D49EE
:1014B000E06209F00DFD4FF40060E621CDE9000582
:1014C0004FF4AA7082221E2309F07EFB6649A062B7
:1014D00009F0FEFC707C654951F820000DF0C6F95A
:1014E0004FF4AA7033214FF4D7723B230CF00CFB5E
:1014F0006FF07F400DF0BAF95D480DF0BBF90C209C
:101500000DF00EFA5B4F0F200521A022B8475A4D6F
:101510000A200521A84759A05D4EB0476E2023211F
:10152000A8475CA0B0476E204B21A8475BA0B047FE
:101530000F20B9214FF4A072B847BE200521A8475B
:1015400057A0B0474FF491702321A847574C20462D
:10155000B0474FF491704B21A84755A0B0470F20DA
:1015600040F24F1140F2DB12B8474FF4AA70052148
:10157000A84751A0B0474FF4DC701A21A84751A0EA
:10158000B0474FF4DC702621A84750A0B0477D201B
:101590000521A022B8470A207321A8474DA0B047D3
:1015A0006E209121A84750A0B0476E20B021A847D7
:1015B0004FA0B0476E20BC21A8472046B0476E2000
:1015C000D821A8474CA0B0476E20E421A847204668
:1015D000B0477D20B9214FF4A072B847BE207321D7
:1015E000A84747A0B0474FF491709121A84747A062
:1015F000B0474FF49170B921A84745A0B0474FF4C8
:101600009170E121A84744A0B047012005B0BDE892
:10161000F04F0CF0CFBF00BF840C01206C0C0120F8
:10162000300C012097280208440D0120EB2A020803
:10163000C80C01203F2B0208910C0108534352456E
:10164000454E5341564552001538040819380408D0
:101650000B380408383804083C3804088737040875
:10166000AA37040878380408ED370408A8340408B9
:1016700060F9020839D901085DDD01084449535079
:101680004C4159204241434B4C49474854000000CB
:1016900089D5010848494748000000004C4F5700D1
:1016A0005345542054494D45000000001D3804089E
:1016B0004D494E555445000053455420434F4C4F1F
:1016C0005200000046554C4C00000000434C4F4374
:1016D0004B00000053435245454E5341564552205E
:1016E0004F5054494F4E000054494D454F555400FA
:1016F000454E41424C45000044495341424C45004F
:1017000053455420444154450000000044415900D1
:101710004D4F4E5448000000594541520000000012
:101720002DE9F041764C064620461021012202F0B8
:1017300009FC012002F0CEFA20461021002202F01E
:1017400001FC6FF07F400DF091F86E480DF092F8BB
:1017500002200DF0EFF80E200DF0E2F84F2E18BF2A
:10176000422E2FD1642000214FF4B972322300257C
:101770000BF09CFD4F2E4ED0422E40F0B480634EB5
:10178000DFF88481B079002508EB0001002881F89A
:10179000605000F0A380013800273224B071C1B23C
:1017A0008F4280F09C80EB2014210CF0D7FA07FBCD
:1017B00004F00F22823001B22A200BF09FFEB07994
:1017C0000137ECE7A6F13000092822D84F4CA07968
:1017D00030B9642000214FF4B97232230BF066FD5A
:1017E0000C200DF09DF8A079042808D8822132221F
:1017F00010FB02112A200F220BF080FEA079424933
:10180000014481F86060411CA171C9B2062928BF5A
:10181000A071002567E03D4E3B48B17980F86550E6
:10182000603006F0FBFE0546EB2014210CF096FA22
:1018300042F20F7085421ED14FF47F400DF016F832
:1018400039A00BF0A1FE706E102140F480500122EF
:101850007066204602F076FB4FF4FA7002F03AFA16
:1018600020461021002202F06DFB4FF47A7002F046
:1018700031FA022537E0EB2014210CF06FFAFF203B
:101880000CF0F4FF22A00BF07FFE254E2046102125
:101890000122B047234F3220B847204610210022B2
:1018A0000025B0476420B847204610210122B047E8
:1018B0003220B847204610210022B0476420B847A4
:1018C000204610210122B0473220B847204610217F
:1018D0000022B0474FF47A70B84704E0002058FA6D
:1018E00080F080F8605000200DF024F802F038FB02
:1018F000064947F23052C1E90B022846BDE8F081A3
:10190000000C0240884C0308440D0120C80C012043
:1019100057524F4E472050415353574F52440000A7
:10192000453F0108D53C01085345525649434520DF
:1019300050415353574F5244204F4B0070B5284CE1
:10194000284E6069B047A069B047606AB047A06898
:10195000B047206AB047E069B047E068B047206907
:10196000B0472C4D686FB0472068B047E06AB04779
:10197000286FB0476068B047A86FB047A06A31468B
:10198000BDE87040084700BFB0B5154C154DE06A82
:10199000A847A06BA847E06BA847206CA847A06A9F
:1019A000A847606BA847206B2946BDE8B0400847B0
:1019B000B0B50B4C0B4DE06CA847206DA847E06A12
:1019C000A847606CA847A06CA847A06DA847E06D29
:1019D000A847A06AA847606D2946BDE8B0400847FF
:1019E000440D01205134020810B50A4C606E00F419
:1019F0000811B1F5081F01D10621217020F48400DF
:101A0000606602F0ADFA2062A07CBDE8104000F0F4
:101A100003B800BFC80C0120502828BF502005285B
:101A200098BF052000EB8000024940000968486328
:101A3000704700BFE06E012080B501200CF048FD2A
:101A4000C32091214FF4A072EB230BF02FFC6FF019
:101A50007F400CF00BFF0B480CF00CFF00200CF04B
:101A600069FF01200CF05CFFC82096210CF076F98C
:101A700005480221807A0BF049FD0120BDE8804035
:101A80000CF098BD00790308D00B012080B5034805
:101A900001F070FF02480221016080BD146D012039
:101AA00008B0024010B501686FF00F0252FA81F2DF
:101AB0001823B2FBF3F306A45F2AE35C40F2FF3481
:101AC00021EA040188BF0431C0E91613084610BD9D
:101AD0000006101600061016704781B00021009114
:101AE000C1B20A2904D300990A3801310091F7E7FD
:101AF000009909010091009951FA80F00090009836
:101B0000C0B201B0704705F0B9B880B5FFF7FBFF70
:101B1000A02040F6B83100F009F828B1A8209121A2
:101B2000BDE8804000F096B880BD00000A4601463E
:101B300040484FF47A7302F099BA00BF80B513465B
:101B40000246A02000F002F880BD00001CB50C4643
:101B500099B2CDE90021C1B236482246022305F0F0
:101B600007F91CBD2DE9F8430C46054602F03F0875
:101B7000960911F03F001DD01746C0F1400936B359
:101B8000284621464A4600F057F8E8BBA7EB090073
:101B90004D4400F03F0780B24C448609300435D0F4
:101BA000A1B22846402200F047F868BB013E40350C
:101BB0004034F3E7E6B130041DD0A1B228464022FC
:101BC00000F03AF800BB013E40354034F3E7B94538
:101BD0000ED2284621464A4600F02EF8A0B909EB5D
:101BE0000401A7EB090205EB090089B292B208E0F3
:101BF0002846214604E0B8F1000F0CD0A1B22846D7
:101C0000424600F019F830B1BDE8F8831FB1A1B227
:101C100028463A46F5E70020BDE8F8831CB50C4697
:101C200099B2CDE90021C1B202482246022305F053
:101C3000D1F81CBDA06D012080B513460246A0203E
:101C4000FFF7ECFF00B180BDA02040F6B831FFF7F0
:101C50006DFF80BD06F0D0BB2DE9F0410B68026836
:101C6000012B1ED1D1E9073422F4F84201F10C0C0A
:101C70001A43D1E901E8496A224311439CE8E01084
:101C80004268016047F6FF7122EA010141EA0E0154
:101C900041EA080129433143394341EA0C014160DB
:101CA00017E047F6FF730F1D22EA030CD1F82080DE
:101CB000F8CFD1E9062E43EA0C03496A23432B43AC
:101CC00033433B431A4342EA0E0242EA08021143FD
:101CD00001600020BDE8F081426942EA41014161B2
:101CE00000207047F8B5054600200090144691E8A2
:101CF0000D006FF01F06C96806EB4313104318432D
:101D000040EA412000900098286102F029F9064637
:101D1000671CA869800609D5002FFAD024B102F00B
:101D20001FF9801BA042F4D90320F8BD0020F8BDA4
:101D3000F0B58368012A27D1294A1A4091E8781022
:101D4000D1E9057E2349013B01EB06311143234ACA
:101D500002EB07521143C26881606FF00F0102F07D
:101D6000704201EB04111A4311436FF0FF0202EBC2
:101D700005221143184A02EB0C421143AEF1010255
:101D800041EA0261C16022E091E874006FF00F0740
:101D900003F07043013A07EB04141A436FF0FF039A
:101DA000224303EB05231A430A4B03EB06330A4C89
:101DB0001A430B6904EB0343084C1A434B6904EBC9
:101DC000035389691A43013942EA016181600020A5
:101DD000F0BD00BF00F0FFFF0000FFFF0000F0FFBC
:101DE000FF0F0FFF70B5494E0546307A0C46C0070D
:101DF00013D005F0E3FA2289F168606806F0BBF8B9
:101E000018B10020C6E9030003E02089F168084406
:101E1000F06005F0D3FA06F017F82846214606F0E0
:101E20006FFE02F09DF87061012070BD70B5374EF5
:101E30000546307AC00767D148680C46417A0229C6
:101E400015D1F278017A914212D1016809BAF16094
:101E5000406800BA306105F0B1FAD6E903010144E7
:101E600005F0AAFFE0B30020C6E9030048E0F278DD
:101E70004178914211D10278A13A1F2A0DD801234D
:101E800003FA02F2224B1A4207D02846214606F0F6
:101E900037FE60680078B07036E0FF2934D10178F1
:101EA000D52931D18178C27803794579194C2170CF
:101EB0001949E570194DA2706370C2880A80012229
:101EC000007A8870284604F035FA28462146012217
:101ED00004F0DCF91248016841F40041016013E0AC
:101EE000B068114A40F001000221B0600D4806F0D0
:101EF00002FD2846214606F003FE02F031F870612B
:101F000005F05CFA05F0A0FF012070BDE80B012090
:101F100001000083300C01206C0C0120840C012096
:101F20002C0D012008700120E51D010802484FF426
:101F300000110AF0E5BD00BF000060C006490A6854
:101F400010440A689042FCDC704700BF70470000F4
:101F500001480068704700BF7C0E01207047B8B18F
:101F600010B504460068216C41F0020121648168CB
:101F700021F0010181608068C00705D1204600F092
:101F80000CF8002060642064002084F83C0010BD40
:101F9000012070470068C06C704770477047B0B54B
:101FA00098B10446407F022502280FD065770025AE
:101FB0002068816841F00101816001790571204646
:101FC00000F006F82577657700E001252846B0BDCA
:101FD00070477047704770477047704790F83510EA
:101FE000022909D1052180F835100068016821F027
:101FF0000101016000207047802141650120704788
:10200000000000000000000017112031000001084E
:102010002DE9F04F89B001F0A3FFDFF8745FE969A3
:10202000401A642804D301F09BFFE8610BF044FDE3
:10203000DFF8601FDFF8606F09783078C9071BD1BF
:10204000022840D0012802D1002028623070287870
:102050000138082800F28680DFE810F009008700C8
:1020600004014D029702A902CA02DD032B04686A2B
:10207000002841F0328033E0002841F076800120D2
:10208000307001200CF024FA0BF001F9DFF80C0F8E
:102090000CF0F0FB4AF2FF500CF0E8FB02200CF0D1
:1020A00049FC0E200CF03CFCF02087210BF056FE82
:1020B0000FF6EC600BF068FA01200CF07BFAFFF7EA
:1020C00093FC01F052B80BF0E2F80020DFF8F41EA8
:1020D00068620122307040F2011081F86820288087
:1020E00001F03EFF686201200CF0F2F90BF0CFF82E
:1020F00009200CF00DFCDFF8CC7E697897F86800B9
:1021000071B168B9BE2050214FF49172B4230BF025
:10211000CDF8012487F868404FF47F4000F065BC9B
:1021200069B160B1BE2050214FF49172B4230BF01D
:10213000BDF80024FF2087F8684000F056BC50EA44
:10214000010200F04984002940F05D84002800F07D
:102150005A84BE2050214FF49172B4230BF0A6F89C
:102160000124D9E7002028711EE2A878002840F059
:10217000B4870120A87001200CF0AAF90BF087F8B1
:1021800009200CF0C5FBFF200CF070FBDFF8384E87
:1021900014208821DC228823A0474FF482708821F4
:1021A0004FF4E6728823A047F0201421F022742314
:1021B000A047F0209C21F022FC23A047DFF80C0E62
:1021C000DFF80C4E50211722A047DFF8080E4FF41D
:1021D000A0711722A047DFF8000E50219F22A047D0
:1021E000DFF8F80D4FF4A0719F22A047DFF8AC0D87
:1021F0000CF040FB4AF2FF500CF038FB02200CF0D0
:1022000099FBDFF8DC4D0E20A047DFF8D86D782071
:102210007821B047DFF8D00DDFF8D07DB8470E2029
:10222000A0474FF4B4707821B047DFF8C40DB84729
:102230000E20A0477820FA21B047DFF8B80DB84744
:102240000E20A0474FF4B470FA21B047DFF8A80D74
:10225000B84701200CF0AEF900206871A5F8030022
:1022600000F03BBF2879012800F05D86002840F08F
:102270003487012028710020A87100200CF0DCFABE
:102280000BF005F801200CF0D7FA4FF07F400CF06E
:10229000EBFA0AF0FCFF01200CF01AF9022440F6D8
:1022A0000200CDE90004DFF8546D642032213C22A5
:1022B0003C23B047A86340F60300CDE90004AA2000
:1022C00032213C223C23B047E86340F60400CDE9CC
:1022D0000004F02032213C223C23B047286440F621
:1022E0000500CDE900044FF49B7032213C223C23D1
:1022F000B047686440F60600CDE900046420782108
:102300003C223C23B047A86440F60700CDE9000416
:10231000AA2078213C223C23B047E86440F608001C
:10232000CDE90004F02078213C223C23B047286509
:1023300040F60900CDE900044FF49B7078213C225F
:102340003C23B047686540F60A00CDE90004AA20A6
:10235000BE213C223C23B047A86540F60B07F02085
:10236000BE213C223C23CDE90074B0476863642061
:10237000BE213C223C23CDE90074B047286640F6DC
:102380000C00CDE900044FF49B70BE213C223C239D
:10239000B047E865DFF8044C686BDFF8646C2146F1
:1023A000B047A86B2146B047E86B2146B047286C80
:1023B0002146B047686C2146B047A86C2146B0471B
:1023C000E86C2146B047286D2146B047686D21462C
:1023D000B047A86D2146B047DFF8284CE86D21468C
:1023E000B047286E2146B047686B0FF61C41DFF8F6
:1023F0001C4CA047A86B0FF61841A047E86B0FF6DE
:102400001441A047286C0FF61041A047686C0FF6E6
:102410000C41A047A86C0FF60841A047E86C0FF6E6
:102420000441A047286D0FF60041A047686D0FF6E4
:10243000FC31A047A86D0FF6F831A047E86D0FF604
:10244000F431A047286E0FF6F031A047EB2014219D
:102450000BF084FC6FF07F400CF008FADFF8DC0B27
:102460000CF008FA02200CF065FA0E200CF058FA75
:10247000DFF8CC0B0BF088F801200CF09BF8686EAD
:1024800040F40070686601F06BFDE862DFF8340B21
:1024900060300021062208F01DFB09200CF038FAFC
:1024A0004FF47F400CF0E2F9DFF81C4B4FF4C8709A
:1024B00014214FF4E1721423A0474FF4C87028216F
:1024C0004FF4E1722823A0474FF4C8703C214FF429
:1024D000E1723C23A04747F2305006AC2863204607
:1024E0000CF0D8F8002800F0F88506F01BFF142047
:1024F0000AF0ECFFF3E76879012800F02E85002848
:1025000040F0EB8501200024687100200CF094F964
:1025100000200CF0ABF90AF0BAFEDFF8DC0E002167
:1025200000220AF08DFD01200CF086F94FF07F406B
:102530000CF09AF90AF0ABFE09200CF0E9F94FF41F
:102540007F400CF093F9DFF8806A4FF4C8701421D3
:102550004FF4E1721423B0474FF4C87028214FF4B0
:10256000E1722823B0474FF4C8703C214FF4E17268
:102570003C23B047FFF760FAFEF796FBAC60686E4D
:1025800040F48010686600F0A8BD287C012800F0A7
:102590005985002840F0A185012028740AF077FEB3
:1025A00000201E212871A966688000F096BD0020D9
:1025B00000240CF041F900200CF058F90AF067FEF5
:1025C000012001260CF038F94FF07F400CF04CF957
:1025D0000AF05DFE95F86500800701D5FEF780FDE5
:1025E000C5F802402C746C62AC602E7000F075BDB2
:1025F000DFF8D04E286F267810F066FAC0B2FFF7E9
:102600006CFA864210D0286F10F05EFAC0B2FFF765
:1026100064FA2070DFF8B00E2146012203F08AFE32
:10262000686E40F4004068666678686F10F04CFA97
:10263000C0B2FFF752FA864210D0686F10F044FA29
:10264000C0B2FFF74AFA6070DFF87C0E2146012223
:1026500003F070FE686E40F400406866DFF86C4E70
:10266000A86FA67810F030FAC0B2FFF736FA8642AB
:1026700010D0A86F10F028FAC0B2FFF72EFAA070A1
:10268000DFF8440E2146012203F000FE686E40F49C
:1026900000406866DFF8646D6778306810F014FAFF
:1026A000C0B2FFF71AFA874210D0306810F00CFA67
:1026B000C0B2FFF712FA6070DFF80C0E214601225B
:1026C00003F0E4FD686E40F400406866E7787068E7
:1026D00010F0FAF93030C0B2FFF7FFF9874211D09D
:1026E000706810F0F1F93030C0B2FFF7F6F9E07021
:1026F000DFF8D40D2146012203F0C8FD686E40F4D6
:10270000004068666F7CB06810F0DEF9B84212D005
:10271000B06810F0D9F96874C0B2DFF8B41D51F890
:1027200020000CF0A3F84FF4AA7033214FF4D772B5
:102730003B230BF0E9F9F06808F028FD696E0128E9
:1027400021F4802208BF41F48022277830696A662C
:1027500009F0BDF80130C0B2FFF7BFF9874211D0D0
:10276000306909F0B4F80130C0B2FFF7B6F9207053
:10277000DFF8540D2146012203F088FD686E40F415
:10278000004068667069DFF8804CA047A874B069A3
:10279000A047E874F069A0472875306AA0476875BB
:1027A000706AA047A875B068A0476874B06A08F05E
:1027B00069FB002800F04881E87D30B100207021DD
:1027C000E875DFF83C0C05F0FDFE05F0E1FEA97CA4
:1027D000EA7C687C2B7D8DF8182007228DF8191073
:1027E000B5F815108DF81A30ADF81B100A218DF8C8
:1027F0001D00686EC0F380408DF81E0006A8FFF72C
:10280000B1F9DFF8000C20210122FFF7ABF9FFF747
:1028100095F800F060BCDFF8E44BDFF8EC6B206B60
:10282000B047DFF8E01B0870606BB04784F86600C3
:10283000A06BB04784F86A00E06BB04784F86E0084
:10284000206CB04784F87200A06A08F01BFB0028D7
:1028500000F0F081E87D30B100207021E875DFF8EC
:10286000A00B05F0AFFE05F093FEA97CEA7C687C26
:102870002B7D8DF8182007228DF81910B5F815104A
:102880008DF81A30ADF81B100A218DF81D00686E06
:10289000C0F380408DF81E0006A8FFF763F9DFF84B
:1028A000640B20210122FFF75DF9FFF76DF800F0BE
:1028B00012BCDFF84C6BDFF8444B3778606C0FF0DC
:1028C000BFFBB84206D0606C0FF0BAFB3070E87DF9
:1028D0000130E875B77BA06C0FF0B2FBB84206D0B0
:1028E000A06C0FF0ADFBB073E87D0130E875377B6D
:1028F000E06C10F0E9F8B84206D0E06C10F0E4F8B3
:102900003073E87D0130E875777B206D10F0DCF8DE
:10291000B84206D0206D10F0D7F87073E87D013012
:10292000E875377C606D10F0CFF8B84206D0606D66
:1029300010F0CAF83074E87D0130E875777CA06D3E
:1029400010F0C2F8B84206D0A06D10F0BDF8707457
:10295000E87D0130E875B77CE06D10F0B5F8B8425D
:1029600006D0E06D10F0B0F8B074E87D0130E87585
:10297000A06A08F087FA002800F0C982E87D30B12B
:1029800000207021E875DFF8780A05F01BFE05F0DD
:10299000FFFDA97CEA7C687C2B7D8DF8182007223E
:1029A0008DF81910B5F815108DF81A30ADF81B1008
:1029B0000A218DF81D00686EC0F380408DF81E005E
:1029C00006A8FFF7CFF8DFF83C0A20210122FFF725
:1029D000C9F8FEF7EDFF7EE3BE2050214FF491725F
:1029E000B4230AF063FC0024FF200BF03FFFF0202B
:1029F0008821322232230AF09FFE8D484FF4805105
:102A0000224601F09FFADFF8044B4FF4C8701421FE
:102A10004FF4E1721423A0474FF4C87028214FF4FB
:102A2000E1722823A0474FF4C8703C214FF4E172B3
:102A30003C233C27A04701200BF0BCFD0020777011
:102A400028716880A86247E3F06A08F01BFA002842
:102A500000F04383FEF772FF002000270BF0ECFE2E
:102A60000AF015FC012001240BF0E6FE4FF07F4038
:102A70000BF0FAFE0AF00BFC01200BF029FDFE2002
:102A80004FF402614FF00208DFF89C99CDE900781D
:102A9000CDE9021404900A200A215A221E23C847B5
:102AA000DFF888A902213063D047DFF85809DFF842
:102AB00080B90178306BD84740F621001824CDE961
:102AC0000078CDE902070A2032215A221E230494FD
:102AD000C84702217063D04796F86610706BD847DC
:102AE00040F623005A21CDE90078CDE902070A20FB
:102AF0005A221E230494C8470221B063D04796F897
:102B00006A10B06BD84740F624008221CDE90078E6
:102B1000CDE902070A205A221E230494C847022145
:102B2000F063D04796F86E10F06BD84740F625005A
:102B3000AA21CDE90078CDE902070A205A221E23F6
:102B40000494C84702213064D04796F87210306C64
:102B5000D84740F601008C21CDE900084FF4AA7057
:102B60008222322308F030F8DFF8C818F06208F04B
:102B7000AFF94FF40060C821CDE900084FF4AA7006
:102B80008222322308F020F8DFF8AC18B06208F097
:102B90009FF96FF07F400BF069FEDFF8A0080BF0A3
:102BA00069FE0C200BF0BCFEDFF894686E200E214D
:102BB000B047DFF82009DFF89078B8476E201A2177
:102BC000B0470FF61410B8476E203621B047DFF833
:102BD0001009B8476E204221B047DFF80849204667
:102BE000B8476E205E21B047DFF8FC08B8476E207A
:102BF0006A21B0472046B8476E208621B047DFF8EB
:102C0000EC08B8476E209221B0472046B8476E20A6
:102C1000AE21B047DFF8D808B8476E20BA21B047D8
:102C20002046B84701200BF0C5FC082054E200BF45
:102C300000080240E06A08F025F9002800F04D8203
:102C4000FEF7A2FE00204FF0000B0BF0F5FD0AF09E
:102C50001EFB01200BF0F0FD4FF07F400BF004FE57
:102C60000AF015FB01200BF033FC4FF01409032090
:102C70004FF403610222CDE900B2CDE902B1CDE902
:102C800004090A201421962250230FF0FCF84FF477
:102C90007F4160640FF009FA606C0FF27071DFF829
:102CA00070670022B047606CDFF868170122B047F8
:102CB000606CDFF864170222B047DFF84407017840
:102CC0008046606C0FF008FA40F631000221CDF822
:102CD00000B09622CDE9011BCDE903010A2096211F
:102CE00050230227CDF814900FF0CDF84FF47F4118
:102CF000A0640FF0DAF9A06CDFF820170022B047CB
:102D0000A06C0FF21C710122B04798F80E10A06C55
:102D1000C1460FF0E1F928214FF00F0A40F63200CA
:102D20005A22CDE900B7CDE9020A0491DFF8F8761E
:102D30006E2014211E23B847DFF8F0660221E064FC
:102D4000B04798F80C10E06CDFF8E486C04740F616
:102D500033000221CDF800B05A22CDE9011028201D
:102D6000462104906E201E23CDF80CA0B847022106
:102D70002065B04799F80D10206DC04740F634002B
:102D80000221CDF800B05A2201919621CDE9020B23
:102D90000A201E2304906E20C2464FF00208B84756
:102DA00002216065B04799F81010606DD04732205D
:102DB00040F63501CDE900B8CDE9021B04906E2044
:102DC000BE215A221E23B8470221A065B04799F8B8
:102DD0001110A06DD047642040F63601CDE900B84F
:102DE000CDE9021B04906E20E6215A221E23B8472B
:102DF0000221E065B04799F81210E06DD04740F627
:102E000001008C21CDE900084FF4AA708222322300
:102E100007F0DAFEDFF81C16E06208F059F84FF40C
:102E20000060C821CDE900084FF4AA708222322345
:102E300007F0CAFEDFF80016A06208F049F86FF04C
:102E40007F400BF013FDDFF8F4050BF013FD0C20B1
:102E50000BF066FDDFF8E865D2201821B047DFF8F7
:102E6000E405DFF8E475B847D2202421B047DFF845
:102E7000DC452046B847D2204A21B047DFF8D005CC
:102E8000B847D2205621B0472046B847D2209A21D1
:102E9000B047DFF8C005B847D220A621B0470FF2EF
:102EA000B850B847D220C221B0470FF2BC50B84743
:102EB000D220CE21B047DFF8C4452046B847D22003
:102EC000EA21B0470FF2B850B847D220F621B047F8
:102ED0002046B8470A200421B0470FF2B850B8473F
:102EE0000A207821B0470FF2C450B8470C200521C2
:102EF0004FF4A0720AF020FD822005214FF4A07249
:102F00000AF01AFD01200BF055FB0920E4E0E06A0D
:102F100007F0B8FF002800F0E080FEF749FDFEF75B
:102F200039F90720D8E001F01BF8D5E90B12401A57
:102F3000904280F0CE80686B07F0A4FF002800F07C
:102F40006A81686B07F09EFF002800F0628106F03E
:102F5000E9F914200AF0BAFAF3E7297B687B002923
:102F600000F00681002840F0038101206873DFF83B
:102F70009004817A027B914201D201318172DFF8A3
:102F80008004702105F01EFBFEF756FDF4E000BF43
:102F9000C80C0120F00B012038070120884C0308E1
:102FA0004649524D574152452055504441544520C1
:102FB00052554E0A0D504C454153452057414954F6
:102FC00000000000440D012085D901086C3404087C
:102FD000EDD60108943404088034040858340408F9
:102FE00021E901085DDD0108E537040889D50108FC
:102FF0002F380408403804080F380408C9AB01080A
:10300000A3AE01085825030830000000D1AE010826
:1030100031000000320000003300000034000000E6
:1030200035000000360000003700000038000000C6
:10303000390000004F4B000042434B00B86A0308C0
:10304000AE37040800F08CFFE96E401AB0F57A7FC5
:1030500043D300F085FFE86601200BF039FA002029
:1030600032214FF4F072C8230AF020F9A96EFF2034
:10307000052988BF4FF47F400BF0F8FBDFF874049C
:103080000BF0F8FB02200BF055FC0E200BF048FC77
:10309000F02050210AF062FEDFF85C040AF074FAB6
:1030A000DFF858040BF0E6FB02200BF043FC0E2087
:1030B0000BF036FCF0209C210AF050FEA86E0AF0BE
:1030C00028FA01200BF076FAA86E20B10138A86624
:1030D00003E0FEF705F80620287095F866008007E3
:1030E00023D400F03DFF297D4FF47A7251432A6AC0
:1030F000801A884219D32878092806D0082807D0D2
:10310000072807D1FEF71AFC04E0FEF751FC01E0A6
:10311000FEF73AFCE87CFEF77FFC06202870686E1C
:1031200020F4840000F500306866686A40B100F061
:1031300017FF696A401AB0F5FA7F01D30020686270
:1031400000F00EFFA96A401AB0F57A7F0DD300F0A7
:1031500007FFA8622878012801D8FDF7A5FD686E51
:10316000810302D440F48010686609B0BDE8F08F96
:1031700011B908B100206873A97BE87B81B178B9E7
:103180000120E8739E48817A427B914201D901393E
:1031900081729B48702105F015FAFEF74DFC03E0A3
:1031A00011B908B10020E873686EC1027FF595AFD0
:1031B00020F48010686601200BF08AF94FF4CD707E
:1031C000B9214FF4F072EB230AF070F84FF49B70C2
:1031D000E6214FF4F072FF23FF240AF067F84FF462
:1031E0009B70F2210AF0BAFDC5480BF043FB0C209E
:1031F0000BF096FBDFF8089299F80000022818D02F
:10320000012828D14AF2FF58C526824F4FF47F0487
:1032100013E03020B6E0A86B07F034FE98B3A86B3B
:1032200007F030FE68B306F07DF814200AF04EF97E
:10323000F5E76FF07F48DC26774F20460BF016FB52
:1032400038460AF0A1F940F29F1031460AF086FD97
:1032500040460BF00BFBAB480BF00CFB0C200BF0CB
:103260005FFBB9F902000A2190FBF1F0032100B2E3
:103270000AF072F9A4A00AF087F901200BF09AF97C
:103280002BE731207EE0E86B07F0FCFD58B1E86BDE
:1032900007F0F8FD28B106F045F814200AF016F9F9
:1032A000F5E732206EE0286C07F0ECFD58B1286C91
:1032B00007F0E8FD28B106F035F814200AF006F909
:1032C000F5E733205EE0686C07F0DCFD90B9A86C90
:1032D00007F0D8FDB8B1A86C07F0D4FD88B106F0AE
:1032E00021F814200AF0F2F8F5E706F01BF8142094
:1032F0000AF0ECF8686C07F0C5FD0028F5D1342021
:1033000040E035203EE0E86C07F0BCFD58B1E86CC9
:1033100007F0B8FD28B106F005F832200AF0D6F81B
:10332000F5E736202EE0286D07F0ACFD58B1286D8A
:1033300007F0A8FD28B105F0F5FF14200AF0C6F843
:10334000F5E737201EE0686D07F09CFD58B1686D09
:1033500007F098FD28B105F0E5FF14200AF0B6F853
:10336000F5E738200EE0A86D07F08CFD70B1A86D70
:1033700007F088FD28B105F0D5FF14200AF0A6F863
:10338000F5E73920FEF7CCF9E871A6E6E86D07F01D
:1033900079FD48B9286E07F075FDE8B99DE605F09E
:1033A000C1FF14200AF092F8E86D07F06BFD0028C9
:1033B000F5D14F20FEF7B4F9E871FDF791FEE879F9
:1033C000022810D0012813D0A0B906200EE005F085
:1033D000A9FF14200AF07AF8286E07F053FD0028A0
:1033E000F5D14220CEE7FDF7D5FE0720287001E099
:1033F000022028710020C7E7403A0408440D01204C
:10340000D00B0120EB0B0120C92A02084F464600D1
:1034100063200208FB37040803380408F237040865
:10342000332053504545440097280208EB2A0208F0
:103430003F2B020878380408ED37040860F90208C9
:103440005DDD01085938040889D501089F37040853
:1034500046380408C437040854454D502E207830AF
:103460002E312A430000000046414E204C4F572089
:1034700053504545442042414E4400008B370408D8
:1034800046414E2048492053504545442042414E34
:1034900044000000544845524D4F5354415420437A
:1034A0004F4E54524F4C204D4F44450046414E2004
:1034B000535045454420434F4E54524F4C204D4F9E
:1034C000444500006C0C0120840C0120300C0120CC
:1034D000A8340408BD37040842555320494400006D
:1034E00060370408693704086C380408D9370408C1
:1034F00022380408B86A030870370408C88E030825
:10350000CC140308F0380308C2B0630085D9010861
:10351000F8B50022009290F83C20012A01D1022146
:1035200056E0012280F83C200A681FFA82FC0A2A31
:103530004FEA4C0414FA82F60FD31E3E072404FA15
:1035400006F70468254655F80C3FBB432B60324B09
:103550008F689A420ED13E060EE004680723254686
:10356000B34055F8107F27EA03032B608B6803FAFA
:1035700006F601E007FA06F62B6833432B604D6828
:10358000062D05D805EB850304F134015D1F0CE021
:1035900005EB85060C2D04D804F13001A6F12305B6
:1035A00003E004F12C01A6F141051F230E68AB4096
:1035B00026EA03030B600CFA05F30D682B430B603E
:1035C0006249A1F541739C4204D0002180F83C106F
:1035D0000846F8BD112A09D00F4B9A4206D0122A8C
:1035E000F3D10A6842F480020A60EEE70B6843F404
:1035F00000030B6008498A42E7D1AB49AB4A09682E
:10360000B1FBF2F101EB8101490000910099002921
:10361000DBD000990139F8E712000010002841D0F2
:1036200070B50446006C30B9002084F83C0060643A
:103630002046FEF7B3FC206CC00635D4206C41F266
:1036400002118843414902302064086820F4403068
:10365000086094E80D0025690E6832430A604168ED
:1036600021F480714160416841EA0521416041686F
:1036700021F04071416041681943354B41608168D8
:1036800021F400618160E168826811438160816892
:1036900021F070618160A26A81689A4206D121F0AE
:1036A00040510CE00120704701204AE01143816045
:1036B000816821F040518160E16A82681143816034
:1036C000816821F002018160A169226A836843EA6E
:1036D0004101816041686AB141F400611D4A416065
:1036E000416821F460414160616A02EB4131426806
:1036F000114301E021F400614160174DC16A21F4DA
:103700007001C162E2696169236B05EB0252C56A0F
:103710002A43C262826822F400728260826842EAAE
:1037200043228260826822F480628260826842EA78
:1037300081210122816000206064216C62F301011B
:103740002164002184F83C1070BD00BF04230140B7
:103750000100000F00E0FFFF0000F0FFF8B5044695
:1037600000680D468168490544BF80685FEAC05023
:1037700027D400F0F5FB06466F1C20680168890716
:1037800010D4002FF9D025B100F0EAFB801BA8422D
:10379000F3D9002084F83C00206C40F00400206441
:1037A0000320F8BD6FF012010160216C41F400713B
:1037B0002164816811F0405F01D1A16951B10020FD
:1037C000F8BD002084F83C00206C40F0200020640C
:1037D0000120F8BDC16A11F4700F02D08068400565
:1037E000EDD4206C20F480702064206CC004E6D4FA
:1037F000206C40F001002064E1E7000081B000216E
:10380000009190F83C10012901D1022049E00121EA
:1038100080F83C1001688A68D20710D18A68234B6F
:1038200042F001028A60204A1268B2FBF3F202EB16
:1038300042020092009A12B1009A013AF9E78A68AE
:10384000D2072DD0026C40F201739A4302F58072C8
:1038500002644A68520504D5026C012363F30D32F9
:103860000264026C0023D20444BF436C23F00603BD
:10387000002243646FF022030B6080F83C200C4868
:10388000D0F80423D20603D0814209D1806800E039
:10389000886810F0405F03D1886840F080408860FD
:1038A000002001B0704700BF3C07012040420F00DC
:1038B0000020014010B51F2321FA03F4E40704D1CE
:1038C000013B5C1CF8D14FF0FF330124B4EBF20F45
:1038D00009D04FEAF204022C10D0032C05D1062B9C
:1038E00003D9012010BD0F2BFBD80068416181680E
:1038F00021F0180111438160002010BD072BF0D882
:10390000F3E7000010B588B10446407F20B90020DD
:1039100020772046FEF75DFB02206077207938B1E2
:10392000D4E902122046FFF7C5FF40B1012010BDC7
:1039300020680F494161816821F018018160607938
:1039400008B1206901E04FF0FF302168D4E9052378
:103950000861886820F0600010438860886820F063
:1039600080001843886001206077002010BD00BFF0
:10397000B71DC10470B50446006846680568F107C4
:1039800018BF15F480717DD1B0061AD515F400501A
:1039900017D020686169026822F4005202604FF07B
:1039A00020028260E06B40F00200E0634FF0000014
:1039B00084F838004FF0040084F8390009B120463B
:1039C000884730071AD515F4006017D02068616960
:1039D000026822F4006202604FF008028260E06B2D
:1039E00040F00400E0634FF0000084F838004FF02E
:1039F000040084F8390009B12046884770070CD5C7
:103A000015F4806009D02068016821F480610160AC
:103A1000042181602046FEF7DEFAB00718D515F4C0
:103A2000007015D020682169026822F400720260DB
:103A30004FF002028260E06BE0634FF0000084F818
:103A400038004FF0010084F8390009B1204688475A
:103A5000F00616D515F4805013D02068016821F4C3
:103A60008051016010218160E06BE063002084F8E8
:103A70003800012084F839002046BDE87040FEF788
:103A8000A9BA70BD016821F480710160E16B41F059
:103A90000101E16301218160002084F838000420E5
:103AA00084F83900616900293FF46EAF20468847E9
:103AB0006AE770B50446866D00F052FA054694F840
:103AC000350002281ED12068216C026822F01602FF
:103AD0000260426922F08002426109B9A16C19B109
:103AE000016821F008010160016821F00101016015
:103AF0000068C0070DD000F033FA401B052814D829
:103B00002068F5E7002084F83400802060650120FB
:103B100070BDE06D3F2101FA00F00121B06000208E
:103B200084F8340084F8351070BD202060650020D2
:103B300084F83400032084F8350070BDB0B530B18E
:103B4000054690F83500022803D102241BE0012429
:103B500019E028680024016821F001010160212199
:103B6000046044608460C460046141612846FDF7DC
:103B700099FFE96D3F2202FA01F181606C6585F8D9
:103B8000344085F835402046B0BD00002DE9F041B5
:103B9000044600F0E5F9ACB10546022084F8350092
:103BA000002084F834002168086820F001000860D3
:103BB0000868C00709D000F0D3F9401B052839D8A0
:103BC0002168F5E70120BDE8F081271D0868354A26
:103BD000E8CF00EA020E43EA0E032B43D4E9050CBA
:103BE00033433B43D4E907281843636A40EA0C0097
:103BF000042B40EA020040EA08021FD1D4E90A532C
:103C0000206B1A4340EA0200086051F8140F20F0BC
:103C1000030040EA050040F00402B3B1BCF5005FC8
:103C200024D0BCF1000F31D1022D32D0012D27D08C
:103C30007DB30AE003262027032012E00A6051F832
:103C4000140F20F0070040EA030220460A60FDF747
:103C500029FFE16D3F2202FA01F100278160012670
:103C60000020676584F83560BDE8F081032DECD84D
:103C7000012640270120DFE805F0020C0203F0E7EF
:103C8000A3F1C070B0FA80F0400904E0032D04D322
:103C9000DBD1C3F300600028D7D0012640270120E4
:103CA000DFE700BF3F8010F080B509484FF0FF31DB
:103CB0000022016102614161426101600260416074
:103CC00042608160826000F0E1FF002080BD00BFA3
:103CD000103802401CB5019000F042F9044600F093
:103CE0003FF9001B01998842F9D31CBD2DE9F04F23
:103CF0008E4A4FF00A0A90428D4A024408BF4FF0A4
:103D0000090A4FEAB2234FF0000E092B38BF4FEAE1
:103D1000B22A884A01264FF00F09A2F57E7B4FF0A8
:103D200000080025102D49D006FA05F20A423FD0BE
:103D30000323076803FA0EF46FF00303A74303EAB3
:103D4000550C076008F01C0700EB0C0309FA07F795
:103D50001E6ABE431E628368A34383604368934325
:103D60004360C368A343AC08C36008F00C0309FABE
:103D700003F75BF824603E400AFA03F39E424FF0DB
:103D8000010615D15BF82430D243BB434BF82430F5
:103D9000684B1C461B6813402360636813406360D4
:103DA000A3681340A360644B1C461B681A40226042
:103DB0000EF1020E08F104080135B3E7BDE8F08FFB
:103DC0002DE9F84F594A4FF00A099042584A0244E7
:103DD00008BF4FF009094FEAB2234FF0000E092B3C
:103DE00038BF4FEAB2294FF0010A4FF00F084FF0E9
:103DF000000B0022102A00F096800AFA02F60C68E6
:103E0000344200F08A804F6847F01004122C11D120
:103E10006FF003030BF01C0403EA520508FA04F7E1
:103E20000544D5F820C00B692CEA0707A3403B43A3
:103E30002B624F68032407F0030304FA0EF40568AD
:103E400003FA0EF3A5432B43E443122F036012D869
:103E50000AFA07F313F0061F0DD08368CD682340DC
:103E600005FA0EF52B438360C7F3001345689340B2
:103E7000B5432B434360C36823408C6804FA0EF4B7
:103E80002343C360FB0048D52C4B22F003051C469E
:103E90001B6843F48043274F2360BC4623683D449E
:103EA00003F4804300930BF00C03009F08FA03F423
:103EB000234F09FA03F3B846EF5927EA04042343D2
:103EC00045F808304FF00F08DCF800304D6843EA41
:103ED0000604EF0358BF23EA0604CCF80040DCF8E0
:103EE0000430AF0343EA060458BF23EA0604CCF8C3
:103EF0000440DCF80830EF0243EA060458BF23EA26
:103F00000604CCF808400C4BAD021F461B6843EA80
:103F1000060458BF23EA06043C600EF1020E0BF1C2
:103F2000040B013266E7BDE8F88F00BF00240240B1
:103F30000000FEBF003C01400C3C01404438024000
:103F400008FCFFFF002A08BF0904816170470000D8
:103F5000024800686FF31F30704700BF002004E084
:103F600001480068704700BF0077012001480068E1
:103F7000704700BF20F4F01F01480068704700BF81
:103F800024F4F01F01480068704700BF28F4F01FB8
:103F9000B0B110B50446242084F8410020680168BF
:103FA00021F0010101602046FEF716F80020606450
:103FB00084F84100206384F8400084F8420010BD7A
:103FC0000120704790F841007047000010B3B0B571
:103FD000044690F8410028B9002084F840002046AB
:103FE000FDF7FBFF242084F84100D4E90003D4E965
:103FF0000212056823F0706325F00105012A0560AF
:104000000361836823F40043836005D141F40041D8
:10401000816009E00120704741F40441022A816077
:1040200002D14FF40061416041680F4A114304F12D
:1040300010054160C16821F40041C1602ECD1143DB
:1040400041EA0321C160216A29430160016841F00E
:104050000101016000202021606484F84110206388
:1040600084F84200B0BD00BF008000022DE9FE4F81
:1040700004460020029094F84100202808D12068CE
:1040800089468169090403D494F84010012902D1BA
:104090000220BDE8FE8F24211D4684F84110012135
:1040A000904684F8401000216FF39F295F1C4FF069
:1040B000200A6164E16801294FF4205104BF42F2F3
:1040C0000001C0F2002149444160FFF749FF064664
:1040D0002068816989065CBF81695FEAC1610CD48F
:1040E00094F84110A02908D0002FF1D075B3FFF744
:1040F00037FF801BA842EBD928E0D0F818B0204643
:10410000202100222B46009602F038FD5FEACB61A9
:1041100023D518BB20681021C161C0F81CA00299EA
:104120004A1C414502920ED14168002241F480416F
:104130002B46416020462021009602F01FFD68B901
:104140002068C0F81CA002994145B3D3002084F830
:104150004000202084F8410000E010B10320BDE8B9
:10416000FE8F20682021C161002084F8400084F87F
:104170004110BDE8FE8F00002DE9FE4F044690F887
:10418000410020280ED10C9D0120002D00F0B580AB
:10419000DDF834B0BBF1000F00F0AF8094F84000C0
:1041A000012802D10220BDE8FE8F01201F461646DD
:1041B0008A4684F84000FFF7D3FE814600902046EF
:1041C0004FF400410122192302F0D8FC10B1032062
:1041D000BDE8FE8F22200E9984F8410040204FF068
:1041E000000884F84200C4F84480204665620D4609
:1041F000C4F834803246A4F82AB03B46CDE9001911
:10420000514602F039FC40B184F84080616C0320D3
:10421000042908BF0120BDE8FE8F608DB0F5807FC6
:104220000AD3FF20514620854FF4105000902046BD
:10423000FF224FF0807309E0608D4FF410514FF072
:1042400000732085C2B200912046514602F084FCE2
:104250000026FF272046042100222B46CDF800909F
:1042600002F08CFC0028B2D1616A20684A1C6262AC
:10427000406A0870208D013820850004618DA1F10D
:104280000101618521D1608DF8B120468021002295
:104290002B46CDF8009002F071FC002897D1608D7C
:1042A000B0F5807F07D32785204600965146FF2230
:1042B0004FF0807307E0608D51464FF0007320850A
:1042C000C2B22046009602F047FC608D0028C1D1A2
:1042D000204629464A4602F07AFC002896D12068FA
:1042E0002021C161654B42681A404260002084F879
:1042F000411084F8400084F84200BDE8FE8F00BF02
:104300002DE9FE4F044690F8410020280ED10C9D67
:104310000120002D00F0AF80DDF834B0BBF1000FBC
:1043200000F0A98094F84000012802D10220BDE8E5
:10433000FE8F01201F4616468A4684F84000FFF78C
:104340000FFE8146009020464FF4004101221923C0
:1043500002F014FC10B10320BDE8FE8F21200E995D
:1043600084F8410040204FF0000884F84200C4F86F
:104370004480204665620D46C4F834803246A4F875
:104380002AB03B46CDE90019514602F0ACFB10B112
:1043900084F840805AE0608DB0F5807F09D3FF201B
:1043A00051462085002000902046FF224FF0807368
:1043B00008E0608D00214FF000732085C2B20091AB
:1043C0002046514602F0C8FB0026FF27204629461A
:1043D0004A4602F022FCC8BB616A20684A1C62623D
:1043E00009788162208D013820850004618DA1F15A
:1043F0000101618521D1608DF8B120468021002224
:104400002B46CDF8009002F0B9FB0028A3D1608DB7
:10441000B0F5807F07D32785204600965146FF22BE
:104420004FF0807307E0608D51464FF00073208598
:10443000C2B22046009602F08FFB608D0028C5D1E5
:10444000204629464A4602F0C2FB30B1616C032087
:10445000042908BF0120BDE8FE8F20682021C1612A
:10446000064B42681A404260002084F8411084F8EC
:10447000400084F84200BDE8FE8F00BF00E800FE67
:10448000B0B5C0B104460068D4E901124CF6CC4383
:10449000036045F25553036041608260FFF760FDA1
:1044A00005462068C16841B1FFF75AFD401B30281E
:1044B000F7D90320B0BD0120B0BDE16802698A428E
:1044C00003D14AF6AA21016000E001610020B0BDDD
:1044D00000684AF6AA21016000207047024801687E
:1044E00001310160704700BF0077012080B50748A7
:1044F000016841F400710160032000F005FC0F2009
:1045000000F006F800F0C3FB002080BD003C024034
:1045100010B50446074800684FF47A71B0FBF1F01B
:1045200001F0E2FF4FF0FF302146002200F0D0FB07
:10453000002010BD3C070120F0B590F8A0500224E7
:10454000012D2DD080F8A140012480F8A040342412
:1045500003FB0404842505EBC31E002604F1480C6C
:104560000025BAB1DCF80070013A062F06F1807719
:1045700008BF2E4610C9E3B205F18855334304F451
:104580007F46334304F47F042343046874443E4667
:104590002364E6E70024012180F8A04080F8A11000
:1045A0002046F0BD10B590F8A0400223012C13D096
:1045B00080F8A130036803EBC212D2F8904004F0F7
:1045C0007F44C2F89040C2F8901001215962002344
:1045D00080F8A03080F8A110184610BDF8B50E463E
:1045E00090F8A01004460220012919D084F8A100F7
:1045F000342002FB00401546012731463830342272
:1046000084F8A070FBF7FCFD204631462A4602F0F4
:1046100043FE20684762002084F8A00084F8A1705F
:10462000F8BD10B5044600F087F90020C4F8A400D6
:1046300084F8A00084F8A100002010BD90F8A030FC
:104640000222012B11D080F8A120026802EBC111D7
:10465000D1F8843023F00203C1F884300121516283
:10466000002280F8A02080F8A1101046704790F832
:10467000A0300222012B11D080F8A120026802EBA9
:10468000C111D1F8843043F01003C1F88430012106
:104690005162002280F8A02080F8A11010467047D7
:1046A00090F8A0300222012B11D080F8A1200268DE
:1046B00002EBC111D1F8843043F00203C1F8843019
:1046C00001215162002280F8A02080F8A11010463C
:1046D0007047000090F8A0200221012A0CD080F839
:1046E000A11006490A6842F480320A6000210122C2
:1046F00080F8A01080F8A120084670471868014093
:10470000704710B504460068816B490744BF816B50
:104710005FEA417126D4816B890744BF816B5FEAF0
:10472000817135D4816BC9071CBF816B5FEAC17190
:1047300045D1816B090744BF816B5FEA017100D4E9
:1047400010BD416B21F0080141630821C1630020C5
:1047500084F8A000012084F8A1002046BDE81040A4
:1047600000F0D0B9416B21F0040141630421C16321
:10477000D4F8A40040F00100C4F8A400002084F89C
:10478000A000204684F8A110FFF7BAFF2068C2E716
:10479000416B21F0020141630221C163D4F8A400FE
:1047A00040F00200C4F8A400002084F8A000042017
:1047B00084F8A1002046FFF7A3FF2068B2E7416B11
:1047C00021F0010141630121C163002084F8A000B0
:1047D000204684F8A11000F071F82068A9E70000D5
:1047E000002867D0B0B5044690F8A10028B9002091
:1047F00084F8A000204600F0A1F8022084F8A1006F
:1048000094E80F0011438569194325F070458561CF
:1048100022691143826911438161274982680A40F4
:104820008260D4E9052343EA024283681A43826026
:10483000C2680A40C260C268D4E9073545EA03434A
:104840001A43C26002690A4002610269D4E909356B
:1048500045EA03431A4302614269114041614169DB
:10486000D4E90B2343EA024211434161C16A01F0DA
:104870007F41C16294F8362094F83510120442EA60
:10488000012194F834201144C26A1143C162416B82
:1048900041F004014163416B41F0020141638169D0
:1048A00041F00101816100200121C4F8A40084F8D5
:1048B000A110B0BD0120704700F800F02DE9F047CD
:1048C00080461A4800F108066FF00107184CDFF81F
:1048D00064904FF0FF3A1FB3206800281AD456F8AE
:1048E000081CB26848433168BD1C4843D9F8001021
:1048F00000FB021140462A4600F005F9D8F80000F6
:10490000416A41F0010141622846216809F03CFEFC
:10491000C4F800A0043609F1040904340137DAE7C9
:1049200040460021BDE8F04700F0D4B8A40B0120B8
:104930004007012058370408704700002DE9F04F68
:1049400085B062484FF00E0A4169032541F080614D
:104950000027416102244169E94601F08061DFF8E6
:104960005C8B00910099016841F4000101600168CD
:1049700001F4000100910099016841F0010101601A
:10498000016801F0010100910099016841F0020104
:104990000160016801F0020100910099016841F095
:1049A00004010160016801F00401009100990168AF
:1049B00041F008010160016801F0080100910099CF
:1049C000016841F010010160016801F010010091DF
:1049D0000099016841F020010160016801F02001A7
:1049E00000910099016841F0400101603849006878
:1049F0008B4600F0400000900098CDF810A04FF4D6
:104A00008060039502970194009001F5A0504946FB
:104A1000C047C1204946CDE9035ACDE9014700907E
:104A20000BF50060C04778204946CDE9035ACDE92F
:104A3000014700905846C04709200BF58066049056
:104A400030464946CDE90275CDE90054C0474FF4E0
:104A500070604946CDE9035ACDE9014700903046E0
:104A6000C0474FF40C600BF5C056CDE9035ACDE9B1
:104A70000147009030464946C04708204946CDE9E5
:104A8000035ACDE9014700900BF54060C04709206B
:104A90004946CDE903504FF4A050CDE901470090BD
:104AA0003046C0470BF580550421284600220424D7
:104AB000FFF748FA01204946CDE90277CDE90040E9
:104AC0002846C04705B0BDE8F08F00BF303802402F
:104AD0000000024090F8A0300222012B0ED080F896
:104AE000A1200268536B43F001035363044A116031
:104AF0000022012180F8A02080F8A1101046704704
:104B0000406801407047B0B590F8A03004460220DC
:104B1000012B14D084F8A100342002FB00400125B1
:104B200084F8A050C16500F13801204602F0B4FBC2
:104B300020684562002084F8A00084F8A150B0BD30
:104B4000B0B590F8A03004460220012B14D084F8B0
:104B5000A100342002FB0040012584F8A050C1646C
:104B600000F13801204602F097FB206845620020E2
:104B700084F8A00084F8A150B0BDF8B590F8A0501A
:104B800004460220012D1CD084F8A100342003FB30
:104B90000045012684F8A06045F8381FD5E90A07CA
:104BA0000844B918C5E90102E960204629461A46B9
:104BB00002F072FB20684662002084F8A00084F8AE
:104BC000A160F8BDF8B5044690F8A00002250128C0
:104BD0001AD0342084F8A15003FB00460127002599
:104BE00084F8A07046F8385F2046C6E90A12C6E984
:104BF0000115F26031461A4602F04EFB206847620A
:104C000084F8A05084F8A1702846F8BD0278437853
:104C100010490B60D2B143684B60037B42EA0372D8
:104C2000C37A42EA0362837A42EAC342437B42EA9E
:104C30008342837B42EA4342C37B42EA0342437A94
:104C4000007A42EA032242EA400001E00020486084
:104C50008860704798ED00E0BFF35F8F0A480168F5
:104C600021F48031016000210167704740F00100AC
:104C700005490867086840F480300860BFF34F8F2B
:104C8000BFF36F8F704700BF24ED00E0704770479F
:104C900000280CD400F01F01012202FA01F14009A2
:104CA000034A42F82010BFF34F8FBFF36F8F704756
:104CB00080E100E0002808D400F01F01012202FA80
:104CC00001F14009014A42F82010704700E100E07C
:104CD000B0B5134B4FF0FF351B68C3F30223DC1E46
:104CE00083F0070338BF0024042B28BF042305FAF0
:104CF00003F3994305FA04F3A1409A431143BDE835
:104D0000B04005F007B800BF05494FF6FF030A6839
:104D10001A4060F30A22034810430860704700BF3E
:104D20000CED00E00000FA0505F006F8BCB51848E7
:104D30001B4D016841F080510160006800F0805017
:104D400001900198286840F480302860FFF708F946
:104D500004466868C00306D4FFF702F9001BB0F5EB
:104D60007A7FF6D90FE0286840F400302860FFF71A
:104D7000F7F804466868800307D4FFF7F1F8001BD2
:104D8000B0F57A7FF6D90320BCBD0020BCBD00BFC2
:104D9000403802400248016841F480710160704768
:104DA000007000407CB50446FFF7DAF8054694F839
:104DB000410080074FF000002BD584F840002068A8
:104DC000016849070BD5016821F004010160E06B1F
:104DD000FEF76FFE18B1606C40F00400606420685C
:104DE000A16C02682B4642F00202022602602046B5
:104DF00000910221012203F095F850B92068A16CBE
:104E0000C66020460091202100222B4603F08AF83C
:104E100000B17CBD012084F8410000207CBD7047BA
:104E200080B590F84110890721D5002180F8401005
:104E3000082180F8411001680A6822F4F8120A601B
:104E40000A6852070AD40220C860086840F400309B
:104E50000860086840F00200086008E0C06BD94AAA
:104E600002650A6822F004020A60FDF7B7F8002024
:104E700080BD00BF2DE9FC411D461746884604460B
:104E8000FFF76EF8064694F84000012802D1022090
:104E9000BDE8FC81012084F8400094F8410001281D
:104EA00032D1002020216064422084F84100204655
:104EB00000223346009503F035F830BB97E80E101A
:104EC000206881624262C362C8F828C039690268FA
:104ED00022F4400211434FF0006241F4800101606E
:104EE0002046414602F0A2FE204608210122334618
:104EF00000950825012703F015F830B92068C56032
:104F0000002084F8417000E00220002184F8401065
:104F1000BDE8FC817047F8B515460F460446FFF71B
:104F20001FF8064694F84000012801D10220F8BD80
:104F3000012084F84000022094F84110012921D179
:104F4000002100226164202184F84100204633467C
:104F5000009502F0E7FFA8B920463946002202F08A
:104F600065FE786A20B1012084F84100002009E044
:104F7000204602210122334600950225012702F036
:104F8000D1FF18B1002184F84010F8BD2068C56039
:104F900084F84170EAE710B50446006828B194F837
:104FA0004010012903D1022010BD012010BD0121B4
:104FB00084F84010016821F00101016000F0A6F9B9
:104FC0000020606484F8410084F8400010BD704700
:104FD0007047000010B5016804468A6808685307E6
:104FE00018D510F4802315D094F84100122838D138
:104FF00008468268520763D5E26A002A5CD0606A7C
:10500000421C6262007881F820002068E26A013A5E
:10501000E262EEE7930739D510F4003336D0022070
:10502000C860086820F4E020086094F84100122865
:105030004BD10868400709D5086820F004000860D3
:10504000E06B0068016821F0010101602046FFF774
:10505000E7FE012084F841002046BDE8104000F042
:10506000EFBA94F8410022282AD1084682685207F4
:1050700026D5A26B02B391F82000226B531C236348
:1050800010702068A26B013AA263EFE7130725D5E1
:1050900010F4002322D00820C8600868400206D51A
:1050A000086820F410200860012084F841002046A0
:1050B000BDE8104000F065BA016821F4802101606C
:1050C0002046BDE81040FFF783BF94F84100222836
:1050D00015D1086840072ED4084650E0D30718BF02
:1050E00010F4803317D1D2063ED510F480103BD097
:1050F0001020C8602046BDE8104000F043BA94F884
:105100004100022822D1012084F841002046BDE858
:105110001040FFF7FFBE0120C8600A6822F4702229
:105120000A60626C42F0020262640A68520738D474
:1051300084F8410013E0086820F004000860E06B88
:105140000068016821F0010101601FE094F841004E
:10515000082809D1012084F84100606C60B3204622
:10516000BDE81040FFF733BF10BD91F82000226B5F
:10517000531C236310702068A26B013AA2638068FD
:1051800010F4F85F1CBFA06B0028EED12046FFF79B
:1051900047FE012084F841002046BDE8104000F0A1
:1051A000EFB9E06B074A02650A6822F004020A6060
:1051B000BDE81040FCF712BF2046BDE81040FFF7E5
:1051C0002EBE00BF877D01082DE9FC410446FEF795
:1051D000C7FE3CB1054694F84000012805D10220E5
:1051E000BDE8FC810120BDE8FC81012084F840007D
:1051F00094F8410008B1A06C08E0002084F8400059
:10520000204600F0BDF841F28830A0642168A26811
:105210006FF0FF034FF0000803EB02220B6823F44A
:10522000F8531A432B460A602021009020460022A2
:1052300002F078FE08BBD4E90012D4E903350F6808
:10524000104E3E40334343EA0262E3691A43236A45
:105250001A430D4B0A604A681A4063691A43A369EE
:1052600042EA05421A434A600A6842F001020A60B3
:105270000121C4F8448084F8411084F84080BDE8DE
:10528000FC8100BF2FFFFF00FEF8E0FF7CB5164653
:105290000D460446FEF764FE034694F840000128DC
:1052A00001D102207CBD012084F8400094F8410027
:1052B000012826D1002020216064822084F841004A
:1052C0000022A06C0090204602F02CFED0B920688D
:1052D00071680268082922F0080242EA01020260AD
:1052E00007D1316801631021C160016841F4801168
:1052F0000160204629464FF0406202F097FC0020F2
:1053000000E00220002184F840107CBD70B54620EA
:10531000FFF7BEFC5C20FFF7BBFC15481549016098
:10532000FEF70CFC644C144EA4F580554021284631
:10533000B04728460421B04720464FF48071B0475B
:1053400020464FF40071B04720468021B0472046E8
:105350004021B0470948016841F00201016001683D
:1053600021F002010160016A21F00201016270BDB9
:105370001C0E0120B8640240ED3C010818380240C0
:105380002DE9F04786B04B484FF00A0981684A4C36
:1053900041F00201A4F58056816001AD81684FF0B3
:1053A000400801F00201454F0191019950F8181C85
:1053B00041F0020140F8181C50F8181C21F00201BD
:1053C00040F8181C016841F002010160016801F019
:1053D000020101910199016841F002010160016837
:1053E00001F0020101910199016841F02001016081
:1053F000016801F0200101910199016841F020014B
:105400000160016801F0200101910199016841F0FA
:1054100020010160016801F02001019101990168FA
:1054200041F0200101602946006800F02000019051
:105430000198CDF8149003200490012003900220DD
:1054400002903046CDF80480B8474FF0090A00209A
:10545000CDF814A029460390042001903046B847A7
:105460004FF48070CDF81490019020462946B8473B
:105470004FF40070CDF81490019020462946B847AB
:105480008020CDF814A0019020462946B847204638
:105490002946CDF814A0CDF80480B8475C200F2130
:1054A0000022FFF715FC5C20FFF704FC06B0BDE806
:1054B000F08700BF3038024000140240C13D0108AF
:1054C0002DE9FC41154688460446FEF749FD27684C
:1054D0000646B86994F84010012902D10220BDE8BF
:1054E000FC81012184F8401094F84110012929D150
:1054F0000021B8F1000F616426D02221012284F836
:10550000411039690131A1633969013161637969F8
:1055100062F39B617961C4F83080B861A06BC8B157
:105520002046062101223346009502F0FBFCF8B923
:1055300097F82000216B4A1C22630870A06B013889
:10554000A063EBE7022016E0606C40F008006064A6
:10555000012010E020460221012233460095022559
:1055600002F0E0FC20B92068C5602046FFF71AFC75
:10557000012184F84110002184F84010BDE8FC812D
:105580007047704770472DE9FC4115468846044630
:10559000FEF7E6FC0646276894F84000012802D191
:1055A0000220BDE8FC81012084F8400094F841000D
:1055B000012827D10020B8F1000F606424D0122008
:1055C00084F8410038690130E06238690130A06236
:1055D000C4F82480786920F040607861E06AC8B13E
:1055E0002046042101223346009502F09BFCF8B9C5
:1055F000606A411C6162007887F82000E06A013827
:10560000E062EBE7022016E0606C40F008006064A6
:10561000012010E020460221012233460095022598
:1056200002F080FC20B92068C5602046FFF7BAFB75
:10563000012184F84110002184F84010BDE8FC816C
:10564000704700002DE9FC47D0F800A004465FEA4F
:10565000CA70B24E02D14FF000090BE0B06820F4DE
:105660000000B060606BB1680143B0FA80F04FEAAF
:105670005019B1605FEA0A3002D44FF0000811E01F
:10568000E06BD6F88C1021F44011B0F5801F41EA90
:105690000001B0FA80F04FEA5018C6F88C1008BF2D
:1056A0004FF001095FEACA2011D5206CD6F88C10A2
:1056B00021F44001002841EA0001C6F88C1008BF1F
:1056C0004FF00108B0F5800F08BF4FF001095FEA05
:1056D0008A60574653D5306C914F40F0805030640B
:1056E000306C00F0805001900198386840F4807070
:1056F0003860FEF735FC05463868C00505D4FEF76E
:105700002FFC401B6428F7D9F7E1306F10F440708C
:1057100022D0216B01F4407188421DD0306F316F6F
:1057200041F4803120F440703167316F21F48031D1
:1057300031673067306FC0070ED0FEF711FC0546A9
:1057400041F28837306F800706D4FEF709FC411B11
:105750000320B942F6D9D1E12768206BB2687149BC
:1057600022F4F81200F440730140B3F5407F08BF03
:105770000A43B2606FF31F30316F08433067F80699
:105780000BD5D6F88C0020F08070C6F88C00A06B8A
:10579000D6F88C100843C6F88C00780407D5606EE4
:1057A000D6F8901021F440310843C6F89000380430
:1057B00007D5A06ED6F8901021F440210843C6F812
:1057C0009000F80307D5E06ED6F8901021F4401150
:1057D0000843C6F89000B80307D5206FD6F890109C
:1057E00021F440010843C6F89000780607D5606CA4
:1057F000D6F8901021F003010843C6F8900038064F
:1058000007D5A06CD6F8901021F00C010843C6F81B
:105810009000F80507D5E06CD6F8901021F0300123
:105820000843C6F89000B80507D5206DD6F890104B
:1058300021F0C0010843C6F89000780507D5606DD7
:10584000D6F8901021F440710843C6F8900038054E
:1058500007D5A06DD6F8901021F440610843C6F832
:105860009000F80407D5E06DD6F8901021F440516F
:105870000843C6F89000B80407D5206ED6F89010FB
:1058800021F440410843C6F89000780207D5A06F84
:10589000D6F8901021F080610843C6F89000B80255
:1058A0000DD5E06FD6F8901021F00061B0F1006FD7
:1058B00041EA0001C6F8901008BF4FF001087803D4
:1058C00007D5606FD6F8901021F040710843C6F8F4
:1058D00090000AF08070390208D5D4F88010D6F80C
:1058E000902022F080521143C6F8901030B9B9F1DF
:1058F000000F03D1B7F1007F40F08280306820F0C4
:1059000080603060FEF72CFB0546306800010BD547
:10591000FEF726FB401B6428F7D9EEE00038024072
:1059200000700040FFFCFF0F2068C10712D0616BC0
:1059300081B9D6F88410D6F8842001F4403102F001
:1059400070621144D4E9012341EA821141EA0371F2
:10595000C6F88410010303D5E16BB1F5801F05D0B3
:10596000C1021DD5216CB1F5800F19D1D6F8841074
:10597000D6F8842001F4403102F0E042114462681C
:10598000E36841EA821141EA0361656AC6F884105E
:10599000691ED6F88C2022F01F021143C6F88C1025
:1059A000C10110D5D6F88410D6F8842001F07061BA
:1059B00002F0E04211446268236941EA821141EA3F
:1059C0000341C6F8841080010AD5231D0FCB1B04A8
:1059D00043EA801040EA026040EA0170C6F88400A1
:1059E000306840F080603060FEF7BAFA05463068F3
:1059F000000105D4FEF7B4FA401B6428F7D97CE017
:105A000017F0080008BFB8F1000F79D0306820F017
:105A100080503060FEF7A4FA05463068800005D556
:105A2000FEF79EFA401B6428F7D966E02068010360
:105A300001D5E16B19B1C1021ED5216CE1B9D6F8CF
:105A40008810D6F8882001F4403102F0E042114479
:105A5000A56AD4E9052341EA821141EA0361C6F847
:105A600088106FF0FF01D6F88C2001EB052122F49D
:105A7000F8521143C6F88C10810214D5E16FB1F1D0
:105A8000006F10D1D6F88810D6F8882001F0706128
:105A900002F0E04211446269236A41EA821141EA5C
:105AA0000341C6F88810000718D5D6F88800D6F844
:105AB000881000F0706001F4403108446169E269C7
:105AC00040EA811040EA0270E36AC6F88800D6F81E
:105AD0008C0020F440301843C6F88C00306840F049
